{
	"data": {
		"bytecode": {
			"linkReferences": {},
			"object": "6080604052348015600e575f80fd5b50335f806101000a81548173ffffffffffffffffffffffffffffffffffffffff021916908373ffffffffffffffffffffffffffffffffffffffff1602179055506121578061005b5f395ff3fe608060405260043610610085575f3560e01c806390664d6a1161005857806390664d6a146101335780639589d4641461015b578063dd23400b14610177578063e51dfd90146101b3578063eb38b7b3146101db57610085565b806314d3c7a5146100895780635279371e146100b95780638c748334146100e15780638da5cb5b14610109575b5f80fd5b6100a3600480360381019061009e91906117f3565b610217565b6040516100b09190611882565b60405180910390f35b3480156100c4575f80fd5b506100df60048036038101906100da919061189b565b610220565b005b3480156100ec575f80fd5b5061010760048036038101906101029190611907565b61036b565b005b348015610114575f80fd5b5061011d6104d6565b60405161012a9190611984565b60405180910390f35b34801561013e575f80fd5b5061015960048036038101906101549190611907565b6104f9565b005b6101756004803603810190610170919061189b565b610609565b005b348015610182575f80fd5b5061019d60048036038101906101989190611907565b610766565b6040516101aa9190611882565b60405180910390f35b3480156101be575f80fd5b506101d960048036038101906101d49190611907565b610a5d565b005b3480156101e6575f80fd5b5061020160048036038101906101fc9190611907565b610b7b565b60405161020e9190611882565b60405180910390f35b5f949350505050565b60046040518060a0016040528060015f815461023b906119ca565b91905081905581526020013373ffffffffffffffffffffffffffffffffffffffff16815260200185815260200184815260200183815250908060018154018082558091505060019003905f5260205f2090600502015f909190919091505f820151815f01556020820151816001015f6101000a81548173ffffffffffffffffffffffffffffffffffffffff021916908373ffffffffffffffffffffffffffffffffffffffff1602179055506040820151816002015560608201518160030155608082015181600401908161030f9190611c15565b5050503373ffffffffffffffffffffffffffffffffffffffff167f80a49be05481ef1a555cd6ea5845b05ffa157f18a6e61d3030f9bc5d25f3294a600154858560405161035e93929190611ce4565b60405180910390a2505050565b5f600583815481106103805761037f611d19565b5b905f5260205f20906006020190503373ffffffffffffffffffffffffffffffffffffffff16816001015f9054906101000a900473ffffffffffffffffffffffffffffffffffffffff1673ffffffffffffffffffffffffffffffffffffffff161480156103ee575081815f0154145b61042d576040517f08c379a000000000000000000000000000000000000000000000000000000000815260040161042490611da0565b60405180910390fd5b5f8160040154905061043e84610df1565b3373ffffffffffffffffffffffffffffffffffffffff166108fc8290811502906040515f60405180830381858888f19350505050158015610481573d5f803e3d5ffd5b503373ffffffffffffffffffffffffffffffffffffffff167f5868c0b8c4243c19ec4ab86d6673f3116ac0320303644657c8ade45446f15753846040516104c89190611882565b60405180910390a250505050565b5f8054906101000a900473ffffffffffffffffffffffffffffffffffffffff1681565b5f6006838154811061050e5761050d611d19565b5b905f5260205f2090600b020190503373ffffffffffffffffffffffffffffffffffffffff16816001015f9054906101000a900473ffffffffffffffffffffffffffffffffffffffff1673ffffffffffffffffffffffffffffffffffffffff1614801561057c575081815f0154145b6105bb576040517f08c379a00000000000000000000000000000000000000000000000000000000081526004016105b290611e08565b60405180910390fd5b4381600601819055504381600a01819055507f13ba679b7b0edc3119e5b425d59f1c1644ecb5acb77321fb8b205a36525a47e7826040516105fc9190611882565b60405180910390a1505050565b60056040518060c0016040528060025f8154610624906119ca565b91905081905581526020013373ffffffffffffffffffffffffffffffffffffffff16815260200185815260200184815260200134815260200183815250908060018154018082558091505060019003905f5260205f2090600602015f909190919091505f820151815f01556020820151816001015f6101000a81548173ffffffffffffffffffffffffffffffffffffffff021916908373ffffffffffffffffffffffffffffffffffffffff16021790555060408201518160020155606082015181600301556080820151816004015560a08201518160050190816107089190611c15565b5050503373ffffffffffffffffffffffffffffffffffffffff167f1aa9fda519ac5fbe95b5ac154baa6985ef9883b6b9ed8e01e2f7f2618d816c986002548585346040516107599493929190611e26565b60405180910390a2505050565b5f806006848154811061077c5761077b611d19565b5b905f5260205f2090600b0201905082815f015414801561079f57505f8160070154145b6107de576040517f08c379a00000000000000000000000000000000000000000000000000000000081526004016107d590611ed9565b60405180910390fd5b3373ffffffffffffffffffffffffffffffffffffffff16816001015f9054906101000a900473ffffffffffffffffffffffffffffffffffffffff1673ffffffffffffffffffffffffffffffffffffffff16148061088957503373ffffffffffffffffffffffffffffffffffffffff16816002015f9054906101000a900473ffffffffffffffffffffffffffffffffffffffff1673ffffffffffffffffffffffffffffffffffffffff16145b6108c8576040517f08c379a00000000000000000000000000000000000000000000000000000000081526004016108bf90611e08565b60405180910390fd5b4381600701819055505f6108db85610f7a565b9050816001015f9054906101000a900473ffffffffffffffffffffffffffffffffffffffff1673ffffffffffffffffffffffffffffffffffffffff163373ffffffffffffffffffffffffffffffffffffffff1603610946578082600901546109439190611ef7565b90505b816002015f9054906101000a900473ffffffffffffffffffffffffffffffffffffffff1673ffffffffffffffffffffffffffffffffffffffff163373ffffffffffffffffffffffffffffffffffffffff16036109a6574382600a01819055505b80826009015f8282546109b99190611ef7565b925050819055503373ffffffffffffffffffffffffffffffffffffffff166108fc8290811502906040515f60405180830381858888f19350505050158015610a03573d5f803e3d5ffd5b507f7fb9819bdd579b165bf0a6dc06dac6bcac0ea6c60b3ea9c0492bddbfddbce0808482604051610a35929190611f2a565b60405180910390a15f826009015403610a5257610a5185611238565b5b809250505092915050565b5f60048381548110610a7257610a71611d19565b5b905f5260205f20906005020190503373ffffffffffffffffffffffffffffffffffffffff16816001015f9054906101000a900473ffffffffffffffffffffffffffffffffffffffff1673ffffffffffffffffffffffffffffffffffffffff16148015610ae0575081815f0154145b610b1f576040517f08c379a0000000000000000000000000000000000000000000000000000000008152600401610b1690611da0565b60405180910390fd5b610b28836114a3565b3373ffffffffffffffffffffffffffffffffffffffff167f9a1ba8eee2fe18baf2771a39db4eeb3901c2f7e41a35f785fd86c37cf7fd531883604051610b6e9190611882565b60405180910390a2505050565b5f8060068481548110610b9157610b90611d19565b5b905f5260205f2090600b020190503373ffffffffffffffffffffffffffffffffffffffff16816002015f9054906101000a900473ffffffffffffffffffffffffffffffffffffffff1673ffffffffffffffffffffffffffffffffffffffff161480610c4a57503373ffffffffffffffffffffffffffffffffffffffff16816001015f9054906101000a900473ffffffffffffffffffffffffffffffffffffffff1673ffffffffffffffffffffffffffffffffffffffff16145b8015610c58575082815f0154145b610c97576040517f08c379a0000000000000000000000000000000000000000000000000000000008152600401610c8e90611e08565b60405180910390fd5b5f610ca185610f7a565b9050816002015f9054906101000a900473ffffffffffffffffffffffffffffffffffffffff1673ffffffffffffffffffffffffffffffffffffffff163373ffffffffffffffffffffffffffffffffffffffff16148015610d0157505f8114155b15610db05780826009015f828254610d199190611ef7565b925050819055504282600a01819055503373ffffffffffffffffffffffffffffffffffffffff166108fc8290811502906040515f60405180830381858888f19350505050158015610d6c573d5f803e3d5ffd5b507fe7e8d250336013da155145966290a330229da53af1b843e81ad9bd8c2a5314098482604051610d9e929190611f2a565b60405180910390a18092505050610deb565b6040517f08c379a0000000000000000000000000000000000000000000000000000000008152600401610de290611f9b565b60405180910390fd5b92915050565b6001600580549050610e039190611ef7565b8114610efe5760056001600580549050610e1d9190611ef7565b81548110610e2e57610e2d611d19565b5b905f5260205f20906006020160058281548110610e4e57610e4d611d19565b5b905f5260205f2090600602015f820154815f0155600182015f9054906101000a900473ffffffffffffffffffffffffffffffffffffffff16816001015f6101000a81548173ffffffffffffffffffffffffffffffffffffffff021916908373ffffffffffffffffffffffffffffffffffffffff16021790555060028201548160020155600382015481600301556004820154816004015560058201816005019081610ef99190611fce565b509050505b6005805480610f1057610f0f6120b3565b5b600190038181905f5260205f2090600602015f8082015f9055600182015f6101000a81549073ffffffffffffffffffffffffffffffffffffffff0219169055600282015f9055600382015f9055600482015f9055600582015f610f73919061161b565b5050905550565b5f8060068381548110610f9057610f8f611d19565b5b905f5260205f2090600b0201604051806101600160405290815f8201548152602001600182015f9054906101000a900473ffffffffffffffffffffffffffffffffffffffff1673ffffffffffffffffffffffffffffffffffffffff1673ffffffffffffffffffffffffffffffffffffffff168152602001600282015f9054906101000a900473ffffffffffffffffffffffffffffffffffffffff1673ffffffffffffffffffffffffffffffffffffffff1673ffffffffffffffffffffffffffffffffffffffff16815260200160038201805461106b90611a48565b80601f016020809104026020016040519081016040528092919081815260200182805461109790611a48565b80156110e25780601f106110b9576101008083540402835291602001916110e2565b820191905f5260205f20905b8154815290600101906020018083116110c557829003601f168201915b505050505081526020016004820180546110fb90611a48565b80601f016020809104026020016040519081016040528092919081815260200182805461112790611a48565b80156111725780601f1061114957610100808354040283529160200191611172565b820191905f5260205f20905b81548152906001019060200180831161115557829003601f168201915b505050505081526020016005820154815260200160068201548152602001600782015481526020016008820154815260200160098201548152602001600a8201548152505090505f8160c00151036111cd575f915050611233565b5f4290505f8260e00151146111e4578160e0015190505b5f8260a00151836101000151846101400151846112019190611ef7565b61120b91906120e0565b61121591906120e0565b9050826101200151811061122c5782610120015190505b8093505050505b919050565b600160068054905061124a9190611ef7565b81146113dd57600660016006805490506112649190611ef7565b8154811061127557611274611d19565b5b905f5260205f2090600b02016006828154811061129557611294611d19565b5b905f5260205f2090600b02015f820154815f0155600182015f9054906101000a900473ffffffffffffffffffffffffffffffffffffffff16816001015f6101000a81548173ffffffffffffffffffffffffffffffffffffffff021916908373ffffffffffffffffffffffffffffffffffffffff160217905550600282015f9054906101000a900473ffffffffffffffffffffffffffffffffffffffff16816002015f6101000a81548173ffffffffffffffffffffffffffffffffffffffff021916908373ffffffffffffffffffffffffffffffffffffffff160217905550600382018160030190816113879190611fce565b506004820181600401908161139c9190611fce565b506005820154816005015560068201548160060155600782015481600701556008820154816008015560098201548160090155600a82015481600a01559050505b60068054806113ef576113ee6120b3565b5b600190038181905f5260205f2090600b02015f8082015f9055600182015f6101000a81549073ffffffffffffffffffffffffffffffffffffffff0219169055600282015f6101000a81549073ffffffffffffffffffffffffffffffffffffffff0219169055600382015f611463919061161b565b600482015f611472919061161b565b600582015f9055600682015f9055600782015f9055600882015f9055600982015f9055600a82015f90555050905550565b60016004805490506114b59190611ef7565b81146115a657600460016004805490506114cf9190611ef7565b815481106114e0576114df611d19565b5b905f5260205f20906005020160048281548110611500576114ff611d19565b5b905f5260205f2090600502015f820154815f0155600182015f9054906101000a900473ffffffffffffffffffffffffffffffffffffffff16816001015f6101000a81548173ffffffffffffffffffffffffffffffffffffffff021916908373ffffffffffffffffffffffffffffffffffffffff1602179055506002820154816002015560038201548160030155600482018160040190816115a19190611fce565b509050505b60048054806115b8576115b76120b3565b5b600190038181905f5260205f2090600502015f8082015f9055600182015f6101000a81549073ffffffffffffffffffffffffffffffffffffffff0219169055600282015f9055600382015f9055600482015f611614919061161b565b5050905550565b50805461162790611a48565b5f825580601f106116385750611655565b601f0160209004905f5260205f20908101906116549190611658565b5b50565b5b8082111561166f575f815f905550600101611659565b5090565b5f604051905090565b5f80fd5b5f80fd5b5f819050919050565b61169681611684565b81146116a0575f80fd5b50565b5f813590506116b18161168d565b92915050565b5f80fd5b5f80fd5b5f601f19601f8301169050919050565b7f4e487b71000000000000000000000000000000000000000000000000000000005f52604160045260245ffd5b611705826116bf565b810181811067ffffffffffffffff82111715611724576117236116cf565b5b80604052505050565b5f611736611673565b905061174282826116fc565b919050565b5f67ffffffffffffffff821115611761576117606116cf565b5b61176a826116bf565b9050602081019050919050565b828183375f83830152505050565b5f61179761179284611747565b61172d565b9050828152602081018484840111156117b3576117b26116bb565b5b6117be848285611777565b509392505050565b5f82601f8301126117da576117d96116b7565b5b81356117ea848260208601611785565b91505092915050565b5f805f806080858703121561180b5761180a61167c565b5b5f611818878288016116a3565b9450506020611829878288016116a3565b935050604061183a878288016116a3565b925050606085013567ffffffffffffffff81111561185b5761185a611680565b5b611867878288016117c6565b91505092959194509250565b61187c81611684565b82525050565b5f6020820190506118955f830184611873565b92915050565b5f805f606084860312156118b2576118b161167c565b5b5f6118bf868287016116a3565b93505060206118d0868287016116a3565b925050604084013567ffffffffffffffff8111156118f1576118f0611680565b5b6118fd868287016117c6565b9150509250925092565b5f806040838503121561191d5761191c61167c565b5b5f61192a858286016116a3565b925050602061193b858286016116a3565b9150509250929050565b5f73ffffffffffffffffffffffffffffffffffffffff82169050919050565b5f61196e82611945565b9050919050565b61197e81611964565b82525050565b5f6020820190506119975f830184611975565b92915050565b7f4e487b71000000000000000000000000000000000000000000000000000000005f52601160045260245ffd5b5f6119d482611684565b91507fffffffffffffffffffffffffffffffffffffffffffffffffffffffffffffffff8203611a0657611a0561199d565b5b600182019050919050565b5f81519050919050565b7f4e487b71000000000000000000000000000000000000000000000000000000005f52602260045260245ffd5b5f6002820490506001821680611a5f57607f821691505b602082108103611a7257611a71611a1b565b5b50919050565b5f819050815f5260205f209050919050565b5f6020601f8301049050919050565b5f82821b905092915050565b5f60088302611ad47fffffffffffffffffffffffffffffffffffffffffffffffffffffffffffffffff82611a99565b611ade8683611a99565b95508019841693508086168417925050509392505050565b5f819050919050565b5f611b19611b14611b0f84611684565b611af6565b611684565b9050919050565b5f819050919050565b611b3283611aff565b611b46611b3e82611b20565b848454611aa5565b825550505050565b5f90565b611b5a611b4e565b611b65818484611b29565b505050565b5b81811015611b8857611b7d5f82611b52565b600181019050611b6b565b5050565b601f821115611bcd57611b9e81611a78565b611ba784611a8a565b81016020851015611bb6578190505b611bca611bc285611a8a565b830182611b6a565b50505b505050565b5f82821c905092915050565b5f611bed5f1984600802611bd2565b1980831691505092915050565b5f611c058383611bde565b9150826002028217905092915050565b611c1e82611a11565b67ffffffffffffffff811115611c3757611c366116cf565b5b611c418254611a48565b611c4c828285611b8c565b5f60209050601f831160018114611c7d575f8415611c6b578287015190505b611c758582611bfa565b865550611cdc565b601f198416611c8b86611a78565b5f5b82811015611cb257848901518255600182019150602085019450602081019050611c8d565b86831015611ccf5784890151611ccb601f891682611bde565b8355505b6001600288020188555050505b505050505050565b5f606082019050611cf75f830186611873565b611d046020830185611873565b611d116040830184611873565b949350505050565b7f4e487b71000000000000000000000000000000000000000000000000000000005f52603260045260245ffd5b5f82825260208201905092915050565b7f4e6f7420617574686f72697a656420746f2063616e63656c00000000000000005f82015250565b5f611d8a601883611d46565b9150611d9582611d56565b602082019050919050565b5f6020820190508181035f830152611db781611d7e565b9050919050565b7f556e617574686f72697a656400000000000000000000000000000000000000005f82015250565b5f611df2600c83611d46565b9150611dfd82611dbe565b602082019050919050565b5f6020820190508181035f830152611e1f81611de6565b9050919050565b5f608082019050611e395f830187611873565b611e466020830186611873565b611e536040830185611873565b611e606060830184611873565b95945050505050565b7f436f6e747261637420616c72656164792073746f70706564206f7220696e76615f8201527f6c69640000000000000000000000000000000000000000000000000000000000602082015250565b5f611ec3602383611d46565b9150611ece82611e69565b604082019050919050565b5f6020820190508181035f830152611ef081611eb7565b9050919050565b5f611f0182611684565b9150611f0c83611684565b9250828203905081811115611f2457611f2361199d565b5b92915050565b5f604082019050611f3d5f830185611873565b611f4a6020830184611873565b9392505050565b7f496e76616c6964207769746864726177616c20617474656d70740000000000005f82015250565b5f611f85601a83611d46565b9150611f9082611f51565b602082019050919050565b5f6020820190508181035f830152611fb281611f79565b9050919050565b5f81549050611fc781611a48565b9050919050565b818103611fdc5750506120b1565b611fe582611fb9565b67ffffffffffffffff811115611ffe57611ffd6116cf565b5b6120088254611a48565b612013828285611b8c565b5f601f831160018114612040575f841561202e578287015490505b6120388582611bfa565b8655506120aa565b601f19841661204e87611a78565b965061205986611a78565b5f5b828110156120805784890154825560018201915060018501945060208101905061205b565b8683101561209d5784890154612099601f891682611bde565b8355505b6001600288020188555050505b5050505050505b565b7f4e487b71000000000000000000000000000000000000000000000000000000005f52603160045260245ffd5b5f6120ea82611684565b91506120f583611684565b925082820261210381611684565b9150828204841483151761211a5761211961199d565b5b509291505056fea26469706673582212209d1da1c9d39e6e0a64ae3338876d0f4e077134a469c5b1fc8b96b4643361047d64736f6c634300081a0033",
			"opcodes": "PUSH1 0x80 PUSH1 0x40 MSTORE CALLVALUE DUP1 ISZERO PUSH1 0xE JUMPI PUSH0 DUP1 REVERT JUMPDEST POP CALLER PUSH0 DUP1 PUSH2 0x100 EXP DUP2 SLOAD DUP2 PUSH20 0xFFFFFFFFFFFFFFFFFFFFFFFFFFFFFFFFFFFFFFFF MUL NOT AND SWAP1 DUP4 PUSH20 0xFFFFFFFFFFFFFFFFFFFFFFFFFFFFFFFFFFFFFFFF AND MUL OR SWAP1 SSTORE POP PUSH2 0x2157 DUP1 PUSH2 0x5B PUSH0 CODECOPY PUSH0 RETURN INVALID PUSH1 0x80 PUSH1 0x40 MSTORE PUSH1 0x4 CALLDATASIZE LT PUSH2 0x85 JUMPI PUSH0 CALLDATALOAD PUSH1 0xE0 SHR DUP1 PUSH4 0x90664D6A GT PUSH2 0x58 JUMPI DUP1 PUSH4 0x90664D6A EQ PUSH2 0x133 JUMPI DUP1 PUSH4 0x9589D464 EQ PUSH2 0x15B JUMPI DUP1 PUSH4 0xDD23400B EQ PUSH2 0x177 JUMPI DUP1 PUSH4 0xE51DFD90 EQ PUSH2 0x1B3 JUMPI DUP1 PUSH4 0xEB38B7B3 EQ PUSH2 0x1DB JUMPI PUSH2 0x85 JUMP JUMPDEST DUP1 PUSH4 0x14D3C7A5 EQ PUSH2 0x89 JUMPI DUP1 PUSH4 0x5279371E EQ PUSH2 0xB9 JUMPI DUP1 PUSH4 0x8C748334 EQ PUSH2 0xE1 JUMPI DUP1 PUSH4 0x8DA5CB5B EQ PUSH2 0x109 JUMPI JUMPDEST PUSH0 DUP1 REVERT JUMPDEST PUSH2 0xA3 PUSH1 0x4 DUP1 CALLDATASIZE SUB DUP2 ADD SWAP1 PUSH2 0x9E SWAP2 SWAP1 PUSH2 0x17F3 JUMP JUMPDEST PUSH2 0x217 JUMP JUMPDEST PUSH1 0x40 MLOAD PUSH2 0xB0 SWAP2 SWAP1 PUSH2 0x1882 JUMP JUMPDEST PUSH1 0x40 MLOAD DUP1 SWAP2 SUB SWAP1 RETURN JUMPDEST CALLVALUE DUP1 ISZERO PUSH2 0xC4 JUMPI PUSH0 DUP1 REVERT JUMPDEST POP PUSH2 0xDF PUSH1 0x4 DUP1 CALLDATASIZE SUB DUP2 ADD SWAP1 PUSH2 0xDA SWAP2 SWAP1 PUSH2 0x189B JUMP JUMPDEST PUSH2 0x220 JUMP JUMPDEST STOP JUMPDEST CALLVALUE DUP1 ISZERO PUSH2 0xEC JUMPI PUSH0 DUP1 REVERT JUMPDEST POP PUSH2 0x107 PUSH1 0x4 DUP1 CALLDATASIZE SUB DUP2 ADD SWAP1 PUSH2 0x102 SWAP2 SWAP1 PUSH2 0x1907 JUMP JUMPDEST PUSH2 0x36B JUMP JUMPDEST STOP JUMPDEST CALLVALUE DUP1 ISZERO PUSH2 0x114 JUMPI PUSH0 DUP1 REVERT JUMPDEST POP PUSH2 0x11D PUSH2 0x4D6 JUMP JUMPDEST PUSH1 0x40 MLOAD PUSH2 0x12A SWAP2 SWAP1 PUSH2 0x1984 JUMP JUMPDEST PUSH1 0x40 MLOAD DUP1 SWAP2 SUB SWAP1 RETURN JUMPDEST CALLVALUE DUP1 ISZERO PUSH2 0x13E JUMPI PUSH0 DUP1 REVERT JUMPDEST POP PUSH2 0x159 PUSH1 0x4 DUP1 CALLDATASIZE SUB DUP2 ADD SWAP1 PUSH2 0x154 SWAP2 SWAP1 PUSH2 0x1907 JUMP JUMPDEST PUSH2 0x4F9 JUMP JUMPDEST STOP JUMPDEST PUSH2 0x175 PUSH1 0x4 DUP1 CALLDATASIZE SUB DUP2 ADD SWAP1 PUSH2 0x170 SWAP2 SWAP1 PUSH2 0x189B JUMP JUMPDEST PUSH2 0x609 JUMP JUMPDEST STOP JUMPDEST CALLVALUE DUP1 ISZERO PUSH2 0x182 JUMPI PUSH0 DUP1 REVERT JUMPDEST POP PUSH2 0x19D PUSH1 0x4 DUP1 CALLDATASIZE SUB DUP2 ADD SWAP1 PUSH2 0x198 SWAP2 SWAP1 PUSH2 0x1907 JUMP JUMPDEST PUSH2 0x766 JUMP JUMPDEST PUSH1 0x40 MLOAD PUSH2 0x1AA SWAP2 SWAP1 PUSH2 0x1882 JUMP JUMPDEST PUSH1 0x40 MLOAD DUP1 SWAP2 SUB SWAP1 RETURN JUMPDEST CALLVALUE DUP1 ISZERO PUSH2 0x1BE JUMPI PUSH0 DUP1 REVERT JUMPDEST POP PUSH2 0x1D9 PUSH1 0x4 DUP1 CALLDATASIZE SUB DUP2 ADD SWAP1 PUSH2 0x1D4 SWAP2 SWAP1 PUSH2 0x1907 JUMP JUMPDEST PUSH2 0xA5D JUMP JUMPDEST STOP JUMPDEST CALLVALUE DUP1 ISZERO PUSH2 0x1E6 JUMPI PUSH0 DUP1 REVERT JUMPDEST POP PUSH2 0x201 PUSH1 0x4 DUP1 CALLDATASIZE SUB DUP2 ADD SWAP1 PUSH2 0x1FC SWAP2 SWAP1 PUSH2 0x1907 JUMP JUMPDEST PUSH2 0xB7B JUMP JUMPDEST PUSH1 0x40 MLOAD PUSH2 0x20E SWAP2 SWAP1 PUSH2 0x1882 JUMP JUMPDEST PUSH1 0x40 MLOAD DUP1 SWAP2 SUB SWAP1 RETURN JUMPDEST PUSH0 SWAP5 SWAP4 POP POP POP POP JUMP JUMPDEST PUSH1 0x4 PUSH1 0x40 MLOAD DUP1 PUSH1 0xA0 ADD PUSH1 0x40 MSTORE DUP1 PUSH1 0x1 PUSH0 DUP2 SLOAD PUSH2 0x23B SWAP1 PUSH2 0x19CA JUMP JUMPDEST SWAP2 SWAP1 POP DUP2 SWAP1 SSTORE DUP2 MSTORE PUSH1 0x20 ADD CALLER PUSH20 0xFFFFFFFFFFFFFFFFFFFFFFFFFFFFFFFFFFFFFFFF AND DUP2 MSTORE PUSH1 0x20 ADD DUP6 DUP2 MSTORE PUSH1 0x20 ADD DUP5 DUP2 MSTORE PUSH1 0x20 ADD DUP4 DUP2 MSTORE POP SWAP1 DUP1 PUSH1 0x1 DUP2 SLOAD ADD DUP1 DUP3 SSTORE DUP1 SWAP2 POP POP PUSH1 0x1 SWAP1 SUB SWAP1 PUSH0 MSTORE PUSH1 0x20 PUSH0 KECCAK256 SWAP1 PUSH1 0x5 MUL ADD PUSH0 SWAP1 SWAP2 SWAP1 SWAP2 SWAP1 SWAP2 POP PUSH0 DUP3 ADD MLOAD DUP2 PUSH0 ADD SSTORE PUSH1 0x20 DUP3 ADD MLOAD DUP2 PUSH1 0x1 ADD PUSH0 PUSH2 0x100 EXP DUP2 SLOAD DUP2 PUSH20 0xFFFFFFFFFFFFFFFFFFFFFFFFFFFFFFFFFFFFFFFF MUL NOT AND SWAP1 DUP4 PUSH20 0xFFFFFFFFFFFFFFFFFFFFFFFFFFFFFFFFFFFFFFFF AND MUL OR SWAP1 SSTORE POP PUSH1 0x40 DUP3 ADD MLOAD DUP2 PUSH1 0x2 ADD SSTORE PUSH1 0x60 DUP3 ADD MLOAD DUP2 PUSH1 0x3 ADD SSTORE PUSH1 0x80 DUP3 ADD MLOAD DUP2 PUSH1 0x4 ADD SWAP1 DUP2 PUSH2 0x30F SWAP2 SWAP1 PUSH2 0x1C15 JUMP JUMPDEST POP POP POP CALLER PUSH20 0xFFFFFFFFFFFFFFFFFFFFFFFFFFFFFFFFFFFFFFFF AND PUSH32 0x80A49BE05481EF1A555CD6EA5845B05FFA157F18A6E61D3030F9BC5D25F3294A PUSH1 0x1 SLOAD DUP6 DUP6 PUSH1 0x40 MLOAD PUSH2 0x35E SWAP4 SWAP3 SWAP2 SWAP1 PUSH2 0x1CE4 JUMP JUMPDEST PUSH1 0x40 MLOAD DUP1 SWAP2 SUB SWAP1 LOG2 POP POP POP JUMP JUMPDEST PUSH0 PUSH1 0x5 DUP4 DUP2 SLOAD DUP2 LT PUSH2 0x380 JUMPI PUSH2 0x37F PUSH2 0x1D19 JUMP JUMPDEST JUMPDEST SWAP1 PUSH0 MSTORE PUSH1 0x20 PUSH0 KECCAK256 SWAP1 PUSH1 0x6 MUL ADD SWAP1 POP CALLER PUSH20 0xFFFFFFFFFFFFFFFFFFFFFFFFFFFFFFFFFFFFFFFF AND DUP2 PUSH1 0x1 ADD PUSH0 SWAP1 SLOAD SWAP1 PUSH2 0x100 EXP SWAP1 DIV PUSH20 0xFFFFFFFFFFFFFFFFFFFFFFFFFFFFFFFFFFFFFFFF AND PUSH20 0xFFFFFFFFFFFFFFFFFFFFFFFFFFFFFFFFFFFFFFFF AND EQ DUP1 ISZERO PUSH2 0x3EE JUMPI POP DUP2 DUP2 PUSH0 ADD SLOAD EQ JUMPDEST PUSH2 0x42D JUMPI PUSH1 0x40 MLOAD PUSH32 0x8C379A000000000000000000000000000000000000000000000000000000000 DUP2 MSTORE PUSH1 0x4 ADD PUSH2 0x424 SWAP1 PUSH2 0x1DA0 JUMP JUMPDEST PUSH1 0x40 MLOAD DUP1 SWAP2 SUB SWAP1 REVERT JUMPDEST PUSH0 DUP2 PUSH1 0x4 ADD SLOAD SWAP1 POP PUSH2 0x43E DUP5 PUSH2 0xDF1 JUMP JUMPDEST CALLER PUSH20 0xFFFFFFFFFFFFFFFFFFFFFFFFFFFFFFFFFFFFFFFF AND PUSH2 0x8FC DUP3 SWAP1 DUP2 ISZERO MUL SWAP1 PUSH1 0x40 MLOAD PUSH0 PUSH1 0x40 MLOAD DUP1 DUP4 SUB DUP2 DUP6 DUP9 DUP9 CALL SWAP4 POP POP POP POP ISZERO DUP1 ISZERO PUSH2 0x481 JUMPI RETURNDATASIZE PUSH0 DUP1 RETURNDATACOPY RETURNDATASIZE PUSH0 REVERT JUMPDEST POP CALLER PUSH20 0xFFFFFFFFFFFFFFFFFFFFFFFFFFFFFFFFFFFFFFFF AND PUSH32 0x5868C0B8C4243C19EC4AB86D6673F3116AC0320303644657C8ADE45446F15753 DUP5 PUSH1 0x40 MLOAD PUSH2 0x4C8 SWAP2 SWAP1 PUSH2 0x1882 JUMP JUMPDEST PUSH1 0x40 MLOAD DUP1 SWAP2 SUB SWAP1 LOG2 POP POP POP POP JUMP JUMPDEST PUSH0 DUP1 SLOAD SWAP1 PUSH2 0x100 EXP SWAP1 DIV PUSH20 0xFFFFFFFFFFFFFFFFFFFFFFFFFFFFFFFFFFFFFFFF AND DUP2 JUMP JUMPDEST PUSH0 PUSH1 0x6 DUP4 DUP2 SLOAD DUP2 LT PUSH2 0x50E JUMPI PUSH2 0x50D PUSH2 0x1D19 JUMP JUMPDEST JUMPDEST SWAP1 PUSH0 MSTORE PUSH1 0x20 PUSH0 KECCAK256 SWAP1 PUSH1 0xB MUL ADD SWAP1 POP CALLER PUSH20 0xFFFFFFFFFFFFFFFFFFFFFFFFFFFFFFFFFFFFFFFF AND DUP2 PUSH1 0x1 ADD PUSH0 SWAP1 SLOAD SWAP1 PUSH2 0x100 EXP SWAP1 DIV PUSH20 0xFFFFFFFFFFFFFFFFFFFFFFFFFFFFFFFFFFFFFFFF AND PUSH20 0xFFFFFFFFFFFFFFFFFFFFFFFFFFFFFFFFFFFFFFFF AND EQ DUP1 ISZERO PUSH2 0x57C JUMPI POP DUP2 DUP2 PUSH0 ADD SLOAD EQ JUMPDEST PUSH2 0x5BB JUMPI PUSH1 0x40 MLOAD PUSH32 0x8C379A000000000000000000000000000000000000000000000000000000000 DUP2 MSTORE PUSH1 0x4 ADD PUSH2 0x5B2 SWAP1 PUSH2 0x1E08 JUMP JUMPDEST PUSH1 0x40 MLOAD DUP1 SWAP2 SUB SWAP1 REVERT JUMPDEST NUMBER DUP2 PUSH1 0x6 ADD DUP2 SWAP1 SSTORE POP NUMBER DUP2 PUSH1 0xA ADD DUP2 SWAP1 SSTORE POP PUSH32 0x13BA679B7B0EDC3119E5B425D59F1C1644ECB5ACB77321FB8B205A36525A47E7 DUP3 PUSH1 0x40 MLOAD PUSH2 0x5FC SWAP2 SWAP1 PUSH2 0x1882 JUMP JUMPDEST PUSH1 0x40 MLOAD DUP1 SWAP2 SUB SWAP1 LOG1 POP POP POP JUMP JUMPDEST PUSH1 0x5 PUSH1 0x40 MLOAD DUP1 PUSH1 0xC0 ADD PUSH1 0x40 MSTORE DUP1 PUSH1 0x2 PUSH0 DUP2 SLOAD PUSH2 0x624 SWAP1 PUSH2 0x19CA JUMP JUMPDEST SWAP2 SWAP1 POP DUP2 SWAP1 SSTORE DUP2 MSTORE PUSH1 0x20 ADD CALLER PUSH20 0xFFFFFFFFFFFFFFFFFFFFFFFFFFFFFFFFFFFFFFFF AND DUP2 MSTORE PUSH1 0x20 ADD DUP6 DUP2 MSTORE PUSH1 0x20 ADD DUP5 DUP2 MSTORE PUSH1 0x20 ADD CALLVALUE DUP2 MSTORE PUSH1 0x20 ADD DUP4 DUP2 MSTORE POP SWAP1 DUP1 PUSH1 0x1 DUP2 SLOAD ADD DUP1 DUP3 SSTORE DUP1 SWAP2 POP POP PUSH1 0x1 SWAP1 SUB SWAP1 PUSH0 MSTORE PUSH1 0x20 PUSH0 KECCAK256 SWAP1 PUSH1 0x6 MUL ADD PUSH0 SWAP1 SWAP2 SWAP1 SWAP2 SWAP1 SWAP2 POP PUSH0 DUP3 ADD MLOAD DUP2 PUSH0 ADD SSTORE PUSH1 0x20 DUP3 ADD MLOAD DUP2 PUSH1 0x1 ADD PUSH0 PUSH2 0x100 EXP DUP2 SLOAD DUP2 PUSH20 0xFFFFFFFFFFFFFFFFFFFFFFFFFFFFFFFFFFFFFFFF MUL NOT AND SWAP1 DUP4 PUSH20 0xFFFFFFFFFFFFFFFFFFFFFFFFFFFFFFFFFFFFFFFF AND MUL OR SWAP1 SSTORE POP PUSH1 0x40 DUP3 ADD MLOAD DUP2 PUSH1 0x2 ADD SSTORE PUSH1 0x60 DUP3 ADD MLOAD DUP2 PUSH1 0x3 ADD SSTORE PUSH1 0x80 DUP3 ADD MLOAD DUP2 PUSH1 0x4 ADD SSTORE PUSH1 0xA0 DUP3 ADD MLOAD DUP2 PUSH1 0x5 ADD SWAP1 DUP2 PUSH2 0x708 SWAP2 SWAP1 PUSH2 0x1C15 JUMP JUMPDEST POP POP POP CALLER PUSH20 0xFFFFFFFFFFFFFFFFFFFFFFFFFFFFFFFFFFFFFFFF AND PUSH32 0x1AA9FDA519AC5FBE95B5AC154BAA6985EF9883B6B9ED8E01E2F7F2618D816C98 PUSH1 0x2 SLOAD DUP6 DUP6 CALLVALUE PUSH1 0x40 MLOAD PUSH2 0x759 SWAP5 SWAP4 SWAP3 SWAP2 SWAP1 PUSH2 0x1E26 JUMP JUMPDEST PUSH1 0x40 MLOAD DUP1 SWAP2 SUB SWAP1 LOG2 POP POP POP JUMP JUMPDEST PUSH0 DUP1 PUSH1 0x6 DUP5 DUP2 SLOAD DUP2 LT PUSH2 0x77C JUMPI PUSH2 0x77B PUSH2 0x1D19 JUMP JUMPDEST JUMPDEST SWAP1 PUSH0 MSTORE PUSH1 0x20 PUSH0 KECCAK256 SWAP1 PUSH1 0xB MUL ADD SWAP1 POP DUP3 DUP2 PUSH0 ADD SLOAD EQ DUP1 ISZERO PUSH2 0x79F JUMPI POP PUSH0 DUP2 PUSH1 0x7 ADD SLOAD EQ JUMPDEST PUSH2 0x7DE JUMPI PUSH1 0x40 MLOAD PUSH32 0x8C379A000000000000000000000000000000000000000000000000000000000 DUP2 MSTORE PUSH1 0x4 ADD PUSH2 0x7D5 SWAP1 PUSH2 0x1ED9 JUMP JUMPDEST PUSH1 0x40 MLOAD DUP1 SWAP2 SUB SWAP1 REVERT JUMPDEST CALLER PUSH20 0xFFFFFFFFFFFFFFFFFFFFFFFFFFFFFFFFFFFFFFFF AND DUP2 PUSH1 0x1 ADD PUSH0 SWAP1 SLOAD SWAP1 PUSH2 0x100 EXP SWAP1 DIV PUSH20 0xFFFFFFFFFFFFFFFFFFFFFFFFFFFFFFFFFFFFFFFF AND PUSH20 0xFFFFFFFFFFFFFFFFFFFFFFFFFFFFFFFFFFFFFFFF AND EQ DUP1 PUSH2 0x889 JUMPI POP CALLER PUSH20 0xFFFFFFFFFFFFFFFFFFFFFFFFFFFFFFFFFFFFFFFF AND DUP2 PUSH1 0x2 ADD PUSH0 SWAP1 SLOAD SWAP1 PUSH2 0x100 EXP SWAP1 DIV PUSH20 0xFFFFFFFFFFFFFFFFFFFFFFFFFFFFFFFFFFFFFFFF AND PUSH20 0xFFFFFFFFFFFFFFFFFFFFFFFFFFFFFFFFFFFFFFFF AND EQ JUMPDEST PUSH2 0x8C8 JUMPI PUSH1 0x40 MLOAD PUSH32 0x8C379A000000000000000000000000000000000000000000000000000000000 DUP2 MSTORE PUSH1 0x4 ADD PUSH2 0x8BF SWAP1 PUSH2 0x1E08 JUMP JUMPDEST PUSH1 0x40 MLOAD DUP1 SWAP2 SUB SWAP1 REVERT JUMPDEST NUMBER DUP2 PUSH1 0x7 ADD DUP2 SWAP1 SSTORE POP PUSH0 PUSH2 0x8DB DUP6 PUSH2 0xF7A JUMP JUMPDEST SWAP1 POP DUP2 PUSH1 0x1 ADD PUSH0 SWAP1 SLOAD SWAP1 PUSH2 0x100 EXP SWAP1 DIV PUSH20 0xFFFFFFFFFFFFFFFFFFFFFFFFFFFFFFFFFFFFFFFF AND PUSH20 0xFFFFFFFFFFFFFFFFFFFFFFFFFFFFFFFFFFFFFFFF AND CALLER PUSH20 0xFFFFFFFFFFFFFFFFFFFFFFFFFFFFFFFFFFFFFFFF AND SUB PUSH2 0x946 JUMPI DUP1 DUP3 PUSH1 0x9 ADD SLOAD PUSH2 0x943 SWAP2 SWAP1 PUSH2 0x1EF7 JUMP JUMPDEST SWAP1 POP JUMPDEST DUP2 PUSH1 0x2 ADD PUSH0 SWAP1 SLOAD SWAP1 PUSH2 0x100 EXP SWAP1 DIV PUSH20 0xFFFFFFFFFFFFFFFFFFFFFFFFFFFFFFFFFFFFFFFF AND PUSH20 0xFFFFFFFFFFFFFFFFFFFFFFFFFFFFFFFFFFFFFFFF AND CALLER PUSH20 0xFFFFFFFFFFFFFFFFFFFFFFFFFFFFFFFFFFFFFFFF AND SUB PUSH2 0x9A6 JUMPI NUMBER DUP3 PUSH1 0xA ADD DUP2 SWAP1 SSTORE POP JUMPDEST DUP1 DUP3 PUSH1 0x9 ADD PUSH0 DUP3 DUP3 SLOAD PUSH2 0x9B9 SWAP2 SWAP1 PUSH2 0x1EF7 JUMP JUMPDEST SWAP3 POP POP DUP2 SWAP1 SSTORE POP CALLER PUSH20 0xFFFFFFFFFFFFFFFFFFFFFFFFFFFFFFFFFFFFFFFF AND PUSH2 0x8FC DUP3 SWAP1 DUP2 ISZERO MUL SWAP1 PUSH1 0x40 MLOAD PUSH0 PUSH1 0x40 MLOAD DUP1 DUP4 SUB DUP2 DUP6 DUP9 DUP9 CALL SWAP4 POP POP POP POP ISZERO DUP1 ISZERO PUSH2 0xA03 JUMPI RETURNDATASIZE PUSH0 DUP1 RETURNDATACOPY RETURNDATASIZE PUSH0 REVERT JUMPDEST POP PUSH32 0x7FB9819BDD579B165BF0A6DC06DAC6BCAC0EA6C60B3EA9C0492BDDBFDDBCE080 DUP5 DUP3 PUSH1 0x40 MLOAD PUSH2 0xA35 SWAP3 SWAP2 SWAP1 PUSH2 0x1F2A JUMP JUMPDEST PUSH1 0x40 MLOAD DUP1 SWAP2 SUB SWAP1 LOG1 PUSH0 DUP3 PUSH1 0x9 ADD SLOAD SUB PUSH2 0xA52 JUMPI PUSH2 0xA51 DUP6 PUSH2 0x1238 JUMP JUMPDEST JUMPDEST DUP1 SWAP3 POP POP POP SWAP3 SWAP2 POP POP JUMP JUMPDEST PUSH0 PUSH1 0x4 DUP4 DUP2 SLOAD DUP2 LT PUSH2 0xA72 JUMPI PUSH2 0xA71 PUSH2 0x1D19 JUMP JUMPDEST JUMPDEST SWAP1 PUSH0 MSTORE PUSH1 0x20 PUSH0 KECCAK256 SWAP1 PUSH1 0x5 MUL ADD SWAP1 POP CALLER PUSH20 0xFFFFFFFFFFFFFFFFFFFFFFFFFFFFFFFFFFFFFFFF AND DUP2 PUSH1 0x1 ADD PUSH0 SWAP1 SLOAD SWAP1 PUSH2 0x100 EXP SWAP1 DIV PUSH20 0xFFFFFFFFFFFFFFFFFFFFFFFFFFFFFFFFFFFFFFFF AND PUSH20 0xFFFFFFFFFFFFFFFFFFFFFFFFFFFFFFFFFFFFFFFF AND EQ DUP1 ISZERO PUSH2 0xAE0 JUMPI POP DUP2 DUP2 PUSH0 ADD SLOAD EQ JUMPDEST PUSH2 0xB1F JUMPI PUSH1 0x40 MLOAD PUSH32 0x8C379A000000000000000000000000000000000000000000000000000000000 DUP2 MSTORE PUSH1 0x4 ADD PUSH2 0xB16 SWAP1 PUSH2 0x1DA0 JUMP JUMPDEST PUSH1 0x40 MLOAD DUP1 SWAP2 SUB SWAP1 REVERT JUMPDEST PUSH2 0xB28 DUP4 PUSH2 0x14A3 JUMP JUMPDEST CALLER PUSH20 0xFFFFFFFFFFFFFFFFFFFFFFFFFFFFFFFFFFFFFFFF AND PUSH32 0x9A1BA8EEE2FE18BAF2771A39DB4EEB3901C2F7E41A35F785FD86C37CF7FD5318 DUP4 PUSH1 0x40 MLOAD PUSH2 0xB6E SWAP2 SWAP1 PUSH2 0x1882 JUMP JUMPDEST PUSH1 0x40 MLOAD DUP1 SWAP2 SUB SWAP1 LOG2 POP POP POP JUMP JUMPDEST PUSH0 DUP1 PUSH1 0x6 DUP5 DUP2 SLOAD DUP2 LT PUSH2 0xB91 JUMPI PUSH2 0xB90 PUSH2 0x1D19 JUMP JUMPDEST JUMPDEST SWAP1 PUSH0 MSTORE PUSH1 0x20 PUSH0 KECCAK256 SWAP1 PUSH1 0xB MUL ADD SWAP1 POP CALLER PUSH20 0xFFFFFFFFFFFFFFFFFFFFFFFFFFFFFFFFFFFFFFFF AND DUP2 PUSH1 0x2 ADD PUSH0 SWAP1 SLOAD SWAP1 PUSH2 0x100 EXP SWAP1 DIV PUSH20 0xFFFFFFFFFFFFFFFFFFFFFFFFFFFFFFFFFFFFFFFF AND PUSH20 0xFFFFFFFFFFFFFFFFFFFFFFFFFFFFFFFFFFFFFFFF AND EQ DUP1 PUSH2 0xC4A JUMPI POP CALLER PUSH20 0xFFFFFFFFFFFFFFFFFFFFFFFFFFFFFFFFFFFFFFFF AND DUP2 PUSH1 0x1 ADD PUSH0 SWAP1 SLOAD SWAP1 PUSH2 0x100 EXP SWAP1 DIV PUSH20 0xFFFFFFFFFFFFFFFFFFFFFFFFFFFFFFFFFFFFFFFF AND PUSH20 0xFFFFFFFFFFFFFFFFFFFFFFFFFFFFFFFFFFFFFFFF AND EQ JUMPDEST DUP1 ISZERO PUSH2 0xC58 JUMPI POP DUP3 DUP2 PUSH0 ADD SLOAD EQ JUMPDEST PUSH2 0xC97 JUMPI PUSH1 0x40 MLOAD PUSH32 0x8C379A000000000000000000000000000000000000000000000000000000000 DUP2 MSTORE PUSH1 0x4 ADD PUSH2 0xC8E SWAP1 PUSH2 0x1E08 JUMP JUMPDEST PUSH1 0x40 MLOAD DUP1 SWAP2 SUB SWAP1 REVERT JUMPDEST PUSH0 PUSH2 0xCA1 DUP6 PUSH2 0xF7A JUMP JUMPDEST SWAP1 POP DUP2 PUSH1 0x2 ADD PUSH0 SWAP1 SLOAD SWAP1 PUSH2 0x100 EXP SWAP1 DIV PUSH20 0xFFFFFFFFFFFFFFFFFFFFFFFFFFFFFFFFFFFFFFFF AND PUSH20 0xFFFFFFFFFFFFFFFFFFFFFFFFFFFFFFFFFFFFFFFF AND CALLER PUSH20 0xFFFFFFFFFFFFFFFFFFFFFFFFFFFFFFFFFFFFFFFF AND EQ DUP1 ISZERO PUSH2 0xD01 JUMPI POP PUSH0 DUP2 EQ ISZERO JUMPDEST ISZERO PUSH2 0xDB0 JUMPI DUP1 DUP3 PUSH1 0x9 ADD PUSH0 DUP3 DUP3 SLOAD PUSH2 0xD19 SWAP2 SWAP1 PUSH2 0x1EF7 JUMP JUMPDEST SWAP3 POP POP DUP2 SWAP1 SSTORE POP TIMESTAMP DUP3 PUSH1 0xA ADD DUP2 SWAP1 SSTORE POP CALLER PUSH20 0xFFFFFFFFFFFFFFFFFFFFFFFFFFFFFFFFFFFFFFFF AND PUSH2 0x8FC DUP3 SWAP1 DUP2 ISZERO MUL SWAP1 PUSH1 0x40 MLOAD PUSH0 PUSH1 0x40 MLOAD DUP1 DUP4 SUB DUP2 DUP6 DUP9 DUP9 CALL SWAP4 POP POP POP POP ISZERO DUP1 ISZERO PUSH2 0xD6C JUMPI RETURNDATASIZE PUSH0 DUP1 RETURNDATACOPY RETURNDATASIZE PUSH0 REVERT JUMPDEST POP PUSH32 0xE7E8D250336013DA155145966290A330229DA53AF1B843E81AD9BD8C2A531409 DUP5 DUP3 PUSH1 0x40 MLOAD PUSH2 0xD9E SWAP3 SWAP2 SWAP1 PUSH2 0x1F2A JUMP JUMPDEST PUSH1 0x40 MLOAD DUP1 SWAP2 SUB SWAP1 LOG1 DUP1 SWAP3 POP POP POP PUSH2 0xDEB JUMP JUMPDEST PUSH1 0x40 MLOAD PUSH32 0x8C379A000000000000000000000000000000000000000000000000000000000 DUP2 MSTORE PUSH1 0x4 ADD PUSH2 0xDE2 SWAP1 PUSH2 0x1F9B JUMP JUMPDEST PUSH1 0x40 MLOAD DUP1 SWAP2 SUB SWAP1 REVERT JUMPDEST SWAP3 SWAP2 POP POP JUMP JUMPDEST PUSH1 0x1 PUSH1 0x5 DUP1 SLOAD SWAP1 POP PUSH2 0xE03 SWAP2 SWAP1 PUSH2 0x1EF7 JUMP JUMPDEST DUP2 EQ PUSH2 0xEFE JUMPI PUSH1 0x5 PUSH1 0x1 PUSH1 0x5 DUP1 SLOAD SWAP1 POP PUSH2 0xE1D SWAP2 SWAP1 PUSH2 0x1EF7 JUMP JUMPDEST DUP2 SLOAD DUP2 LT PUSH2 0xE2E JUMPI PUSH2 0xE2D PUSH2 0x1D19 JUMP JUMPDEST JUMPDEST SWAP1 PUSH0 MSTORE PUSH1 0x20 PUSH0 KECCAK256 SWAP1 PUSH1 0x6 MUL ADD PUSH1 0x5 DUP3 DUP2 SLOAD DUP2 LT PUSH2 0xE4E JUMPI PUSH2 0xE4D PUSH2 0x1D19 JUMP JUMPDEST JUMPDEST SWAP1 PUSH0 MSTORE PUSH1 0x20 PUSH0 KECCAK256 SWAP1 PUSH1 0x6 MUL ADD PUSH0 DUP3 ADD SLOAD DUP2 PUSH0 ADD SSTORE PUSH1 0x1 DUP3 ADD PUSH0 SWAP1 SLOAD SWAP1 PUSH2 0x100 EXP SWAP1 DIV PUSH20 0xFFFFFFFFFFFFFFFFFFFFFFFFFFFFFFFFFFFFFFFF AND DUP2 PUSH1 0x1 ADD PUSH0 PUSH2 0x100 EXP DUP2 SLOAD DUP2 PUSH20 0xFFFFFFFFFFFFFFFFFFFFFFFFFFFFFFFFFFFFFFFF MUL NOT AND SWAP1 DUP4 PUSH20 0xFFFFFFFFFFFFFFFFFFFFFFFFFFFFFFFFFFFFFFFF AND MUL OR SWAP1 SSTORE POP PUSH1 0x2 DUP3 ADD SLOAD DUP2 PUSH1 0x2 ADD SSTORE PUSH1 0x3 DUP3 ADD SLOAD DUP2 PUSH1 0x3 ADD SSTORE PUSH1 0x4 DUP3 ADD SLOAD DUP2 PUSH1 0x4 ADD SSTORE PUSH1 0x5 DUP3 ADD DUP2 PUSH1 0x5 ADD SWAP1 DUP2 PUSH2 0xEF9 SWAP2 SWAP1 PUSH2 0x1FCE JUMP JUMPDEST POP SWAP1 POP POP JUMPDEST PUSH1 0x5 DUP1 SLOAD DUP1 PUSH2 0xF10 JUMPI PUSH2 0xF0F PUSH2 0x20B3 JUMP JUMPDEST JUMPDEST PUSH1 0x1 SWAP1 SUB DUP2 DUP2 SWAP1 PUSH0 MSTORE PUSH1 0x20 PUSH0 KECCAK256 SWAP1 PUSH1 0x6 MUL ADD PUSH0 DUP1 DUP3 ADD PUSH0 SWAP1 SSTORE PUSH1 0x1 DUP3 ADD PUSH0 PUSH2 0x100 EXP DUP2 SLOAD SWAP1 PUSH20 0xFFFFFFFFFFFFFFFFFFFFFFFFFFFFFFFFFFFFFFFF MUL NOT AND SWAP1 SSTORE PUSH1 0x2 DUP3 ADD PUSH0 SWAP1 SSTORE PUSH1 0x3 DUP3 ADD PUSH0 SWAP1 SSTORE PUSH1 0x4 DUP3 ADD PUSH0 SWAP1 SSTORE PUSH1 0x5 DUP3 ADD PUSH0 PUSH2 0xF73 SWAP2 SWAP1 PUSH2 0x161B JUMP JUMPDEST POP POP SWAP1 SSTORE POP JUMP JUMPDEST PUSH0 DUP1 PUSH1 0x6 DUP4 DUP2 SLOAD DUP2 LT PUSH2 0xF90 JUMPI PUSH2 0xF8F PUSH2 0x1D19 JUMP JUMPDEST JUMPDEST SWAP1 PUSH0 MSTORE PUSH1 0x20 PUSH0 KECCAK256 SWAP1 PUSH1 0xB MUL ADD PUSH1 0x40 MLOAD DUP1 PUSH2 0x160 ADD PUSH1 0x40 MSTORE SWAP1 DUP2 PUSH0 DUP3 ADD SLOAD DUP2 MSTORE PUSH1 0x20 ADD PUSH1 0x1 DUP3 ADD PUSH0 SWAP1 SLOAD SWAP1 PUSH2 0x100 EXP SWAP1 DIV PUSH20 0xFFFFFFFFFFFFFFFFFFFFFFFFFFFFFFFFFFFFFFFF AND PUSH20 0xFFFFFFFFFFFFFFFFFFFFFFFFFFFFFFFFFFFFFFFF AND PUSH20 0xFFFFFFFFFFFFFFFFFFFFFFFFFFFFFFFFFFFFFFFF AND DUP2 MSTORE PUSH1 0x20 ADD PUSH1 0x2 DUP3 ADD PUSH0 SWAP1 SLOAD SWAP1 PUSH2 0x100 EXP SWAP1 DIV PUSH20 0xFFFFFFFFFFFFFFFFFFFFFFFFFFFFFFFFFFFFFFFF AND PUSH20 0xFFFFFFFFFFFFFFFFFFFFFFFFFFFFFFFFFFFFFFFF AND PUSH20 0xFFFFFFFFFFFFFFFFFFFFFFFFFFFFFFFFFFFFFFFF AND DUP2 MSTORE PUSH1 0x20 ADD PUSH1 0x3 DUP3 ADD DUP1 SLOAD PUSH2 0x106B SWAP1 PUSH2 0x1A48 JUMP JUMPDEST DUP1 PUSH1 0x1F ADD PUSH1 0x20 DUP1 SWAP2 DIV MUL PUSH1 0x20 ADD PUSH1 0x40 MLOAD SWAP1 DUP2 ADD PUSH1 0x40 MSTORE DUP1 SWAP3 SWAP2 SWAP1 DUP2 DUP2 MSTORE PUSH1 0x20 ADD DUP3 DUP1 SLOAD PUSH2 0x1097 SWAP1 PUSH2 0x1A48 JUMP JUMPDEST DUP1 ISZERO PUSH2 0x10E2 JUMPI DUP1 PUSH1 0x1F LT PUSH2 0x10B9 JUMPI PUSH2 0x100 DUP1 DUP4 SLOAD DIV MUL DUP4 MSTORE SWAP2 PUSH1 0x20 ADD SWAP2 PUSH2 0x10E2 JUMP JUMPDEST DUP3 ADD SWAP2 SWAP1 PUSH0 MSTORE PUSH1 0x20 PUSH0 KECCAK256 SWAP1 JUMPDEST DUP2 SLOAD DUP2 MSTORE SWAP1 PUSH1 0x1 ADD SWAP1 PUSH1 0x20 ADD DUP1 DUP4 GT PUSH2 0x10C5 JUMPI DUP3 SWAP1 SUB PUSH1 0x1F AND DUP3 ADD SWAP2 JUMPDEST POP POP POP POP POP DUP2 MSTORE PUSH1 0x20 ADD PUSH1 0x4 DUP3 ADD DUP1 SLOAD PUSH2 0x10FB SWAP1 PUSH2 0x1A48 JUMP JUMPDEST DUP1 PUSH1 0x1F ADD PUSH1 0x20 DUP1 SWAP2 DIV MUL PUSH1 0x20 ADD PUSH1 0x40 MLOAD SWAP1 DUP2 ADD PUSH1 0x40 MSTORE DUP1 SWAP3 SWAP2 SWAP1 DUP2 DUP2 MSTORE PUSH1 0x20 ADD DUP3 DUP1 SLOAD PUSH2 0x1127 SWAP1 PUSH2 0x1A48 JUMP JUMPDEST DUP1 ISZERO PUSH2 0x1172 JUMPI DUP1 PUSH1 0x1F LT PUSH2 0x1149 JUMPI PUSH2 0x100 DUP1 DUP4 SLOAD DIV MUL DUP4 MSTORE SWAP2 PUSH1 0x20 ADD SWAP2 PUSH2 0x1172 JUMP JUMPDEST DUP3 ADD SWAP2 SWAP1 PUSH0 MSTORE PUSH1 0x20 PUSH0 KECCAK256 SWAP1 JUMPDEST DUP2 SLOAD DUP2 MSTORE SWAP1 PUSH1 0x1 ADD SWAP1 PUSH1 0x20 ADD DUP1 DUP4 GT PUSH2 0x1155 JUMPI DUP3 SWAP1 SUB PUSH1 0x1F AND DUP3 ADD SWAP2 JUMPDEST POP POP POP POP POP DUP2 MSTORE PUSH1 0x20 ADD PUSH1 0x5 DUP3 ADD SLOAD DUP2 MSTORE PUSH1 0x20 ADD PUSH1 0x6 DUP3 ADD SLOAD DUP2 MSTORE PUSH1 0x20 ADD PUSH1 0x7 DUP3 ADD SLOAD DUP2 MSTORE PUSH1 0x20 ADD PUSH1 0x8 DUP3 ADD SLOAD DUP2 MSTORE PUSH1 0x20 ADD PUSH1 0x9 DUP3 ADD SLOAD DUP2 MSTORE PUSH1 0x20 ADD PUSH1 0xA DUP3 ADD SLOAD DUP2 MSTORE POP POP SWAP1 POP PUSH0 DUP2 PUSH1 0xC0 ADD MLOAD SUB PUSH2 0x11CD JUMPI PUSH0 SWAP2 POP POP PUSH2 0x1233 JUMP JUMPDEST PUSH0 TIMESTAMP SWAP1 POP PUSH0 DUP3 PUSH1 0xE0 ADD MLOAD EQ PUSH2 0x11E4 JUMPI DUP2 PUSH1 0xE0 ADD MLOAD SWAP1 POP JUMPDEST PUSH0 DUP3 PUSH1 0xA0 ADD MLOAD DUP4 PUSH2 0x100 ADD MLOAD DUP5 PUSH2 0x140 ADD MLOAD DUP5 PUSH2 0x1201 SWAP2 SWAP1 PUSH2 0x1EF7 JUMP JUMPDEST PUSH2 0x120B SWAP2 SWAP1 PUSH2 0x20E0 JUMP JUMPDEST PUSH2 0x1215 SWAP2 SWAP1 PUSH2 0x20E0 JUMP JUMPDEST SWAP1 POP DUP3 PUSH2 0x120 ADD MLOAD DUP2 LT PUSH2 0x122C JUMPI DUP3 PUSH2 0x120 ADD MLOAD SWAP1 POP JUMPDEST DUP1 SWAP4 POP POP POP POP JUMPDEST SWAP2 SWAP1 POP JUMP JUMPDEST PUSH1 0x1 PUSH1 0x6 DUP1 SLOAD SWAP1 POP PUSH2 0x124A SWAP2 SWAP1 PUSH2 0x1EF7 JUMP JUMPDEST DUP2 EQ PUSH2 0x13DD JUMPI PUSH1 0x6 PUSH1 0x1 PUSH1 0x6 DUP1 SLOAD SWAP1 POP PUSH2 0x1264 SWAP2 SWAP1 PUSH2 0x1EF7 JUMP JUMPDEST DUP2 SLOAD DUP2 LT PUSH2 0x1275 JUMPI PUSH2 0x1274 PUSH2 0x1D19 JUMP JUMPDEST JUMPDEST SWAP1 PUSH0 MSTORE PUSH1 0x20 PUSH0 KECCAK256 SWAP1 PUSH1 0xB MUL ADD PUSH1 0x6 DUP3 DUP2 SLOAD DUP2 LT PUSH2 0x1295 JUMPI PUSH2 0x1294 PUSH2 0x1D19 JUMP JUMPDEST JUMPDEST SWAP1 PUSH0 MSTORE PUSH1 0x20 PUSH0 KECCAK256 SWAP1 PUSH1 0xB MUL ADD PUSH0 DUP3 ADD SLOAD DUP2 PUSH0 ADD SSTORE PUSH1 0x1 DUP3 ADD PUSH0 SWAP1 SLOAD SWAP1 PUSH2 0x100 EXP SWAP1 DIV PUSH20 0xFFFFFFFFFFFFFFFFFFFFFFFFFFFFFFFFFFFFFFFF AND DUP2 PUSH1 0x1 ADD PUSH0 PUSH2 0x100 EXP DUP2 SLOAD DUP2 PUSH20 0xFFFFFFFFFFFFFFFFFFFFFFFFFFFFFFFFFFFFFFFF MUL NOT AND SWAP1 DUP4 PUSH20 0xFFFFFFFFFFFFFFFFFFFFFFFFFFFFFFFFFFFFFFFF AND MUL OR SWAP1 SSTORE POP PUSH1 0x2 DUP3 ADD PUSH0 SWAP1 SLOAD SWAP1 PUSH2 0x100 EXP SWAP1 DIV PUSH20 0xFFFFFFFFFFFFFFFFFFFFFFFFFFFFFFFFFFFFFFFF AND DUP2 PUSH1 0x2 ADD PUSH0 PUSH2 0x100 EXP DUP2 SLOAD DUP2 PUSH20 0xFFFFFFFFFFFFFFFFFFFFFFFFFFFFFFFFFFFFFFFF MUL NOT AND SWAP1 DUP4 PUSH20 0xFFFFFFFFFFFFFFFFFFFFFFFFFFFFFFFFFFFFFFFF AND MUL OR SWAP1 SSTORE POP PUSH1 0x3 DUP3 ADD DUP2 PUSH1 0x3 ADD SWAP1 DUP2 PUSH2 0x1387 SWAP2 SWAP1 PUSH2 0x1FCE JUMP JUMPDEST POP PUSH1 0x4 DUP3 ADD DUP2 PUSH1 0x4 ADD SWAP1 DUP2 PUSH2 0x139C SWAP2 SWAP1 PUSH2 0x1FCE JUMP JUMPDEST POP PUSH1 0x5 DUP3 ADD SLOAD DUP2 PUSH1 0x5 ADD SSTORE PUSH1 0x6 DUP3 ADD SLOAD DUP2 PUSH1 0x6 ADD SSTORE PUSH1 0x7 DUP3 ADD SLOAD DUP2 PUSH1 0x7 ADD SSTORE PUSH1 0x8 DUP3 ADD SLOAD DUP2 PUSH1 0x8 ADD SSTORE PUSH1 0x9 DUP3 ADD SLOAD DUP2 PUSH1 0x9 ADD SSTORE PUSH1 0xA DUP3 ADD SLOAD DUP2 PUSH1 0xA ADD SSTORE SWAP1 POP POP JUMPDEST PUSH1 0x6 DUP1 SLOAD DUP1 PUSH2 0x13EF JUMPI PUSH2 0x13EE PUSH2 0x20B3 JUMP JUMPDEST JUMPDEST PUSH1 0x1 SWAP1 SUB DUP2 DUP2 SWAP1 PUSH0 MSTORE PUSH1 0x20 PUSH0 KECCAK256 SWAP1 PUSH1 0xB MUL ADD PUSH0 DUP1 DUP3 ADD PUSH0 SWAP1 SSTORE PUSH1 0x1 DUP3 ADD PUSH0 PUSH2 0x100 EXP DUP2 SLOAD SWAP1 PUSH20 0xFFFFFFFFFFFFFFFFFFFFFFFFFFFFFFFFFFFFFFFF MUL NOT AND SWAP1 SSTORE PUSH1 0x2 DUP3 ADD PUSH0 PUSH2 0x100 EXP DUP2 SLOAD SWAP1 PUSH20 0xFFFFFFFFFFFFFFFFFFFFFFFFFFFFFFFFFFFFFFFF MUL NOT AND SWAP1 SSTORE PUSH1 0x3 DUP3 ADD PUSH0 PUSH2 0x1463 SWAP2 SWAP1 PUSH2 0x161B JUMP JUMPDEST PUSH1 0x4 DUP3 ADD PUSH0 PUSH2 0x1472 SWAP2 SWAP1 PUSH2 0x161B JUMP JUMPDEST PUSH1 0x5 DUP3 ADD PUSH0 SWAP1 SSTORE PUSH1 0x6 DUP3 ADD PUSH0 SWAP1 SSTORE PUSH1 0x7 DUP3 ADD PUSH0 SWAP1 SSTORE PUSH1 0x8 DUP3 ADD PUSH0 SWAP1 SSTORE PUSH1 0x9 DUP3 ADD PUSH0 SWAP1 SSTORE PUSH1 0xA DUP3 ADD PUSH0 SWAP1 SSTORE POP POP SWAP1 SSTORE POP JUMP JUMPDEST PUSH1 0x1 PUSH1 0x4 DUP1 SLOAD SWAP1 POP PUSH2 0x14B5 SWAP2 SWAP1 PUSH2 0x1EF7 JUMP JUMPDEST DUP2 EQ PUSH2 0x15A6 JUMPI PUSH1 0x4 PUSH1 0x1 PUSH1 0x4 DUP1 SLOAD SWAP1 POP PUSH2 0x14CF SWAP2 SWAP1 PUSH2 0x1EF7 JUMP JUMPDEST DUP2 SLOAD DUP2 LT PUSH2 0x14E0 JUMPI PUSH2 0x14DF PUSH2 0x1D19 JUMP JUMPDEST JUMPDEST SWAP1 PUSH0 MSTORE PUSH1 0x20 PUSH0 KECCAK256 SWAP1 PUSH1 0x5 MUL ADD PUSH1 0x4 DUP3 DUP2 SLOAD DUP2 LT PUSH2 0x1500 JUMPI PUSH2 0x14FF PUSH2 0x1D19 JUMP JUMPDEST JUMPDEST SWAP1 PUSH0 MSTORE PUSH1 0x20 PUSH0 KECCAK256 SWAP1 PUSH1 0x5 MUL ADD PUSH0 DUP3 ADD SLOAD DUP2 PUSH0 ADD SSTORE PUSH1 0x1 DUP3 ADD PUSH0 SWAP1 SLOAD SWAP1 PUSH2 0x100 EXP SWAP1 DIV PUSH20 0xFFFFFFFFFFFFFFFFFFFFFFFFFFFFFFFFFFFFFFFF AND DUP2 PUSH1 0x1 ADD PUSH0 PUSH2 0x100 EXP DUP2 SLOAD DUP2 PUSH20 0xFFFFFFFFFFFFFFFFFFFFFFFFFFFFFFFFFFFFFFFF MUL NOT AND SWAP1 DUP4 PUSH20 0xFFFFFFFFFFFFFFFFFFFFFFFFFFFFFFFFFFFFFFFF AND MUL OR SWAP1 SSTORE POP PUSH1 0x2 DUP3 ADD SLOAD DUP2 PUSH1 0x2 ADD SSTORE PUSH1 0x3 DUP3 ADD SLOAD DUP2 PUSH1 0x3 ADD SSTORE PUSH1 0x4 DUP3 ADD DUP2 PUSH1 0x4 ADD SWAP1 DUP2 PUSH2 0x15A1 SWAP2 SWAP1 PUSH2 0x1FCE JUMP JUMPDEST POP SWAP1 POP POP JUMPDEST PUSH1 0x4 DUP1 SLOAD DUP1 PUSH2 0x15B8 JUMPI PUSH2 0x15B7 PUSH2 0x20B3 JUMP JUMPDEST JUMPDEST PUSH1 0x1 SWAP1 SUB DUP2 DUP2 SWAP1 PUSH0 MSTORE PUSH1 0x20 PUSH0 KECCAK256 SWAP1 PUSH1 0x5 MUL ADD PUSH0 DUP1 DUP3 ADD PUSH0 SWAP1 SSTORE PUSH1 0x1 DUP3 ADD PUSH0 PUSH2 0x100 EXP DUP2 SLOAD SWAP1 PUSH20 0xFFFFFFFFFFFFFFFFFFFFFFFFFFFFFFFFFFFFFFFF MUL NOT AND SWAP1 SSTORE PUSH1 0x2 DUP3 ADD PUSH0 SWAP1 SSTORE PUSH1 0x3 DUP3 ADD PUSH0 SWAP1 SSTORE PUSH1 0x4 DUP3 ADD PUSH0 PUSH2 0x1614 SWAP2 SWAP1 PUSH2 0x161B JUMP JUMPDEST POP POP SWAP1 SSTORE POP JUMP JUMPDEST POP DUP1 SLOAD PUSH2 0x1627 SWAP1 PUSH2 0x1A48 JUMP JUMPDEST PUSH0 DUP3 SSTORE DUP1 PUSH1 0x1F LT PUSH2 0x1638 JUMPI POP PUSH2 0x1655 JUMP JUMPDEST PUSH1 0x1F ADD PUSH1 0x20 SWAP1 DIV SWAP1 PUSH0 MSTORE PUSH1 0x20 PUSH0 KECCAK256 SWAP1 DUP2 ADD SWAP1 PUSH2 0x1654 SWAP2 SWAP1 PUSH2 0x1658 JUMP JUMPDEST JUMPDEST POP JUMP JUMPDEST JUMPDEST DUP1 DUP3 GT ISZERO PUSH2 0x166F JUMPI PUSH0 DUP2 PUSH0 SWAP1 SSTORE POP PUSH1 0x1 ADD PUSH2 0x1659 JUMP JUMPDEST POP SWAP1 JUMP JUMPDEST PUSH0 PUSH1 0x40 MLOAD SWAP1 POP SWAP1 JUMP JUMPDEST PUSH0 DUP1 REVERT JUMPDEST PUSH0 DUP1 REVERT JUMPDEST PUSH0 DUP2 SWAP1 POP SWAP2 SWAP1 POP JUMP JUMPDEST PUSH2 0x1696 DUP2 PUSH2 0x1684 JUMP JUMPDEST DUP2 EQ PUSH2 0x16A0 JUMPI PUSH0 DUP1 REVERT JUMPDEST POP JUMP JUMPDEST PUSH0 DUP2 CALLDATALOAD SWAP1 POP PUSH2 0x16B1 DUP2 PUSH2 0x168D JUMP JUMPDEST SWAP3 SWAP2 POP POP JUMP JUMPDEST PUSH0 DUP1 REVERT JUMPDEST PUSH0 DUP1 REVERT JUMPDEST PUSH0 PUSH1 0x1F NOT PUSH1 0x1F DUP4 ADD AND SWAP1 POP SWAP2 SWAP1 POP JUMP JUMPDEST PUSH32 0x4E487B7100000000000000000000000000000000000000000000000000000000 PUSH0 MSTORE PUSH1 0x41 PUSH1 0x4 MSTORE PUSH1 0x24 PUSH0 REVERT JUMPDEST PUSH2 0x1705 DUP3 PUSH2 0x16BF JUMP JUMPDEST DUP2 ADD DUP2 DUP2 LT PUSH8 0xFFFFFFFFFFFFFFFF DUP3 GT OR ISZERO PUSH2 0x1724 JUMPI PUSH2 0x1723 PUSH2 0x16CF JUMP JUMPDEST JUMPDEST DUP1 PUSH1 0x40 MSTORE POP POP POP JUMP JUMPDEST PUSH0 PUSH2 0x1736 PUSH2 0x1673 JUMP JUMPDEST SWAP1 POP PUSH2 0x1742 DUP3 DUP3 PUSH2 0x16FC JUMP JUMPDEST SWAP2 SWAP1 POP JUMP JUMPDEST PUSH0 PUSH8 0xFFFFFFFFFFFFFFFF DUP3 GT ISZERO PUSH2 0x1761 JUMPI PUSH2 0x1760 PUSH2 0x16CF JUMP JUMPDEST JUMPDEST PUSH2 0x176A DUP3 PUSH2 0x16BF JUMP JUMPDEST SWAP1 POP PUSH1 0x20 DUP2 ADD SWAP1 POP SWAP2 SWAP1 POP JUMP JUMPDEST DUP3 DUP2 DUP4 CALLDATACOPY PUSH0 DUP4 DUP4 ADD MSTORE POP POP POP JUMP JUMPDEST PUSH0 PUSH2 0x1797 PUSH2 0x1792 DUP5 PUSH2 0x1747 JUMP JUMPDEST PUSH2 0x172D JUMP JUMPDEST SWAP1 POP DUP3 DUP2 MSTORE PUSH1 0x20 DUP2 ADD DUP5 DUP5 DUP5 ADD GT ISZERO PUSH2 0x17B3 JUMPI PUSH2 0x17B2 PUSH2 0x16BB JUMP JUMPDEST JUMPDEST PUSH2 0x17BE DUP5 DUP3 DUP6 PUSH2 0x1777 JUMP JUMPDEST POP SWAP4 SWAP3 POP POP POP JUMP JUMPDEST PUSH0 DUP3 PUSH1 0x1F DUP4 ADD SLT PUSH2 0x17DA JUMPI PUSH2 0x17D9 PUSH2 0x16B7 JUMP JUMPDEST JUMPDEST DUP2 CALLDATALOAD PUSH2 0x17EA DUP5 DUP3 PUSH1 0x20 DUP7 ADD PUSH2 0x1785 JUMP JUMPDEST SWAP2 POP POP SWAP3 SWAP2 POP POP JUMP JUMPDEST PUSH0 DUP1 PUSH0 DUP1 PUSH1 0x80 DUP6 DUP8 SUB SLT ISZERO PUSH2 0x180B JUMPI PUSH2 0x180A PUSH2 0x167C JUMP JUMPDEST JUMPDEST PUSH0 PUSH2 0x1818 DUP8 DUP3 DUP9 ADD PUSH2 0x16A3 JUMP JUMPDEST SWAP5 POP POP PUSH1 0x20 PUSH2 0x1829 DUP8 DUP3 DUP9 ADD PUSH2 0x16A3 JUMP JUMPDEST SWAP4 POP POP PUSH1 0x40 PUSH2 0x183A DUP8 DUP3 DUP9 ADD PUSH2 0x16A3 JUMP JUMPDEST SWAP3 POP POP PUSH1 0x60 DUP6 ADD CALLDATALOAD PUSH8 0xFFFFFFFFFFFFFFFF DUP2 GT ISZERO PUSH2 0x185B JUMPI PUSH2 0x185A PUSH2 0x1680 JUMP JUMPDEST JUMPDEST PUSH2 0x1867 DUP8 DUP3 DUP9 ADD PUSH2 0x17C6 JUMP JUMPDEST SWAP2 POP POP SWAP3 SWAP6 SWAP2 SWAP5 POP SWAP3 POP JUMP JUMPDEST PUSH2 0x187C DUP2 PUSH2 0x1684 JUMP JUMPDEST DUP3 MSTORE POP POP JUMP JUMPDEST PUSH0 PUSH1 0x20 DUP3 ADD SWAP1 POP PUSH2 0x1895 PUSH0 DUP4 ADD DUP5 PUSH2 0x1873 JUMP JUMPDEST SWAP3 SWAP2 POP POP JUMP JUMPDEST PUSH0 DUP1 PUSH0 PUSH1 0x60 DUP5 DUP7 SUB SLT ISZERO PUSH2 0x18B2 JUMPI PUSH2 0x18B1 PUSH2 0x167C JUMP JUMPDEST JUMPDEST PUSH0 PUSH2 0x18BF DUP7 DUP3 DUP8 ADD PUSH2 0x16A3 JUMP JUMPDEST SWAP4 POP POP PUSH1 0x20 PUSH2 0x18D0 DUP7 DUP3 DUP8 ADD PUSH2 0x16A3 JUMP JUMPDEST SWAP3 POP POP PUSH1 0x40 DUP5 ADD CALLDATALOAD PUSH8 0xFFFFFFFFFFFFFFFF DUP2 GT ISZERO PUSH2 0x18F1 JUMPI PUSH2 0x18F0 PUSH2 0x1680 JUMP JUMPDEST JUMPDEST PUSH2 0x18FD DUP7 DUP3 DUP8 ADD PUSH2 0x17C6 JUMP JUMPDEST SWAP2 POP POP SWAP3 POP SWAP3 POP SWAP3 JUMP JUMPDEST PUSH0 DUP1 PUSH1 0x40 DUP4 DUP6 SUB SLT ISZERO PUSH2 0x191D JUMPI PUSH2 0x191C PUSH2 0x167C JUMP JUMPDEST JUMPDEST PUSH0 PUSH2 0x192A DUP6 DUP3 DUP7 ADD PUSH2 0x16A3 JUMP JUMPDEST SWAP3 POP POP PUSH1 0x20 PUSH2 0x193B DUP6 DUP3 DUP7 ADD PUSH2 0x16A3 JUMP JUMPDEST SWAP2 POP POP SWAP3 POP SWAP3 SWAP1 POP JUMP JUMPDEST PUSH0 PUSH20 0xFFFFFFFFFFFFFFFFFFFFFFFFFFFFFFFFFFFFFFFF DUP3 AND SWAP1 POP SWAP2 SWAP1 POP JUMP JUMPDEST PUSH0 PUSH2 0x196E DUP3 PUSH2 0x1945 JUMP JUMPDEST SWAP1 POP SWAP2 SWAP1 POP JUMP JUMPDEST PUSH2 0x197E DUP2 PUSH2 0x1964 JUMP JUMPDEST DUP3 MSTORE POP POP JUMP JUMPDEST PUSH0 PUSH1 0x20 DUP3 ADD SWAP1 POP PUSH2 0x1997 PUSH0 DUP4 ADD DUP5 PUSH2 0x1975 JUMP JUMPDEST SWAP3 SWAP2 POP POP JUMP JUMPDEST PUSH32 0x4E487B7100000000000000000000000000000000000000000000000000000000 PUSH0 MSTORE PUSH1 0x11 PUSH1 0x4 MSTORE PUSH1 0x24 PUSH0 REVERT JUMPDEST PUSH0 PUSH2 0x19D4 DUP3 PUSH2 0x1684 JUMP JUMPDEST SWAP2 POP PUSH32 0xFFFFFFFFFFFFFFFFFFFFFFFFFFFFFFFFFFFFFFFFFFFFFFFFFFFFFFFFFFFFFFFF DUP3 SUB PUSH2 0x1A06 JUMPI PUSH2 0x1A05 PUSH2 0x199D JUMP JUMPDEST JUMPDEST PUSH1 0x1 DUP3 ADD SWAP1 POP SWAP2 SWAP1 POP JUMP JUMPDEST PUSH0 DUP2 MLOAD SWAP1 POP SWAP2 SWAP1 POP JUMP JUMPDEST PUSH32 0x4E487B7100000000000000000000000000000000000000000000000000000000 PUSH0 MSTORE PUSH1 0x22 PUSH1 0x4 MSTORE PUSH1 0x24 PUSH0 REVERT JUMPDEST PUSH0 PUSH1 0x2 DUP3 DIV SWAP1 POP PUSH1 0x1 DUP3 AND DUP1 PUSH2 0x1A5F JUMPI PUSH1 0x7F DUP3 AND SWAP2 POP JUMPDEST PUSH1 0x20 DUP3 LT DUP2 SUB PUSH2 0x1A72 JUMPI PUSH2 0x1A71 PUSH2 0x1A1B JUMP JUMPDEST JUMPDEST POP SWAP2 SWAP1 POP JUMP JUMPDEST PUSH0 DUP2 SWAP1 POP DUP2 PUSH0 MSTORE PUSH1 0x20 PUSH0 KECCAK256 SWAP1 POP SWAP2 SWAP1 POP JUMP JUMPDEST PUSH0 PUSH1 0x20 PUSH1 0x1F DUP4 ADD DIV SWAP1 POP SWAP2 SWAP1 POP JUMP JUMPDEST PUSH0 DUP3 DUP3 SHL SWAP1 POP SWAP3 SWAP2 POP POP JUMP JUMPDEST PUSH0 PUSH1 0x8 DUP4 MUL PUSH2 0x1AD4 PUSH32 0xFFFFFFFFFFFFFFFFFFFFFFFFFFFFFFFFFFFFFFFFFFFFFFFFFFFFFFFFFFFFFFFF DUP3 PUSH2 0x1A99 JUMP JUMPDEST PUSH2 0x1ADE DUP7 DUP4 PUSH2 0x1A99 JUMP JUMPDEST SWAP6 POP DUP1 NOT DUP5 AND SWAP4 POP DUP1 DUP7 AND DUP5 OR SWAP3 POP POP POP SWAP4 SWAP3 POP POP POP JUMP JUMPDEST PUSH0 DUP2 SWAP1 POP SWAP2 SWAP1 POP JUMP JUMPDEST PUSH0 PUSH2 0x1B19 PUSH2 0x1B14 PUSH2 0x1B0F DUP5 PUSH2 0x1684 JUMP JUMPDEST PUSH2 0x1AF6 JUMP JUMPDEST PUSH2 0x1684 JUMP JUMPDEST SWAP1 POP SWAP2 SWAP1 POP JUMP JUMPDEST PUSH0 DUP2 SWAP1 POP SWAP2 SWAP1 POP JUMP JUMPDEST PUSH2 0x1B32 DUP4 PUSH2 0x1AFF JUMP JUMPDEST PUSH2 0x1B46 PUSH2 0x1B3E DUP3 PUSH2 0x1B20 JUMP JUMPDEST DUP5 DUP5 SLOAD PUSH2 0x1AA5 JUMP JUMPDEST DUP3 SSTORE POP POP POP POP JUMP JUMPDEST PUSH0 SWAP1 JUMP JUMPDEST PUSH2 0x1B5A PUSH2 0x1B4E JUMP JUMPDEST PUSH2 0x1B65 DUP2 DUP5 DUP5 PUSH2 0x1B29 JUMP JUMPDEST POP POP POP JUMP JUMPDEST JUMPDEST DUP2 DUP2 LT ISZERO PUSH2 0x1B88 JUMPI PUSH2 0x1B7D PUSH0 DUP3 PUSH2 0x1B52 JUMP JUMPDEST PUSH1 0x1 DUP2 ADD SWAP1 POP PUSH2 0x1B6B JUMP JUMPDEST POP POP JUMP JUMPDEST PUSH1 0x1F DUP3 GT ISZERO PUSH2 0x1BCD JUMPI PUSH2 0x1B9E DUP2 PUSH2 0x1A78 JUMP JUMPDEST PUSH2 0x1BA7 DUP5 PUSH2 0x1A8A JUMP JUMPDEST DUP2 ADD PUSH1 0x20 DUP6 LT ISZERO PUSH2 0x1BB6 JUMPI DUP2 SWAP1 POP JUMPDEST PUSH2 0x1BCA PUSH2 0x1BC2 DUP6 PUSH2 0x1A8A JUMP JUMPDEST DUP4 ADD DUP3 PUSH2 0x1B6A JUMP JUMPDEST POP POP JUMPDEST POP POP POP JUMP JUMPDEST PUSH0 DUP3 DUP3 SHR SWAP1 POP SWAP3 SWAP2 POP POP JUMP JUMPDEST PUSH0 PUSH2 0x1BED PUSH0 NOT DUP5 PUSH1 0x8 MUL PUSH2 0x1BD2 JUMP JUMPDEST NOT DUP1 DUP4 AND SWAP2 POP POP SWAP3 SWAP2 POP POP JUMP JUMPDEST PUSH0 PUSH2 0x1C05 DUP4 DUP4 PUSH2 0x1BDE JUMP JUMPDEST SWAP2 POP DUP3 PUSH1 0x2 MUL DUP3 OR SWAP1 POP SWAP3 SWAP2 POP POP JUMP JUMPDEST PUSH2 0x1C1E DUP3 PUSH2 0x1A11 JUMP JUMPDEST PUSH8 0xFFFFFFFFFFFFFFFF DUP2 GT ISZERO PUSH2 0x1C37 JUMPI PUSH2 0x1C36 PUSH2 0x16CF JUMP JUMPDEST JUMPDEST PUSH2 0x1C41 DUP3 SLOAD PUSH2 0x1A48 JUMP JUMPDEST PUSH2 0x1C4C DUP3 DUP3 DUP6 PUSH2 0x1B8C JUMP JUMPDEST PUSH0 PUSH1 0x20 SWAP1 POP PUSH1 0x1F DUP4 GT PUSH1 0x1 DUP2 EQ PUSH2 0x1C7D JUMPI PUSH0 DUP5 ISZERO PUSH2 0x1C6B JUMPI DUP3 DUP8 ADD MLOAD SWAP1 POP JUMPDEST PUSH2 0x1C75 DUP6 DUP3 PUSH2 0x1BFA JUMP JUMPDEST DUP7 SSTORE POP PUSH2 0x1CDC JUMP JUMPDEST PUSH1 0x1F NOT DUP5 AND PUSH2 0x1C8B DUP7 PUSH2 0x1A78 JUMP JUMPDEST PUSH0 JUMPDEST DUP3 DUP2 LT ISZERO PUSH2 0x1CB2 JUMPI DUP5 DUP10 ADD MLOAD DUP3 SSTORE PUSH1 0x1 DUP3 ADD SWAP2 POP PUSH1 0x20 DUP6 ADD SWAP5 POP PUSH1 0x20 DUP2 ADD SWAP1 POP PUSH2 0x1C8D JUMP JUMPDEST DUP7 DUP4 LT ISZERO PUSH2 0x1CCF JUMPI DUP5 DUP10 ADD MLOAD PUSH2 0x1CCB PUSH1 0x1F DUP10 AND DUP3 PUSH2 0x1BDE JUMP JUMPDEST DUP4 SSTORE POP JUMPDEST PUSH1 0x1 PUSH1 0x2 DUP9 MUL ADD DUP9 SSTORE POP POP POP JUMPDEST POP POP POP POP POP POP JUMP JUMPDEST PUSH0 PUSH1 0x60 DUP3 ADD SWAP1 POP PUSH2 0x1CF7 PUSH0 DUP4 ADD DUP7 PUSH2 0x1873 JUMP JUMPDEST PUSH2 0x1D04 PUSH1 0x20 DUP4 ADD DUP6 PUSH2 0x1873 JUMP JUMPDEST PUSH2 0x1D11 PUSH1 0x40 DUP4 ADD DUP5 PUSH2 0x1873 JUMP JUMPDEST SWAP5 SWAP4 POP POP POP POP JUMP JUMPDEST PUSH32 0x4E487B7100000000000000000000000000000000000000000000000000000000 PUSH0 MSTORE PUSH1 0x32 PUSH1 0x4 MSTORE PUSH1 0x24 PUSH0 REVERT JUMPDEST PUSH0 DUP3 DUP3 MSTORE PUSH1 0x20 DUP3 ADD SWAP1 POP SWAP3 SWAP2 POP POP JUMP JUMPDEST PUSH32 0x4E6F7420617574686F72697A656420746F2063616E63656C0000000000000000 PUSH0 DUP3 ADD MSTORE POP JUMP JUMPDEST PUSH0 PUSH2 0x1D8A PUSH1 0x18 DUP4 PUSH2 0x1D46 JUMP JUMPDEST SWAP2 POP PUSH2 0x1D95 DUP3 PUSH2 0x1D56 JUMP JUMPDEST PUSH1 0x20 DUP3 ADD SWAP1 POP SWAP2 SWAP1 POP JUMP JUMPDEST PUSH0 PUSH1 0x20 DUP3 ADD SWAP1 POP DUP2 DUP2 SUB PUSH0 DUP4 ADD MSTORE PUSH2 0x1DB7 DUP2 PUSH2 0x1D7E JUMP JUMPDEST SWAP1 POP SWAP2 SWAP1 POP JUMP JUMPDEST PUSH32 0x556E617574686F72697A65640000000000000000000000000000000000000000 PUSH0 DUP3 ADD MSTORE POP JUMP JUMPDEST PUSH0 PUSH2 0x1DF2 PUSH1 0xC DUP4 PUSH2 0x1D46 JUMP JUMPDEST SWAP2 POP PUSH2 0x1DFD DUP3 PUSH2 0x1DBE JUMP JUMPDEST PUSH1 0x20 DUP3 ADD SWAP1 POP SWAP2 SWAP1 POP JUMP JUMPDEST PUSH0 PUSH1 0x20 DUP3 ADD SWAP1 POP DUP2 DUP2 SUB PUSH0 DUP4 ADD MSTORE PUSH2 0x1E1F DUP2 PUSH2 0x1DE6 JUMP JUMPDEST SWAP1 POP SWAP2 SWAP1 POP JUMP JUMPDEST PUSH0 PUSH1 0x80 DUP3 ADD SWAP1 POP PUSH2 0x1E39 PUSH0 DUP4 ADD DUP8 PUSH2 0x1873 JUMP JUMPDEST PUSH2 0x1E46 PUSH1 0x20 DUP4 ADD DUP7 PUSH2 0x1873 JUMP JUMPDEST PUSH2 0x1E53 PUSH1 0x40 DUP4 ADD DUP6 PUSH2 0x1873 JUMP JUMPDEST PUSH2 0x1E60 PUSH1 0x60 DUP4 ADD DUP5 PUSH2 0x1873 JUMP JUMPDEST SWAP6 SWAP5 POP POP POP POP POP JUMP JUMPDEST PUSH32 0x436F6E747261637420616C72656164792073746F70706564206F7220696E7661 PUSH0 DUP3 ADD MSTORE PUSH32 0x6C69640000000000000000000000000000000000000000000000000000000000 PUSH1 0x20 DUP3 ADD MSTORE POP JUMP JUMPDEST PUSH0 PUSH2 0x1EC3 PUSH1 0x23 DUP4 PUSH2 0x1D46 JUMP JUMPDEST SWAP2 POP PUSH2 0x1ECE DUP3 PUSH2 0x1E69 JUMP JUMPDEST PUSH1 0x40 DUP3 ADD SWAP1 POP SWAP2 SWAP1 POP JUMP JUMPDEST PUSH0 PUSH1 0x20 DUP3 ADD SWAP1 POP DUP2 DUP2 SUB PUSH0 DUP4 ADD MSTORE PUSH2 0x1EF0 DUP2 PUSH2 0x1EB7 JUMP JUMPDEST SWAP1 POP SWAP2 SWAP1 POP JUMP JUMPDEST PUSH0 PUSH2 0x1F01 DUP3 PUSH2 0x1684 JUMP JUMPDEST SWAP2 POP PUSH2 0x1F0C DUP4 PUSH2 0x1684 JUMP JUMPDEST SWAP3 POP DUP3 DUP3 SUB SWAP1 POP DUP2 DUP2 GT ISZERO PUSH2 0x1F24 JUMPI PUSH2 0x1F23 PUSH2 0x199D JUMP JUMPDEST JUMPDEST SWAP3 SWAP2 POP POP JUMP JUMPDEST PUSH0 PUSH1 0x40 DUP3 ADD SWAP1 POP PUSH2 0x1F3D PUSH0 DUP4 ADD DUP6 PUSH2 0x1873 JUMP JUMPDEST PUSH2 0x1F4A PUSH1 0x20 DUP4 ADD DUP5 PUSH2 0x1873 JUMP JUMPDEST SWAP4 SWAP3 POP POP POP JUMP JUMPDEST PUSH32 0x496E76616C6964207769746864726177616C20617474656D7074000000000000 PUSH0 DUP3 ADD MSTORE POP JUMP JUMPDEST PUSH0 PUSH2 0x1F85 PUSH1 0x1A DUP4 PUSH2 0x1D46 JUMP JUMPDEST SWAP2 POP PUSH2 0x1F90 DUP3 PUSH2 0x1F51 JUMP JUMPDEST PUSH1 0x20 DUP3 ADD SWAP1 POP SWAP2 SWAP1 POP JUMP JUMPDEST PUSH0 PUSH1 0x20 DUP3 ADD SWAP1 POP DUP2 DUP2 SUB PUSH0 DUP4 ADD MSTORE PUSH2 0x1FB2 DUP2 PUSH2 0x1F79 JUMP JUMPDEST SWAP1 POP SWAP2 SWAP1 POP JUMP JUMPDEST PUSH0 DUP2 SLOAD SWAP1 POP PUSH2 0x1FC7 DUP2 PUSH2 0x1A48 JUMP JUMPDEST SWAP1 POP SWAP2 SWAP1 POP JUMP JUMPDEST DUP2 DUP2 SUB PUSH2 0x1FDC JUMPI POP POP PUSH2 0x20B1 JUMP JUMPDEST PUSH2 0x1FE5 DUP3 PUSH2 0x1FB9 JUMP JUMPDEST PUSH8 0xFFFFFFFFFFFFFFFF DUP2 GT ISZERO PUSH2 0x1FFE JUMPI PUSH2 0x1FFD PUSH2 0x16CF JUMP JUMPDEST JUMPDEST PUSH2 0x2008 DUP3 SLOAD PUSH2 0x1A48 JUMP JUMPDEST PUSH2 0x2013 DUP3 DUP3 DUP6 PUSH2 0x1B8C JUMP JUMPDEST PUSH0 PUSH1 0x1F DUP4 GT PUSH1 0x1 DUP2 EQ PUSH2 0x2040 JUMPI PUSH0 DUP5 ISZERO PUSH2 0x202E JUMPI DUP3 DUP8 ADD SLOAD SWAP1 POP JUMPDEST PUSH2 0x2038 DUP6 DUP3 PUSH2 0x1BFA JUMP JUMPDEST DUP7 SSTORE POP PUSH2 0x20AA JUMP JUMPDEST PUSH1 0x1F NOT DUP5 AND PUSH2 0x204E DUP8 PUSH2 0x1A78 JUMP JUMPDEST SWAP7 POP PUSH2 0x2059 DUP7 PUSH2 0x1A78 JUMP JUMPDEST PUSH0 JUMPDEST DUP3 DUP2 LT ISZERO PUSH2 0x2080 JUMPI DUP5 DUP10 ADD SLOAD DUP3 SSTORE PUSH1 0x1 DUP3 ADD SWAP2 POP PUSH1 0x1 DUP6 ADD SWAP5 POP PUSH1 0x20 DUP2 ADD SWAP1 POP PUSH2 0x205B JUMP JUMPDEST DUP7 DUP4 LT ISZERO PUSH2 0x209D JUMPI DUP5 DUP10 ADD SLOAD PUSH2 0x2099 PUSH1 0x1F DUP10 AND DUP3 PUSH2 0x1BDE JUMP JUMPDEST DUP4 SSTORE POP JUMPDEST PUSH1 0x1 PUSH1 0x2 DUP9 MUL ADD DUP9 SSTORE POP POP POP JUMPDEST POP POP POP POP POP POP JUMPDEST JUMP JUMPDEST PUSH32 0x4E487B7100000000000000000000000000000000000000000000000000000000 PUSH0 MSTORE PUSH1 0x31 PUSH1 0x4 MSTORE PUSH1 0x24 PUSH0 REVERT JUMPDEST PUSH0 PUSH2 0x20EA DUP3 PUSH2 0x1684 JUMP JUMPDEST SWAP2 POP PUSH2 0x20F5 DUP4 PUSH2 0x1684 JUMP JUMPDEST SWAP3 POP DUP3 DUP3 MUL PUSH2 0x2103 DUP2 PUSH2 0x1684 JUMP JUMPDEST SWAP2 POP DUP3 DUP3 DIV DUP5 EQ DUP4 ISZERO OR PUSH2 0x211A JUMPI PUSH2 0x2119 PUSH2 0x199D JUMP JUMPDEST JUMPDEST POP SWAP3 SWAP2 POP POP JUMP INVALID LOG2 PUSH5 0x6970667358 0x22 SLT KECCAK256 SWAP14 SAR LOG1 0xC9 0xD3 SWAP15 PUSH15 0xA64AE3338876D0F4E077134A469C5 0xB1 0xFC DUP12 SWAP7 0xB4 PUSH5 0x3361047D64 PUSH20 0x6F6C634300081A00330000000000000000000000 "
		},
		"gasEstimates": {
			"creation": {
				"codeDepositCost": "1707000",
				"executionCost": "26055",
				"totalCost": "1733055"
			},
			"external": {
				"cancelBuyOrder(uint256,uint256)": "infinite",
				"cancelSellOrder(uint256,uint256)": "infinite",
				"createBuyOrder(uint256,uint256,string)": "infinite",
				"createSellOrder(uint256,uint256,string)": "infinite",
				"createStorageContract(uint256,uint256,uint256,string)": "infinite",
				"owner()": "2572",
				"startStorageContract(uint256,uint256)": "infinite",
				"stopStorageContract(uint256,uint256)": "infinite",
				"withdrawFromStorageContract(uint256,uint256)": "infinite"
			},
			"internal": {
				"deleteBuyOrderFromArray(uint256)": "infinite",
				"deleteSellOrderFromArray(uint256)": "infinite",
				"deleteStorageContractFromArray(uint256)": "infinite",
				"weiAllowedToWithdraw(uint256)": "infinite"
			}
		},
		"methodIdentifiers": {
			"cancelBuyOrder(uint256,uint256)": "8c748334",
			"cancelSellOrder(uint256,uint256)": "e51dfd90",
			"createBuyOrder(uint256,uint256,string)": "9589d464",
			"createSellOrder(uint256,uint256,string)": "5279371e",
			"createStorageContract(uint256,uint256,uint256,string)": "14d3c7a5",
			"owner()": "8da5cb5b",
			"startStorageContract(uint256,uint256)": "90664d6a",
			"stopStorageContract(uint256,uint256)": "dd23400b",
			"withdrawFromStorageContract(uint256,uint256)": "eb38b7b3"
		}
	},
	"abi": [
		{
			"inputs": [],
			"stateMutability": "nonpayable",
			"type": "constructor"
		},
		{
			"anonymous": false,
			"inputs": [
				{
					"indexed": false,
					"internalType": "uint256",
					"name": "id",
					"type": "uint256"
				},
				{
					"indexed": true,
					"internalType": "address",
					"name": "DO",
					"type": "address"
				}
			],
			"name": "BuyOrderCancelled",
			"type": "event"
		},
		{
			"anonymous": false,
			"inputs": [
				{
					"indexed": false,
					"internalType": "uint256",
					"name": "id",
					"type": "uint256"
				},
				{
					"indexed": true,
					"internalType": "address",
					"name": "DO",
					"type": "address"
				},
				{
					"indexed": false,
					"internalType": "uint256",
					"name": "volumeGB",
					"type": "uint256"
				},
				{
					"indexed": false,
					"internalType": "uint256",
					"name": "pricePerGB",
					"type": "uint256"
				},
				{
					"indexed": false,
					"internalType": "uint256",
					"name": "weiInitialAmount",
					"type": "uint256"
				}
			],
			"name": "BuyOrderCreated",
			"type": "event"
		},
		{
			"anonymous": false,
			"inputs": [
				{
					"indexed": false,
					"internalType": "uint256",
					"name": "id",
					"type": "uint256"
				},
				{
					"indexed": true,
					"internalType": "address",
					"name": "DSO",
					"type": "address"
				}
			],
			"name": "SellOrderCancelled",
			"type": "event"
		},
		{
			"anonymous": false,
			"inputs": [
				{
					"indexed": false,
					"internalType": "uint256",
					"name": "id",
					"type": "uint256"
				},
				{
					"indexed": true,
					"internalType": "address",
					"name": "DSO",
					"type": "address"
				},
				{
					"indexed": false,
					"internalType": "uint256",
					"name": "volumeGB",
					"type": "uint256"
				},
				{
					"indexed": false,
					"internalType": "uint256",
					"name": "pricePerGB",
					"type": "uint256"
				}
			],
			"name": "SellOrderCreated",
			"type": "event"
		},
		{
			"anonymous": false,
			"inputs": [
				{
					"indexed": false,
					"internalType": "uint256",
					"name": "id",
					"type": "uint256"
				},
				{
					"indexed": true,
					"internalType": "address",
					"name": "DO",
					"type": "address"
				},
				{
					"indexed": true,
					"internalType": "address",
					"name": "DSO",
					"type": "address"
				},
				{
					"indexed": false,
					"internalType": "uint256",
					"name": "volumeGB",
					"type": "uint256"
				},
				{
					"indexed": false,
					"internalType": "uint256",
					"name": "pricePerGB",
					"type": "uint256"
				}
			],
			"name": "StorageContractCreated",
			"type": "event"
		},
		{
			"anonymous": false,
			"inputs": [
				{
					"indexed": false,
					"internalType": "uint256",
					"name": "id",
					"type": "uint256"
				}
			],
			"name": "StorageContractStarted",
			"type": "event"
		},
		{
			"anonymous": false,
			"inputs": [
				{
					"indexed": false,
					"internalType": "uint256",
					"name": "id",
					"type": "uint256"
				},
				{
					"indexed": false,
					"internalType": "uint256",
					"name": "weiWithdrawn",
					"type": "uint256"
				}
			],
			"name": "StorageContractStopped",
			"type": "event"
		},
		{
			"anonymous": false,
			"inputs": [
				{
					"indexed": false,
					"internalType": "uint256",
					"name": "id",
					"type": "uint256"
				},
				{
					"indexed": false,
					"internalType": "uint256",
					"name": "weiWithdrawn",
					"type": "uint256"
				}
			],
			"name": "StorageContractWithdrawn",
			"type": "event"
		},
		{
			"inputs": [
				{
					"internalType": "uint256",
					"name": "buyOrderIndex",
					"type": "uint256"
				},
				{
					"internalType": "uint256",
					"name": "buyOrderID",
					"type": "uint256"
				}
			],
			"name": "cancelBuyOrder",
			"outputs": [],
			"stateMutability": "nonpayable",
			"type": "function"
		},
		{
			"inputs": [
				{
					"internalType": "uint256",
					"name": "sellOrderIndex",
					"type": "uint256"
				},
				{
					"internalType": "uint256",
					"name": "sellOrderID",
					"type": "uint256"
				}
			],
			"name": "cancelSellOrder",
			"outputs": [],
			"stateMutability": "nonpayable",
			"type": "function"
		},
		{
			"inputs": [
				{
					"internalType": "uint256",
					"name": "volumeGB",
					"type": "uint256"
				},
				{
					"internalType": "uint256",
					"name": "pricePerGB",
					"type": "uint256"
				},
				{
					"internalType": "string",
					"name": "DOConnectionInfo",
					"type": "string"
				}
			],
			"name": "createBuyOrder",
			"outputs": [],
			"stateMutability": "payable",
			"type": "function"
		},
		{
			"inputs": [
				{
					"internalType": "uint256",
					"name": "volumeGB",
					"type": "uint256"
				},
				{
					"internalType": "uint256",
					"name": "pricePerGB",
					"type": "uint256"
				},
				{
					"internalType": "string",
					"name": "DSOConnectionInfo",
					"type": "string"
				}
			],
			"name": "createSellOrder",
			"outputs": [],
			"stateMutability": "nonpayable",
			"type": "function"
		},
		{
			"inputs": [
				{
					"internalType": "uint256",
					"name": "orderIndex",
					"type": "uint256"
				},
				{
					"internalType": "uint256",
					"name": "orderID",
					"type": "uint256"
				},
				{
					"internalType": "uint256",
					"name": "orderType",
					"type": "uint256"
				},
				{
					"internalType": "string",
					"name": "connectionInfo",
					"type": "string"
				}
			],
			"name": "createStorageContract",
			"outputs": [
				{
					"internalType": "uint256",
					"name": "newStorageContractID",
					"type": "uint256"
				}
			],
			"stateMutability": "payable",
			"type": "function"
		},
		{
			"inputs": [],
			"name": "owner",
			"outputs": [
				{
					"internalType": "address",
					"name": "",
					"type": "address"
				}
			],
			"stateMutability": "view",
			"type": "function"
		},
		{
			"inputs": [
				{
					"internalType": "uint256",
					"name": "storageContractIndex",
					"type": "uint256"
				},
				{
					"internalType": "uint256",
					"name": "storageContractID",
					"type": "uint256"
				}
			],
			"name": "startStorageContract",
			"outputs": [],
			"stateMutability": "nonpayable",
			"type": "function"
		},
		{
			"inputs": [
				{
					"internalType": "uint256",
					"name": "storageContractIndex",
					"type": "uint256"
				},
				{
					"internalType": "uint256",
					"name": "storageContractID",
					"type": "uint256"
				}
			],
			"name": "stopStorageContract",
			"outputs": [
				{
					"internalType": "uint256",
					"name": "",
					"type": "uint256"
				}
			],
			"stateMutability": "nonpayable",
			"type": "function"
		},
		{
			"inputs": [
				{
					"internalType": "uint256",
					"name": "storageContractIndex",
					"type": "uint256"
				},
				{
					"internalType": "uint256",
					"name": "storageContractID",
					"type": "uint256"
				}
			],
			"name": "withdrawFromStorageContract",
			"outputs": [
				{
					"internalType": "uint256",
					"name": "",
					"type": "uint256"
				}
			],
			"stateMutability": "nonpayable",
			"type": "function"
		}
	]
}