{
  "_format": "hh-sol-artifact-1",
  "contractName": "StorageMarketplace",
  "sourceName": "contracts/StorageMarketplace.sol",
  "abi": [
    {
      "anonymous": false,
      "inputs": [
        {
          "indexed": true,
          "internalType": "address",
          "name": "dataOwner",
          "type": "address"
        },
        {
          "indexed": true,
          "internalType": "address",
          "name": "dataRequester",
          "type": "address"
        }
      ],
      "name": "AccessGranted",
      "type": "event"
    },
    {
      "anonymous": false,
      "inputs": [
        {
          "indexed": true,
          "internalType": "address",
          "name": "dataOwner",
          "type": "address"
        },
        {
          "indexed": true,
          "internalType": "address",
          "name": "dataRequester",
          "type": "address"
        }
      ],
      "name": "AccessRevoked",
      "type": "event"
    },
    {
      "anonymous": false,
      "inputs": [
        {
          "indexed": true,
          "internalType": "address",
          "name": "dataOwner",
          "type": "address"
        },
        {
          "indexed": true,
          "internalType": "address",
          "name": "dataRequester",
          "type": "address"
        },
        {
          "indexed": false,
          "internalType": "uint256",
          "name": "price",
          "type": "uint256"
        }
      ],
      "name": "BidAccepted",
      "type": "event"
    },
    {
      "anonymous": false,
      "inputs": [
        {
          "indexed": true,
          "internalType": "address",
          "name": "dataRequester",
          "type": "address"
        },
        {
          "indexed": true,
          "internalType": "address",
          "name": "dataOwner",
          "type": "address"
        },
        {
          "indexed": false,
          "internalType": "uint256",
          "name": "price",
          "type": "uint256"
        }
      ],
      "name": "BidPlaced",
      "type": "event"
    },
    {
      "anonymous": false,
      "inputs": [
        {
          "indexed": true,
          "internalType": "address",
          "name": "user",
          "type": "address"
        },
        {
          "components": [
            {
              "internalType": "string",
              "name": "url",
              "type": "string"
            },
            {
              "internalType": "string",
              "name": "name",
              "type": "string"
            }
          ],
          "indexed": false,
          "internalType": "struct StorageMarketplace.File",
          "name": "file",
          "type": "tuple"
        }
      ],
      "name": "FileAdded",
      "type": "event"
    },
    {
      "inputs": [
        {
          "internalType": "uint256",
          "name": "_bidIndex",
          "type": "uint256"
        }
      ],
      "name": "acceptBid",
      "outputs": [],
      "stateMutability": "nonpayable",
      "type": "function"
    },
    {
      "inputs": [
        {
          "internalType": "string",
          "name": "url",
          "type": "string"
        },
        {
          "internalType": "string",
          "name": "fileName",
          "type": "string"
        }
      ],
      "name": "add",
      "outputs": [],
      "stateMutability": "nonpayable",
      "type": "function"
    },
    {
      "inputs": [
        {
          "internalType": "address",
          "name": "",
          "type": "address"
        },
        {
          "internalType": "uint256",
          "name": "",
          "type": "uint256"
        }
      ],
      "name": "agreements",
      "outputs": [
        {
          "internalType": "address",
          "name": "dataOwner",
          "type": "address"
        },
        {
          "internalType": "address",
          "name": "dataRequester",
          "type": "address"
        },
        {
          "internalType": "uint256",
          "name": "price",
          "type": "uint256"
        }
      ],
      "stateMutability": "view",
      "type": "function"
    },
    {
      "inputs": [
        {
          "internalType": "uint256",
          "name": "",
          "type": "uint256"
        }
      ],
      "name": "bids",
      "outputs": [
        {
          "internalType": "address",
          "name": "dataRequester",
          "type": "address"
        },
        {
          "internalType": "address",
          "name": "dataOwner",
          "type": "address"
        },
        {
          "internalType": "uint256",
          "name": "price",
          "type": "uint256"
        },
        {
          "internalType": "bool",
          "name": "active",
          "type": "bool"
        }
      ],
      "stateMutability": "view",
      "type": "function"
    },
    {
      "inputs": [
        {
          "internalType": "address",
          "name": "",
          "type": "address"
        }
      ],
      "name": "dataOwners",
      "outputs": [
        {
          "internalType": "bool",
          "name": "",
          "type": "bool"
        }
      ],
      "stateMutability": "view",
      "type": "function"
    },
    {
      "inputs": [
        {
          "internalType": "address",
          "name": "",
          "type": "address"
        }
      ],
      "name": "dataRequesters",
      "outputs": [
        {
          "internalType": "bool",
          "name": "",
          "type": "bool"
        }
      ],
      "stateMutability": "view",
      "type": "function"
    },
    {
      "inputs": [
        {
          "internalType": "address",
          "name": "_user",
          "type": "address"
        }
      ],
      "name": "display",
      "outputs": [
        {
          "components": [
            {
              "internalType": "string",
              "name": "url",
              "type": "string"
            },
            {
              "internalType": "string",
              "name": "name",
              "type": "string"
            }
          ],
          "internalType": "struct StorageMarketplace.File[]",
          "name": "",
          "type": "tuple[]"
        }
      ],
      "stateMutability": "view",
      "type": "function"
    },
    {
      "inputs": [],
      "name": "getAccessibleDataOwners",
      "outputs": [
        {
          "components": [
            {
              "internalType": "address",
              "name": "dataOwner",
              "type": "address"
            },
            {
              "internalType": "bool",
              "name": "access",
              "type": "bool"
            }
          ],
          "internalType": "struct StorageMarketplace.Access[]",
          "name": "",
          "type": "tuple[]"
        }
      ],
      "stateMutability": "view",
      "type": "function"
    },
    {
      "inputs": [],
      "name": "getBids",
      "outputs": [
        {
          "components": [
            {
              "internalType": "address",
              "name": "dataRequester",
              "type": "address"
            },
            {
              "internalType": "address",
              "name": "dataOwner",
              "type": "address"
            },
            {
              "internalType": "uint256",
              "name": "price",
              "type": "uint256"
            },
            {
              "internalType": "bool",
              "name": "active",
              "type": "bool"
            }
          ],
          "internalType": "struct StorageMarketplace.Bid[]",
          "name": "",
          "type": "tuple[]"
        }
      ],
      "stateMutability": "view",
      "type": "function"
    },
    {
      "inputs": [],
      "name": "getBidsCount",
      "outputs": [
        {
          "internalType": "uint256",
          "name": "",
          "type": "uint256"
        }
      ],
      "stateMutability": "view",
      "type": "function"
    },
    {
      "inputs": [],
      "name": "getMyAgreements",
      "outputs": [
        {
          "components": [
            {
              "internalType": "address",
              "name": "dataOwner",
              "type": "address"
            },
            {
              "internalType": "address",
              "name": "dataRequester",
              "type": "address"
            },
            {
              "internalType": "uint256",
              "name": "price",
              "type": "uint256"
            }
          ],
          "internalType": "struct StorageMarketplace.StorageAgreement[]",
          "name": "",
          "type": "tuple[]"
        }
      ],
      "stateMutability": "view",
      "type": "function"
    },
    {
      "inputs": [],
      "name": "getRole",
      "outputs": [
        {
          "internalType": "bool",
          "name": "",
          "type": "bool"
        },
        {
          "internalType": "bool",
          "name": "",
          "type": "bool"
        }
      ],
      "stateMutability": "view",
      "type": "function"
    },
    {
      "inputs": [],
      "name": "listAllFiles",
      "outputs": [
        {
          "internalType": "address[]",
          "name": "",
          "type": "address[]"
        },
        {
          "internalType": "string[][]",
          "name": "",
          "type": "string[][]"
        }
      ],
      "stateMutability": "view",
      "type": "function"
    },
    {
      "inputs": [
        {
          "internalType": "address",
          "name": "_dataOwner",
          "type": "address"
        },
        {
          "internalType": "uint256",
          "name": "_price",
          "type": "uint256"
        }
      ],
      "name": "placeBid",
      "outputs": [],
      "stateMutability": "payable",
      "type": "function"
    },
    {
      "inputs": [],
      "name": "registerAsDataOwner",
      "outputs": [],
      "stateMutability": "nonpayable",
      "type": "function"
    },
    {
      "inputs": [],
      "name": "registerAsDataRequester",
      "outputs": [],
      "stateMutability": "nonpayable",
      "type": "function"
    },
    {
      "inputs": [
        {
          "internalType": "address",
          "name": "dataRequester",
          "type": "address"
        }
      ],
      "name": "revokeAccess",
      "outputs": [],
      "stateMutability": "nonpayable",
      "type": "function"
    }
  ],
  "bytecode": "0x608060405234801561001057600080fd5b506134b9806100206000396000f3fe6080604052600436106100fe5760003560e01c8063acdaeb6811610095578063bae7ea9511610064578063bae7ea9514610329578063d98b9bb514610354578063eb39113f14610370578063ebdf86ca146103ad578063fde08174146103d6576100fe565b8063acdaeb681461027f578063b4316df6146102aa578063b6bb11a7146102c1578063b81c78ec146102fe576100fe565b8063685446fe116100d1578063685446fe146101d457806369b8a55c1461021357806380bf5aba1461023f57806385e6853114610256576100fe565b806322e77457146101035780632b1fd58a146101405780634423c5f11461016957806363505ae8146101a9575b600080fd5b34801561010f57600080fd5b5061012a6004803603810190610125919061235e565b610402565b60405161013791906123a6565b60405180910390f35b34801561014c57600080fd5b50610167600480360381019061016291906123f7565b610422565b005b34801561017557600080fd5b50610190600480360381019061018b91906123f7565b61089b565b6040516101a09493929190612442565b60405180910390f35b3480156101b557600080fd5b506101be610928565b6040516101cb9190612487565b60405180910390f35b3480156101e057600080fd5b506101fb60048036038101906101f691906124a2565b610935565b60405161020a939291906124e2565b60405180910390f35b34801561021f57600080fd5b506102286109bc565b6040516102369291906127f4565b60405180910390f35b34801561024b57600080fd5b50610254610cf2565b005b34801561026257600080fd5b5061027d6004803603810190610278919061235e565b610dd9565b005b34801561028b57600080fd5b50610294611056565b6040516102a19190612918565b60405180910390f35b3480156102b657600080fd5b506102bf61115f565b005b3480156102cd57600080fd5b506102e860048036038101906102e3919061235e565b611246565b6040516102f591906123a6565b60405180910390f35b34801561030a57600080fd5b50610313611266565b6040516103209190612a4d565b60405180910390f35b34801561033557600080fd5b5061033e611396565b60405161034b9190612b60565b60405180910390f35b61036e600480360381019061036991906124a2565b6114e8565b005b34801561037c57600080fd5b506103976004803603810190610392919061235e565b611797565b6040516103a49190612c88565b60405180910390f35b3480156103b957600080fd5b506103d460048036038101906103cf9190612ddf565b611a58565b005b3480156103e257600080fd5b506103eb611d02565b6040516103f9929190612e57565b60405180910390f35b60036020528060005260406000206000915054906101000a900460ff1681565b600260003373ffffffffffffffffffffffffffffffffffffffff1673ffffffffffffffffffffffffffffffffffffffff16815260200190815260200160002060009054906101000a900460ff166104ae576040517f08c379a00000000000000000000000000000000000000000000000000000000081526004016104a590612edd565b60405180910390fd5b60018054905081106104f5576040517f08c379a00000000000000000000000000000000000000000000000000000000081526004016104ec90612f49565b60405180910390fd5b60006001828154811061050b5761050a612f69565b5b906000526020600020906004020190508060030160009054906101000a900460ff1661056c576040517f08c379a000000000000000000000000000000000000000000000000000000000815260040161056390612fe4565b60405180910390fd5b3373ffffffffffffffffffffffffffffffffffffffff168160010160009054906101000a900473ffffffffffffffffffffffffffffffffffffffff1673ffffffffffffffffffffffffffffffffffffffff16146105fe576040517f08c379a00000000000000000000000000000000000000000000000000000000081526004016105f590613076565b60405180910390fd5b60008160030160006101000a81548160ff0219169083151502179055503373ffffffffffffffffffffffffffffffffffffffff166108fc82600201549081150290604051600060405180830381858888f19350505050158015610665573d6000803e3d6000fd5b50600060405180606001604052803373ffffffffffffffffffffffffffffffffffffffff1681526020018360000160009054906101000a900473ffffffffffffffffffffffffffffffffffffffff1673ffffffffffffffffffffffffffffffffffffffff16815260200183600201548152509050600960003373ffffffffffffffffffffffffffffffffffffffff1673ffffffffffffffffffffffffffffffffffffffff16815260200190815260200160002081908060018154018082558091505060019003906000526020600020906003020160009091909190915060008201518160000160006101000a81548173ffffffffffffffffffffffffffffffffffffffff021916908373ffffffffffffffffffffffffffffffffffffffff16021790555060208201518160010160006101000a81548173ffffffffffffffffffffffffffffffffffffffff021916908373ffffffffffffffffffffffffffffffffffffffff1602179055506040820151816002015550506108098260000160009054906101000a900473ffffffffffffffffffffffffffffffffffffffff16611da7565b8160000160009054906101000a900473ffffffffffffffffffffffffffffffffffffffff1673ffffffffffffffffffffffffffffffffffffffff163373ffffffffffffffffffffffffffffffffffffffff167fcea76e88a336bcad5acb8cf244393e65f4bbe4b4bcaa2e989f754f5f2bd29eaf846002015460405161088e9190612487565b60405180910390a3505050565b600181815481106108ab57600080fd5b90600052602060002090600402016000915090508060000160009054906101000a900473ffffffffffffffffffffffffffffffffffffffff16908060010160009054906101000a900473ffffffffffffffffffffffffffffffffffffffff16908060020154908060030160009054906101000a900460ff16905084565b6000600180549050905090565b6009602052816000526040600020818154811061095157600080fd5b9060005260206000209060030201600091509150508060000160009054906101000a900473ffffffffffffffffffffffffffffffffffffffff16908060010160009054906101000a900473ffffffffffffffffffffffffffffffffffffffff16908060020154905083565b6060806000808054905067ffffffffffffffff8111156109df576109de612cb4565b5b604051908082528060200260200182016040528015610a1257816020015b60608152602001906001900390816109fd5790505b50905060005b600080549050811015610c5d576000808281548110610a3a57610a39612f69565b5b9060005260206000200160009054906101000a900473ffffffffffffffffffffffffffffffffffffffff1690506000600460008373ffffffffffffffffffffffffffffffffffffffff1673ffffffffffffffffffffffffffffffffffffffff16815260200190815260200160002080549050905060008167ffffffffffffffff811115610aca57610ac9612cb4565b5b604051908082528060200260200182016040528015610afd57816020015b6060815260200190600190039081610ae85790505b50905060005b82811015610c2757600460008573ffffffffffffffffffffffffffffffffffffffff1673ffffffffffffffffffffffffffffffffffffffff1681526020019081526020016000208181548110610b5c57610b5b612f69565b5b90600052602060002090600202016001018054610b78906130c5565b80601f0160208091040260200160405190810160405280929190818152602001828054610ba4906130c5565b8015610bf15780601f10610bc657610100808354040283529160200191610bf1565b820191906000526020600020905b815481529060010190602001808311610bd457829003601f168201915b5050505050828281518110610c0957610c08612f69565b5b60200260200101819052508080610c1f90613126565b915050610b03565b5080858581518110610c3c57610c3b612f69565b5b60200260200101819052505050508080610c5590613126565b915050610a18565b5060008181805480602002602001604051908101604052809291908181526020018280548015610ce257602002820191906000526020600020905b8160009054906101000a900473ffffffffffffffffffffffffffffffffffffffff1673ffffffffffffffffffffffffffffffffffffffff1681526020019060010190808311610c98575b5050505050915092509250509091565b600360003373ffffffffffffffffffffffffffffffffffffffff1673ffffffffffffffffffffffffffffffffffffffff16815260200190815260200160002060009054906101000a900460ff1615610d7f576040517f08c379a0000000000000000000000000000000000000000000000000000000008152600401610d76906131e1565b60405180910390fd5b6001600360003373ffffffffffffffffffffffffffffffffffffffff1673ffffffffffffffffffffffffffffffffffffffff16815260200190815260200160002060006101000a81548160ff021916908315150217905550565b6000600660003373ffffffffffffffffffffffffffffffffffffffff1673ffffffffffffffffffffffffffffffffffffffff16815260200190815260200160002060008373ffffffffffffffffffffffffffffffffffffffff1673ffffffffffffffffffffffffffffffffffffffff16815260200190815260200160002060006101000a81548160ff02191690831515021790555060005b600760008373ffffffffffffffffffffffffffffffffffffffff1673ffffffffffffffffffffffffffffffffffffffff16815260200190815260200160002080549050811015610ff8573373ffffffffffffffffffffffffffffffffffffffff16600760008473ffffffffffffffffffffffffffffffffffffffff1673ffffffffffffffffffffffffffffffffffffffff1681526020019081526020016000208281548110610f2357610f22612f69565b5b9060005260206000200160000160009054906101000a900473ffffffffffffffffffffffffffffffffffffffff1673ffffffffffffffffffffffffffffffffffffffff161415610fe5576000600760008473ffffffffffffffffffffffffffffffffffffffff1673ffffffffffffffffffffffffffffffffffffffff1681526020019081526020016000208281548110610fc057610fbf612f69565b5b9060005260206000200160000160146101000a81548160ff0219169083151502179055505b8080610ff090613126565b915050610e71565b508073ffffffffffffffffffffffffffffffffffffffff163373ffffffffffffffffffffffffffffffffffffffff167f825c8be24eb0df19500f63e86c29e7d0d951e73056b889b891d85e40938d9b6e60405160405180910390a350565b6060600760003373ffffffffffffffffffffffffffffffffffffffff1673ffffffffffffffffffffffffffffffffffffffff168152602001908152602001600020805480602002602001604051908101604052809291908181526020016000905b82821015611156578382906000526020600020016040518060400160405290816000820160009054906101000a900473ffffffffffffffffffffffffffffffffffffffff1673ffffffffffffffffffffffffffffffffffffffff1673ffffffffffffffffffffffffffffffffffffffff1681526020016000820160149054906101000a900460ff161515151581525050815260200190600101906110b7565b50505050905090565b600260003373ffffffffffffffffffffffffffffffffffffffff1673ffffffffffffffffffffffffffffffffffffffff16815260200190815260200160002060009054906101000a900460ff16156111ec576040517f08c379a00000000000000000000000000000000000000000000000000000000081526004016111e39061324d565b60405180910390fd5b6001600260003373ffffffffffffffffffffffffffffffffffffffff1673ffffffffffffffffffffffffffffffffffffffff16815260200190815260200160002060006101000a81548160ff021916908315150217905550565b60026020528060005260406000206000915054906101000a900460ff1681565b60606001805480602002602001604051908101604052809291908181526020016000905b8282101561138d57838290600052602060002090600402016040518060800160405290816000820160009054906101000a900473ffffffffffffffffffffffffffffffffffffffff1673ffffffffffffffffffffffffffffffffffffffff1673ffffffffffffffffffffffffffffffffffffffff1681526020016001820160009054906101000a900473ffffffffffffffffffffffffffffffffffffffff1673ffffffffffffffffffffffffffffffffffffffff1673ffffffffffffffffffffffffffffffffffffffff168152602001600282015481526020016003820160009054906101000a900460ff1615151515815250508152602001906001019061128a565b50505050905090565b6060600960003373ffffffffffffffffffffffffffffffffffffffff1673ffffffffffffffffffffffffffffffffffffffff168152602001908152602001600020805480602002602001604051908101604052809291908181526020016000905b828210156114df57838290600052602060002090600302016040518060600160405290816000820160009054906101000a900473ffffffffffffffffffffffffffffffffffffffff1673ffffffffffffffffffffffffffffffffffffffff1673ffffffffffffffffffffffffffffffffffffffff1681526020016001820160009054906101000a900473ffffffffffffffffffffffffffffffffffffffff1673ffffffffffffffffffffffffffffffffffffffff1673ffffffffffffffffffffffffffffffffffffffff168152602001600282015481525050815260200190600101906113f7565b50505050905090565b600360003373ffffffffffffffffffffffffffffffffffffffff1673ffffffffffffffffffffffffffffffffffffffff16815260200190815260200160002060009054906101000a900460ff16611574576040517f08c379a000000000000000000000000000000000000000000000000000000000815260040161156b906132b9565b60405180910390fd5b600081116115b7576040517f08c379a00000000000000000000000000000000000000000000000000000000081526004016115ae90613325565b60405180910390fd5b8034146115f9576040517f08c379a00000000000000000000000000000000000000000000000000000000081526004016115f090613391565b60405180910390fd5b600160405180608001604052803373ffffffffffffffffffffffffffffffffffffffff1681526020018473ffffffffffffffffffffffffffffffffffffffff16815260200183815260200160011515815250908060018154018082558091505060019003906000526020600020906004020160009091909190915060008201518160000160006101000a81548173ffffffffffffffffffffffffffffffffffffffff021916908373ffffffffffffffffffffffffffffffffffffffff16021790555060208201518160010160006101000a81548173ffffffffffffffffffffffffffffffffffffffff021916908373ffffffffffffffffffffffffffffffffffffffff1602179055506040820151816002015560608201518160030160006101000a81548160ff02191690831515021790555050508173ffffffffffffffffffffffffffffffffffffffff163373ffffffffffffffffffffffffffffffffffffffff167f45a818213e5085f9a2d24b876128d3bb9f7200bcf3170fa08e063e1746f7e9bb8360405161178b9190612487565b60405180910390a35050565b60603373ffffffffffffffffffffffffffffffffffffffff168273ffffffffffffffffffffffffffffffffffffffff1614806118595750600660008373ffffffffffffffffffffffffffffffffffffffff1673ffffffffffffffffffffffffffffffffffffffff16815260200190815260200160002060003373ffffffffffffffffffffffffffffffffffffffff1673ffffffffffffffffffffffffffffffffffffffff16815260200190815260200160002060009054906101000a900460ff165b611898576040517f08c379a000000000000000000000000000000000000000000000000000000000815260040161188f906133fd565b60405180910390fd5b600460008373ffffffffffffffffffffffffffffffffffffffff1673ffffffffffffffffffffffffffffffffffffffff168152602001908152602001600020805480602002602001604051908101604052809291908181526020016000905b82821015611a4d578382906000526020600020906002020160405180604001604052908160008201805461192a906130c5565b80601f0160208091040260200160405190810160405280929190818152602001828054611956906130c5565b80156119a35780601f10611978576101008083540402835291602001916119a3565b820191906000526020600020905b81548152906001019060200180831161198657829003601f168201915b505050505081526020016001820180546119bc906130c5565b80601f01602080910402602001604051908101604052809291908181526020018280546119e8906130c5565b8015611a355780601f10611a0a57610100808354040283529160200191611a35565b820191906000526020600020905b815481529060010190602001808311611a1857829003601f168201915b505050505081525050815260200190600101906118f7565b505050509050919050565b600260003373ffffffffffffffffffffffffffffffffffffffff1673ffffffffffffffffffffffffffffffffffffffff16815260200190815260200160002060009054906101000a900460ff16611ae4576040517f08c379a0000000000000000000000000000000000000000000000000000000008152600401611adb90612edd565b60405180910390fd5b60006040518060400160405280848152602001838152509050600460003373ffffffffffffffffffffffffffffffffffffffff1673ffffffffffffffffffffffffffffffffffffffff1681526020019081526020016000208190806001815401808255809150506001900390600052602060002090600202016000909190919091506000820151816000019080519060200190611b82929190612249565b506020820151816001019080519060200190611b9f929190612249565b505050600560003373ffffffffffffffffffffffffffffffffffffffff1673ffffffffffffffffffffffffffffffffffffffff16815260200190815260200160002060009054906101000a900460ff16611caf576000339080600181540180825580915050600190039060005260206000200160009091909190916101000a81548173ffffffffffffffffffffffffffffffffffffffff021916908373ffffffffffffffffffffffffffffffffffffffff1602179055506001600560003373ffffffffffffffffffffffffffffffffffffffff1673ffffffffffffffffffffffffffffffffffffffff16815260200190815260200160002060006101000a81548160ff0219169083151502179055505b3373ffffffffffffffffffffffffffffffffffffffff167f514b86d50ff66e3d8494a445870c8691f7e73b56ccb5d142e237eef91b9d067182604051611cf59190613461565b60405180910390a2505050565b600080600260003373ffffffffffffffffffffffffffffffffffffffff1673ffffffffffffffffffffffffffffffffffffffff16815260200190815260200160002060009054906101000a900460ff16600360003373ffffffffffffffffffffffffffffffffffffffff1673ffffffffffffffffffffffffffffffffffffffff16815260200190815260200160002060009054906101000a900460ff16915091509091565b6001600660003373ffffffffffffffffffffffffffffffffffffffff1673ffffffffffffffffffffffffffffffffffffffff16815260200190815260200160002060008373ffffffffffffffffffffffffffffffffffffffff1673ffffffffffffffffffffffffffffffffffffffff16815260200190815260200160002060006101000a81548160ff021916908315150217905550600860008273ffffffffffffffffffffffffffffffffffffffff1673ffffffffffffffffffffffffffffffffffffffff16815260200190815260200160002060003373ffffffffffffffffffffffffffffffffffffffff1673ffffffffffffffffffffffffffffffffffffffff16815260200190815260200160002060009054906101000a900460ff161561205b5760005b600760008373ffffffffffffffffffffffffffffffffffffffff1673ffffffffffffffffffffffffffffffffffffffff16815260200190815260200160002080549050811015612055573373ffffffffffffffffffffffffffffffffffffffff16600760008473ffffffffffffffffffffffffffffffffffffffff1673ffffffffffffffffffffffffffffffffffffffff1681526020019081526020016000208281548110611f8057611f7f612f69565b5b9060005260206000200160000160009054906101000a900473ffffffffffffffffffffffffffffffffffffffff1673ffffffffffffffffffffffffffffffffffffffff161415612042576001600760008473ffffffffffffffffffffffffffffffffffffffff1673ffffffffffffffffffffffffffffffffffffffff168152602001908152602001600020828154811061201d5761201c612f69565b5b9060005260206000200160000160146101000a81548160ff0219169083151502179055505b808061204d90613126565b915050611ece565b506121ec565b600760008273ffffffffffffffffffffffffffffffffffffffff1673ffffffffffffffffffffffffffffffffffffffff16815260200190815260200160002060405180604001604052803373ffffffffffffffffffffffffffffffffffffffff168152602001600115158152509080600181540180825580915050600190039060005260206000200160009091909190915060008201518160000160006101000a81548173ffffffffffffffffffffffffffffffffffffffff021916908373ffffffffffffffffffffffffffffffffffffffff16021790555060208201518160000160146101000a81548160ff02191690831515021790555050506001600860008373ffffffffffffffffffffffffffffffffffffffff1673ffffffffffffffffffffffffffffffffffffffff16815260200190815260200160002060003373ffffffffffffffffffffffffffffffffffffffff1673ffffffffffffffffffffffffffffffffffffffff16815260200190815260200160002060006101000a81548160ff0219169083151502179055505b8073ffffffffffffffffffffffffffffffffffffffff163373ffffffffffffffffffffffffffffffffffffffff167f9f520b3bfc56d06f7065d10b4683b3f57ac8895d5026cd176dee95ce1454cb8d60405160405180910390a350565b828054612255906130c5565b90600052602060002090601f01602090048101928261227757600085556122be565b82601f1061229057805160ff19168380011785556122be565b828001600101855582156122be579182015b828111156122bd5782518255916020019190600101906122a2565b5b5090506122cb91906122cf565b5090565b5b808211156122e85760008160009055506001016122d0565b5090565b6000604051905090565b600080fd5b600080fd5b600073ffffffffffffffffffffffffffffffffffffffff82169050919050565b600061232b82612300565b9050919050565b61233b81612320565b811461234657600080fd5b50565b60008135905061235881612332565b92915050565b600060208284031215612374576123736122f6565b5b600061238284828501612349565b91505092915050565b60008115159050919050565b6123a08161238b565b82525050565b60006020820190506123bb6000830184612397565b92915050565b6000819050919050565b6123d4816123c1565b81146123df57600080fd5b50565b6000813590506123f1816123cb565b92915050565b60006020828403121561240d5761240c6122f6565b5b600061241b848285016123e2565b91505092915050565b61242d81612320565b82525050565b61243c816123c1565b82525050565b60006080820190506124576000830187612424565b6124646020830186612424565b6124716040830185612433565b61247e6060830184612397565b95945050505050565b600060208201905061249c6000830184612433565b92915050565b600080604083850312156124b9576124b86122f6565b5b60006124c785828601612349565b92505060206124d8858286016123e2565b9150509250929050565b60006060820190506124f76000830186612424565b6125046020830185612424565b6125116040830184612433565b949350505050565b600081519050919050565b600082825260208201905092915050565b6000819050602082019050919050565b61254e81612320565b82525050565b60006125608383612545565b60208301905092915050565b6000602082019050919050565b600061258482612519565b61258e8185612524565b935061259983612535565b8060005b838110156125ca5781516125b18882612554565b97506125bc8361256c565b92505060018101905061259d565b5085935050505092915050565b600081519050919050565b600082825260208201905092915050565b6000819050602082019050919050565b600081519050919050565b600082825260208201905092915050565b6000819050602082019050919050565b600081519050919050565b600082825260208201905092915050565b60005b8381101561266957808201518184015260208101905061264e565b83811115612678576000848401525b50505050565b6000601f19601f8301169050919050565b600061269a8261262f565b6126a4818561263a565b93506126b481856020860161264b565b6126bd8161267e565b840191505092915050565b60006126d4838361268f565b905092915050565b6000602082019050919050565b60006126f482612603565b6126fe818561260e565b9350836020820285016127108561261f565b8060005b8581101561274c578484038952815161272d85826126c8565b9450612738836126dc565b925060208a01995050600181019050612714565b50829750879550505050505092915050565b600061276a83836126e9565b905092915050565b6000602082019050919050565b600061278a826125d7565b61279481856125e2565b9350836020820285016127a6856125f3565b8060005b858110156127e257848403895281516127c3858261275e565b94506127ce83612772565b925060208a019950506001810190506127aa565b50829750879550505050505092915050565b6000604082019050818103600083015261280e8185612579565b90508181036020830152612822818461277f565b90509392505050565b600081519050919050565b600082825260208201905092915050565b6000819050602082019050919050565b6128608161238b565b82525050565b60408201600082015161287c6000850182612545565b50602082015161288f6020850182612857565b50505050565b60006128a18383612866565b60408301905092915050565b6000602082019050919050565b60006128c58261282b565b6128cf8185612836565b93506128da83612847565b8060005b8381101561290b5781516128f28882612895565b97506128fd836128ad565b9250506001810190506128de565b5085935050505092915050565b6000602082019050818103600083015261293281846128ba565b905092915050565b600081519050919050565b600082825260208201905092915050565b6000819050602082019050919050565b61296f816123c1565b82525050565b60808201600082015161298b6000850182612545565b50602082015161299e6020850182612545565b5060408201516129b16040850182612966565b5060608201516129c46060850182612857565b50505050565b60006129d68383612975565b60808301905092915050565b6000602082019050919050565b60006129fa8261293a565b612a048185612945565b9350612a0f83612956565b8060005b83811015612a40578151612a2788826129ca565b9750612a32836129e2565b925050600181019050612a13565b5085935050505092915050565b60006020820190508181036000830152612a6781846129ef565b905092915050565b600081519050919050565b600082825260208201905092915050565b6000819050602082019050919050565b606082016000820151612ab16000850182612545565b506020820151612ac46020850182612545565b506040820151612ad76040850182612966565b50505050565b6000612ae98383612a9b565b60608301905092915050565b6000602082019050919050565b6000612b0d82612a6f565b612b178185612a7a565b9350612b2283612a8b565b8060005b83811015612b53578151612b3a8882612add565b9750612b4583612af5565b925050600181019050612b26565b5085935050505092915050565b60006020820190508181036000830152612b7a8184612b02565b905092915050565b600081519050919050565b600082825260208201905092915050565b6000819050602082019050919050565b60006040830160008301518482036000860152612bcb828261268f565b91505060208301518482036020860152612be5828261268f565b9150508091505092915050565b6000612bfe8383612bae565b905092915050565b6000602082019050919050565b6000612c1e82612b82565b612c288185612b8d565b935083602082028501612c3a85612b9e565b8060005b85811015612c765784840389528151612c578582612bf2565b9450612c6283612c06565b925060208a01995050600181019050612c3e565b50829750879550505050505092915050565b60006020820190508181036000830152612ca28184612c13565b905092915050565b600080fd5b600080fd5b7f4e487b7100000000000000000000000000000000000000000000000000000000600052604160045260246000fd5b612cec8261267e565b810181811067ffffffffffffffff82111715612d0b57612d0a612cb4565b5b80604052505050565b6000612d1e6122ec565b9050612d2a8282612ce3565b919050565b600067ffffffffffffffff821115612d4a57612d49612cb4565b5b612d538261267e565b9050602081019050919050565b82818337600083830152505050565b6000612d82612d7d84612d2f565b612d14565b905082815260208101848484011115612d9e57612d9d612caf565b5b612da9848285612d60565b509392505050565b600082601f830112612dc657612dc5612caa565b5b8135612dd6848260208601612d6f565b91505092915050565b60008060408385031215612df657612df56122f6565b5b600083013567ffffffffffffffff811115612e1457612e136122fb565b5b612e2085828601612db1565b925050602083013567ffffffffffffffff811115612e4157612e406122fb565b5b612e4d85828601612db1565b9150509250929050565b6000604082019050612e6c6000830185612397565b612e796020830184612397565b9392505050565b600082825260208201905092915050565b7f4e6f7420612064617461206f776e657200000000000000000000000000000000600082015250565b6000612ec7601083612e80565b9150612ed282612e91565b602082019050919050565b60006020820190508181036000830152612ef681612eba565b9050919050565b7f496e76616c69642062696420696e646578000000000000000000000000000000600082015250565b6000612f33601183612e80565b9150612f3e82612efd565b602082019050919050565b60006020820190508181036000830152612f6281612f26565b9050919050565b7f4e487b7100000000000000000000000000000000000000000000000000000000600052603260045260246000fd5b7f426964206973206e6f7420616374697665000000000000000000000000000000600082015250565b6000612fce601183612e80565b9150612fd982612f98565b602082019050919050565b60006020820190508181036000830152612ffd81612fc1565b9050919050565b7f42696420646f6573206e6f742062656c6f6e6720746f2074686973204461746160008201527f204f776e65720000000000000000000000000000000000000000000000000000602082015250565b6000613060602683612e80565b915061306b82613004565b604082019050919050565b6000602082019050818103600083015261308f81613053565b9050919050565b7f4e487b7100000000000000000000000000000000000000000000000000000000600052602260045260246000fd5b600060028204905060018216806130dd57607f821691505b602082108114156130f1576130f0613096565b5b50919050565b7f4e487b7100000000000000000000000000000000000000000000000000000000600052601160045260246000fd5b6000613131826123c1565b91507fffffffffffffffffffffffffffffffffffffffffffffffffffffffffffffffff821415613164576131636130f7565b5b600182019050919050565b7f416c72656164792072656769737465726564206173206461746120726571756560008201527f7374657200000000000000000000000000000000000000000000000000000000602082015250565b60006131cb602483612e80565b91506131d68261316f565b604082019050919050565b600060208201905081810360008301526131fa816131be565b9050919050565b7f416c726561647920726567697374657265642061732064617461206f776e6572600082015250565b6000613237602083612e80565b915061324282613201565b602082019050919050565b600060208201905081810360008301526132668161322a565b9050919050565b7f4e6f742061206461746120726571756573746572000000000000000000000000600082015250565b60006132a3601483612e80565b91506132ae8261326d565b602082019050919050565b600060208201905081810360008301526132d281613296565b9050919050565b7f5072696365206d75737420626520706f73697469766500000000000000000000600082015250565b600061330f601683612e80565b915061331a826132d9565b602082019050919050565b6000602082019050818103600083015261333e81613302565b9050919050565b7f506c656173652073656e64207468652062696420616d6f756e74000000000000600082015250565b600061337b601a83612e80565b915061338682613345565b602082019050919050565b600060208201905081810360008301526133aa8161336e565b9050919050565b7f596f7520646f6e27742068617665206163636573730000000000000000000000600082015250565b60006133e7601583612e80565b91506133f2826133b1565b602082019050919050565b60006020820190508181036000830152613416816133da565b9050919050565b6000604083016000830151848203600086015261343a828261268f565b91505060208301518482036020860152613454828261268f565b9150508091505092915050565b6000602082019050818103600083015261347b818461341d565b90509291505056fea26469706673582212209d6d6034c98d394ef2ae8a8dd6bcd91d8a7ebd225987c88dbcc92c915d068ce364736f6c63430008090033",
  "linkReferences": {},
  "deployedLinkReferences": {}
}