{
	"Storage.sol": {
		"Storage": {
			"abi": [
				{
					"inputs": [],
					"stateMutability": "nonpayable",
					"type": "constructor"
				},
				{
					"anonymous": false,
					"inputs": [
						{
							"indexed": false,
							"internalType": "uint256",
							"name": "id",
							"type": "uint256"
						},
						{
							"indexed": true,
							"internalType": "address",
							"name": "DO",
							"type": "address"
						}
					],
					"name": "BuyOrderCancelled",
					"type": "event"
				},
				{
					"anonymous": false,
					"inputs": [
						{
							"indexed": false,
							"internalType": "uint256",
							"name": "id",
							"type": "uint256"
						},
						{
							"indexed": true,
							"internalType": "address",
							"name": "DO",
							"type": "address"
						},
						{
							"indexed": false,
							"internalType": "uint256",
							"name": "volumeGB",
							"type": "uint256"
						},
						{
							"indexed": false,
							"internalType": "uint256",
							"name": "pricePerGB",
							"type": "uint256"
						},
						{
							"indexed": false,
							"internalType": "uint256",
							"name": "weiInitialAmount",
							"type": "uint256"
						}
					],
					"name": "BuyOrderCreated",
					"type": "event"
				},
				{
					"anonymous": false,
					"inputs": [
						{
							"indexed": false,
							"internalType": "uint256",
							"name": "id",
							"type": "uint256"
						},
						{
							"indexed": true,
							"internalType": "address",
							"name": "DSO",
							"type": "address"
						}
					],
					"name": "SellOrderCancelled",
					"type": "event"
				},
				{
					"anonymous": false,
					"inputs": [
						{
							"indexed": false,
							"internalType": "uint256",
							"name": "id",
							"type": "uint256"
						},
						{
							"indexed": true,
							"internalType": "address",
							"name": "DSO",
							"type": "address"
						},
						{
							"indexed": false,
							"internalType": "uint256",
							"name": "volumeGB",
							"type": "uint256"
						},
						{
							"indexed": false,
							"internalType": "uint256",
							"name": "pricePerGB",
							"type": "uint256"
						}
					],
					"name": "SellOrderCreated",
					"type": "event"
				},
				{
					"anonymous": false,
					"inputs": [
						{
							"indexed": false,
							"internalType": "uint256",
							"name": "id",
							"type": "uint256"
						},
						{
							"indexed": true,
							"internalType": "address",
							"name": "DO",
							"type": "address"
						},
						{
							"indexed": true,
							"internalType": "address",
							"name": "DSO",
							"type": "address"
						},
						{
							"indexed": false,
							"internalType": "uint256",
							"name": "volumeGB",
							"type": "uint256"
						},
						{
							"indexed": false,
							"internalType": "uint256",
							"name": "pricePerGB",
							"type": "uint256"
						}
					],
					"name": "StorageContractCreated",
					"type": "event"
				},
				{
					"anonymous": false,
					"inputs": [
						{
							"indexed": false,
							"internalType": "uint256",
							"name": "id",
							"type": "uint256"
						}
					],
					"name": "StorageContractStarted",
					"type": "event"
				},
				{
					"anonymous": false,
					"inputs": [
						{
							"indexed": false,
							"internalType": "uint256",
							"name": "id",
							"type": "uint256"
						},
						{
							"indexed": false,
							"internalType": "uint256",
							"name": "weiWithdrawn",
							"type": "uint256"
						}
					],
					"name": "StorageContractStopped",
					"type": "event"
				},
				{
					"anonymous": false,
					"inputs": [
						{
							"indexed": false,
							"internalType": "uint256",
							"name": "id",
							"type": "uint256"
						},
						{
							"indexed": false,
							"internalType": "uint256",
							"name": "weiWithdrawn",
							"type": "uint256"
						}
					],
					"name": "StorageContractWithdrawn",
					"type": "event"
				},
				{
					"inputs": [
						{
							"internalType": "uint256",
							"name": "buyOrderIndex",
							"type": "uint256"
						},
						{
							"internalType": "uint256",
							"name": "buyOrderID",
							"type": "uint256"
						}
					],
					"name": "cancelBuyOrder",
					"outputs": [],
					"stateMutability": "nonpayable",
					"type": "function"
				},
				{
					"inputs": [
						{
							"internalType": "uint256",
							"name": "sellOrderIndex",
							"type": "uint256"
						},
						{
							"internalType": "uint256",
							"name": "sellOrderID",
							"type": "uint256"
						}
					],
					"name": "cancelSellOrder",
					"outputs": [],
					"stateMutability": "nonpayable",
					"type": "function"
				},
				{
					"inputs": [
						{
							"internalType": "uint256",
							"name": "volumeGB",
							"type": "uint256"
						},
						{
							"internalType": "uint256",
							"name": "pricePerGB",
							"type": "uint256"
						},
						{
							"internalType": "string",
							"name": "DOConnectionInfo",
							"type": "string"
						}
					],
					"name": "createBuyOrder",
					"outputs": [],
					"stateMutability": "payable",
					"type": "function"
				},
				{
					"inputs": [
						{
							"internalType": "uint256",
							"name": "volumeGB",
							"type": "uint256"
						},
						{
							"internalType": "uint256",
							"name": "pricePerGB",
							"type": "uint256"
						},
						{
							"internalType": "string",
							"name": "DSOConnectionInfo",
							"type": "string"
						}
					],
					"name": "createSellOrder",
					"outputs": [],
					"stateMutability": "nonpayable",
					"type": "function"
				},
				{
					"inputs": [
						{
							"internalType": "uint256",
							"name": "orderIndex",
							"type": "uint256"
						},
						{
							"internalType": "uint256",
							"name": "orderID",
							"type": "uint256"
						},
						{
							"internalType": "uint256",
							"name": "orderType",
							"type": "uint256"
						},
						{
							"internalType": "string",
							"name": "connectionInfo",
							"type": "string"
						}
					],
					"name": "createStorageContract",
					"outputs": [
						{
							"internalType": "uint256",
							"name": "newStorageContractID",
							"type": "uint256"
						}
					],
					"stateMutability": "payable",
					"type": "function"
				},
				{
					"inputs": [],
					"name": "owner",
					"outputs": [
						{
							"internalType": "address",
							"name": "",
							"type": "address"
						}
					],
					"stateMutability": "view",
					"type": "function"
				},
				{
					"inputs": [
						{
							"internalType": "uint256",
							"name": "storageContractIndex",
							"type": "uint256"
						},
						{
							"internalType": "uint256",
							"name": "storageContractID",
							"type": "uint256"
						}
					],
					"name": "startStorageContract",
					"outputs": [],
					"stateMutability": "nonpayable",
					"type": "function"
				},
				{
					"inputs": [
						{
							"internalType": "uint256",
							"name": "storageContractIndex",
							"type": "uint256"
						},
						{
							"internalType": "uint256",
							"name": "storageContractID",
							"type": "uint256"
						}
					],
					"name": "stopStorageContract",
					"outputs": [
						{
							"internalType": "uint256",
							"name": "",
							"type": "uint256"
						}
					],
					"stateMutability": "nonpayable",
					"type": "function"
				},
				{
					"inputs": [
						{
							"internalType": "uint256",
							"name": "storageContractIndex",
							"type": "uint256"
						},
						{
							"internalType": "uint256",
							"name": "storageContractID",
							"type": "uint256"
						}
					],
					"name": "withdrawFromStorageContract",
					"outputs": [
						{
							"internalType": "uint256",
							"name": "",
							"type": "uint256"
						}
					],
					"stateMutability": "nonpayable",
					"type": "function"
				}
			],
			"devdoc": {
				"kind": "dev",
				"methods": {},
				"version": 1
			},
			"evm": {
				"assembly": "    /* \"Storage.sol\":62:7372  contract Storage {... */\n  mstore(0x40, 0x80)\n    /* \"Storage.sol\":1742:1793  constructor() {... */\n  callvalue\n  dup1\n  iszero\n  tag_1\n  jumpi\n  0x00\n  dup1\n  revert\ntag_1:\n  pop\n    /* \"Storage.sol\":1775:1785  msg.sender */\n  caller\n    /* \"Storage.sol\":1767:1772  owner */\n  0x00\n  dup1\n    /* \"Storage.sol\":1767:1785  owner = msg.sender */\n  0x0100\n  exp\n  dup2\n  sload\n  dup2\n  0xffffffffffffffffffffffffffffffffffffffff\n  mul\n  not\n  and\n  swap1\n  dup4\n  0xffffffffffffffffffffffffffffffffffffffff\n  and\n  mul\n  or\n  swap1\n  sstore\n  pop\n    /* \"Storage.sol\":62:7372  contract Storage {... */\n  dataSize(sub_0)\n  dup1\n  dataOffset(sub_0)\n  0x00\n  codecopy\n  0x00\n  return\nstop\n\nsub_0: assembly {\n        /* \"Storage.sol\":62:7372  contract Storage {... */\n      mstore(0x40, 0x80)\n      jumpi(tag_1, lt(calldatasize, 0x04))\n      shr(0xe0, calldataload(0x00))\n      dup1\n      0x90664d6a\n      gt\n      tag_11\n      jumpi\n      dup1\n      0x90664d6a\n      eq\n      tag_6\n      jumpi\n      dup1\n      0x9589d464\n      eq\n      tag_7\n      jumpi\n      dup1\n      0xdd23400b\n      eq\n      tag_8\n      jumpi\n      dup1\n      0xe51dfd90\n      eq\n      tag_9\n      jumpi\n      dup1\n      0xeb38b7b3\n      eq\n      tag_10\n      jumpi\n      jump(tag_1)\n    tag_11:\n      dup1\n      0x14d3c7a5\n      eq\n      tag_2\n      jumpi\n      dup1\n      0x5279371e\n      eq\n      tag_3\n      jumpi\n      dup1\n      0x8c748334\n      eq\n      tag_4\n      jumpi\n      dup1\n      0x8da5cb5b\n      eq\n      tag_5\n      jumpi\n    tag_1:\n      0x00\n      dup1\n      revert\n        /* \"Storage.sol\":4685:4887  function createStorageContract(uint orderIndex, uint orderID, uint orderType, string memory connectionInfo) public payable returns (uint newStorageContractID) {... */\n    tag_2:\n      tag_12\n      0x04\n      dup1\n      calldatasize\n      sub\n      dup2\n      add\n      swap1\n      tag_13\n      swap2\n      swap1\n      tag_14\n      jump\t// in\n    tag_13:\n      tag_15\n      jump\t// in\n    tag_12:\n      mload(0x40)\n      tag_16\n      swap2\n      swap1\n      tag_17\n      jump\t// in\n    tag_16:\n      mload(0x40)\n      dup1\n      swap2\n      sub\n      swap1\n      return\n        /* \"Storage.sol\":4026:4317  function createSellOrder(uint volumeGB, uint pricePerGB, string memory DSOConnectionInfo) public {... */\n    tag_3:\n      callvalue\n      dup1\n      iszero\n      tag_18\n      jumpi\n      0x00\n      dup1\n      revert\n    tag_18:\n      pop\n      tag_19\n      0x04\n      dup1\n      calldatasize\n      sub\n      dup2\n      add\n      swap1\n      tag_20\n      swap2\n      swap1\n      tag_21\n      jump\t// in\n    tag_20:\n      tag_22\n      jump\t// in\n    tag_19:\n      stop\n        /* \"Storage.sol\":3548:4018  function cancelBuyOrder(uint buyOrderIndex, uint buyOrderID) public{... */\n    tag_4:\n      callvalue\n      dup1\n      iszero\n      tag_23\n      jumpi\n      0x00\n      dup1\n      revert\n    tag_23:\n      pop\n      tag_24\n      0x04\n      dup1\n      calldatasize\n      sub\n      dup2\n      add\n      swap1\n      tag_25\n      swap2\n      swap1\n      tag_26\n      jump\t// in\n    tag_25:\n      tag_27\n      jump\t// in\n    tag_24:\n      stop\n        /* \"Storage.sol\":86:106  address public owner */\n    tag_5:\n      callvalue\n      dup1\n      iszero\n      tag_28\n      jumpi\n      0x00\n      dup1\n      revert\n    tag_28:\n      pop\n      tag_29\n      tag_30\n      jump\t// in\n    tag_29:\n      mload(0x40)\n      tag_31\n      swap2\n      swap1\n      tag_32\n      jump\t// in\n    tag_31:\n      mload(0x40)\n      dup1\n      swap2\n      sub\n      swap1\n      return\n        /* \"Storage.sol\":5712:6191  function startStorageContract(uint storageContractIndex, uint storageContractID) public {... */\n    tag_6:\n      callvalue\n      dup1\n      iszero\n      tag_33\n      jumpi\n      0x00\n      dup1\n      revert\n    tag_33:\n      pop\n      tag_34\n      0x04\n      dup1\n      calldatasize\n      sub\n      dup2\n      add\n      swap1\n      tag_35\n      swap2\n      swap1\n      tag_26\n      jump\t// in\n    tag_35:\n      tag_36\n      jump\t// in\n    tag_34:\n      stop\n        /* \"Storage.sol\":3226:3540  function createBuyOrder(uint volumeGB, uint pricePerGB, string memory DOConnectionInfo) public payable  {... */\n    tag_7:\n      tag_37\n      0x04\n      dup1\n      calldatasize\n      sub\n      dup2\n      add\n      swap1\n      tag_38\n      swap2\n      swap1\n      tag_21\n      jump\t// in\n    tag_38:\n      tag_39\n      jump\t// in\n    tag_37:\n      stop\n        /* \"Storage.sol\":6199:7367  function stopStorageContract(uint storageContractIndex, uint storageContractID) public returns (uint) {... */\n    tag_8:\n      callvalue\n      dup1\n      iszero\n      tag_40\n      jumpi\n      0x00\n      dup1\n      revert\n    tag_40:\n      pop\n      tag_41\n      0x04\n      dup1\n      calldatasize\n      sub\n      dup2\n      add\n      swap1\n      tag_42\n      swap2\n      swap1\n      tag_26\n      jump\t// in\n    tag_42:\n      tag_43\n      jump\t// in\n    tag_41:\n      mload(0x40)\n      tag_44\n      swap2\n      swap1\n      tag_17\n      jump\t// in\n    tag_44:\n      mload(0x40)\n      dup1\n      swap2\n      sub\n      swap1\n      return\n        /* \"Storage.sol\":4325:4677  function cancelSellOrder(uint sellOrderIndex, uint sellOrderID) public {... */\n    tag_9:\n      callvalue\n      dup1\n      iszero\n      tag_45\n      jumpi\n      0x00\n      dup1\n      revert\n    tag_45:\n      pop\n      tag_46\n      0x04\n      dup1\n      calldatasize\n      sub\n      dup2\n      add\n      swap1\n      tag_47\n      swap2\n      swap1\n      tag_26\n      jump\t// in\n    tag_47:\n      tag_48\n      jump\t// in\n    tag_46:\n      stop\n        /* \"Storage.sol\":4895:5700  function withdrawFromStorageContract(uint storageContractIndex, uint storageContractID) public returns (uint) {... */\n    tag_10:\n      callvalue\n      dup1\n      iszero\n      tag_49\n      jumpi\n      0x00\n      dup1\n      revert\n    tag_49:\n      pop\n      tag_50\n      0x04\n      dup1\n      calldatasize\n      sub\n      dup2\n      add\n      swap1\n      tag_51\n      swap2\n      swap1\n      tag_26\n      jump\t// in\n    tag_51:\n      tag_52\n      jump\t// in\n    tag_50:\n      mload(0x40)\n      tag_53\n      swap2\n      swap1\n      tag_17\n      jump\t// in\n    tag_53:\n      mload(0x40)\n      dup1\n      swap2\n      sub\n      swap1\n      return\n        /* \"Storage.sol\":4685:4887  function createStorageContract(uint orderIndex, uint orderID, uint orderType, string memory connectionInfo) public payable returns (uint newStorageContractID) {... */\n    tag_15:\n        /* \"Storage.sol\":4817:4842  uint newStorageContractID */\n      0x00\n        /* \"Storage.sol\":4685:4887  function createStorageContract(uint orderIndex, uint orderID, uint orderType, string memory connectionInfo) public payable returns (uint newStorageContractID) {... */\n      swap5\n      swap4\n      pop\n      pop\n      pop\n      pop\n      jump\t// out\n        /* \"Storage.sol\":4026:4317  function createSellOrder(uint volumeGB, uint pricePerGB, string memory DSOConnectionInfo) public {... */\n    tag_22:\n        /* \"Storage.sol\":4134:4146  sellOrderArr */\n      0x04\n        /* \"Storage.sol\":4152:4229  SellOrder(++sellOrderId, msg.sender, volumeGB, pricePerGB, DSOConnectionInfo) */\n      mload(0x40)\n      dup1\n      0xa0\n      add\n      0x40\n      mstore\n      dup1\n        /* \"Storage.sol\":4164:4175  sellOrderId */\n      0x01\n      0x00\n        /* \"Storage.sol\":4162:4175  ++sellOrderId */\n      dup2\n      sload\n      tag_56\n      swap1\n      tag_57\n      jump\t// in\n    tag_56:\n      swap2\n      swap1\n      pop\n      dup2\n      swap1\n      sstore\n        /* \"Storage.sol\":4152:4229  SellOrder(++sellOrderId, msg.sender, volumeGB, pricePerGB, DSOConnectionInfo) */\n      dup2\n      mstore\n      0x20\n      add\n        /* \"Storage.sol\":4177:4187  msg.sender */\n      caller\n        /* \"Storage.sol\":4152:4229  SellOrder(++sellOrderId, msg.sender, volumeGB, pricePerGB, DSOConnectionInfo) */\n      0xffffffffffffffffffffffffffffffffffffffff\n      and\n      dup2\n      mstore\n      0x20\n      add\n        /* \"Storage.sol\":4189:4197  volumeGB */\n      dup6\n        /* \"Storage.sol\":4152:4229  SellOrder(++sellOrderId, msg.sender, volumeGB, pricePerGB, DSOConnectionInfo) */\n      dup2\n      mstore\n      0x20\n      add\n        /* \"Storage.sol\":4199:4209  pricePerGB */\n      dup5\n        /* \"Storage.sol\":4152:4229  SellOrder(++sellOrderId, msg.sender, volumeGB, pricePerGB, DSOConnectionInfo) */\n      dup2\n      mstore\n      0x20\n      add\n        /* \"Storage.sol\":4211:4228  DSOConnectionInfo */\n      dup4\n        /* \"Storage.sol\":4152:4229  SellOrder(++sellOrderId, msg.sender, volumeGB, pricePerGB, DSOConnectionInfo) */\n      dup2\n      mstore\n      pop\n        /* \"Storage.sol\":4134:4230  sellOrderArr.push(SellOrder(++sellOrderId, msg.sender, volumeGB, pricePerGB, DSOConnectionInfo)) */\n      swap1\n      dup1\n      0x01\n      dup2\n      sload\n      add\n      dup1\n      dup3\n      sstore\n      dup1\n      swap2\n      pop\n      pop\n      0x01\n      swap1\n      sub\n      swap1\n      0x00\n      mstore\n      keccak256(0x00, 0x20)\n      swap1\n      0x05\n      mul\n      add\n      0x00\n      swap1\n      swap2\n      swap1\n      swap2\n      swap1\n      swap2\n      pop\n      0x00\n      dup3\n      add\n      mload\n      dup2\n      0x00\n      add\n      sstore\n      0x20\n      dup3\n      add\n      mload\n      dup2\n      0x01\n      add\n      exp(0x0100, 0x00)\n      dup2\n      sload\n      dup2\n      0xffffffffffffffffffffffffffffffffffffffff\n      mul\n      not\n      and\n      swap1\n      dup4\n      0xffffffffffffffffffffffffffffffffffffffff\n      and\n      mul\n      or\n      swap1\n      sstore\n      pop\n      0x40\n      dup3\n      add\n      mload\n      dup2\n      0x02\n      add\n      sstore\n      0x60\n      dup3\n      add\n      mload\n      dup2\n      0x03\n      add\n      sstore\n      0x80\n      dup3\n      add\n      mload\n      dup2\n      0x04\n      add\n      swap1\n      dup2\n      tag_59\n      swap2\n      swap1\n      tag_60\n      jump\t// in\n    tag_59:\n      pop\n      pop\n      pop\n        /* \"Storage.sol\":4276:4286  msg.sender */\n      caller\n        /* \"Storage.sol\":4246:4309  SellOrderCreated(sellOrderId, msg.sender, volumeGB, pricePerGB) */\n      0xffffffffffffffffffffffffffffffffffffffff\n      and\n      0x80a49be05481ef1a555cd6ea5845b05ffa157f18a6e61d3030f9bc5d25f3294a\n        /* \"Storage.sol\":4263:4274  sellOrderId */\n      sload(0x01)\n        /* \"Storage.sol\":4288:4296  volumeGB */\n      dup6\n        /* \"Storage.sol\":4298:4308  pricePerGB */\n      dup6\n        /* \"Storage.sol\":4246:4309  SellOrderCreated(sellOrderId, msg.sender, volumeGB, pricePerGB) */\n      mload(0x40)\n      tag_61\n      swap4\n      swap3\n      swap2\n      swap1\n      tag_62\n      jump\t// in\n    tag_61:\n      mload(0x40)\n      dup1\n      swap2\n      sub\n      swap1\n      log2\n        /* \"Storage.sol\":4026:4317  function createSellOrder(uint volumeGB, uint pricePerGB, string memory DSOConnectionInfo) public {... */\n      pop\n      pop\n      pop\n      jump\t// out\n        /* \"Storage.sol\":3548:4018  function cancelBuyOrder(uint buyOrderIndex, uint buyOrderID) public{... */\n    tag_27:\n        /* \"Storage.sol\":3626:3648  BuyOrder storage order */\n      0x00\n        /* \"Storage.sol\":3651:3662  buyOrderArr */\n      0x05\n        /* \"Storage.sol\":3663:3676  buyOrderIndex */\n      dup4\n        /* \"Storage.sol\":3651:3677  buyOrderArr[buyOrderIndex] */\n      dup2\n      sload\n      dup2\n      lt\n      tag_64\n      jumpi\n      tag_65\n      tag_66\n      jump\t// in\n    tag_65:\n    tag_64:\n      swap1\n      0x00\n      mstore\n      keccak256(0x00, 0x20)\n      swap1\n      0x06\n      mul\n      add\n        /* \"Storage.sol\":3626:3677  BuyOrder storage order = buyOrderArr[buyOrderIndex] */\n      swap1\n      pop\n        /* \"Storage.sol\":3708:3718  msg.sender */\n      caller\n        /* \"Storage.sol\":3696:3718  order.DO == msg.sender */\n      0xffffffffffffffffffffffffffffffffffffffff\n      and\n        /* \"Storage.sol\":3696:3701  order */\n      dup2\n        /* \"Storage.sol\":3696:3704  order.DO */\n      0x01\n      add\n      0x00\n      swap1\n      sload\n      swap1\n      0x0100\n      exp\n      swap1\n      div\n      0xffffffffffffffffffffffffffffffffffffffff\n      and\n        /* \"Storage.sol\":3696:3718  order.DO == msg.sender */\n      0xffffffffffffffffffffffffffffffffffffffff\n      and\n      eq\n        /* \"Storage.sol\":3696:3744  order.DO == msg.sender && order.id == buyOrderID */\n      dup1\n      iszero\n      tag_68\n      jumpi\n      pop\n        /* \"Storage.sol\":3734:3744  buyOrderID */\n      dup2\n        /* \"Storage.sol\":3722:3727  order */\n      dup2\n        /* \"Storage.sol\":3722:3730  order.id */\n      0x00\n      add\n      sload\n        /* \"Storage.sol\":3722:3744  order.id == buyOrderID */\n      eq\n        /* \"Storage.sol\":3696:3744  order.DO == msg.sender && order.id == buyOrderID */\n    tag_68:\n        /* \"Storage.sol\":3688:3773  require(order.DO == msg.sender && order.id == buyOrderID, \"Not authorized to cancel\") */\n      tag_69\n      jumpi\n      mload(0x40)\n      0x08c379a000000000000000000000000000000000000000000000000000000000\n      dup2\n      mstore\n      0x04\n      add\n      tag_70\n      swap1\n      tag_71\n      jump\t// in\n    tag_70:\n      mload(0x40)\n      dup1\n      swap2\n      sub\n      swap1\n      revert\n    tag_69:\n        /* \"Storage.sol\":3786:3797  uint amount */\n      0x00\n        /* \"Storage.sol\":3800:3805  order */\n      dup2\n        /* \"Storage.sol\":3800:3822  order.weiInitialAmount */\n      0x04\n      add\n      sload\n        /* \"Storage.sol\":3786:3822  uint amount = order.weiInitialAmount */\n      swap1\n      pop\n        /* \"Storage.sol\":3833:3871  deleteBuyOrderFromArray(buyOrderIndex) */\n      tag_72\n        /* \"Storage.sol\":3857:3870  buyOrderIndex */\n      dup5\n        /* \"Storage.sol\":3833:3856  deleteBuyOrderFromArray */\n      tag_73\n        /* \"Storage.sol\":3833:3871  deleteBuyOrderFromArray(buyOrderIndex) */\n      jump\t// in\n    tag_72:\n        /* \"Storage.sol\":3890:3900  msg.sender */\n      caller\n        /* \"Storage.sol\":3882:3910  payable(msg.sender).transfer */\n      0xffffffffffffffffffffffffffffffffffffffff\n      and\n        /* \"Storage.sol\":3882:3918  payable(msg.sender).transfer(amount) */\n      0x08fc\n        /* \"Storage.sol\":3911:3917  amount */\n      dup3\n        /* \"Storage.sol\":3882:3918  payable(msg.sender).transfer(amount) */\n      swap1\n      dup2\n      iszero\n      mul\n      swap1\n      mload(0x40)\n      0x00\n      mload(0x40)\n      dup1\n      dup4\n      sub\n      dup2\n      dup6\n      dup9\n      dup9\n      call\n      swap4\n      pop\n      pop\n      pop\n      pop\n      iszero\n      dup1\n      iszero\n      tag_75\n      jumpi\n      returndatasize\n      0x00\n      dup1\n      returndatacopy\n      revert(0x00, returndatasize)\n    tag_75:\n      pop\n        /* \"Storage.sol\":3999:4009  msg.sender */\n      caller\n        /* \"Storage.sol\":3969:4010  BuyOrderCancelled(buyOrderID, msg.sender) */\n      0xffffffffffffffffffffffffffffffffffffffff\n      and\n      0x5868c0b8c4243c19ec4ab86d6673f3116ac0320303644657c8ade45446f15753\n        /* \"Storage.sol\":3987:3997  buyOrderID */\n      dup5\n        /* \"Storage.sol\":3969:4010  BuyOrderCancelled(buyOrderID, msg.sender) */\n      mload(0x40)\n      tag_76\n      swap2\n      swap1\n      tag_17\n      jump\t// in\n    tag_76:\n      mload(0x40)\n      dup1\n      swap2\n      sub\n      swap1\n      log2\n        /* \"Storage.sol\":3615:4018  {... */\n      pop\n      pop\n        /* \"Storage.sol\":3548:4018  function cancelBuyOrder(uint buyOrderIndex, uint buyOrderID) public{... */\n      pop\n      pop\n      jump\t// out\n        /* \"Storage.sol\":86:106  address public owner */\n    tag_30:\n      0x00\n      dup1\n      sload\n      swap1\n      0x0100\n      exp\n      swap1\n      div\n      0xffffffffffffffffffffffffffffffffffffffff\n      and\n      dup2\n      jump\t// out\n        /* \"Storage.sol\":5712:6191  function startStorageContract(uint storageContractIndex, uint storageContractID) public {... */\n    tag_36:\n        /* \"Storage.sol\":5811:5836  StorageContract storage c */\n      0x00\n        /* \"Storage.sol\":5839:5857  storageContractArr */\n      0x06\n        /* \"Storage.sol\":5858:5878  storageContractIndex */\n      dup4\n        /* \"Storage.sol\":5839:5879  storageContractArr[storageContractIndex] */\n      dup2\n      sload\n      dup2\n      lt\n      tag_78\n      jumpi\n      tag_79\n      tag_66\n      jump\t// in\n    tag_79:\n    tag_78:\n      swap1\n      0x00\n      mstore\n      keccak256(0x00, 0x20)\n      swap1\n      0x0b\n      mul\n      add\n        /* \"Storage.sol\":5811:5879  StorageContract storage c = storageContractArr[storageContractIndex] */\n      swap1\n      pop\n        /* \"Storage.sol\":5906:5916  msg.sender */\n      caller\n        /* \"Storage.sol\":5898:5916  c.DO == msg.sender */\n      0xffffffffffffffffffffffffffffffffffffffff\n      and\n        /* \"Storage.sol\":5898:5899  c */\n      dup2\n        /* \"Storage.sol\":5898:5902  c.DO */\n      0x01\n      add\n      0x00\n      swap1\n      sload\n      swap1\n      0x0100\n      exp\n      swap1\n      div\n      0xffffffffffffffffffffffffffffffffffffffff\n      and\n        /* \"Storage.sol\":5898:5916  c.DO == msg.sender */\n      0xffffffffffffffffffffffffffffffffffffffff\n      and\n      eq\n        /* \"Storage.sol\":5898:5945  c.DO == msg.sender && c.id == storageContractID */\n      dup1\n      iszero\n      tag_81\n      jumpi\n      pop\n        /* \"Storage.sol\":5928:5945  storageContractID */\n      dup2\n        /* \"Storage.sol\":5920:5921  c */\n      dup2\n        /* \"Storage.sol\":5920:5924  c.id */\n      0x00\n      add\n      sload\n        /* \"Storage.sol\":5920:5945  c.id == storageContractID */\n      eq\n        /* \"Storage.sol\":5898:5945  c.DO == msg.sender && c.id == storageContractID */\n    tag_81:\n        /* \"Storage.sol\":5890:5962  require(c.DO == msg.sender && c.id == storageContractID, \"Unauthorized\") */\n      tag_82\n      jumpi\n      mload(0x40)\n      0x08c379a000000000000000000000000000000000000000000000000000000000\n      dup2\n      mstore\n      0x04\n      add\n      tag_83\n      swap1\n      tag_84\n      jump\t// in\n    tag_83:\n      mload(0x40)\n      dup1\n      swap2\n      sub\n      swap1\n      revert\n    tag_82:\n        /* \"Storage.sol\":6068:6080  block.number */\n      number\n        /* \"Storage.sol\":6054:6055  c */\n      dup2\n        /* \"Storage.sol\":6054:6065  c.startDate */\n      0x06\n      add\n        /* \"Storage.sol\":6054:6080  c.startDate = block.number */\n      dup2\n      swap1\n      sstore\n      pop\n        /* \"Storage.sol\":6112:6124  block.number */\n      number\n        /* \"Storage.sol\":6091:6092  c */\n      dup2\n        /* \"Storage.sol\":6091:6109  c.withdrawedAtDate */\n      0x0a\n      add\n        /* \"Storage.sol\":6091:6124  c.withdrawedAtDate = block.number */\n      dup2\n      swap1\n      sstore\n      pop\n        /* \"Storage.sol\":6142:6183  StorageContractStarted(storageContractID) */\n      0x13ba679b7b0edc3119e5b425d59f1c1644ecb5acb77321fb8b205a36525a47e7\n        /* \"Storage.sol\":6165:6182  storageContractID */\n      dup3\n        /* \"Storage.sol\":6142:6183  StorageContractStarted(storageContractID) */\n      mload(0x40)\n      tag_85\n      swap2\n      swap1\n      tag_17\n      jump\t// in\n    tag_85:\n      mload(0x40)\n      dup1\n      swap2\n      sub\n      swap1\n      log1\n        /* \"Storage.sol\":5800:6191  {... */\n      pop\n        /* \"Storage.sol\":5712:6191  function startStorageContract(uint storageContractIndex, uint storageContractID) public {... */\n      pop\n      pop\n      jump\t// out\n        /* \"Storage.sol\":3226:3540  function createBuyOrder(uint volumeGB, uint pricePerGB, string memory DOConnectionInfo) public payable  {... */\n    tag_39:\n        /* \"Storage.sol\":3341:3352  buyOrderArr */\n      0x05\n        /* \"Storage.sol\":3358:3443  BuyOrder(++buyOrderId, msg.sender, volumeGB, pricePerGB, msg.value, DOConnectionInfo) */\n      mload(0x40)\n      dup1\n      0xc0\n      add\n      0x40\n      mstore\n      dup1\n        /* \"Storage.sol\":3369:3379  buyOrderId */\n      0x02\n      0x00\n        /* \"Storage.sol\":3367:3379  ++buyOrderId */\n      dup2\n      sload\n      tag_87\n      swap1\n      tag_57\n      jump\t// in\n    tag_87:\n      swap2\n      swap1\n      pop\n      dup2\n      swap1\n      sstore\n        /* \"Storage.sol\":3358:3443  BuyOrder(++buyOrderId, msg.sender, volumeGB, pricePerGB, msg.value, DOConnectionInfo) */\n      dup2\n      mstore\n      0x20\n      add\n        /* \"Storage.sol\":3381:3391  msg.sender */\n      caller\n        /* \"Storage.sol\":3358:3443  BuyOrder(++buyOrderId, msg.sender, volumeGB, pricePerGB, msg.value, DOConnectionInfo) */\n      0xffffffffffffffffffffffffffffffffffffffff\n      and\n      dup2\n      mstore\n      0x20\n      add\n        /* \"Storage.sol\":3393:3401  volumeGB */\n      dup6\n        /* \"Storage.sol\":3358:3443  BuyOrder(++buyOrderId, msg.sender, volumeGB, pricePerGB, msg.value, DOConnectionInfo) */\n      dup2\n      mstore\n      0x20\n      add\n        /* \"Storage.sol\":3403:3413  pricePerGB */\n      dup5\n        /* \"Storage.sol\":3358:3443  BuyOrder(++buyOrderId, msg.sender, volumeGB, pricePerGB, msg.value, DOConnectionInfo) */\n      dup2\n      mstore\n      0x20\n      add\n        /* \"Storage.sol\":3415:3424  msg.value */\n      callvalue\n        /* \"Storage.sol\":3358:3443  BuyOrder(++buyOrderId, msg.sender, volumeGB, pricePerGB, msg.value, DOConnectionInfo) */\n      dup2\n      mstore\n      0x20\n      add\n        /* \"Storage.sol\":3426:3442  DOConnectionInfo */\n      dup4\n        /* \"Storage.sol\":3358:3443  BuyOrder(++buyOrderId, msg.sender, volumeGB, pricePerGB, msg.value, DOConnectionInfo) */\n      dup2\n      mstore\n      pop\n        /* \"Storage.sol\":3341:3444  buyOrderArr.push(BuyOrder(++buyOrderId, msg.sender, volumeGB, pricePerGB, msg.value, DOConnectionInfo)) */\n      swap1\n      dup1\n      0x01\n      dup2\n      sload\n      add\n      dup1\n      dup3\n      sstore\n      dup1\n      swap2\n      pop\n      pop\n      0x01\n      swap1\n      sub\n      swap1\n      0x00\n      mstore\n      keccak256(0x00, 0x20)\n      swap1\n      0x06\n      mul\n      add\n      0x00\n      swap1\n      swap2\n      swap1\n      swap2\n      swap1\n      swap2\n      pop\n      0x00\n      dup3\n      add\n      mload\n      dup2\n      0x00\n      add\n      sstore\n      0x20\n      dup3\n      add\n      mload\n      dup2\n      0x01\n      add\n      exp(0x0100, 0x00)\n      dup2\n      sload\n      dup2\n      0xffffffffffffffffffffffffffffffffffffffff\n      mul\n      not\n      and\n      swap1\n      dup4\n      0xffffffffffffffffffffffffffffffffffffffff\n      and\n      mul\n      or\n      swap1\n      sstore\n      pop\n      0x40\n      dup3\n      add\n      mload\n      dup2\n      0x02\n      add\n      sstore\n      0x60\n      dup3\n      add\n      mload\n      dup2\n      0x03\n      add\n      sstore\n      0x80\n      dup3\n      add\n      mload\n      dup2\n      0x04\n      add\n      sstore\n      0xa0\n      dup3\n      add\n      mload\n      dup2\n      0x05\n      add\n      swap1\n      dup2\n      tag_89\n      swap2\n      swap1\n      tag_60\n      jump\t// in\n    tag_89:\n      pop\n      pop\n      pop\n        /* \"Storage.sol\":3488:3498  msg.sender */\n      caller\n        /* \"Storage.sol\":3460:3532  BuyOrderCreated(buyOrderId, msg.sender, volumeGB, pricePerGB, msg.value) */\n      0xffffffffffffffffffffffffffffffffffffffff\n      and\n      0x1aa9fda519ac5fbe95b5ac154baa6985ef9883b6b9ed8e01e2f7f2618d816c98\n        /* \"Storage.sol\":3476:3486  buyOrderId */\n      sload(0x02)\n        /* \"Storage.sol\":3500:3508  volumeGB */\n      dup6\n        /* \"Storage.sol\":3510:3520  pricePerGB */\n      dup6\n        /* \"Storage.sol\":3522:3531  msg.value */\n      callvalue\n        /* \"Storage.sol\":3460:3532  BuyOrderCreated(buyOrderId, msg.sender, volumeGB, pricePerGB, msg.value) */\n      mload(0x40)\n      tag_90\n      swap5\n      swap4\n      swap3\n      swap2\n      swap1\n      tag_91\n      jump\t// in\n    tag_90:\n      mload(0x40)\n      dup1\n      swap2\n      sub\n      swap1\n      log2\n        /* \"Storage.sol\":3226:3540  function createBuyOrder(uint volumeGB, uint pricePerGB, string memory DOConnectionInfo) public payable  {... */\n      pop\n      pop\n      pop\n      jump\t// out\n        /* \"Storage.sol\":6199:7367  function stopStorageContract(uint storageContractIndex, uint storageContractID) public returns (uint) {... */\n    tag_43:\n        /* \"Storage.sol\":6295:6299  uint */\n      0x00\n        /* \"Storage.sol\":6312:6337  StorageContract storage c */\n      dup1\n        /* \"Storage.sol\":6340:6358  storageContractArr */\n      0x06\n        /* \"Storage.sol\":6359:6379  storageContractIndex */\n      dup5\n        /* \"Storage.sol\":6340:6380  storageContractArr[storageContractIndex] */\n      dup2\n      sload\n      dup2\n      lt\n      tag_93\n      jumpi\n      tag_94\n      tag_66\n      jump\t// in\n    tag_94:\n    tag_93:\n      swap1\n      0x00\n      mstore\n      keccak256(0x00, 0x20)\n      swap1\n      0x0b\n      mul\n      add\n        /* \"Storage.sol\":6312:6380  StorageContract storage c = storageContractArr[storageContractIndex] */\n      swap1\n      pop\n        /* \"Storage.sol\":6407:6424  storageContractID */\n      dup3\n        /* \"Storage.sol\":6399:6400  c */\n      dup2\n        /* \"Storage.sol\":6399:6403  c.id */\n      0x00\n      add\n      sload\n        /* \"Storage.sol\":6399:6424  c.id == storageContractID */\n      eq\n        /* \"Storage.sol\":6399:6443  c.id == storageContractID && c.stopDate == 0 */\n      dup1\n      iszero\n      tag_96\n      jumpi\n      pop\n        /* \"Storage.sol\":6442:6443  0 */\n      0x00\n        /* \"Storage.sol\":6428:6429  c */\n      dup2\n        /* \"Storage.sol\":6428:6438  c.stopDate */\n      0x07\n      add\n      sload\n        /* \"Storage.sol\":6428:6443  c.stopDate == 0 */\n      eq\n        /* \"Storage.sol\":6399:6443  c.id == storageContractID && c.stopDate == 0 */\n    tag_96:\n        /* \"Storage.sol\":6391:6483  require(c.id == storageContractID && c.stopDate == 0, \"Contract already stopped or invalid\") */\n      tag_97\n      jumpi\n      mload(0x40)\n      0x08c379a000000000000000000000000000000000000000000000000000000000\n      dup2\n      mstore\n      0x04\n      add\n      tag_98\n      swap1\n      tag_99\n      jump\t// in\n    tag_98:\n      mload(0x40)\n      dup1\n      swap2\n      sub\n      swap1\n      revert\n    tag_97:\n        /* \"Storage.sol\":6510:6520  msg.sender */\n      caller\n        /* \"Storage.sol\":6502:6520  c.DO == msg.sender */\n      0xffffffffffffffffffffffffffffffffffffffff\n      and\n        /* \"Storage.sol\":6502:6503  c */\n      dup2\n        /* \"Storage.sol\":6502:6506  c.DO */\n      0x01\n      add\n      0x00\n      swap1\n      sload\n      swap1\n      0x0100\n      exp\n      swap1\n      div\n      0xffffffffffffffffffffffffffffffffffffffff\n      and\n        /* \"Storage.sol\":6502:6520  c.DO == msg.sender */\n      0xffffffffffffffffffffffffffffffffffffffff\n      and\n      eq\n        /* \"Storage.sol\":6502:6543  c.DO == msg.sender || c.DSO == msg.sender */\n      dup1\n      tag_100\n      jumpi\n      pop\n        /* \"Storage.sol\":6533:6543  msg.sender */\n      caller\n        /* \"Storage.sol\":6524:6543  c.DSO == msg.sender */\n      0xffffffffffffffffffffffffffffffffffffffff\n      and\n        /* \"Storage.sol\":6524:6525  c */\n      dup2\n        /* \"Storage.sol\":6524:6529  c.DSO */\n      0x02\n      add\n      0x00\n      swap1\n      sload\n      swap1\n      0x0100\n      exp\n      swap1\n      div\n      0xffffffffffffffffffffffffffffffffffffffff\n      and\n        /* \"Storage.sol\":6524:6543  c.DSO == msg.sender */\n      0xffffffffffffffffffffffffffffffffffffffff\n      and\n      eq\n        /* \"Storage.sol\":6502:6543  c.DO == msg.sender || c.DSO == msg.sender */\n    tag_100:\n        /* \"Storage.sol\":6494:6560  require(c.DO == msg.sender || c.DSO == msg.sender, \"Unauthorized\") */\n      tag_101\n      jumpi\n      mload(0x40)\n      0x08c379a000000000000000000000000000000000000000000000000000000000\n      dup2\n      mstore\n      0x04\n      add\n      tag_102\n      swap1\n      tag_84\n      jump\t// in\n    tag_102:\n      mload(0x40)\n      dup1\n      swap2\n      sub\n      swap1\n      revert\n    tag_101:\n        /* \"Storage.sol\":6586:6598  block.number */\n      number\n        /* \"Storage.sol\":6573:6574  c */\n      dup2\n        /* \"Storage.sol\":6573:6583  c.stopDate */\n      0x07\n      add\n        /* \"Storage.sol\":6573:6598  c.stopDate = block.number */\n      dup2\n      swap1\n      sstore\n      pop\n        /* \"Storage.sol\":6609:6627  uint withdrawedWei */\n      0x00\n        /* \"Storage.sol\":6630:6672  weiAllowedToWithdraw(storageContractIndex) */\n      tag_103\n        /* \"Storage.sol\":6651:6671  storageContractIndex */\n      dup6\n        /* \"Storage.sol\":6630:6650  weiAllowedToWithdraw */\n      tag_104\n        /* \"Storage.sol\":6630:6672  weiAllowedToWithdraw(storageContractIndex) */\n      jump\t// in\n    tag_103:\n        /* \"Storage.sol\":6609:6672  uint withdrawedWei = weiAllowedToWithdraw(storageContractIndex) */\n      swap1\n      pop\n        /* \"Storage.sol\":6703:6704  c */\n      dup2\n        /* \"Storage.sol\":6703:6707  c.DO */\n      0x01\n      add\n      0x00\n      swap1\n      sload\n      swap1\n      0x0100\n      exp\n      swap1\n      div\n      0xffffffffffffffffffffffffffffffffffffffff\n      and\n        /* \"Storage.sol\":6689:6707  msg.sender == c.DO */\n      0xffffffffffffffffffffffffffffffffffffffff\n      and\n        /* \"Storage.sol\":6689:6699  msg.sender */\n      caller\n        /* \"Storage.sol\":6689:6707  msg.sender == c.DO */\n      0xffffffffffffffffffffffffffffffffffffffff\n      and\n      sub\n        /* \"Storage.sol\":6685:6787  if (msg.sender == c.DO) {... */\n      tag_105\n      jumpi\n        /* \"Storage.sol\":6762:6775  withdrawedWei */\n      dup1\n        /* \"Storage.sol\":6740:6741  c */\n      dup3\n        /* \"Storage.sol\":6740:6759  c.weiLeftToWithdraw */\n      0x09\n      add\n      sload\n        /* \"Storage.sol\":6740:6775  c.weiLeftToWithdraw - withdrawedWei */\n      tag_106\n      swap2\n      swap1\n      tag_107\n      jump\t// in\n    tag_106:\n        /* \"Storage.sol\":6724:6775  withdrawedWei = c.weiLeftToWithdraw - withdrawedWei */\n      swap1\n      pop\n        /* \"Storage.sol\":6685:6787  if (msg.sender == c.DO) {... */\n    tag_105:\n        /* \"Storage.sol\":6817:6818  c */\n      dup2\n        /* \"Storage.sol\":6817:6822  c.DSO */\n      0x02\n      add\n      0x00\n      swap1\n      sload\n      swap1\n      0x0100\n      exp\n      swap1\n      div\n      0xffffffffffffffffffffffffffffffffffffffff\n      and\n        /* \"Storage.sol\":6803:6822  msg.sender == c.DSO */\n      0xffffffffffffffffffffffffffffffffffffffff\n      and\n        /* \"Storage.sol\":6803:6813  msg.sender */\n      caller\n        /* \"Storage.sol\":6803:6822  msg.sender == c.DSO */\n      0xffffffffffffffffffffffffffffffffffffffff\n      and\n      sub\n        /* \"Storage.sol\":6799:6884  if (msg.sender == c.DSO) {... */\n      tag_108\n      jumpi\n        /* \"Storage.sol\":6860:6872  block.number */\n      number\n        /* \"Storage.sol\":6839:6840  c */\n      dup3\n        /* \"Storage.sol\":6839:6857  c.withdrawedAtDate */\n      0x0a\n      add\n        /* \"Storage.sol\":6839:6872  c.withdrawedAtDate = block.number */\n      dup2\n      swap1\n      sstore\n      pop\n        /* \"Storage.sol\":6799:6884  if (msg.sender == c.DSO) {... */\n    tag_108:\n        /* \"Storage.sol\":6919:6932  withdrawedWei */\n      dup1\n        /* \"Storage.sol\":6896:6897  c */\n      dup3\n        /* \"Storage.sol\":6896:6915  c.weiLeftToWithdraw */\n      0x09\n      add\n      0x00\n        /* \"Storage.sol\":6896:6932  c.weiLeftToWithdraw -= withdrawedWei */\n      dup3\n      dup3\n      sload\n      tag_109\n      swap2\n      swap1\n      tag_107\n      jump\t// in\n    tag_109:\n      swap3\n      pop\n      pop\n      dup2\n      swap1\n      sstore\n      pop\n        /* \"Storage.sol\":7029:7039  msg.sender */\n      caller\n        /* \"Storage.sol\":7021:7049  payable(msg.sender).transfer */\n      0xffffffffffffffffffffffffffffffffffffffff\n      and\n        /* \"Storage.sol\":7021:7064  payable(msg.sender).transfer(withdrawedWei) */\n      0x08fc\n        /* \"Storage.sol\":7050:7063  withdrawedWei */\n      dup3\n        /* \"Storage.sol\":7021:7064  payable(msg.sender).transfer(withdrawedWei) */\n      swap1\n      dup2\n      iszero\n      mul\n      swap1\n      mload(0x40)\n      0x00\n      mload(0x40)\n      dup1\n      dup4\n      sub\n      dup2\n      dup6\n      dup9\n      dup9\n      call\n      swap4\n      pop\n      pop\n      pop\n      pop\n      iszero\n      dup1\n      iszero\n      tag_111\n      jumpi\n      returndatasize\n      0x00\n      dup1\n      returndatacopy\n      revert(0x00, returndatasize)\n    tag_111:\n      pop\n        /* \"Storage.sol\":7080:7136  StorageContractStopped(storageContractID, withdrawedWei) */\n      0x7fb9819bdd579b165bf0a6dc06dac6bcac0ea6c60b3ea9c0492bddbfddbce080\n        /* \"Storage.sol\":7103:7120  storageContractID */\n      dup5\n        /* \"Storage.sol\":7122:7135  withdrawedWei */\n      dup3\n        /* \"Storage.sol\":7080:7136  StorageContractStopped(storageContractID, withdrawedWei) */\n      mload(0x40)\n      tag_112\n      swap3\n      swap2\n      swap1\n      tag_113\n      jump\t// in\n    tag_112:\n      mload(0x40)\n      dup1\n      swap2\n      sub\n      swap1\n      log1\n        /* \"Storage.sol\":7245:7246  0 */\n      0x00\n        /* \"Storage.sol\":7222:7223  c */\n      dup3\n        /* \"Storage.sol\":7222:7241  c.weiLeftToWithdraw */\n      0x09\n      add\n      sload\n        /* \"Storage.sol\":7222:7246  c.weiLeftToWithdraw == 0 */\n      sub\n        /* \"Storage.sol\":7218:7327  if (c.weiLeftToWithdraw == 0) {... */\n      tag_114\n      jumpi\n        /* \"Storage.sol\":7263:7315  deleteStorageContractFromArray(storageContractIndex) */\n      tag_115\n        /* \"Storage.sol\":7294:7314  storageContractIndex */\n      dup6\n        /* \"Storage.sol\":7263:7293  deleteStorageContractFromArray */\n      tag_116\n        /* \"Storage.sol\":7263:7315  deleteStorageContractFromArray(storageContractIndex) */\n      jump\t// in\n    tag_115:\n        /* \"Storage.sol\":7218:7327  if (c.weiLeftToWithdraw == 0) {... */\n    tag_114:\n        /* \"Storage.sol\":7346:7359  withdrawedWei */\n      dup1\n        /* \"Storage.sol\":7339:7359  return withdrawedWei */\n      swap3\n      pop\n      pop\n      pop\n        /* \"Storage.sol\":6199:7367  function stopStorageContract(uint storageContractIndex, uint storageContractID) public returns (uint) {... */\n      swap3\n      swap2\n      pop\n      pop\n      jump\t// out\n        /* \"Storage.sol\":4325:4677  function cancelSellOrder(uint sellOrderIndex, uint sellOrderID) public {... */\n    tag_48:\n        /* \"Storage.sol\":4407:4430  SellOrder storage order */\n      0x00\n        /* \"Storage.sol\":4433:4445  sellOrderArr */\n      0x04\n        /* \"Storage.sol\":4446:4460  sellOrderIndex */\n      dup4\n        /* \"Storage.sol\":4433:4461  sellOrderArr[sellOrderIndex] */\n      dup2\n      sload\n      dup2\n      lt\n      tag_118\n      jumpi\n      tag_119\n      tag_66\n      jump\t// in\n    tag_119:\n    tag_118:\n      swap1\n      0x00\n      mstore\n      keccak256(0x00, 0x20)\n      swap1\n      0x05\n      mul\n      add\n        /* \"Storage.sol\":4407:4461  SellOrder storage order = sellOrderArr[sellOrderIndex] */\n      swap1\n      pop\n        /* \"Storage.sol\":4493:4503  msg.sender */\n      caller\n        /* \"Storage.sol\":4480:4503  order.DSO == msg.sender */\n      0xffffffffffffffffffffffffffffffffffffffff\n      and\n        /* \"Storage.sol\":4480:4485  order */\n      dup2\n        /* \"Storage.sol\":4480:4489  order.DSO */\n      0x01\n      add\n      0x00\n      swap1\n      sload\n      swap1\n      0x0100\n      exp\n      swap1\n      div\n      0xffffffffffffffffffffffffffffffffffffffff\n      and\n        /* \"Storage.sol\":4480:4503  order.DSO == msg.sender */\n      0xffffffffffffffffffffffffffffffffffffffff\n      and\n      eq\n        /* \"Storage.sol\":4480:4530  order.DSO == msg.sender && order.id == sellOrderID */\n      dup1\n      iszero\n      tag_121\n      jumpi\n      pop\n        /* \"Storage.sol\":4519:4530  sellOrderID */\n      dup2\n        /* \"Storage.sol\":4507:4512  order */\n      dup2\n        /* \"Storage.sol\":4507:4515  order.id */\n      0x00\n      add\n      sload\n        /* \"Storage.sol\":4507:4530  order.id == sellOrderID */\n      eq\n        /* \"Storage.sol\":4480:4530  order.DSO == msg.sender && order.id == sellOrderID */\n    tag_121:\n        /* \"Storage.sol\":4472:4559  require(order.DSO == msg.sender && order.id == sellOrderID, \"Not authorized to cancel\") */\n      tag_122\n      jumpi\n      mload(0x40)\n      0x08c379a000000000000000000000000000000000000000000000000000000000\n      dup2\n      mstore\n      0x04\n      add\n      tag_123\n      swap1\n      tag_71\n      jump\t// in\n    tag_123:\n      mload(0x40)\n      dup1\n      swap2\n      sub\n      swap1\n      revert\n    tag_122:\n        /* \"Storage.sol\":4570:4610  deleteSellOrderFromArray(sellOrderIndex) */\n      tag_124\n        /* \"Storage.sol\":4595:4609  sellOrderIndex */\n      dup4\n        /* \"Storage.sol\":4570:4594  deleteSellOrderFromArray */\n      tag_125\n        /* \"Storage.sol\":4570:4610  deleteSellOrderFromArray(sellOrderIndex) */\n      jump\t// in\n    tag_124:\n        /* \"Storage.sol\":4658:4668  msg.sender */\n      caller\n        /* \"Storage.sol\":4626:4669  SellOrderCancelled(sellOrderID, msg.sender) */\n      0xffffffffffffffffffffffffffffffffffffffff\n      and\n      0x9a1ba8eee2fe18baf2771a39db4eeb3901c2f7e41a35f785fd86c37cf7fd5318\n        /* \"Storage.sol\":4645:4656  sellOrderID */\n      dup4\n        /* \"Storage.sol\":4626:4669  SellOrderCancelled(sellOrderID, msg.sender) */\n      mload(0x40)\n      tag_126\n      swap2\n      swap1\n      tag_17\n      jump\t// in\n    tag_126:\n      mload(0x40)\n      dup1\n      swap2\n      sub\n      swap1\n      log2\n        /* \"Storage.sol\":4396:4677  {... */\n      pop\n        /* \"Storage.sol\":4325:4677  function cancelSellOrder(uint sellOrderIndex, uint sellOrderID) public {... */\n      pop\n      pop\n      jump\t// out\n        /* \"Storage.sol\":4895:5700  function withdrawFromStorageContract(uint storageContractIndex, uint storageContractID) public returns (uint) {... */\n    tag_52:\n        /* \"Storage.sol\":4999:5003  uint */\n      0x00\n        /* \"Storage.sol\":5016:5041  StorageContract storage c */\n      dup1\n        /* \"Storage.sol\":5044:5062  storageContractArr */\n      0x06\n        /* \"Storage.sol\":5063:5083  storageContractIndex */\n      dup5\n        /* \"Storage.sol\":5044:5084  storageContractArr[storageContractIndex] */\n      dup2\n      sload\n      dup2\n      lt\n      tag_128\n      jumpi\n      tag_129\n      tag_66\n      jump\t// in\n    tag_129:\n    tag_128:\n      swap1\n      0x00\n      mstore\n      keccak256(0x00, 0x20)\n      swap1\n      0x0b\n      mul\n      add\n        /* \"Storage.sol\":5016:5084  StorageContract storage c = storageContractArr[storageContractIndex] */\n      swap1\n      pop\n        /* \"Storage.sol\":5113:5123  msg.sender */\n      caller\n        /* \"Storage.sol\":5104:5123  c.DSO == msg.sender */\n      0xffffffffffffffffffffffffffffffffffffffff\n      and\n        /* \"Storage.sol\":5104:5105  c */\n      dup2\n        /* \"Storage.sol\":5104:5109  c.DSO */\n      0x02\n      add\n      0x00\n      swap1\n      sload\n      swap1\n      0x0100\n      exp\n      swap1\n      div\n      0xffffffffffffffffffffffffffffffffffffffff\n      and\n        /* \"Storage.sol\":5104:5123  c.DSO == msg.sender */\n      0xffffffffffffffffffffffffffffffffffffffff\n      and\n      eq\n        /* \"Storage.sol\":5104:5145  c.DSO == msg.sender || c.DO == msg.sender */\n      dup1\n      tag_131\n      jumpi\n      pop\n        /* \"Storage.sol\":5135:5145  msg.sender */\n      caller\n        /* \"Storage.sol\":5127:5145  c.DO == msg.sender */\n      0xffffffffffffffffffffffffffffffffffffffff\n      and\n        /* \"Storage.sol\":5127:5128  c */\n      dup2\n        /* \"Storage.sol\":5127:5131  c.DO */\n      0x01\n      add\n      0x00\n      swap1\n      sload\n      swap1\n      0x0100\n      exp\n      swap1\n      div\n      0xffffffffffffffffffffffffffffffffffffffff\n      and\n        /* \"Storage.sol\":5127:5145  c.DO == msg.sender */\n      0xffffffffffffffffffffffffffffffffffffffff\n      and\n      eq\n        /* \"Storage.sol\":5104:5145  c.DSO == msg.sender || c.DO == msg.sender */\n    tag_131:\n        /* \"Storage.sol\":5103:5175  (c.DSO == msg.sender || c.DO == msg.sender) && c.id == storageContractID */\n      dup1\n      iszero\n      tag_132\n      jumpi\n      pop\n        /* \"Storage.sol\":5158:5175  storageContractID */\n      dup3\n        /* \"Storage.sol\":5150:5151  c */\n      dup2\n        /* \"Storage.sol\":5150:5154  c.id */\n      0x00\n      add\n      sload\n        /* \"Storage.sol\":5150:5175  c.id == storageContractID */\n      eq\n        /* \"Storage.sol\":5103:5175  (c.DSO == msg.sender || c.DO == msg.sender) && c.id == storageContractID */\n    tag_132:\n        /* \"Storage.sol\":5095:5192  require((c.DSO == msg.sender || c.DO == msg.sender) && c.id == storageContractID, \"Unauthorized\") */\n      tag_133\n      jumpi\n      mload(0x40)\n      0x08c379a000000000000000000000000000000000000000000000000000000000\n      dup2\n      mstore\n      0x04\n      add\n      tag_134\n      swap1\n      tag_84\n      jump\t// in\n    tag_134:\n      mload(0x40)\n      dup1\n      swap2\n      sub\n      swap1\n      revert\n    tag_133:\n        /* \"Storage.sol\":5205:5223  uint withdrawedWei */\n      0x00\n        /* \"Storage.sol\":5226:5268  weiAllowedToWithdraw(storageContractIndex) */\n      tag_135\n        /* \"Storage.sol\":5247:5267  storageContractIndex */\n      dup6\n        /* \"Storage.sol\":5226:5246  weiAllowedToWithdraw */\n      tag_104\n        /* \"Storage.sol\":5226:5268  weiAllowedToWithdraw(storageContractIndex) */\n      jump\t// in\n    tag_135:\n        /* \"Storage.sol\":5205:5268  uint withdrawedWei = weiAllowedToWithdraw(storageContractIndex) */\n      swap1\n      pop\n        /* \"Storage.sol\":5297:5298  c */\n      dup2\n        /* \"Storage.sol\":5297:5302  c.DSO */\n      0x02\n      add\n      0x00\n      swap1\n      sload\n      swap1\n      0x0100\n      exp\n      swap1\n      div\n      0xffffffffffffffffffffffffffffffffffffffff\n      and\n        /* \"Storage.sol\":5283:5302  msg.sender == c.DSO */\n      0xffffffffffffffffffffffffffffffffffffffff\n      and\n        /* \"Storage.sol\":5283:5293  msg.sender */\n      caller\n        /* \"Storage.sol\":5283:5302  msg.sender == c.DSO */\n      0xffffffffffffffffffffffffffffffffffffffff\n      and\n      eq\n        /* \"Storage.sol\":5283:5324  msg.sender == c.DSO && withdrawedWei != 0 */\n      dup1\n      iszero\n      tag_136\n      jumpi\n      pop\n        /* \"Storage.sol\":5323:5324  0 */\n      0x00\n        /* \"Storage.sol\":5306:5319  withdrawedWei */\n      dup2\n        /* \"Storage.sol\":5306:5324  withdrawedWei != 0 */\n      eq\n      iszero\n        /* \"Storage.sol\":5283:5324  msg.sender == c.DSO && withdrawedWei != 0 */\n    tag_136:\n        /* \"Storage.sol\":5279:5646  if (msg.sender == c.DSO && withdrawedWei != 0) {... */\n      iszero\n      tag_137\n      jumpi\n        /* \"Storage.sol\":5364:5377  withdrawedWei */\n      dup1\n        /* \"Storage.sol\":5341:5342  c */\n      dup3\n        /* \"Storage.sol\":5341:5360  c.weiLeftToWithdraw */\n      0x09\n      add\n      0x00\n        /* \"Storage.sol\":5341:5377  c.weiLeftToWithdraw -= withdrawedWei */\n      dup3\n      dup3\n      sload\n      tag_138\n      swap2\n      swap1\n      tag_107\n      jump\t// in\n    tag_138:\n      swap3\n      pop\n      pop\n      dup2\n      swap1\n      sstore\n      pop\n        /* \"Storage.sol\":5413:5428  block.timestamp */\n      timestamp\n        /* \"Storage.sol\":5392:5393  c */\n      dup3\n        /* \"Storage.sol\":5392:5410  c.withdrawedAtDate */\n      0x0a\n      add\n        /* \"Storage.sol\":5392:5428  c.withdrawedAtDate = block.timestamp */\n      dup2\n      swap1\n      sstore\n      pop\n        /* \"Storage.sol\":5451:5461  msg.sender */\n      caller\n        /* \"Storage.sol\":5443:5471  payable(msg.sender).transfer */\n      0xffffffffffffffffffffffffffffffffffffffff\n      and\n        /* \"Storage.sol\":5443:5486  payable(msg.sender).transfer(withdrawedWei) */\n      0x08fc\n        /* \"Storage.sol\":5472:5485  withdrawedWei */\n      dup3\n        /* \"Storage.sol\":5443:5486  payable(msg.sender).transfer(withdrawedWei) */\n      swap1\n      dup2\n      iszero\n      mul\n      swap1\n      mload(0x40)\n      0x00\n      mload(0x40)\n      dup1\n      dup4\n      sub\n      dup2\n      dup6\n      dup9\n      dup9\n      call\n      swap4\n      pop\n      pop\n      pop\n      pop\n      iszero\n      dup1\n      iszero\n      tag_140\n      jumpi\n      returndatasize\n      0x00\n      dup1\n      returndatacopy\n      revert(0x00, returndatasize)\n    tag_140:\n      pop\n        /* \"Storage.sol\":5541:5599  StorageContractWithdrawn(storageContractID, withdrawedWei) */\n      0xe7e8d250336013da155145966290a330229da53af1b843e81ad9bd8c2a531409\n        /* \"Storage.sol\":5566:5583  storageContractID */\n      dup5\n        /* \"Storage.sol\":5585:5598  withdrawedWei */\n      dup3\n        /* \"Storage.sol\":5541:5599  StorageContractWithdrawn(storageContractID, withdrawedWei) */\n      mload(0x40)\n      tag_141\n      swap3\n      swap2\n      swap1\n      tag_113\n      jump\t// in\n    tag_141:\n      mload(0x40)\n      dup1\n      swap2\n      sub\n      swap1\n      log1\n        /* \"Storage.sol\":5621:5634  withdrawedWei */\n      dup1\n        /* \"Storage.sol\":5614:5634  return withdrawedWei */\n      swap3\n      pop\n      pop\n      pop\n      jump(tag_127)\n        /* \"Storage.sol\":5279:5646  if (msg.sender == c.DSO && withdrawedWei != 0) {... */\n    tag_137:\n        /* \"Storage.sol\":5656:5692  revert(\"Invalid withdrawal attempt\") */\n      mload(0x40)\n      0x08c379a000000000000000000000000000000000000000000000000000000000\n      dup2\n      mstore\n      0x04\n      add\n      tag_142\n      swap1\n      tag_143\n      jump\t// in\n    tag_142:\n      mload(0x40)\n      dup1\n      swap2\n      sub\n      swap1\n      revert\n        /* \"Storage.sol\":4895:5700  function withdrawFromStorageContract(uint storageContractIndex, uint storageContractID) public returns (uint) {... */\n    tag_127:\n      swap3\n      swap2\n      pop\n      pop\n      jump\t// out\n        /* \"Storage.sol\":1801:2045  function deleteBuyOrderFromArray(uint buyOrderIndex) internal {... */\n    tag_73:\n        /* \"Storage.sol\":1916:1917  1 */\n      0x01\n        /* \"Storage.sol\":1895:1906  buyOrderArr */\n      0x05\n        /* \"Storage.sol\":1895:1913  buyOrderArr.length */\n      dup1\n      sload\n      swap1\n      pop\n        /* \"Storage.sol\":1895:1917  buyOrderArr.length - 1 */\n      tag_145\n      swap2\n      swap1\n      tag_107\n      jump\t// in\n    tag_145:\n        /* \"Storage.sol\":1878:1891  buyOrderIndex */\n      dup2\n        /* \"Storage.sol\":1878:1917  buyOrderIndex != buyOrderArr.length - 1 */\n      eq\n        /* \"Storage.sol\":1874:2010  if (buyOrderIndex != buyOrderArr.length - 1) {... */\n      tag_146\n      jumpi\n        /* \"Storage.sol\":1963:1974  buyOrderArr */\n      0x05\n        /* \"Storage.sol\":1996:1997  1 */\n      0x01\n        /* \"Storage.sol\":1975:1986  buyOrderArr */\n      0x05\n        /* \"Storage.sol\":1975:1993  buyOrderArr.length */\n      dup1\n      sload\n      swap1\n      pop\n        /* \"Storage.sol\":1975:1997  buyOrderArr.length - 1 */\n      tag_147\n      swap2\n      swap1\n      tag_107\n      jump\t// in\n    tag_147:\n        /* \"Storage.sol\":1963:1998  buyOrderArr[buyOrderArr.length - 1] */\n      dup2\n      sload\n      dup2\n      lt\n      tag_148\n      jumpi\n      tag_149\n      tag_66\n      jump\t// in\n    tag_149:\n    tag_148:\n      swap1\n      0x00\n      mstore\n      keccak256(0x00, 0x20)\n      swap1\n      0x06\n      mul\n      add\n        /* \"Storage.sol\":1934:1945  buyOrderArr */\n      0x05\n        /* \"Storage.sol\":1946:1959  buyOrderIndex */\n      dup3\n        /* \"Storage.sol\":1934:1960  buyOrderArr[buyOrderIndex] */\n      dup2\n      sload\n      dup2\n      lt\n      tag_151\n      jumpi\n      tag_152\n      tag_66\n      jump\t// in\n    tag_152:\n    tag_151:\n      swap1\n      0x00\n      mstore\n      keccak256(0x00, 0x20)\n      swap1\n      0x06\n      mul\n      add\n        /* \"Storage.sol\":1934:1998  buyOrderArr[buyOrderIndex] = buyOrderArr[buyOrderArr.length - 1] */\n      0x00\n      dup3\n      add\n      sload\n      dup2\n      0x00\n      add\n      sstore\n      0x01\n      dup3\n      add\n      0x00\n      swap1\n      sload\n      swap1\n      0x0100\n      exp\n      swap1\n      div\n      0xffffffffffffffffffffffffffffffffffffffff\n      and\n      dup2\n      0x01\n      add\n      exp(0x0100, 0x00)\n      dup2\n      sload\n      dup2\n      0xffffffffffffffffffffffffffffffffffffffff\n      mul\n      not\n      and\n      swap1\n      dup4\n      0xffffffffffffffffffffffffffffffffffffffff\n      and\n      mul\n      or\n      swap1\n      sstore\n      pop\n      0x02\n      dup3\n      add\n      sload\n      dup2\n      0x02\n      add\n      sstore\n      0x03\n      dup3\n      add\n      sload\n      dup2\n      0x03\n      add\n      sstore\n      0x04\n      dup3\n      add\n      sload\n      dup2\n      0x04\n      add\n      sstore\n      0x05\n      dup3\n      add\n      dup2\n      0x05\n      add\n      swap1\n      dup2\n      tag_154\n      swap2\n      swap1\n      tag_155\n      jump\t// in\n    tag_154:\n      pop\n      swap1\n      pop\n      pop\n        /* \"Storage.sol\":1874:2010  if (buyOrderIndex != buyOrderArr.length - 1) {... */\n    tag_146:\n        /* \"Storage.sol\":2020:2031  buyOrderArr */\n      0x05\n        /* \"Storage.sol\":2020:2037  buyOrderArr.pop() */\n      dup1\n      sload\n      dup1\n      tag_156\n      jumpi\n      tag_157\n      tag_158\n      jump\t// in\n    tag_157:\n    tag_156:\n      0x01\n      swap1\n      sub\n      dup2\n      dup2\n      swap1\n      0x00\n      mstore\n      keccak256(0x00, 0x20)\n      swap1\n      0x06\n      mul\n      add\n      0x00\n      dup1\n      dup3\n      add\n      0x00\n      swap1\n      sstore\n      0x01\n      dup3\n      add\n      exp(0x0100, 0x00)\n      dup2\n      sload\n      swap1\n      0xffffffffffffffffffffffffffffffffffffffff\n      mul\n      not\n      and\n      swap1\n      sstore\n      0x02\n      dup3\n      add\n      0x00\n      swap1\n      sstore\n      0x03\n      dup3\n      add\n      0x00\n      swap1\n      sstore\n      0x04\n      dup3\n      add\n      0x00\n      swap1\n      sstore\n      0x05\n      dup3\n      add\n      0x00\n      tag_160\n      swap2\n      swap1\n      tag_161\n      jump\t// in\n    tag_160:\n      pop\n      pop\n      swap1\n      sstore\n        /* \"Storage.sol\":1801:2045  function deleteBuyOrderFromArray(uint buyOrderIndex) internal {... */\n      pop\n      jump\t// out\n        /* \"Storage.sol\":2629:3218  function weiAllowedToWithdraw(uint storageContractIndex) internal view returns (uint) {... */\n    tag_104:\n        /* \"Storage.sol\":2709:2713  uint */\n      0x00\n        /* \"Storage.sol\":2726:2750  StorageContract memory c */\n      dup1\n        /* \"Storage.sol\":2753:2771  storageContractArr */\n      0x06\n        /* \"Storage.sol\":2772:2792  storageContractIndex */\n      dup4\n        /* \"Storage.sol\":2753:2793  storageContractArr[storageContractIndex] */\n      dup2\n      sload\n      dup2\n      lt\n      tag_163\n      jumpi\n      tag_164\n      tag_66\n      jump\t// in\n    tag_164:\n    tag_163:\n      swap1\n      0x00\n      mstore\n      keccak256(0x00, 0x20)\n      swap1\n      0x0b\n      mul\n      add\n        /* \"Storage.sol\":2726:2793  StorageContract memory c = storageContractArr[storageContractIndex] */\n      mload(0x40)\n      dup1\n      0x0160\n      add\n      0x40\n      mstore\n      swap1\n      dup2\n      0x00\n      dup3\n      add\n      sload\n      dup2\n      mstore\n      0x20\n      add\n      0x01\n      dup3\n      add\n      0x00\n      swap1\n      sload\n      swap1\n      0x0100\n      exp\n      swap1\n      div\n      0xffffffffffffffffffffffffffffffffffffffff\n      and\n      0xffffffffffffffffffffffffffffffffffffffff\n      and\n      0xffffffffffffffffffffffffffffffffffffffff\n      and\n      dup2\n      mstore\n      0x20\n      add\n      0x02\n      dup3\n      add\n      0x00\n      swap1\n      sload\n      swap1\n      0x0100\n      exp\n      swap1\n      div\n      0xffffffffffffffffffffffffffffffffffffffff\n      and\n      0xffffffffffffffffffffffffffffffffffffffff\n      and\n      0xffffffffffffffffffffffffffffffffffffffff\n      and\n      dup2\n      mstore\n      0x20\n      add\n      0x03\n      dup3\n      add\n      dup1\n      sload\n      tag_166\n      swap1\n      tag_167\n      jump\t// in\n    tag_166:\n      dup1\n      0x1f\n      add\n      0x20\n      dup1\n      swap2\n      div\n      mul\n      0x20\n      add\n      mload(0x40)\n      swap1\n      dup2\n      add\n      0x40\n      mstore\n      dup1\n      swap3\n      swap2\n      swap1\n      dup2\n      dup2\n      mstore\n      0x20\n      add\n      dup3\n      dup1\n      sload\n      tag_168\n      swap1\n      tag_167\n      jump\t// in\n    tag_168:\n      dup1\n      iszero\n      tag_169\n      jumpi\n      dup1\n      0x1f\n      lt\n      tag_170\n      jumpi\n      0x0100\n      dup1\n      dup4\n      sload\n      div\n      mul\n      dup4\n      mstore\n      swap2\n      0x20\n      add\n      swap2\n      jump(tag_169)\n    tag_170:\n      dup3\n      add\n      swap2\n      swap1\n      0x00\n      mstore\n      keccak256(0x00, 0x20)\n      swap1\n    tag_171:\n      dup2\n      sload\n      dup2\n      mstore\n      swap1\n      0x01\n      add\n      swap1\n      0x20\n      add\n      dup1\n      dup4\n      gt\n      tag_171\n      jumpi\n      dup3\n      swap1\n      sub\n      0x1f\n      and\n      dup3\n      add\n      swap2\n    tag_169:\n      pop\n      pop\n      pop\n      pop\n      pop\n      dup2\n      mstore\n      0x20\n      add\n      0x04\n      dup3\n      add\n      dup1\n      sload\n      tag_172\n      swap1\n      tag_167\n      jump\t// in\n    tag_172:\n      dup1\n      0x1f\n      add\n      0x20\n      dup1\n      swap2\n      div\n      mul\n      0x20\n      add\n      mload(0x40)\n      swap1\n      dup2\n      add\n      0x40\n      mstore\n      dup1\n      swap3\n      swap2\n      swap1\n      dup2\n      dup2\n      mstore\n      0x20\n      add\n      dup3\n      dup1\n      sload\n      tag_173\n      swap1\n      tag_167\n      jump\t// in\n    tag_173:\n      dup1\n      iszero\n      tag_174\n      jumpi\n      dup1\n      0x1f\n      lt\n      tag_175\n      jumpi\n      0x0100\n      dup1\n      dup4\n      sload\n      div\n      mul\n      dup4\n      mstore\n      swap2\n      0x20\n      add\n      swap2\n      jump(tag_174)\n    tag_175:\n      dup3\n      add\n      swap2\n      swap1\n      0x00\n      mstore\n      keccak256(0x00, 0x20)\n      swap1\n    tag_176:\n      dup2\n      sload\n      dup2\n      mstore\n      swap1\n      0x01\n      add\n      swap1\n      0x20\n      add\n      dup1\n      dup4\n      gt\n      tag_176\n      jumpi\n      dup3\n      swap1\n      sub\n      0x1f\n      and\n      dup3\n      add\n      swap2\n    tag_174:\n      pop\n      pop\n      pop\n      pop\n      pop\n      dup2\n      mstore\n      0x20\n      add\n      0x05\n      dup3\n      add\n      sload\n      dup2\n      mstore\n      0x20\n      add\n      0x06\n      dup3\n      add\n      sload\n      dup2\n      mstore\n      0x20\n      add\n      0x07\n      dup3\n      add\n      sload\n      dup2\n      mstore\n      0x20\n      add\n      0x08\n      dup3\n      add\n      sload\n      dup2\n      mstore\n      0x20\n      add\n      0x09\n      dup3\n      add\n      sload\n      dup2\n      mstore\n      0x20\n      add\n      0x0a\n      dup3\n      add\n      sload\n      dup2\n      mstore\n      pop\n      pop\n      swap1\n      pop\n        /* \"Storage.sol\":2823:2824  0 */\n      0x00\n        /* \"Storage.sol\":2808:2809  c */\n      dup2\n        /* \"Storage.sol\":2808:2819  c.startDate */\n      0xc0\n      add\n      mload\n        /* \"Storage.sol\":2808:2824  c.startDate == 0 */\n      sub\n        /* \"Storage.sol\":2804:2834  if (c.startDate == 0) return 0 */\n      tag_177\n      jumpi\n        /* \"Storage.sol\":2833:2834  0 */\n      0x00\n        /* \"Storage.sol\":2826:2834  return 0 */\n      swap2\n      pop\n      pop\n      jump(tag_162)\n        /* \"Storage.sol\":2804:2834  if (c.startDate == 0) return 0 */\n    tag_177:\n        /* \"Storage.sol\":2847:2862  uint calcToDate */\n      0x00\n        /* \"Storage.sol\":2865:2880  block.timestamp */\n      timestamp\n        /* \"Storage.sol\":2847:2880  uint calcToDate = block.timestamp */\n      swap1\n      pop\n        /* \"Storage.sol\":2936:2937  0 */\n      0x00\n        /* \"Storage.sol\":2922:2923  c */\n      dup3\n        /* \"Storage.sol\":2922:2932  c.stopDate */\n      0xe0\n      add\n      mload\n        /* \"Storage.sol\":2922:2937  c.stopDate != 0 */\n      eq\n        /* \"Storage.sol\":2918:2962  if (c.stopDate != 0) calcToDate = c.stopDate */\n      tag_178\n      jumpi\n        /* \"Storage.sol\":2952:2953  c */\n      dup2\n        /* \"Storage.sol\":2952:2962  c.stopDate */\n      0xe0\n      add\n      mload\n        /* \"Storage.sol\":2939:2962  calcToDate = c.stopDate */\n      swap1\n      pop\n        /* \"Storage.sol\":2918:2962  if (c.stopDate != 0) calcToDate = c.stopDate */\n    tag_178:\n        /* \"Storage.sol\":2975:3001  uint _weiAllowedToWithdraw */\n      0x00\n        /* \"Storage.sol\":3055:3056  c */\n      dup3\n        /* \"Storage.sol\":3055:3065  c.volumeGB */\n      0xa0\n      add\n      mload\n        /* \"Storage.sol\":3040:3041  c */\n      dup4\n        /* \"Storage.sol\":3040:3052  c.pricePerGB */\n      0x0100\n      add\n      mload\n        /* \"Storage.sol\":3018:3019  c */\n      dup5\n        /* \"Storage.sol\":3018:3036  c.withdrawedAtDate */\n      0x0140\n      add\n      mload\n        /* \"Storage.sol\":3005:3015  calcToDate */\n      dup5\n        /* \"Storage.sol\":3005:3036  calcToDate - c.withdrawedAtDate */\n      tag_179\n      swap2\n      swap1\n      tag_107\n      jump\t// in\n    tag_179:\n        /* \"Storage.sol\":3004:3052  (calcToDate - c.withdrawedAtDate) * c.pricePerGB */\n      tag_180\n      swap2\n      swap1\n      tag_181\n      jump\t// in\n    tag_180:\n        /* \"Storage.sol\":3004:3065  (calcToDate - c.withdrawedAtDate) * c.pricePerGB * c.volumeGB */\n      tag_182\n      swap2\n      swap1\n      tag_181\n      jump\t// in\n    tag_182:\n        /* \"Storage.sol\":2975:3065  uint _weiAllowedToWithdraw = (calcToDate - c.withdrawedAtDate) * c.pricePerGB * c.volumeGB */\n      swap1\n      pop\n        /* \"Storage.sol\":3105:3106  c */\n      dup3\n        /* \"Storage.sol\":3105:3124  c.weiLeftToWithdraw */\n      0x0120\n      add\n      mload\n        /* \"Storage.sol\":3080:3101  _weiAllowedToWithdraw */\n      dup2\n        /* \"Storage.sol\":3080:3124  _weiAllowedToWithdraw >= c.weiLeftToWithdraw */\n      lt\n        /* \"Storage.sol\":3076:3169  if (_weiAllowedToWithdraw >= c.weiLeftToWithdraw) _weiAllowedToWithdraw = c.weiLeftToWithdraw */\n      tag_183\n      jumpi\n        /* \"Storage.sol\":3150:3151  c */\n      dup3\n        /* \"Storage.sol\":3150:3169  c.weiLeftToWithdraw */\n      0x0120\n      add\n      mload\n        /* \"Storage.sol\":3126:3169  _weiAllowedToWithdraw = c.weiLeftToWithdraw */\n      swap1\n      pop\n        /* \"Storage.sol\":3076:3169  if (_weiAllowedToWithdraw >= c.weiLeftToWithdraw) _weiAllowedToWithdraw = c.weiLeftToWithdraw */\n    tag_183:\n        /* \"Storage.sol\":3189:3210  _weiAllowedToWithdraw */\n      dup1\n        /* \"Storage.sol\":3182:3210  return _weiAllowedToWithdraw */\n      swap4\n      pop\n      pop\n      pop\n      pop\n        /* \"Storage.sol\":2629:3218  function weiAllowedToWithdraw(uint storageContractIndex) internal view returns (uint) {... */\n    tag_162:\n      swap2\n      swap1\n      pop\n      jump\t// out\n        /* \"Storage.sol\":2314:2621  function deleteStorageContractFromArray(uint storageContractIndex) internal {... */\n    tag_116:\n        /* \"Storage.sol\":2457:2458  1 */\n      0x01\n        /* \"Storage.sol\":2429:2447  storageContractArr */\n      0x06\n        /* \"Storage.sol\":2429:2454  storageContractArr.length */\n      dup1\n      sload\n      swap1\n      pop\n        /* \"Storage.sol\":2429:2458  storageContractArr.length - 1 */\n      tag_185\n      swap2\n      swap1\n      tag_107\n      jump\t// in\n    tag_185:\n        /* \"Storage.sol\":2405:2425  storageContractIndex */\n      dup2\n        /* \"Storage.sol\":2405:2458  storageContractIndex != storageContractArr.length - 1 */\n      eq\n        /* \"Storage.sol\":2401:2579  if (storageContractIndex != storageContractArr.length - 1) {... */\n      tag_186\n      jumpi\n        /* \"Storage.sol\":2518:2536  storageContractArr */\n      0x06\n        /* \"Storage.sol\":2565:2566  1 */\n      0x01\n        /* \"Storage.sol\":2537:2555  storageContractArr */\n      0x06\n        /* \"Storage.sol\":2537:2562  storageContractArr.length */\n      dup1\n      sload\n      swap1\n      pop\n        /* \"Storage.sol\":2537:2566  storageContractArr.length - 1 */\n      tag_187\n      swap2\n      swap1\n      tag_107\n      jump\t// in\n    tag_187:\n        /* \"Storage.sol\":2518:2567  storageContractArr[storageContractArr.length - 1] */\n      dup2\n      sload\n      dup2\n      lt\n      tag_188\n      jumpi\n      tag_189\n      tag_66\n      jump\t// in\n    tag_189:\n    tag_188:\n      swap1\n      0x00\n      mstore\n      keccak256(0x00, 0x20)\n      swap1\n      0x0b\n      mul\n      add\n        /* \"Storage.sol\":2475:2493  storageContractArr */\n      0x06\n        /* \"Storage.sol\":2494:2514  storageContractIndex */\n      dup3\n        /* \"Storage.sol\":2475:2515  storageContractArr[storageContractIndex] */\n      dup2\n      sload\n      dup2\n      lt\n      tag_191\n      jumpi\n      tag_192\n      tag_66\n      jump\t// in\n    tag_192:\n    tag_191:\n      swap1\n      0x00\n      mstore\n      keccak256(0x00, 0x20)\n      swap1\n      0x0b\n      mul\n      add\n        /* \"Storage.sol\":2475:2567  storageContractArr[storageContractIndex] = storageContractArr[storageContractArr.length - 1] */\n      0x00\n      dup3\n      add\n      sload\n      dup2\n      0x00\n      add\n      sstore\n      0x01\n      dup3\n      add\n      0x00\n      swap1\n      sload\n      swap1\n      0x0100\n      exp\n      swap1\n      div\n      0xffffffffffffffffffffffffffffffffffffffff\n      and\n      dup2\n      0x01\n      add\n      exp(0x0100, 0x00)\n      dup2\n      sload\n      dup2\n      0xffffffffffffffffffffffffffffffffffffffff\n      mul\n      not\n      and\n      swap1\n      dup4\n      0xffffffffffffffffffffffffffffffffffffffff\n      and\n      mul\n      or\n      swap1\n      sstore\n      pop\n      0x02\n      dup3\n      add\n      0x00\n      swap1\n      sload\n      swap1\n      0x0100\n      exp\n      swap1\n      div\n      0xffffffffffffffffffffffffffffffffffffffff\n      and\n      dup2\n      0x02\n      add\n      exp(0x0100, 0x00)\n      dup2\n      sload\n      dup2\n      0xffffffffffffffffffffffffffffffffffffffff\n      mul\n      not\n      and\n      swap1\n      dup4\n      0xffffffffffffffffffffffffffffffffffffffff\n      and\n      mul\n      or\n      swap1\n      sstore\n      pop\n      0x03\n      dup3\n      add\n      dup2\n      0x03\n      add\n      swap1\n      dup2\n      tag_194\n      swap2\n      swap1\n      tag_155\n      jump\t// in\n    tag_194:\n      pop\n      0x04\n      dup3\n      add\n      dup2\n      0x04\n      add\n      swap1\n      dup2\n      tag_195\n      swap2\n      swap1\n      tag_155\n      jump\t// in\n    tag_195:\n      pop\n      0x05\n      dup3\n      add\n      sload\n      dup2\n      0x05\n      add\n      sstore\n      0x06\n      dup3\n      add\n      sload\n      dup2\n      0x06\n      add\n      sstore\n      0x07\n      dup3\n      add\n      sload\n      dup2\n      0x07\n      add\n      sstore\n      0x08\n      dup3\n      add\n      sload\n      dup2\n      0x08\n      add\n      sstore\n      0x09\n      dup3\n      add\n      sload\n      dup2\n      0x09\n      add\n      sstore\n      0x0a\n      dup3\n      add\n      sload\n      dup2\n      0x0a\n      add\n      sstore\n      swap1\n      pop\n      pop\n        /* \"Storage.sol\":2401:2579  if (storageContractIndex != storageContractArr.length - 1) {... */\n    tag_186:\n        /* \"Storage.sol\":2589:2607  storageContractArr */\n      0x06\n        /* \"Storage.sol\":2589:2613  storageContractArr.pop() */\n      dup1\n      sload\n      dup1\n      tag_196\n      jumpi\n      tag_197\n      tag_158\n      jump\t// in\n    tag_197:\n    tag_196:\n      0x01\n      swap1\n      sub\n      dup2\n      dup2\n      swap1\n      0x00\n      mstore\n      keccak256(0x00, 0x20)\n      swap1\n      0x0b\n      mul\n      add\n      0x00\n      dup1\n      dup3\n      add\n      0x00\n      swap1\n      sstore\n      0x01\n      dup3\n      add\n      exp(0x0100, 0x00)\n      dup2\n      sload\n      swap1\n      0xffffffffffffffffffffffffffffffffffffffff\n      mul\n      not\n      and\n      swap1\n      sstore\n      0x02\n      dup3\n      add\n      exp(0x0100, 0x00)\n      dup2\n      sload\n      swap1\n      0xffffffffffffffffffffffffffffffffffffffff\n      mul\n      not\n      and\n      swap1\n      sstore\n      0x03\n      dup3\n      add\n      0x00\n      tag_199\n      swap2\n      swap1\n      tag_161\n      jump\t// in\n    tag_199:\n      0x04\n      dup3\n      add\n      0x00\n      tag_200\n      swap2\n      swap1\n      tag_161\n      jump\t// in\n    tag_200:\n      0x05\n      dup3\n      add\n      0x00\n      swap1\n      sstore\n      0x06\n      dup3\n      add\n      0x00\n      swap1\n      sstore\n      0x07\n      dup3\n      add\n      0x00\n      swap1\n      sstore\n      0x08\n      dup3\n      add\n      0x00\n      swap1\n      sstore\n      0x09\n      dup3\n      add\n      0x00\n      swap1\n      sstore\n      0x0a\n      dup3\n      add\n      0x00\n      swap1\n      sstore\n      pop\n      pop\n      swap1\n      sstore\n        /* \"Storage.sol\":2314:2621  function deleteStorageContractFromArray(uint storageContractIndex) internal {... */\n      pop\n      jump\t// out\n        /* \"Storage.sol\":2053:2306  function deleteSellOrderFromArray(uint sellOrderIndex) internal {... */\n    tag_125:\n        /* \"Storage.sol\":2172:2173  1 */\n      0x01\n        /* \"Storage.sol\":2150:2162  sellOrderArr */\n      0x04\n        /* \"Storage.sol\":2150:2169  sellOrderArr.length */\n      dup1\n      sload\n      swap1\n      pop\n        /* \"Storage.sol\":2150:2173  sellOrderArr.length - 1 */\n      tag_202\n      swap2\n      swap1\n      tag_107\n      jump\t// in\n    tag_202:\n        /* \"Storage.sol\":2132:2146  sellOrderIndex */\n      dup2\n        /* \"Storage.sol\":2132:2173  sellOrderIndex != sellOrderArr.length - 1 */\n      eq\n        /* \"Storage.sol\":2128:2270  if (sellOrderIndex != sellOrderArr.length - 1) {... */\n      tag_203\n      jumpi\n        /* \"Storage.sol\":2221:2233  sellOrderArr */\n      0x04\n        /* \"Storage.sol\":2256:2257  1 */\n      0x01\n        /* \"Storage.sol\":2234:2246  sellOrderArr */\n      0x04\n        /* \"Storage.sol\":2234:2253  sellOrderArr.length */\n      dup1\n      sload\n      swap1\n      pop\n        /* \"Storage.sol\":2234:2257  sellOrderArr.length - 1 */\n      tag_204\n      swap2\n      swap1\n      tag_107\n      jump\t// in\n    tag_204:\n        /* \"Storage.sol\":2221:2258  sellOrderArr[sellOrderArr.length - 1] */\n      dup2\n      sload\n      dup2\n      lt\n      tag_205\n      jumpi\n      tag_206\n      tag_66\n      jump\t// in\n    tag_206:\n    tag_205:\n      swap1\n      0x00\n      mstore\n      keccak256(0x00, 0x20)\n      swap1\n      0x05\n      mul\n      add\n        /* \"Storage.sol\":2190:2202  sellOrderArr */\n      0x04\n        /* \"Storage.sol\":2203:2217  sellOrderIndex */\n      dup3\n        /* \"Storage.sol\":2190:2218  sellOrderArr[sellOrderIndex] */\n      dup2\n      sload\n      dup2\n      lt\n      tag_208\n      jumpi\n      tag_209\n      tag_66\n      jump\t// in\n    tag_209:\n    tag_208:\n      swap1\n      0x00\n      mstore\n      keccak256(0x00, 0x20)\n      swap1\n      0x05\n      mul\n      add\n        /* \"Storage.sol\":2190:2258  sellOrderArr[sellOrderIndex] = sellOrderArr[sellOrderArr.length - 1] */\n      0x00\n      dup3\n      add\n      sload\n      dup2\n      0x00\n      add\n      sstore\n      0x01\n      dup3\n      add\n      0x00\n      swap1\n      sload\n      swap1\n      0x0100\n      exp\n      swap1\n      div\n      0xffffffffffffffffffffffffffffffffffffffff\n      and\n      dup2\n      0x01\n      add\n      exp(0x0100, 0x00)\n      dup2\n      sload\n      dup2\n      0xffffffffffffffffffffffffffffffffffffffff\n      mul\n      not\n      and\n      swap1\n      dup4\n      0xffffffffffffffffffffffffffffffffffffffff\n      and\n      mul\n      or\n      swap1\n      sstore\n      pop\n      0x02\n      dup3\n      add\n      sload\n      dup2\n      0x02\n      add\n      sstore\n      0x03\n      dup3\n      add\n      sload\n      dup2\n      0x03\n      add\n      sstore\n      0x04\n      dup3\n      add\n      dup2\n      0x04\n      add\n      swap1\n      dup2\n      tag_211\n      swap2\n      swap1\n      tag_155\n      jump\t// in\n    tag_211:\n      pop\n      swap1\n      pop\n      pop\n        /* \"Storage.sol\":2128:2270  if (sellOrderIndex != sellOrderArr.length - 1) {... */\n    tag_203:\n        /* \"Storage.sol\":2280:2292  sellOrderArr */\n      0x04\n        /* \"Storage.sol\":2280:2298  sellOrderArr.pop() */\n      dup1\n      sload\n      dup1\n      tag_212\n      jumpi\n      tag_213\n      tag_158\n      jump\t// in\n    tag_213:\n    tag_212:\n      0x01\n      swap1\n      sub\n      dup2\n      dup2\n      swap1\n      0x00\n      mstore\n      keccak256(0x00, 0x20)\n      swap1\n      0x05\n      mul\n      add\n      0x00\n      dup1\n      dup3\n      add\n      0x00\n      swap1\n      sstore\n      0x01\n      dup3\n      add\n      exp(0x0100, 0x00)\n      dup2\n      sload\n      swap1\n      0xffffffffffffffffffffffffffffffffffffffff\n      mul\n      not\n      and\n      swap1\n      sstore\n      0x02\n      dup3\n      add\n      0x00\n      swap1\n      sstore\n      0x03\n      dup3\n      add\n      0x00\n      swap1\n      sstore\n      0x04\n      dup3\n      add\n      0x00\n      tag_215\n      swap2\n      swap1\n      tag_161\n      jump\t// in\n    tag_215:\n      pop\n      pop\n      swap1\n      sstore\n        /* \"Storage.sol\":2053:2306  function deleteSellOrderFromArray(uint sellOrderIndex) internal {... */\n      pop\n      jump\t// out\n    tag_161:\n      pop\n      dup1\n      sload\n      tag_216\n      swap1\n      tag_167\n      jump\t// in\n    tag_216:\n      0x00\n      dup3\n      sstore\n      dup1\n      0x1f\n      lt\n      tag_218\n      jumpi\n      pop\n      jump(tag_217)\n    tag_218:\n      0x1f\n      add\n      0x20\n      swap1\n      div\n      swap1\n      0x00\n      mstore\n      keccak256(0x00, 0x20)\n      swap1\n      dup2\n      add\n      swap1\n      tag_219\n      swap2\n      swap1\n      tag_220\n      jump\t// in\n    tag_219:\n    tag_217:\n      pop\n      jump\t// out\n    tag_220:\n    tag_221:\n      dup1\n      dup3\n      gt\n      iszero\n      tag_222\n      jumpi\n      0x00\n      dup2\n      0x00\n      swap1\n      sstore\n      pop\n      0x01\n      add\n      jump(tag_221)\n    tag_222:\n      pop\n      swap1\n      jump\t// out\n        /* \"#utility.yul\":7:82   */\n    tag_223:\n        /* \"#utility.yul\":40:46   */\n      0x00\n        /* \"#utility.yul\":73:75   */\n      0x40\n        /* \"#utility.yul\":67:76   */\n      mload\n        /* \"#utility.yul\":57:76   */\n      swap1\n      pop\n        /* \"#utility.yul\":7:82   */\n      swap1\n      jump\t// out\n        /* \"#utility.yul\":88:205   */\n    tag_224:\n        /* \"#utility.yul\":197:198   */\n      0x00\n        /* \"#utility.yul\":194:195   */\n      dup1\n        /* \"#utility.yul\":187:199   */\n      revert\n        /* \"#utility.yul\":211:328   */\n    tag_225:\n        /* \"#utility.yul\":320:321   */\n      0x00\n        /* \"#utility.yul\":317:318   */\n      dup1\n        /* \"#utility.yul\":310:322   */\n      revert\n        /* \"#utility.yul\":334:411   */\n    tag_226:\n        /* \"#utility.yul\":371:378   */\n      0x00\n        /* \"#utility.yul\":400:405   */\n      dup2\n        /* \"#utility.yul\":389:405   */\n      swap1\n      pop\n        /* \"#utility.yul\":334:411   */\n      swap2\n      swap1\n      pop\n      jump\t// out\n        /* \"#utility.yul\":417:539   */\n    tag_227:\n        /* \"#utility.yul\":490:514   */\n      tag_277\n        /* \"#utility.yul\":508:513   */\n      dup2\n        /* \"#utility.yul\":490:514   */\n      tag_226\n      jump\t// in\n    tag_277:\n        /* \"#utility.yul\":483:488   */\n      dup2\n        /* \"#utility.yul\":480:515   */\n      eq\n        /* \"#utility.yul\":470:533   */\n      tag_278\n      jumpi\n        /* \"#utility.yul\":529:530   */\n      0x00\n        /* \"#utility.yul\":526:527   */\n      dup1\n        /* \"#utility.yul\":519:531   */\n      revert\n        /* \"#utility.yul\":470:533   */\n    tag_278:\n        /* \"#utility.yul\":417:539   */\n      pop\n      jump\t// out\n        /* \"#utility.yul\":545:684   */\n    tag_228:\n        /* \"#utility.yul\":591:596   */\n      0x00\n        /* \"#utility.yul\":629:635   */\n      dup2\n        /* \"#utility.yul\":616:636   */\n      calldataload\n        /* \"#utility.yul\":607:636   */\n      swap1\n      pop\n        /* \"#utility.yul\":645:678   */\n      tag_280\n        /* \"#utility.yul\":672:677   */\n      dup2\n        /* \"#utility.yul\":645:678   */\n      tag_227\n      jump\t// in\n    tag_280:\n        /* \"#utility.yul\":545:684   */\n      swap3\n      swap2\n      pop\n      pop\n      jump\t// out\n        /* \"#utility.yul\":690:807   */\n    tag_229:\n        /* \"#utility.yul\":799:800   */\n      0x00\n        /* \"#utility.yul\":796:797   */\n      dup1\n        /* \"#utility.yul\":789:801   */\n      revert\n        /* \"#utility.yul\":813:930   */\n    tag_230:\n        /* \"#utility.yul\":922:923   */\n      0x00\n        /* \"#utility.yul\":919:920   */\n      dup1\n        /* \"#utility.yul\":912:924   */\n      revert\n        /* \"#utility.yul\":936:1038   */\n    tag_231:\n        /* \"#utility.yul\":977:983   */\n      0x00\n        /* \"#utility.yul\":1028:1030   */\n      0x1f\n        /* \"#utility.yul\":1024:1031   */\n      not\n        /* \"#utility.yul\":1019:1021   */\n      0x1f\n        /* \"#utility.yul\":1012:1017   */\n      dup4\n        /* \"#utility.yul\":1008:1022   */\n      add\n        /* \"#utility.yul\":1004:1032   */\n      and\n        /* \"#utility.yul\":994:1032   */\n      swap1\n      pop\n        /* \"#utility.yul\":936:1038   */\n      swap2\n      swap1\n      pop\n      jump\t// out\n        /* \"#utility.yul\":1044:1224   */\n    tag_232:\n        /* \"#utility.yul\":1092:1169   */\n      0x4e487b7100000000000000000000000000000000000000000000000000000000\n        /* \"#utility.yul\":1089:1090   */\n      0x00\n        /* \"#utility.yul\":1082:1170   */\n      mstore\n        /* \"#utility.yul\":1189:1193   */\n      0x41\n        /* \"#utility.yul\":1186:1187   */\n      0x04\n        /* \"#utility.yul\":1179:1194   */\n      mstore\n        /* \"#utility.yul\":1213:1217   */\n      0x24\n        /* \"#utility.yul\":1210:1211   */\n      0x00\n        /* \"#utility.yul\":1203:1218   */\n      revert\n        /* \"#utility.yul\":1230:1511   */\n    tag_233:\n        /* \"#utility.yul\":1313:1340   */\n      tag_286\n        /* \"#utility.yul\":1335:1339   */\n      dup3\n        /* \"#utility.yul\":1313:1340   */\n      tag_231\n      jump\t// in\n    tag_286:\n        /* \"#utility.yul\":1305:1311   */\n      dup2\n        /* \"#utility.yul\":1301:1341   */\n      add\n        /* \"#utility.yul\":1443:1449   */\n      dup2\n        /* \"#utility.yul\":1431:1441   */\n      dup2\n        /* \"#utility.yul\":1428:1450   */\n      lt\n        /* \"#utility.yul\":1407:1425   */\n      0xffffffffffffffff\n        /* \"#utility.yul\":1395:1405   */\n      dup3\n        /* \"#utility.yul\":1392:1426   */\n      gt\n        /* \"#utility.yul\":1389:1451   */\n      or\n        /* \"#utility.yul\":1386:1474   */\n      iszero\n      tag_287\n      jumpi\n        /* \"#utility.yul\":1454:1472   */\n      tag_288\n      tag_232\n      jump\t// in\n    tag_288:\n        /* \"#utility.yul\":1386:1474   */\n    tag_287:\n        /* \"#utility.yul\":1494:1504   */\n      dup1\n        /* \"#utility.yul\":1490:1492   */\n      0x40\n        /* \"#utility.yul\":1483:1505   */\n      mstore\n        /* \"#utility.yul\":1273:1511   */\n      pop\n        /* \"#utility.yul\":1230:1511   */\n      pop\n      pop\n      jump\t// out\n        /* \"#utility.yul\":1517:1646   */\n    tag_234:\n        /* \"#utility.yul\":1551:1557   */\n      0x00\n        /* \"#utility.yul\":1578:1598   */\n      tag_290\n      tag_223\n      jump\t// in\n    tag_290:\n        /* \"#utility.yul\":1568:1598   */\n      swap1\n      pop\n        /* \"#utility.yul\":1607:1640   */\n      tag_291\n        /* \"#utility.yul\":1635:1639   */\n      dup3\n        /* \"#utility.yul\":1627:1633   */\n      dup3\n        /* \"#utility.yul\":1607:1640   */\n      tag_233\n      jump\t// in\n    tag_291:\n        /* \"#utility.yul\":1517:1646   */\n      swap2\n      swap1\n      pop\n      jump\t// out\n        /* \"#utility.yul\":1652:1960   */\n    tag_235:\n        /* \"#utility.yul\":1714:1718   */\n      0x00\n        /* \"#utility.yul\":1804:1822   */\n      0xffffffffffffffff\n        /* \"#utility.yul\":1796:1802   */\n      dup3\n        /* \"#utility.yul\":1793:1823   */\n      gt\n        /* \"#utility.yul\":1790:1846   */\n      iszero\n      tag_293\n      jumpi\n        /* \"#utility.yul\":1826:1844   */\n      tag_294\n      tag_232\n      jump\t// in\n    tag_294:\n        /* \"#utility.yul\":1790:1846   */\n    tag_293:\n        /* \"#utility.yul\":1864:1893   */\n      tag_295\n        /* \"#utility.yul\":1886:1892   */\n      dup3\n        /* \"#utility.yul\":1864:1893   */\n      tag_231\n      jump\t// in\n    tag_295:\n        /* \"#utility.yul\":1856:1893   */\n      swap1\n      pop\n        /* \"#utility.yul\":1948:1952   */\n      0x20\n        /* \"#utility.yul\":1942:1946   */\n      dup2\n        /* \"#utility.yul\":1938:1953   */\n      add\n        /* \"#utility.yul\":1930:1953   */\n      swap1\n      pop\n        /* \"#utility.yul\":1652:1960   */\n      swap2\n      swap1\n      pop\n      jump\t// out\n        /* \"#utility.yul\":1966:2114   */\n    tag_236:\n        /* \"#utility.yul\":2064:2070   */\n      dup3\n        /* \"#utility.yul\":2059:2062   */\n      dup2\n        /* \"#utility.yul\":2054:2057   */\n      dup4\n        /* \"#utility.yul\":2041:2071   */\n      calldatacopy\n        /* \"#utility.yul\":2105:2106   */\n      0x00\n        /* \"#utility.yul\":2096:2102   */\n      dup4\n        /* \"#utility.yul\":2091:2094   */\n      dup4\n        /* \"#utility.yul\":2087:2103   */\n      add\n        /* \"#utility.yul\":2080:2107   */\n      mstore\n        /* \"#utility.yul\":1966:2114   */\n      pop\n      pop\n      pop\n      jump\t// out\n        /* \"#utility.yul\":2120:2545   */\n    tag_237:\n        /* \"#utility.yul\":2198:2203   */\n      0x00\n        /* \"#utility.yul\":2223:2289   */\n      tag_298\n        /* \"#utility.yul\":2239:2288   */\n      tag_299\n        /* \"#utility.yul\":2281:2287   */\n      dup5\n        /* \"#utility.yul\":2239:2288   */\n      tag_235\n      jump\t// in\n    tag_299:\n        /* \"#utility.yul\":2223:2289   */\n      tag_234\n      jump\t// in\n    tag_298:\n        /* \"#utility.yul\":2214:2289   */\n      swap1\n      pop\n        /* \"#utility.yul\":2312:2318   */\n      dup3\n        /* \"#utility.yul\":2305:2310   */\n      dup2\n        /* \"#utility.yul\":2298:2319   */\n      mstore\n        /* \"#utility.yul\":2350:2354   */\n      0x20\n        /* \"#utility.yul\":2343:2348   */\n      dup2\n        /* \"#utility.yul\":2339:2355   */\n      add\n        /* \"#utility.yul\":2388:2391   */\n      dup5\n        /* \"#utility.yul\":2379:2385   */\n      dup5\n        /* \"#utility.yul\":2374:2377   */\n      dup5\n        /* \"#utility.yul\":2370:2386   */\n      add\n        /* \"#utility.yul\":2367:2392   */\n      gt\n        /* \"#utility.yul\":2364:2476   */\n      iszero\n      tag_300\n      jumpi\n        /* \"#utility.yul\":2395:2474   */\n      tag_301\n      tag_230\n      jump\t// in\n    tag_301:\n        /* \"#utility.yul\":2364:2476   */\n    tag_300:\n        /* \"#utility.yul\":2485:2539   */\n      tag_302\n        /* \"#utility.yul\":2532:2538   */\n      dup5\n        /* \"#utility.yul\":2527:2530   */\n      dup3\n        /* \"#utility.yul\":2522:2525   */\n      dup6\n        /* \"#utility.yul\":2485:2539   */\n      tag_236\n      jump\t// in\n    tag_302:\n        /* \"#utility.yul\":2204:2545   */\n      pop\n        /* \"#utility.yul\":2120:2545   */\n      swap4\n      swap3\n      pop\n      pop\n      pop\n      jump\t// out\n        /* \"#utility.yul\":2565:2905   */\n    tag_238:\n        /* \"#utility.yul\":2621:2626   */\n      0x00\n        /* \"#utility.yul\":2670:2673   */\n      dup3\n        /* \"#utility.yul\":2663:2667   */\n      0x1f\n        /* \"#utility.yul\":2655:2661   */\n      dup4\n        /* \"#utility.yul\":2651:2668   */\n      add\n        /* \"#utility.yul\":2647:2674   */\n      slt\n        /* \"#utility.yul\":2637:2759   */\n      tag_304\n      jumpi\n        /* \"#utility.yul\":2678:2757   */\n      tag_305\n      tag_229\n      jump\t// in\n    tag_305:\n        /* \"#utility.yul\":2637:2759   */\n    tag_304:\n        /* \"#utility.yul\":2795:2801   */\n      dup2\n        /* \"#utility.yul\":2782:2802   */\n      calldataload\n        /* \"#utility.yul\":2820:2899   */\n      tag_306\n        /* \"#utility.yul\":2895:2898   */\n      dup5\n        /* \"#utility.yul\":2887:2893   */\n      dup3\n        /* \"#utility.yul\":2880:2884   */\n      0x20\n        /* \"#utility.yul\":2872:2878   */\n      dup7\n        /* \"#utility.yul\":2868:2885   */\n      add\n        /* \"#utility.yul\":2820:2899   */\n      tag_237\n      jump\t// in\n    tag_306:\n        /* \"#utility.yul\":2811:2899   */\n      swap2\n      pop\n        /* \"#utility.yul\":2627:2905   */\n      pop\n        /* \"#utility.yul\":2565:2905   */\n      swap3\n      swap2\n      pop\n      pop\n      jump\t// out\n        /* \"#utility.yul\":2911:3856   */\n    tag_14:\n        /* \"#utility.yul\":3007:3013   */\n      0x00\n        /* \"#utility.yul\":3015:3021   */\n      dup1\n        /* \"#utility.yul\":3023:3029   */\n      0x00\n        /* \"#utility.yul\":3031:3037   */\n      dup1\n        /* \"#utility.yul\":3080:3083   */\n      0x80\n        /* \"#utility.yul\":3068:3077   */\n      dup6\n        /* \"#utility.yul\":3059:3066   */\n      dup8\n        /* \"#utility.yul\":3055:3078   */\n      sub\n        /* \"#utility.yul\":3051:3084   */\n      slt\n        /* \"#utility.yul\":3048:3168   */\n      iszero\n      tag_308\n      jumpi\n        /* \"#utility.yul\":3087:3166   */\n      tag_309\n      tag_224\n      jump\t// in\n    tag_309:\n        /* \"#utility.yul\":3048:3168   */\n    tag_308:\n        /* \"#utility.yul\":3207:3208   */\n      0x00\n        /* \"#utility.yul\":3232:3285   */\n      tag_310\n        /* \"#utility.yul\":3277:3284   */\n      dup8\n        /* \"#utility.yul\":3268:3274   */\n      dup3\n        /* \"#utility.yul\":3257:3266   */\n      dup9\n        /* \"#utility.yul\":3253:3275   */\n      add\n        /* \"#utility.yul\":3232:3285   */\n      tag_228\n      jump\t// in\n    tag_310:\n        /* \"#utility.yul\":3222:3285   */\n      swap5\n      pop\n        /* \"#utility.yul\":3178:3295   */\n      pop\n        /* \"#utility.yul\":3334:3336   */\n      0x20\n        /* \"#utility.yul\":3360:3413   */\n      tag_311\n        /* \"#utility.yul\":3405:3412   */\n      dup8\n        /* \"#utility.yul\":3396:3402   */\n      dup3\n        /* \"#utility.yul\":3385:3394   */\n      dup9\n        /* \"#utility.yul\":3381:3403   */\n      add\n        /* \"#utility.yul\":3360:3413   */\n      tag_228\n      jump\t// in\n    tag_311:\n        /* \"#utility.yul\":3350:3413   */\n      swap4\n      pop\n        /* \"#utility.yul\":3305:3423   */\n      pop\n        /* \"#utility.yul\":3462:3464   */\n      0x40\n        /* \"#utility.yul\":3488:3541   */\n      tag_312\n        /* \"#utility.yul\":3533:3540   */\n      dup8\n        /* \"#utility.yul\":3524:3530   */\n      dup3\n        /* \"#utility.yul\":3513:3522   */\n      dup9\n        /* \"#utility.yul\":3509:3531   */\n      add\n        /* \"#utility.yul\":3488:3541   */\n      tag_228\n      jump\t// in\n    tag_312:\n        /* \"#utility.yul\":3478:3541   */\n      swap3\n      pop\n        /* \"#utility.yul\":3433:3551   */\n      pop\n        /* \"#utility.yul\":3618:3620   */\n      0x60\n        /* \"#utility.yul\":3607:3616   */\n      dup6\n        /* \"#utility.yul\":3603:3621   */\n      add\n        /* \"#utility.yul\":3590:3622   */\n      calldataload\n        /* \"#utility.yul\":3649:3667   */\n      0xffffffffffffffff\n        /* \"#utility.yul\":3641:3647   */\n      dup2\n        /* \"#utility.yul\":3638:3668   */\n      gt\n        /* \"#utility.yul\":3635:3752   */\n      iszero\n      tag_313\n      jumpi\n        /* \"#utility.yul\":3671:3750   */\n      tag_314\n      tag_225\n      jump\t// in\n    tag_314:\n        /* \"#utility.yul\":3635:3752   */\n    tag_313:\n        /* \"#utility.yul\":3776:3839   */\n      tag_315\n        /* \"#utility.yul\":3831:3838   */\n      dup8\n        /* \"#utility.yul\":3822:3828   */\n      dup3\n        /* \"#utility.yul\":3811:3820   */\n      dup9\n        /* \"#utility.yul\":3807:3829   */\n      add\n        /* \"#utility.yul\":3776:3839   */\n      tag_238\n      jump\t// in\n    tag_315:\n        /* \"#utility.yul\":3766:3839   */\n      swap2\n      pop\n        /* \"#utility.yul\":3561:3849   */\n      pop\n        /* \"#utility.yul\":2911:3856   */\n      swap3\n      swap6\n      swap2\n      swap5\n      pop\n      swap3\n      pop\n      jump\t// out\n        /* \"#utility.yul\":3862:3980   */\n    tag_239:\n        /* \"#utility.yul\":3949:3973   */\n      tag_317\n        /* \"#utility.yul\":3967:3972   */\n      dup2\n        /* \"#utility.yul\":3949:3973   */\n      tag_226\n      jump\t// in\n    tag_317:\n        /* \"#utility.yul\":3944:3947   */\n      dup3\n        /* \"#utility.yul\":3937:3974   */\n      mstore\n        /* \"#utility.yul\":3862:3980   */\n      pop\n      pop\n      jump\t// out\n        /* \"#utility.yul\":3986:4208   */\n    tag_17:\n        /* \"#utility.yul\":4079:4083   */\n      0x00\n        /* \"#utility.yul\":4117:4119   */\n      0x20\n        /* \"#utility.yul\":4106:4115   */\n      dup3\n        /* \"#utility.yul\":4102:4120   */\n      add\n        /* \"#utility.yul\":4094:4120   */\n      swap1\n      pop\n        /* \"#utility.yul\":4130:4201   */\n      tag_319\n        /* \"#utility.yul\":4198:4199   */\n      0x00\n        /* \"#utility.yul\":4187:4196   */\n      dup4\n        /* \"#utility.yul\":4183:4200   */\n      add\n        /* \"#utility.yul\":4174:4180   */\n      dup5\n        /* \"#utility.yul\":4130:4201   */\n      tag_239\n      jump\t// in\n    tag_319:\n        /* \"#utility.yul\":3986:4208   */\n      swap3\n      swap2\n      pop\n      pop\n      jump\t// out\n        /* \"#utility.yul\":4214:5013   */\n    tag_21:\n        /* \"#utility.yul\":4301:4307   */\n      0x00\n        /* \"#utility.yul\":4309:4315   */\n      dup1\n        /* \"#utility.yul\":4317:4323   */\n      0x00\n        /* \"#utility.yul\":4366:4368   */\n      0x60\n        /* \"#utility.yul\":4354:4363   */\n      dup5\n        /* \"#utility.yul\":4345:4352   */\n      dup7\n        /* \"#utility.yul\":4341:4364   */\n      sub\n        /* \"#utility.yul\":4337:4369   */\n      slt\n        /* \"#utility.yul\":4334:4453   */\n      iszero\n      tag_321\n      jumpi\n        /* \"#utility.yul\":4372:4451   */\n      tag_322\n      tag_224\n      jump\t// in\n    tag_322:\n        /* \"#utility.yul\":4334:4453   */\n    tag_321:\n        /* \"#utility.yul\":4492:4493   */\n      0x00\n        /* \"#utility.yul\":4517:4570   */\n      tag_323\n        /* \"#utility.yul\":4562:4569   */\n      dup7\n        /* \"#utility.yul\":4553:4559   */\n      dup3\n        /* \"#utility.yul\":4542:4551   */\n      dup8\n        /* \"#utility.yul\":4538:4560   */\n      add\n        /* \"#utility.yul\":4517:4570   */\n      tag_228\n      jump\t// in\n    tag_323:\n        /* \"#utility.yul\":4507:4570   */\n      swap4\n      pop\n        /* \"#utility.yul\":4463:4580   */\n      pop\n        /* \"#utility.yul\":4619:4621   */\n      0x20\n        /* \"#utility.yul\":4645:4698   */\n      tag_324\n        /* \"#utility.yul\":4690:4697   */\n      dup7\n        /* \"#utility.yul\":4681:4687   */\n      dup3\n        /* \"#utility.yul\":4670:4679   */\n      dup8\n        /* \"#utility.yul\":4666:4688   */\n      add\n        /* \"#utility.yul\":4645:4698   */\n      tag_228\n      jump\t// in\n    tag_324:\n        /* \"#utility.yul\":4635:4698   */\n      swap3\n      pop\n        /* \"#utility.yul\":4590:4708   */\n      pop\n        /* \"#utility.yul\":4775:4777   */\n      0x40\n        /* \"#utility.yul\":4764:4773   */\n      dup5\n        /* \"#utility.yul\":4760:4778   */\n      add\n        /* \"#utility.yul\":4747:4779   */\n      calldataload\n        /* \"#utility.yul\":4806:4824   */\n      0xffffffffffffffff\n        /* \"#utility.yul\":4798:4804   */\n      dup2\n        /* \"#utility.yul\":4795:4825   */\n      gt\n        /* \"#utility.yul\":4792:4909   */\n      iszero\n      tag_325\n      jumpi\n        /* \"#utility.yul\":4828:4907   */\n      tag_326\n      tag_225\n      jump\t// in\n    tag_326:\n        /* \"#utility.yul\":4792:4909   */\n    tag_325:\n        /* \"#utility.yul\":4933:4996   */\n      tag_327\n        /* \"#utility.yul\":4988:4995   */\n      dup7\n        /* \"#utility.yul\":4979:4985   */\n      dup3\n        /* \"#utility.yul\":4968:4977   */\n      dup8\n        /* \"#utility.yul\":4964:4986   */\n      add\n        /* \"#utility.yul\":4933:4996   */\n      tag_238\n      jump\t// in\n    tag_327:\n        /* \"#utility.yul\":4923:4996   */\n      swap2\n      pop\n        /* \"#utility.yul\":4718:5006   */\n      pop\n        /* \"#utility.yul\":4214:5013   */\n      swap3\n      pop\n      swap3\n      pop\n      swap3\n      jump\t// out\n        /* \"#utility.yul\":5019:5493   */\n    tag_26:\n        /* \"#utility.yul\":5087:5093   */\n      0x00\n        /* \"#utility.yul\":5095:5101   */\n      dup1\n        /* \"#utility.yul\":5144:5146   */\n      0x40\n        /* \"#utility.yul\":5132:5141   */\n      dup4\n        /* \"#utility.yul\":5123:5130   */\n      dup6\n        /* \"#utility.yul\":5119:5142   */\n      sub\n        /* \"#utility.yul\":5115:5147   */\n      slt\n        /* \"#utility.yul\":5112:5231   */\n      iszero\n      tag_329\n      jumpi\n        /* \"#utility.yul\":5150:5229   */\n      tag_330\n      tag_224\n      jump\t// in\n    tag_330:\n        /* \"#utility.yul\":5112:5231   */\n    tag_329:\n        /* \"#utility.yul\":5270:5271   */\n      0x00\n        /* \"#utility.yul\":5295:5348   */\n      tag_331\n        /* \"#utility.yul\":5340:5347   */\n      dup6\n        /* \"#utility.yul\":5331:5337   */\n      dup3\n        /* \"#utility.yul\":5320:5329   */\n      dup7\n        /* \"#utility.yul\":5316:5338   */\n      add\n        /* \"#utility.yul\":5295:5348   */\n      tag_228\n      jump\t// in\n    tag_331:\n        /* \"#utility.yul\":5285:5348   */\n      swap3\n      pop\n        /* \"#utility.yul\":5241:5358   */\n      pop\n        /* \"#utility.yul\":5397:5399   */\n      0x20\n        /* \"#utility.yul\":5423:5476   */\n      tag_332\n        /* \"#utility.yul\":5468:5475   */\n      dup6\n        /* \"#utility.yul\":5459:5465   */\n      dup3\n        /* \"#utility.yul\":5448:5457   */\n      dup7\n        /* \"#utility.yul\":5444:5466   */\n      add\n        /* \"#utility.yul\":5423:5476   */\n      tag_228\n      jump\t// in\n    tag_332:\n        /* \"#utility.yul\":5413:5476   */\n      swap2\n      pop\n        /* \"#utility.yul\":5368:5486   */\n      pop\n        /* \"#utility.yul\":5019:5493   */\n      swap3\n      pop\n      swap3\n      swap1\n      pop\n      jump\t// out\n        /* \"#utility.yul\":5499:5625   */\n    tag_240:\n        /* \"#utility.yul\":5536:5543   */\n      0x00\n        /* \"#utility.yul\":5576:5618   */\n      0xffffffffffffffffffffffffffffffffffffffff\n        /* \"#utility.yul\":5569:5574   */\n      dup3\n        /* \"#utility.yul\":5565:5619   */\n      and\n        /* \"#utility.yul\":5554:5619   */\n      swap1\n      pop\n        /* \"#utility.yul\":5499:5625   */\n      swap2\n      swap1\n      pop\n      jump\t// out\n        /* \"#utility.yul\":5631:5727   */\n    tag_241:\n        /* \"#utility.yul\":5668:5675   */\n      0x00\n        /* \"#utility.yul\":5697:5721   */\n      tag_335\n        /* \"#utility.yul\":5715:5720   */\n      dup3\n        /* \"#utility.yul\":5697:5721   */\n      tag_240\n      jump\t// in\n    tag_335:\n        /* \"#utility.yul\":5686:5721   */\n      swap1\n      pop\n        /* \"#utility.yul\":5631:5727   */\n      swap2\n      swap1\n      pop\n      jump\t// out\n        /* \"#utility.yul\":5733:5851   */\n    tag_242:\n        /* \"#utility.yul\":5820:5844   */\n      tag_337\n        /* \"#utility.yul\":5838:5843   */\n      dup2\n        /* \"#utility.yul\":5820:5844   */\n      tag_241\n      jump\t// in\n    tag_337:\n        /* \"#utility.yul\":5815:5818   */\n      dup3\n        /* \"#utility.yul\":5808:5845   */\n      mstore\n        /* \"#utility.yul\":5733:5851   */\n      pop\n      pop\n      jump\t// out\n        /* \"#utility.yul\":5857:6079   */\n    tag_32:\n        /* \"#utility.yul\":5950:5954   */\n      0x00\n        /* \"#utility.yul\":5988:5990   */\n      0x20\n        /* \"#utility.yul\":5977:5986   */\n      dup3\n        /* \"#utility.yul\":5973:5991   */\n      add\n        /* \"#utility.yul\":5965:5991   */\n      swap1\n      pop\n        /* \"#utility.yul\":6001:6072   */\n      tag_339\n        /* \"#utility.yul\":6069:6070   */\n      0x00\n        /* \"#utility.yul\":6058:6067   */\n      dup4\n        /* \"#utility.yul\":6054:6071   */\n      add\n        /* \"#utility.yul\":6045:6051   */\n      dup5\n        /* \"#utility.yul\":6001:6072   */\n      tag_242\n      jump\t// in\n    tag_339:\n        /* \"#utility.yul\":5857:6079   */\n      swap3\n      swap2\n      pop\n      pop\n      jump\t// out\n        /* \"#utility.yul\":6085:6265   */\n    tag_243:\n        /* \"#utility.yul\":6133:6210   */\n      0x4e487b7100000000000000000000000000000000000000000000000000000000\n        /* \"#utility.yul\":6130:6131   */\n      0x00\n        /* \"#utility.yul\":6123:6211   */\n      mstore\n        /* \"#utility.yul\":6230:6234   */\n      0x11\n        /* \"#utility.yul\":6227:6228   */\n      0x04\n        /* \"#utility.yul\":6220:6235   */\n      mstore\n        /* \"#utility.yul\":6254:6258   */\n      0x24\n        /* \"#utility.yul\":6251:6252   */\n      0x00\n        /* \"#utility.yul\":6244:6259   */\n      revert\n        /* \"#utility.yul\":6271:6504   */\n    tag_57:\n        /* \"#utility.yul\":6310:6313   */\n      0x00\n        /* \"#utility.yul\":6333:6357   */\n      tag_342\n        /* \"#utility.yul\":6351:6356   */\n      dup3\n        /* \"#utility.yul\":6333:6357   */\n      tag_226\n      jump\t// in\n    tag_342:\n        /* \"#utility.yul\":6324:6357   */\n      swap2\n      pop\n        /* \"#utility.yul\":6379:6445   */\n      0xffffffffffffffffffffffffffffffffffffffffffffffffffffffffffffffff\n        /* \"#utility.yul\":6372:6377   */\n      dup3\n        /* \"#utility.yul\":6369:6446   */\n      sub\n        /* \"#utility.yul\":6366:6469   */\n      tag_343\n      jumpi\n        /* \"#utility.yul\":6449:6467   */\n      tag_344\n      tag_243\n      jump\t// in\n    tag_344:\n        /* \"#utility.yul\":6366:6469   */\n    tag_343:\n        /* \"#utility.yul\":6496:6497   */\n      0x01\n        /* \"#utility.yul\":6489:6494   */\n      dup3\n        /* \"#utility.yul\":6485:6498   */\n      add\n        /* \"#utility.yul\":6478:6498   */\n      swap1\n      pop\n        /* \"#utility.yul\":6271:6504   */\n      swap2\n      swap1\n      pop\n      jump\t// out\n        /* \"#utility.yul\":6510:6609   */\n    tag_244:\n        /* \"#utility.yul\":6562:6568   */\n      0x00\n        /* \"#utility.yul\":6596:6601   */\n      dup2\n        /* \"#utility.yul\":6590:6602   */\n      mload\n        /* \"#utility.yul\":6580:6602   */\n      swap1\n      pop\n        /* \"#utility.yul\":6510:6609   */\n      swap2\n      swap1\n      pop\n      jump\t// out\n        /* \"#utility.yul\":6615:6795   */\n    tag_245:\n        /* \"#utility.yul\":6663:6740   */\n      0x4e487b7100000000000000000000000000000000000000000000000000000000\n        /* \"#utility.yul\":6660:6661   */\n      0x00\n        /* \"#utility.yul\":6653:6741   */\n      mstore\n        /* \"#utility.yul\":6760:6764   */\n      0x22\n        /* \"#utility.yul\":6757:6758   */\n      0x04\n        /* \"#utility.yul\":6750:6765   */\n      mstore\n        /* \"#utility.yul\":6784:6788   */\n      0x24\n        /* \"#utility.yul\":6781:6782   */\n      0x00\n        /* \"#utility.yul\":6774:6789   */\n      revert\n        /* \"#utility.yul\":6801:7121   */\n    tag_167:\n        /* \"#utility.yul\":6845:6851   */\n      0x00\n        /* \"#utility.yul\":6882:6883   */\n      0x02\n        /* \"#utility.yul\":6876:6880   */\n      dup3\n        /* \"#utility.yul\":6872:6884   */\n      div\n        /* \"#utility.yul\":6862:6884   */\n      swap1\n      pop\n        /* \"#utility.yul\":6929:6930   */\n      0x01\n        /* \"#utility.yul\":6923:6927   */\n      dup3\n        /* \"#utility.yul\":6919:6931   */\n      and\n        /* \"#utility.yul\":6950:6968   */\n      dup1\n        /* \"#utility.yul\":6940:7021   */\n      tag_348\n      jumpi\n        /* \"#utility.yul\":7006:7010   */\n      0x7f\n        /* \"#utility.yul\":6998:7004   */\n      dup3\n        /* \"#utility.yul\":6994:7011   */\n      and\n        /* \"#utility.yul\":6984:7011   */\n      swap2\n      pop\n        /* \"#utility.yul\":6940:7021   */\n    tag_348:\n        /* \"#utility.yul\":7068:7070   */\n      0x20\n        /* \"#utility.yul\":7060:7066   */\n      dup3\n        /* \"#utility.yul\":7057:7071   */\n      lt\n        /* \"#utility.yul\":7037:7055   */\n      dup2\n        /* \"#utility.yul\":7034:7072   */\n      sub\n        /* \"#utility.yul\":7031:7115   */\n      tag_349\n      jumpi\n        /* \"#utility.yul\":7087:7105   */\n      tag_350\n      tag_245\n      jump\t// in\n    tag_350:\n        /* \"#utility.yul\":7031:7115   */\n    tag_349:\n        /* \"#utility.yul\":6852:7121   */\n      pop\n        /* \"#utility.yul\":6801:7121   */\n      swap2\n      swap1\n      pop\n      jump\t// out\n        /* \"#utility.yul\":7127:7268   */\n    tag_246:\n        /* \"#utility.yul\":7176:7180   */\n      0x00\n        /* \"#utility.yul\":7199:7202   */\n      dup2\n        /* \"#utility.yul\":7191:7202   */\n      swap1\n      pop\n        /* \"#utility.yul\":7222:7225   */\n      dup2\n        /* \"#utility.yul\":7219:7220   */\n      0x00\n        /* \"#utility.yul\":7212:7226   */\n      mstore\n        /* \"#utility.yul\":7256:7260   */\n      0x20\n        /* \"#utility.yul\":7253:7254   */\n      0x00\n        /* \"#utility.yul\":7243:7261   */\n      keccak256\n        /* \"#utility.yul\":7235:7261   */\n      swap1\n      pop\n        /* \"#utility.yul\":7127:7268   */\n      swap2\n      swap1\n      pop\n      jump\t// out\n        /* \"#utility.yul\":7274:7367   */\n    tag_247:\n        /* \"#utility.yul\":7311:7317   */\n      0x00\n        /* \"#utility.yul\":7358:7360   */\n      0x20\n        /* \"#utility.yul\":7353:7355   */\n      0x1f\n        /* \"#utility.yul\":7346:7351   */\n      dup4\n        /* \"#utility.yul\":7342:7356   */\n      add\n        /* \"#utility.yul\":7338:7361   */\n      div\n        /* \"#utility.yul\":7328:7361   */\n      swap1\n      pop\n        /* \"#utility.yul\":7274:7367   */\n      swap2\n      swap1\n      pop\n      jump\t// out\n        /* \"#utility.yul\":7373:7480   */\n    tag_248:\n        /* \"#utility.yul\":7417:7425   */\n      0x00\n        /* \"#utility.yul\":7467:7472   */\n      dup3\n        /* \"#utility.yul\":7461:7465   */\n      dup3\n        /* \"#utility.yul\":7457:7473   */\n      shl\n        /* \"#utility.yul\":7436:7473   */\n      swap1\n      pop\n        /* \"#utility.yul\":7373:7480   */\n      swap3\n      swap2\n      pop\n      pop\n      jump\t// out\n        /* \"#utility.yul\":7486:7879   */\n    tag_249:\n        /* \"#utility.yul\":7555:7561   */\n      0x00\n        /* \"#utility.yul\":7605:7606   */\n      0x08\n        /* \"#utility.yul\":7593:7603   */\n      dup4\n        /* \"#utility.yul\":7589:7607   */\n      mul\n        /* \"#utility.yul\":7628:7725   */\n      tag_355\n        /* \"#utility.yul\":7658:7724   */\n      0xffffffffffffffffffffffffffffffffffffffffffffffffffffffffffffffff\n        /* \"#utility.yul\":7647:7656   */\n      dup3\n        /* \"#utility.yul\":7628:7725   */\n      tag_248\n      jump\t// in\n    tag_355:\n        /* \"#utility.yul\":7746:7785   */\n      tag_356\n        /* \"#utility.yul\":7776:7784   */\n      dup7\n        /* \"#utility.yul\":7765:7774   */\n      dup4\n        /* \"#utility.yul\":7746:7785   */\n      tag_248\n      jump\t// in\n    tag_356:\n        /* \"#utility.yul\":7734:7785   */\n      swap6\n      pop\n        /* \"#utility.yul\":7818:7822   */\n      dup1\n        /* \"#utility.yul\":7814:7823   */\n      not\n        /* \"#utility.yul\":7807:7812   */\n      dup5\n        /* \"#utility.yul\":7803:7824   */\n      and\n        /* \"#utility.yul\":7794:7824   */\n      swap4\n      pop\n        /* \"#utility.yul\":7867:7871   */\n      dup1\n        /* \"#utility.yul\":7857:7865   */\n      dup7\n        /* \"#utility.yul\":7853:7872   */\n      and\n        /* \"#utility.yul\":7846:7851   */\n      dup5\n        /* \"#utility.yul\":7843:7873   */\n      or\n        /* \"#utility.yul\":7833:7873   */\n      swap3\n      pop\n        /* \"#utility.yul\":7562:7879   */\n      pop\n      pop\n        /* \"#utility.yul\":7486:7879   */\n      swap4\n      swap3\n      pop\n      pop\n      pop\n      jump\t// out\n        /* \"#utility.yul\":7885:7945   */\n    tag_250:\n        /* \"#utility.yul\":7913:7916   */\n      0x00\n        /* \"#utility.yul\":7934:7939   */\n      dup2\n        /* \"#utility.yul\":7927:7939   */\n      swap1\n      pop\n        /* \"#utility.yul\":7885:7945   */\n      swap2\n      swap1\n      pop\n      jump\t// out\n        /* \"#utility.yul\":7951:8093   */\n    tag_251:\n        /* \"#utility.yul\":8001:8010   */\n      0x00\n        /* \"#utility.yul\":8034:8087   */\n      tag_359\n        /* \"#utility.yul\":8052:8086   */\n      tag_360\n        /* \"#utility.yul\":8061:8085   */\n      tag_361\n        /* \"#utility.yul\":8079:8084   */\n      dup5\n        /* \"#utility.yul\":8061:8085   */\n      tag_226\n      jump\t// in\n    tag_361:\n        /* \"#utility.yul\":8052:8086   */\n      tag_250\n      jump\t// in\n    tag_360:\n        /* \"#utility.yul\":8034:8087   */\n      tag_226\n      jump\t// in\n    tag_359:\n        /* \"#utility.yul\":8021:8087   */\n      swap1\n      pop\n        /* \"#utility.yul\":7951:8093   */\n      swap2\n      swap1\n      pop\n      jump\t// out\n        /* \"#utility.yul\":8099:8174   */\n    tag_252:\n        /* \"#utility.yul\":8142:8145   */\n      0x00\n        /* \"#utility.yul\":8163:8168   */\n      dup2\n        /* \"#utility.yul\":8156:8168   */\n      swap1\n      pop\n        /* \"#utility.yul\":8099:8174   */\n      swap2\n      swap1\n      pop\n      jump\t// out\n        /* \"#utility.yul\":8180:8449   */\n    tag_253:\n        /* \"#utility.yul\":8290:8329   */\n      tag_364\n        /* \"#utility.yul\":8321:8328   */\n      dup4\n        /* \"#utility.yul\":8290:8329   */\n      tag_251\n      jump\t// in\n    tag_364:\n        /* \"#utility.yul\":8351:8442   */\n      tag_365\n        /* \"#utility.yul\":8400:8441   */\n      tag_366\n        /* \"#utility.yul\":8424:8440   */\n      dup3\n        /* \"#utility.yul\":8400:8441   */\n      tag_252\n      jump\t// in\n    tag_366:\n        /* \"#utility.yul\":8392:8398   */\n      dup5\n        /* \"#utility.yul\":8385:8389   */\n      dup5\n        /* \"#utility.yul\":8379:8390   */\n      sload\n        /* \"#utility.yul\":8351:8442   */\n      tag_249\n      jump\t// in\n    tag_365:\n        /* \"#utility.yul\":8345:8349   */\n      dup3\n        /* \"#utility.yul\":8338:8443   */\n      sstore\n        /* \"#utility.yul\":8256:8449   */\n      pop\n        /* \"#utility.yul\":8180:8449   */\n      pop\n      pop\n      pop\n      jump\t// out\n        /* \"#utility.yul\":8455:8528   */\n    tag_254:\n        /* \"#utility.yul\":8500:8503   */\n      0x00\n        /* \"#utility.yul\":8455:8528   */\n      swap1\n      jump\t// out\n        /* \"#utility.yul\":8534:8723   */\n    tag_255:\n        /* \"#utility.yul\":8611:8643   */\n      tag_369\n      tag_254\n      jump\t// in\n    tag_369:\n        /* \"#utility.yul\":8652:8717   */\n      tag_370\n        /* \"#utility.yul\":8710:8716   */\n      dup2\n        /* \"#utility.yul\":8702:8708   */\n      dup5\n        /* \"#utility.yul\":8696:8700   */\n      dup5\n        /* \"#utility.yul\":8652:8717   */\n      tag_253\n      jump\t// in\n    tag_370:\n        /* \"#utility.yul\":8587:8723   */\n      pop\n        /* \"#utility.yul\":8534:8723   */\n      pop\n      pop\n      jump\t// out\n        /* \"#utility.yul\":8729:8915   */\n    tag_256:\n        /* \"#utility.yul\":8789:8909   */\n    tag_372:\n        /* \"#utility.yul\":8806:8809   */\n      dup2\n        /* \"#utility.yul\":8799:8804   */\n      dup2\n        /* \"#utility.yul\":8796:8810   */\n      lt\n        /* \"#utility.yul\":8789:8909   */\n      iszero\n      tag_374\n      jumpi\n        /* \"#utility.yul\":8860:8899   */\n      tag_375\n        /* \"#utility.yul\":8897:8898   */\n      0x00\n        /* \"#utility.yul\":8890:8895   */\n      dup3\n        /* \"#utility.yul\":8860:8899   */\n      tag_255\n      jump\t// in\n    tag_375:\n        /* \"#utility.yul\":8833:8834   */\n      0x01\n        /* \"#utility.yul\":8826:8831   */\n      dup2\n        /* \"#utility.yul\":8822:8835   */\n      add\n        /* \"#utility.yul\":8813:8835   */\n      swap1\n      pop\n        /* \"#utility.yul\":8789:8909   */\n      jump(tag_372)\n    tag_374:\n        /* \"#utility.yul\":8729:8915   */\n      pop\n      pop\n      jump\t// out\n        /* \"#utility.yul\":8921:9464   */\n    tag_257:\n        /* \"#utility.yul\":9022:9024   */\n      0x1f\n        /* \"#utility.yul\":9017:9020   */\n      dup3\n        /* \"#utility.yul\":9014:9025   */\n      gt\n        /* \"#utility.yul\":9011:9457   */\n      iszero\n      tag_377\n      jumpi\n        /* \"#utility.yul\":9056:9094   */\n      tag_378\n        /* \"#utility.yul\":9088:9093   */\n      dup2\n        /* \"#utility.yul\":9056:9094   */\n      tag_246\n      jump\t// in\n    tag_378:\n        /* \"#utility.yul\":9140:9169   */\n      tag_379\n        /* \"#utility.yul\":9158:9168   */\n      dup5\n        /* \"#utility.yul\":9140:9169   */\n      tag_247\n      jump\t// in\n    tag_379:\n        /* \"#utility.yul\":9130:9138   */\n      dup2\n        /* \"#utility.yul\":9126:9170   */\n      add\n        /* \"#utility.yul\":9323:9325   */\n      0x20\n        /* \"#utility.yul\":9311:9321   */\n      dup6\n        /* \"#utility.yul\":9308:9326   */\n      lt\n        /* \"#utility.yul\":9305:9354   */\n      iszero\n      tag_380\n      jumpi\n        /* \"#utility.yul\":9344:9352   */\n      dup2\n        /* \"#utility.yul\":9329:9352   */\n      swap1\n      pop\n        /* \"#utility.yul\":9305:9354   */\n    tag_380:\n        /* \"#utility.yul\":9367:9447   */\n      tag_381\n        /* \"#utility.yul\":9423:9445   */\n      tag_382\n        /* \"#utility.yul\":9441:9444   */\n      dup6\n        /* \"#utility.yul\":9423:9445   */\n      tag_247\n      jump\t// in\n    tag_382:\n        /* \"#utility.yul\":9413:9421   */\n      dup4\n        /* \"#utility.yul\":9409:9446   */\n      add\n        /* \"#utility.yul\":9396:9407   */\n      dup3\n        /* \"#utility.yul\":9367:9447   */\n      tag_256\n      jump\t// in\n    tag_381:\n        /* \"#utility.yul\":9026:9457   */\n      pop\n      pop\n        /* \"#utility.yul\":9011:9457   */\n    tag_377:\n        /* \"#utility.yul\":8921:9464   */\n      pop\n      pop\n      pop\n      jump\t// out\n        /* \"#utility.yul\":9470:9587   */\n    tag_258:\n        /* \"#utility.yul\":9524:9532   */\n      0x00\n        /* \"#utility.yul\":9574:9579   */\n      dup3\n        /* \"#utility.yul\":9568:9572   */\n      dup3\n        /* \"#utility.yul\":9564:9580   */\n      shr\n        /* \"#utility.yul\":9543:9580   */\n      swap1\n      pop\n        /* \"#utility.yul\":9470:9587   */\n      swap3\n      swap2\n      pop\n      pop\n      jump\t// out\n        /* \"#utility.yul\":9593:9762   */\n    tag_259:\n        /* \"#utility.yul\":9637:9643   */\n      0x00\n        /* \"#utility.yul\":9670:9721   */\n      tag_385\n        /* \"#utility.yul\":9718:9719   */\n      0x00\n        /* \"#utility.yul\":9714:9720   */\n      not\n        /* \"#utility.yul\":9706:9711   */\n      dup5\n        /* \"#utility.yul\":9703:9704   */\n      0x08\n        /* \"#utility.yul\":9699:9712   */\n      mul\n        /* \"#utility.yul\":9670:9721   */\n      tag_258\n      jump\t// in\n    tag_385:\n        /* \"#utility.yul\":9666:9722   */\n      not\n        /* \"#utility.yul\":9751:9755   */\n      dup1\n        /* \"#utility.yul\":9745:9749   */\n      dup4\n        /* \"#utility.yul\":9741:9756   */\n      and\n        /* \"#utility.yul\":9731:9756   */\n      swap2\n      pop\n        /* \"#utility.yul\":9644:9762   */\n      pop\n        /* \"#utility.yul\":9593:9762   */\n      swap3\n      swap2\n      pop\n      pop\n      jump\t// out\n        /* \"#utility.yul\":9767:10062   */\n    tag_260:\n        /* \"#utility.yul\":9843:9847   */\n      0x00\n        /* \"#utility.yul\":9989:10018   */\n      tag_387\n        /* \"#utility.yul\":10014:10017   */\n      dup4\n        /* \"#utility.yul\":10008:10012   */\n      dup4\n        /* \"#utility.yul\":9989:10018   */\n      tag_259\n      jump\t// in\n    tag_387:\n        /* \"#utility.yul\":9981:10018   */\n      swap2\n      pop\n        /* \"#utility.yul\":10051:10054   */\n      dup3\n        /* \"#utility.yul\":10048:10049   */\n      0x02\n        /* \"#utility.yul\":10044:10055   */\n      mul\n        /* \"#utility.yul\":10038:10042   */\n      dup3\n        /* \"#utility.yul\":10035:10056   */\n      or\n        /* \"#utility.yul\":10027:10056   */\n      swap1\n      pop\n        /* \"#utility.yul\":9767:10062   */\n      swap3\n      swap2\n      pop\n      pop\n      jump\t// out\n        /* \"#utility.yul\":10067:11462   */\n    tag_60:\n        /* \"#utility.yul\":10184:10221   */\n      tag_389\n        /* \"#utility.yul\":10217:10220   */\n      dup3\n        /* \"#utility.yul\":10184:10221   */\n      tag_244\n      jump\t// in\n    tag_389:\n        /* \"#utility.yul\":10286:10304   */\n      0xffffffffffffffff\n        /* \"#utility.yul\":10278:10284   */\n      dup2\n        /* \"#utility.yul\":10275:10305   */\n      gt\n        /* \"#utility.yul\":10272:10328   */\n      iszero\n      tag_390\n      jumpi\n        /* \"#utility.yul\":10308:10326   */\n      tag_391\n      tag_232\n      jump\t// in\n    tag_391:\n        /* \"#utility.yul\":10272:10328   */\n    tag_390:\n        /* \"#utility.yul\":10352:10390   */\n      tag_392\n        /* \"#utility.yul\":10384:10388   */\n      dup3\n        /* \"#utility.yul\":10378:10389   */\n      sload\n        /* \"#utility.yul\":10352:10390   */\n      tag_167\n      jump\t// in\n    tag_392:\n        /* \"#utility.yul\":10437:10504   */\n      tag_393\n        /* \"#utility.yul\":10497:10503   */\n      dup3\n        /* \"#utility.yul\":10489:10495   */\n      dup3\n        /* \"#utility.yul\":10483:10487   */\n      dup6\n        /* \"#utility.yul\":10437:10504   */\n      tag_257\n      jump\t// in\n    tag_393:\n        /* \"#utility.yul\":10531:10532   */\n      0x00\n        /* \"#utility.yul\":10555:10559   */\n      0x20\n        /* \"#utility.yul\":10542:10559   */\n      swap1\n      pop\n        /* \"#utility.yul\":10587:10589   */\n      0x1f\n        /* \"#utility.yul\":10579:10585   */\n      dup4\n        /* \"#utility.yul\":10576:10590   */\n      gt\n        /* \"#utility.yul\":10604:10605   */\n      0x01\n        /* \"#utility.yul\":10599:11217   */\n      dup2\n      eq\n      tag_395\n      jumpi\n        /* \"#utility.yul\":11261:11262   */\n      0x00\n        /* \"#utility.yul\":11278:11284   */\n      dup5\n        /* \"#utility.yul\":11275:11352   */\n      iszero\n      tag_396\n      jumpi\n        /* \"#utility.yul\":11327:11336   */\n      dup3\n        /* \"#utility.yul\":11322:11325   */\n      dup8\n        /* \"#utility.yul\":11318:11337   */\n      add\n        /* \"#utility.yul\":11312:11338   */\n      mload\n        /* \"#utility.yul\":11303:11338   */\n      swap1\n      pop\n        /* \"#utility.yul\":11275:11352   */\n    tag_396:\n        /* \"#utility.yul\":11378:11445   */\n      tag_397\n        /* \"#utility.yul\":11438:11444   */\n      dup6\n        /* \"#utility.yul\":11431:11436   */\n      dup3\n        /* \"#utility.yul\":11378:11445   */\n      tag_260\n      jump\t// in\n    tag_397:\n        /* \"#utility.yul\":11372:11376   */\n      dup7\n        /* \"#utility.yul\":11365:11446   */\n      sstore\n        /* \"#utility.yul\":11234:11456   */\n      pop\n        /* \"#utility.yul\":10569:11456   */\n      jump(tag_394)\n        /* \"#utility.yul\":10599:11217   */\n    tag_395:\n        /* \"#utility.yul\":10651:10655   */\n      0x1f\n        /* \"#utility.yul\":10647:10656   */\n      not\n        /* \"#utility.yul\":10639:10645   */\n      dup5\n        /* \"#utility.yul\":10635:10657   */\n      and\n        /* \"#utility.yul\":10685:10722   */\n      tag_398\n        /* \"#utility.yul\":10717:10721   */\n      dup7\n        /* \"#utility.yul\":10685:10722   */\n      tag_246\n      jump\t// in\n    tag_398:\n        /* \"#utility.yul\":10744:10745   */\n      0x00\n        /* \"#utility.yul\":10758:10966   */\n    tag_399:\n        /* \"#utility.yul\":10772:10779   */\n      dup3\n        /* \"#utility.yul\":10769:10770   */\n      dup2\n        /* \"#utility.yul\":10766:10780   */\n      lt\n        /* \"#utility.yul\":10758:10966   */\n      iszero\n      tag_401\n      jumpi\n        /* \"#utility.yul\":10851:10860   */\n      dup5\n        /* \"#utility.yul\":10846:10849   */\n      dup10\n        /* \"#utility.yul\":10842:10861   */\n      add\n        /* \"#utility.yul\":10836:10862   */\n      mload\n        /* \"#utility.yul\":10828:10834   */\n      dup3\n        /* \"#utility.yul\":10821:10863   */\n      sstore\n        /* \"#utility.yul\":10902:10903   */\n      0x01\n        /* \"#utility.yul\":10894:10900   */\n      dup3\n        /* \"#utility.yul\":10890:10904   */\n      add\n        /* \"#utility.yul\":10880:10904   */\n      swap2\n      pop\n        /* \"#utility.yul\":10949:10951   */\n      0x20\n        /* \"#utility.yul\":10938:10947   */\n      dup6\n        /* \"#utility.yul\":10934:10952   */\n      add\n        /* \"#utility.yul\":10921:10952   */\n      swap5\n      pop\n        /* \"#utility.yul\":10795:10799   */\n      0x20\n        /* \"#utility.yul\":10792:10793   */\n      dup2\n        /* \"#utility.yul\":10788:10800   */\n      add\n        /* \"#utility.yul\":10783:10800   */\n      swap1\n      pop\n        /* \"#utility.yul\":10758:10966   */\n      jump(tag_399)\n    tag_401:\n        /* \"#utility.yul\":10994:11000   */\n      dup7\n        /* \"#utility.yul\":10985:10992   */\n      dup4\n        /* \"#utility.yul\":10982:11001   */\n      lt\n        /* \"#utility.yul\":10979:11158   */\n      iszero\n      tag_402\n      jumpi\n        /* \"#utility.yul\":11052:11061   */\n      dup5\n        /* \"#utility.yul\":11047:11050   */\n      dup10\n        /* \"#utility.yul\":11043:11062   */\n      add\n        /* \"#utility.yul\":11037:11063   */\n      mload\n        /* \"#utility.yul\":11095:11143   */\n      tag_403\n        /* \"#utility.yul\":11137:11141   */\n      0x1f\n        /* \"#utility.yul\":11129:11135   */\n      dup10\n        /* \"#utility.yul\":11125:11142   */\n      and\n        /* \"#utility.yul\":11114:11123   */\n      dup3\n        /* \"#utility.yul\":11095:11143   */\n      tag_259\n      jump\t// in\n    tag_403:\n        /* \"#utility.yul\":11087:11093   */\n      dup4\n        /* \"#utility.yul\":11080:11144   */\n      sstore\n        /* \"#utility.yul\":11002:11158   */\n      pop\n        /* \"#utility.yul\":10979:11158   */\n    tag_402:\n        /* \"#utility.yul\":11204:11205   */\n      0x01\n        /* \"#utility.yul\":11200:11201   */\n      0x02\n        /* \"#utility.yul\":11192:11198   */\n      dup9\n        /* \"#utility.yul\":11188:11202   */\n      mul\n        /* \"#utility.yul\":11184:11206   */\n      add\n        /* \"#utility.yul\":11178:11182   */\n      dup9\n        /* \"#utility.yul\":11171:11207   */\n      sstore\n        /* \"#utility.yul\":10606:11217   */\n      pop\n      pop\n      pop\n        /* \"#utility.yul\":10569:11456   */\n    tag_394:\n      pop\n        /* \"#utility.yul\":10159:11462   */\n      pop\n      pop\n      pop\n        /* \"#utility.yul\":10067:11462   */\n      pop\n      pop\n      jump\t// out\n        /* \"#utility.yul\":11468:11910   */\n    tag_62:\n        /* \"#utility.yul\":11617:11621   */\n      0x00\n        /* \"#utility.yul\":11655:11657   */\n      0x60\n        /* \"#utility.yul\":11644:11653   */\n      dup3\n        /* \"#utility.yul\":11640:11658   */\n      add\n        /* \"#utility.yul\":11632:11658   */\n      swap1\n      pop\n        /* \"#utility.yul\":11668:11739   */\n      tag_405\n        /* \"#utility.yul\":11736:11737   */\n      0x00\n        /* \"#utility.yul\":11725:11734   */\n      dup4\n        /* \"#utility.yul\":11721:11738   */\n      add\n        /* \"#utility.yul\":11712:11718   */\n      dup7\n        /* \"#utility.yul\":11668:11739   */\n      tag_239\n      jump\t// in\n    tag_405:\n        /* \"#utility.yul\":11749:11821   */\n      tag_406\n        /* \"#utility.yul\":11817:11819   */\n      0x20\n        /* \"#utility.yul\":11806:11815   */\n      dup4\n        /* \"#utility.yul\":11802:11820   */\n      add\n        /* \"#utility.yul\":11793:11799   */\n      dup6\n        /* \"#utility.yul\":11749:11821   */\n      tag_239\n      jump\t// in\n    tag_406:\n        /* \"#utility.yul\":11831:11903   */\n      tag_407\n        /* \"#utility.yul\":11899:11901   */\n      0x40\n        /* \"#utility.yul\":11888:11897   */\n      dup4\n        /* \"#utility.yul\":11884:11902   */\n      add\n        /* \"#utility.yul\":11875:11881   */\n      dup5\n        /* \"#utility.yul\":11831:11903   */\n      tag_239\n      jump\t// in\n    tag_407:\n        /* \"#utility.yul\":11468:11910   */\n      swap5\n      swap4\n      pop\n      pop\n      pop\n      pop\n      jump\t// out\n        /* \"#utility.yul\":11916:12096   */\n    tag_66:\n        /* \"#utility.yul\":11964:12041   */\n      0x4e487b7100000000000000000000000000000000000000000000000000000000\n        /* \"#utility.yul\":11961:11962   */\n      0x00\n        /* \"#utility.yul\":11954:12042   */\n      mstore\n        /* \"#utility.yul\":12061:12065   */\n      0x32\n        /* \"#utility.yul\":12058:12059   */\n      0x04\n        /* \"#utility.yul\":12051:12066   */\n      mstore\n        /* \"#utility.yul\":12085:12089   */\n      0x24\n        /* \"#utility.yul\":12082:12083   */\n      0x00\n        /* \"#utility.yul\":12075:12090   */\n      revert\n        /* \"#utility.yul\":12102:12271   */\n    tag_261:\n        /* \"#utility.yul\":12186:12197   */\n      0x00\n        /* \"#utility.yul\":12220:12226   */\n      dup3\n        /* \"#utility.yul\":12215:12218   */\n      dup3\n        /* \"#utility.yul\":12208:12227   */\n      mstore\n        /* \"#utility.yul\":12260:12264   */\n      0x20\n        /* \"#utility.yul\":12255:12258   */\n      dup3\n        /* \"#utility.yul\":12251:12265   */\n      add\n        /* \"#utility.yul\":12236:12265   */\n      swap1\n      pop\n        /* \"#utility.yul\":12102:12271   */\n      swap3\n      swap2\n      pop\n      pop\n      jump\t// out\n        /* \"#utility.yul\":12277:12451   */\n    tag_262:\n        /* \"#utility.yul\":12417:12443   */\n      0x4e6f7420617574686f72697a656420746f2063616e63656c0000000000000000\n        /* \"#utility.yul\":12413:12414   */\n      0x00\n        /* \"#utility.yul\":12405:12411   */\n      dup3\n        /* \"#utility.yul\":12401:12415   */\n      add\n        /* \"#utility.yul\":12394:12444   */\n      mstore\n        /* \"#utility.yul\":12277:12451   */\n      pop\n      jump\t// out\n        /* \"#utility.yul\":12457:12823   */\n    tag_263:\n        /* \"#utility.yul\":12599:12602   */\n      0x00\n        /* \"#utility.yul\":12620:12687   */\n      tag_412\n        /* \"#utility.yul\":12684:12686   */\n      0x18\n        /* \"#utility.yul\":12679:12682   */\n      dup4\n        /* \"#utility.yul\":12620:12687   */\n      tag_261\n      jump\t// in\n    tag_412:\n        /* \"#utility.yul\":12613:12687   */\n      swap2\n      pop\n        /* \"#utility.yul\":12696:12789   */\n      tag_413\n        /* \"#utility.yul\":12785:12788   */\n      dup3\n        /* \"#utility.yul\":12696:12789   */\n      tag_262\n      jump\t// in\n    tag_413:\n        /* \"#utility.yul\":12814:12816   */\n      0x20\n        /* \"#utility.yul\":12809:12812   */\n      dup3\n        /* \"#utility.yul\":12805:12817   */\n      add\n        /* \"#utility.yul\":12798:12817   */\n      swap1\n      pop\n        /* \"#utility.yul\":12457:12823   */\n      swap2\n      swap1\n      pop\n      jump\t// out\n        /* \"#utility.yul\":12829:13248   */\n    tag_71:\n        /* \"#utility.yul\":12995:12999   */\n      0x00\n        /* \"#utility.yul\":13033:13035   */\n      0x20\n        /* \"#utility.yul\":13022:13031   */\n      dup3\n        /* \"#utility.yul\":13018:13036   */\n      add\n        /* \"#utility.yul\":13010:13036   */\n      swap1\n      pop\n        /* \"#utility.yul\":13082:13091   */\n      dup2\n        /* \"#utility.yul\":13076:13080   */\n      dup2\n        /* \"#utility.yul\":13072:13092   */\n      sub\n        /* \"#utility.yul\":13068:13069   */\n      0x00\n        /* \"#utility.yul\":13057:13066   */\n      dup4\n        /* \"#utility.yul\":13053:13070   */\n      add\n        /* \"#utility.yul\":13046:13093   */\n      mstore\n        /* \"#utility.yul\":13110:13241   */\n      tag_415\n        /* \"#utility.yul\":13236:13240   */\n      dup2\n        /* \"#utility.yul\":13110:13241   */\n      tag_263\n      jump\t// in\n    tag_415:\n        /* \"#utility.yul\":13102:13241   */\n      swap1\n      pop\n        /* \"#utility.yul\":12829:13248   */\n      swap2\n      swap1\n      pop\n      jump\t// out\n        /* \"#utility.yul\":13254:13416   */\n    tag_264:\n        /* \"#utility.yul\":13394:13408   */\n      0x556e617574686f72697a65640000000000000000000000000000000000000000\n        /* \"#utility.yul\":13390:13391   */\n      0x00\n        /* \"#utility.yul\":13382:13388   */\n      dup3\n        /* \"#utility.yul\":13378:13392   */\n      add\n        /* \"#utility.yul\":13371:13409   */\n      mstore\n        /* \"#utility.yul\":13254:13416   */\n      pop\n      jump\t// out\n        /* \"#utility.yul\":13422:13788   */\n    tag_265:\n        /* \"#utility.yul\":13564:13567   */\n      0x00\n        /* \"#utility.yul\":13585:13652   */\n      tag_418\n        /* \"#utility.yul\":13649:13651   */\n      0x0c\n        /* \"#utility.yul\":13644:13647   */\n      dup4\n        /* \"#utility.yul\":13585:13652   */\n      tag_261\n      jump\t// in\n    tag_418:\n        /* \"#utility.yul\":13578:13652   */\n      swap2\n      pop\n        /* \"#utility.yul\":13661:13754   */\n      tag_419\n        /* \"#utility.yul\":13750:13753   */\n      dup3\n        /* \"#utility.yul\":13661:13754   */\n      tag_264\n      jump\t// in\n    tag_419:\n        /* \"#utility.yul\":13779:13781   */\n      0x20\n        /* \"#utility.yul\":13774:13777   */\n      dup3\n        /* \"#utility.yul\":13770:13782   */\n      add\n        /* \"#utility.yul\":13763:13782   */\n      swap1\n      pop\n        /* \"#utility.yul\":13422:13788   */\n      swap2\n      swap1\n      pop\n      jump\t// out\n        /* \"#utility.yul\":13794:14213   */\n    tag_84:\n        /* \"#utility.yul\":13960:13964   */\n      0x00\n        /* \"#utility.yul\":13998:14000   */\n      0x20\n        /* \"#utility.yul\":13987:13996   */\n      dup3\n        /* \"#utility.yul\":13983:14001   */\n      add\n        /* \"#utility.yul\":13975:14001   */\n      swap1\n      pop\n        /* \"#utility.yul\":14047:14056   */\n      dup2\n        /* \"#utility.yul\":14041:14045   */\n      dup2\n        /* \"#utility.yul\":14037:14057   */\n      sub\n        /* \"#utility.yul\":14033:14034   */\n      0x00\n        /* \"#utility.yul\":14022:14031   */\n      dup4\n        /* \"#utility.yul\":14018:14035   */\n      add\n        /* \"#utility.yul\":14011:14058   */\n      mstore\n        /* \"#utility.yul\":14075:14206   */\n      tag_421\n        /* \"#utility.yul\":14201:14205   */\n      dup2\n        /* \"#utility.yul\":14075:14206   */\n      tag_265\n      jump\t// in\n    tag_421:\n        /* \"#utility.yul\":14067:14206   */\n      swap1\n      pop\n        /* \"#utility.yul\":13794:14213   */\n      swap2\n      swap1\n      pop\n      jump\t// out\n        /* \"#utility.yul\":14219:14772   */\n    tag_91:\n        /* \"#utility.yul\":14396:14400   */\n      0x00\n        /* \"#utility.yul\":14434:14437   */\n      0x80\n        /* \"#utility.yul\":14423:14432   */\n      dup3\n        /* \"#utility.yul\":14419:14438   */\n      add\n        /* \"#utility.yul\":14411:14438   */\n      swap1\n      pop\n        /* \"#utility.yul\":14448:14519   */\n      tag_423\n        /* \"#utility.yul\":14516:14517   */\n      0x00\n        /* \"#utility.yul\":14505:14514   */\n      dup4\n        /* \"#utility.yul\":14501:14518   */\n      add\n        /* \"#utility.yul\":14492:14498   */\n      dup8\n        /* \"#utility.yul\":14448:14519   */\n      tag_239\n      jump\t// in\n    tag_423:\n        /* \"#utility.yul\":14529:14601   */\n      tag_424\n        /* \"#utility.yul\":14597:14599   */\n      0x20\n        /* \"#utility.yul\":14586:14595   */\n      dup4\n        /* \"#utility.yul\":14582:14600   */\n      add\n        /* \"#utility.yul\":14573:14579   */\n      dup7\n        /* \"#utility.yul\":14529:14601   */\n      tag_239\n      jump\t// in\n    tag_424:\n        /* \"#utility.yul\":14611:14683   */\n      tag_425\n        /* \"#utility.yul\":14679:14681   */\n      0x40\n        /* \"#utility.yul\":14668:14677   */\n      dup4\n        /* \"#utility.yul\":14664:14682   */\n      add\n        /* \"#utility.yul\":14655:14661   */\n      dup6\n        /* \"#utility.yul\":14611:14683   */\n      tag_239\n      jump\t// in\n    tag_425:\n        /* \"#utility.yul\":14693:14765   */\n      tag_426\n        /* \"#utility.yul\":14761:14763   */\n      0x60\n        /* \"#utility.yul\":14750:14759   */\n      dup4\n        /* \"#utility.yul\":14746:14764   */\n      add\n        /* \"#utility.yul\":14737:14743   */\n      dup5\n        /* \"#utility.yul\":14693:14765   */\n      tag_239\n      jump\t// in\n    tag_426:\n        /* \"#utility.yul\":14219:14772   */\n      swap6\n      swap5\n      pop\n      pop\n      pop\n      pop\n      pop\n      jump\t// out\n        /* \"#utility.yul\":14778:15000   */\n    tag_266:\n        /* \"#utility.yul\":14918:14952   */\n      0x436f6e747261637420616c72656164792073746f70706564206f7220696e7661\n        /* \"#utility.yul\":14914:14915   */\n      0x00\n        /* \"#utility.yul\":14906:14912   */\n      dup3\n        /* \"#utility.yul\":14902:14916   */\n      add\n        /* \"#utility.yul\":14895:14953   */\n      mstore\n        /* \"#utility.yul\":14987:14992   */\n      0x6c69640000000000000000000000000000000000000000000000000000000000\n        /* \"#utility.yul\":14982:14984   */\n      0x20\n        /* \"#utility.yul\":14974:14980   */\n      dup3\n        /* \"#utility.yul\":14970:14985   */\n      add\n        /* \"#utility.yul\":14963:14993   */\n      mstore\n        /* \"#utility.yul\":14778:15000   */\n      pop\n      jump\t// out\n        /* \"#utility.yul\":15006:15372   */\n    tag_267:\n        /* \"#utility.yul\":15148:15151   */\n      0x00\n        /* \"#utility.yul\":15169:15236   */\n      tag_429\n        /* \"#utility.yul\":15233:15235   */\n      0x23\n        /* \"#utility.yul\":15228:15231   */\n      dup4\n        /* \"#utility.yul\":15169:15236   */\n      tag_261\n      jump\t// in\n    tag_429:\n        /* \"#utility.yul\":15162:15236   */\n      swap2\n      pop\n        /* \"#utility.yul\":15245:15338   */\n      tag_430\n        /* \"#utility.yul\":15334:15337   */\n      dup3\n        /* \"#utility.yul\":15245:15338   */\n      tag_266\n      jump\t// in\n    tag_430:\n        /* \"#utility.yul\":15363:15365   */\n      0x40\n        /* \"#utility.yul\":15358:15361   */\n      dup3\n        /* \"#utility.yul\":15354:15366   */\n      add\n        /* \"#utility.yul\":15347:15366   */\n      swap1\n      pop\n        /* \"#utility.yul\":15006:15372   */\n      swap2\n      swap1\n      pop\n      jump\t// out\n        /* \"#utility.yul\":15378:15797   */\n    tag_99:\n        /* \"#utility.yul\":15544:15548   */\n      0x00\n        /* \"#utility.yul\":15582:15584   */\n      0x20\n        /* \"#utility.yul\":15571:15580   */\n      dup3\n        /* \"#utility.yul\":15567:15585   */\n      add\n        /* \"#utility.yul\":15559:15585   */\n      swap1\n      pop\n        /* \"#utility.yul\":15631:15640   */\n      dup2\n        /* \"#utility.yul\":15625:15629   */\n      dup2\n        /* \"#utility.yul\":15621:15641   */\n      sub\n        /* \"#utility.yul\":15617:15618   */\n      0x00\n        /* \"#utility.yul\":15606:15615   */\n      dup4\n        /* \"#utility.yul\":15602:15619   */\n      add\n        /* \"#utility.yul\":15595:15642   */\n      mstore\n        /* \"#utility.yul\":15659:15790   */\n      tag_432\n        /* \"#utility.yul\":15785:15789   */\n      dup2\n        /* \"#utility.yul\":15659:15790   */\n      tag_267\n      jump\t// in\n    tag_432:\n        /* \"#utility.yul\":15651:15790   */\n      swap1\n      pop\n        /* \"#utility.yul\":15378:15797   */\n      swap2\n      swap1\n      pop\n      jump\t// out\n        /* \"#utility.yul\":15803:15997   */\n    tag_107:\n        /* \"#utility.yul\":15843:15847   */\n      0x00\n        /* \"#utility.yul\":15863:15883   */\n      tag_434\n        /* \"#utility.yul\":15881:15882   */\n      dup3\n        /* \"#utility.yul\":15863:15883   */\n      tag_226\n      jump\t// in\n    tag_434:\n        /* \"#utility.yul\":15858:15883   */\n      swap2\n      pop\n        /* \"#utility.yul\":15897:15917   */\n      tag_435\n        /* \"#utility.yul\":15915:15916   */\n      dup4\n        /* \"#utility.yul\":15897:15917   */\n      tag_226\n      jump\t// in\n    tag_435:\n        /* \"#utility.yul\":15892:15917   */\n      swap3\n      pop\n        /* \"#utility.yul\":15941:15942   */\n      dup3\n        /* \"#utility.yul\":15938:15939   */\n      dup3\n        /* \"#utility.yul\":15934:15943   */\n      sub\n        /* \"#utility.yul\":15926:15943   */\n      swap1\n      pop\n        /* \"#utility.yul\":15965:15966   */\n      dup2\n        /* \"#utility.yul\":15959:15963   */\n      dup2\n        /* \"#utility.yul\":15956:15967   */\n      gt\n        /* \"#utility.yul\":15953:15990   */\n      iszero\n      tag_436\n      jumpi\n        /* \"#utility.yul\":15970:15988   */\n      tag_437\n      tag_243\n      jump\t// in\n    tag_437:\n        /* \"#utility.yul\":15953:15990   */\n    tag_436:\n        /* \"#utility.yul\":15803:15997   */\n      swap3\n      swap2\n      pop\n      pop\n      jump\t// out\n        /* \"#utility.yul\":16003:16335   */\n    tag_113:\n        /* \"#utility.yul\":16124:16128   */\n      0x00\n        /* \"#utility.yul\":16162:16164   */\n      0x40\n        /* \"#utility.yul\":16151:16160   */\n      dup3\n        /* \"#utility.yul\":16147:16165   */\n      add\n        /* \"#utility.yul\":16139:16165   */\n      swap1\n      pop\n        /* \"#utility.yul\":16175:16246   */\n      tag_439\n        /* \"#utility.yul\":16243:16244   */\n      0x00\n        /* \"#utility.yul\":16232:16241   */\n      dup4\n        /* \"#utility.yul\":16228:16245   */\n      add\n        /* \"#utility.yul\":16219:16225   */\n      dup6\n        /* \"#utility.yul\":16175:16246   */\n      tag_239\n      jump\t// in\n    tag_439:\n        /* \"#utility.yul\":16256:16328   */\n      tag_440\n        /* \"#utility.yul\":16324:16326   */\n      0x20\n        /* \"#utility.yul\":16313:16322   */\n      dup4\n        /* \"#utility.yul\":16309:16327   */\n      add\n        /* \"#utility.yul\":16300:16306   */\n      dup5\n        /* \"#utility.yul\":16256:16328   */\n      tag_239\n      jump\t// in\n    tag_440:\n        /* \"#utility.yul\":16003:16335   */\n      swap4\n      swap3\n      pop\n      pop\n      pop\n      jump\t// out\n        /* \"#utility.yul\":16341:16517   */\n    tag_268:\n        /* \"#utility.yul\":16481:16509   */\n      0x496e76616c6964207769746864726177616c20617474656d7074000000000000\n        /* \"#utility.yul\":16477:16478   */\n      0x00\n        /* \"#utility.yul\":16469:16475   */\n      dup3\n        /* \"#utility.yul\":16465:16479   */\n      add\n        /* \"#utility.yul\":16458:16510   */\n      mstore\n        /* \"#utility.yul\":16341:16517   */\n      pop\n      jump\t// out\n        /* \"#utility.yul\":16523:16889   */\n    tag_269:\n        /* \"#utility.yul\":16665:16668   */\n      0x00\n        /* \"#utility.yul\":16686:16753   */\n      tag_443\n        /* \"#utility.yul\":16750:16752   */\n      0x1a\n        /* \"#utility.yul\":16745:16748   */\n      dup4\n        /* \"#utility.yul\":16686:16753   */\n      tag_261\n      jump\t// in\n    tag_443:\n        /* \"#utility.yul\":16679:16753   */\n      swap2\n      pop\n        /* \"#utility.yul\":16762:16855   */\n      tag_444\n        /* \"#utility.yul\":16851:16854   */\n      dup3\n        /* \"#utility.yul\":16762:16855   */\n      tag_268\n      jump\t// in\n    tag_444:\n        /* \"#utility.yul\":16880:16882   */\n      0x20\n        /* \"#utility.yul\":16875:16878   */\n      dup3\n        /* \"#utility.yul\":16871:16883   */\n      add\n        /* \"#utility.yul\":16864:16883   */\n      swap1\n      pop\n        /* \"#utility.yul\":16523:16889   */\n      swap2\n      swap1\n      pop\n      jump\t// out\n        /* \"#utility.yul\":16895:17314   */\n    tag_143:\n        /* \"#utility.yul\":17061:17065   */\n      0x00\n        /* \"#utility.yul\":17099:17101   */\n      0x20\n        /* \"#utility.yul\":17088:17097   */\n      dup3\n        /* \"#utility.yul\":17084:17102   */\n      add\n        /* \"#utility.yul\":17076:17102   */\n      swap1\n      pop\n        /* \"#utility.yul\":17148:17157   */\n      dup2\n        /* \"#utility.yul\":17142:17146   */\n      dup2\n        /* \"#utility.yul\":17138:17158   */\n      sub\n        /* \"#utility.yul\":17134:17135   */\n      0x00\n        /* \"#utility.yul\":17123:17132   */\n      dup4\n        /* \"#utility.yul\":17119:17136   */\n      add\n        /* \"#utility.yul\":17112:17159   */\n      mstore\n        /* \"#utility.yul\":17176:17307   */\n      tag_446\n        /* \"#utility.yul\":17302:17306   */\n      dup2\n        /* \"#utility.yul\":17176:17307   */\n      tag_269\n      jump\t// in\n    tag_446:\n        /* \"#utility.yul\":17168:17307   */\n      swap1\n      pop\n        /* \"#utility.yul\":16895:17314   */\n      swap2\n      swap1\n      pop\n      jump\t// out\n        /* \"#utility.yul\":17320:17469   */\n    tag_270:\n        /* \"#utility.yul\":17369:17375   */\n      0x00\n        /* \"#utility.yul\":17403:17408   */\n      dup2\n        /* \"#utility.yul\":17397:17409   */\n      sload\n        /* \"#utility.yul\":17387:17409   */\n      swap1\n      pop\n        /* \"#utility.yul\":17429:17462   */\n      tag_448\n        /* \"#utility.yul\":17455:17461   */\n      dup2\n        /* \"#utility.yul\":17429:17462   */\n      tag_167\n      jump\t// in\n    tag_448:\n        /* \"#utility.yul\":17419:17462   */\n      swap1\n      pop\n        /* \"#utility.yul\":17320:17469   */\n      swap2\n      swap1\n      pop\n      jump\t// out\n        /* \"#utility.yul\":17475:18926   */\n    tag_155:\n        /* \"#utility.yul\":17586:17589   */\n      dup2\n        /* \"#utility.yul\":17580:17584   */\n      dup2\n        /* \"#utility.yul\":17577:17590   */\n      sub\n        /* \"#utility.yul\":17574:17600   */\n      tag_450\n      jumpi\n        /* \"#utility.yul\":17593:17598   */\n      pop\n      pop\n      jump(tag_449)\n        /* \"#utility.yul\":17574:17600   */\n    tag_450:\n        /* \"#utility.yul\":17624:17658   */\n      tag_451\n        /* \"#utility.yul\":17654:17657   */\n      dup3\n        /* \"#utility.yul\":17624:17658   */\n      tag_270\n      jump\t// in\n    tag_451:\n        /* \"#utility.yul\":17723:17741   */\n      0xffffffffffffffff\n        /* \"#utility.yul\":17715:17721   */\n      dup2\n        /* \"#utility.yul\":17712:17742   */\n      gt\n        /* \"#utility.yul\":17709:17765   */\n      iszero\n      tag_452\n      jumpi\n        /* \"#utility.yul\":17745:17763   */\n      tag_453\n      tag_232\n      jump\t// in\n    tag_453:\n        /* \"#utility.yul\":17709:17765   */\n    tag_452:\n        /* \"#utility.yul\":17789:17827   */\n      tag_454\n        /* \"#utility.yul\":17821:17825   */\n      dup3\n        /* \"#utility.yul\":17815:17826   */\n      sload\n        /* \"#utility.yul\":17789:17827   */\n      tag_167\n      jump\t// in\n    tag_454:\n        /* \"#utility.yul\":17874:17941   */\n      tag_455\n        /* \"#utility.yul\":17934:17940   */\n      dup3\n        /* \"#utility.yul\":17926:17932   */\n      dup3\n        /* \"#utility.yul\":17920:17924   */\n      dup6\n        /* \"#utility.yul\":17874:17941   */\n      tag_257\n      jump\t// in\n    tag_455:\n        /* \"#utility.yul\":17968:17969   */\n      0x00\n        /* \"#utility.yul\":17997:17999   */\n      0x1f\n        /* \"#utility.yul\":17989:17995   */\n      dup4\n        /* \"#utility.yul\":17986:18000   */\n      gt\n        /* \"#utility.yul\":18014:18015   */\n      0x01\n        /* \"#utility.yul\":18009:18681   */\n      dup2\n      eq\n      tag_457\n      jumpi\n        /* \"#utility.yul\":18725:18726   */\n      0x00\n        /* \"#utility.yul\":18742:18748   */\n      dup5\n        /* \"#utility.yul\":18739:18816   */\n      iszero\n      tag_458\n      jumpi\n        /* \"#utility.yul\":18791:18800   */\n      dup3\n        /* \"#utility.yul\":18786:18789   */\n      dup8\n        /* \"#utility.yul\":18782:18801   */\n      add\n        /* \"#utility.yul\":18776:18802   */\n      sload\n        /* \"#utility.yul\":18767:18802   */\n      swap1\n      pop\n        /* \"#utility.yul\":18739:18816   */\n    tag_458:\n        /* \"#utility.yul\":18842:18909   */\n      tag_459\n        /* \"#utility.yul\":18902:18908   */\n      dup6\n        /* \"#utility.yul\":18895:18900   */\n      dup3\n        /* \"#utility.yul\":18842:18909   */\n      tag_260\n      jump\t// in\n    tag_459:\n        /* \"#utility.yul\":18836:18840   */\n      dup7\n        /* \"#utility.yul\":18829:18910   */\n      sstore\n        /* \"#utility.yul\":18698:18920   */\n      pop\n        /* \"#utility.yul\":17979:18920   */\n      jump(tag_456)\n        /* \"#utility.yul\":18009:18681   */\n    tag_457:\n        /* \"#utility.yul\":18061:18065   */\n      0x1f\n        /* \"#utility.yul\":18057:18066   */\n      not\n        /* \"#utility.yul\":18049:18055   */\n      dup5\n        /* \"#utility.yul\":18045:18067   */\n      and\n        /* \"#utility.yul\":18087:18123   */\n      tag_460\n        /* \"#utility.yul\":18119:18122   */\n      dup8\n        /* \"#utility.yul\":18087:18123   */\n      tag_246\n      jump\t// in\n    tag_460:\n        /* \"#utility.yul\":18080:18123   */\n      swap7\n      pop\n        /* \"#utility.yul\":18150:18187   */\n      tag_461\n        /* \"#utility.yul\":18182:18186   */\n      dup7\n        /* \"#utility.yul\":18150:18187   */\n      tag_246\n      jump\t// in\n    tag_461:\n        /* \"#utility.yul\":18209:18210   */\n      0x00\n        /* \"#utility.yul\":18223:18430   */\n    tag_462:\n        /* \"#utility.yul\":18237:18244   */\n      dup3\n        /* \"#utility.yul\":18234:18235   */\n      dup2\n        /* \"#utility.yul\":18231:18245   */\n      lt\n        /* \"#utility.yul\":18223:18430   */\n      iszero\n      tag_464\n      jumpi\n        /* \"#utility.yul\":18316:18325   */\n      dup5\n        /* \"#utility.yul\":18311:18314   */\n      dup10\n        /* \"#utility.yul\":18307:18326   */\n      add\n        /* \"#utility.yul\":18301:18327   */\n      sload\n        /* \"#utility.yul\":18293:18299   */\n      dup3\n        /* \"#utility.yul\":18286:18328   */\n      sstore\n        /* \"#utility.yul\":18367:18368   */\n      0x01\n        /* \"#utility.yul\":18359:18365   */\n      dup3\n        /* \"#utility.yul\":18355:18369   */\n      add\n        /* \"#utility.yul\":18345:18369   */\n      swap2\n      pop\n        /* \"#utility.yul\":18414:18415   */\n      0x01\n        /* \"#utility.yul\":18403:18412   */\n      dup6\n        /* \"#utility.yul\":18399:18416   */\n      add\n        /* \"#utility.yul\":18386:18416   */\n      swap5\n      pop\n        /* \"#utility.yul\":18260:18264   */\n      0x20\n        /* \"#utility.yul\":18257:18258   */\n      dup2\n        /* \"#utility.yul\":18253:18265   */\n      add\n        /* \"#utility.yul\":18248:18265   */\n      swap1\n      pop\n        /* \"#utility.yul\":18223:18430   */\n      jump(tag_462)\n    tag_464:\n        /* \"#utility.yul\":18458:18464   */\n      dup7\n        /* \"#utility.yul\":18449:18456   */\n      dup4\n        /* \"#utility.yul\":18446:18465   */\n      lt\n        /* \"#utility.yul\":18443:18622   */\n      iszero\n      tag_465\n      jumpi\n        /* \"#utility.yul\":18516:18525   */\n      dup5\n        /* \"#utility.yul\":18511:18514   */\n      dup10\n        /* \"#utility.yul\":18507:18526   */\n      add\n        /* \"#utility.yul\":18501:18527   */\n      sload\n        /* \"#utility.yul\":18559:18607   */\n      tag_466\n        /* \"#utility.yul\":18601:18605   */\n      0x1f\n        /* \"#utility.yul\":18593:18599   */\n      dup10\n        /* \"#utility.yul\":18589:18606   */\n      and\n        /* \"#utility.yul\":18578:18587   */\n      dup3\n        /* \"#utility.yul\":18559:18607   */\n      tag_259\n      jump\t// in\n    tag_466:\n        /* \"#utility.yul\":18551:18557   */\n      dup4\n        /* \"#utility.yul\":18544:18608   */\n      sstore\n        /* \"#utility.yul\":18466:18622   */\n      pop\n        /* \"#utility.yul\":18443:18622   */\n    tag_465:\n        /* \"#utility.yul\":18668:18669   */\n      0x01\n        /* \"#utility.yul\":18664:18665   */\n      0x02\n        /* \"#utility.yul\":18656:18662   */\n      dup9\n        /* \"#utility.yul\":18652:18666   */\n      mul\n        /* \"#utility.yul\":18648:18670   */\n      add\n        /* \"#utility.yul\":18642:18646   */\n      dup9\n        /* \"#utility.yul\":18635:18671   */\n      sstore\n        /* \"#utility.yul\":18016:18681   */\n      pop\n      pop\n      pop\n        /* \"#utility.yul\":17979:18920   */\n    tag_456:\n      pop\n        /* \"#utility.yul\":17564:18926   */\n      pop\n      pop\n      pop\n        /* \"#utility.yul\":17475:18926   */\n      pop\n      pop\n    tag_449:\n      jump\t// out\n        /* \"#utility.yul\":18932:19112   */\n    tag_158:\n        /* \"#utility.yul\":18980:19057   */\n      0x4e487b7100000000000000000000000000000000000000000000000000000000\n        /* \"#utility.yul\":18977:18978   */\n      0x00\n        /* \"#utility.yul\":18970:19058   */\n      mstore\n        /* \"#utility.yul\":19077:19081   */\n      0x31\n        /* \"#utility.yul\":19074:19075   */\n      0x04\n        /* \"#utility.yul\":19067:19082   */\n      mstore\n        /* \"#utility.yul\":19101:19105   */\n      0x24\n        /* \"#utility.yul\":19098:19099   */\n      0x00\n        /* \"#utility.yul\":19091:19106   */\n      revert\n        /* \"#utility.yul\":19118:19528   */\n    tag_181:\n        /* \"#utility.yul\":19158:19165   */\n      0x00\n        /* \"#utility.yul\":19181:19201   */\n      tag_469\n        /* \"#utility.yul\":19199:19200   */\n      dup3\n        /* \"#utility.yul\":19181:19201   */\n      tag_226\n      jump\t// in\n    tag_469:\n        /* \"#utility.yul\":19176:19201   */\n      swap2\n      pop\n        /* \"#utility.yul\":19215:19235   */\n      tag_470\n        /* \"#utility.yul\":19233:19234   */\n      dup4\n        /* \"#utility.yul\":19215:19235   */\n      tag_226\n      jump\t// in\n    tag_470:\n        /* \"#utility.yul\":19210:19235   */\n      swap3\n      pop\n        /* \"#utility.yul\":19270:19271   */\n      dup3\n        /* \"#utility.yul\":19267:19268   */\n      dup3\n        /* \"#utility.yul\":19263:19272   */\n      mul\n        /* \"#utility.yul\":19292:19322   */\n      tag_471\n        /* \"#utility.yul\":19310:19321   */\n      dup2\n        /* \"#utility.yul\":19292:19322   */\n      tag_226\n      jump\t// in\n    tag_471:\n        /* \"#utility.yul\":19281:19322   */\n      swap2\n      pop\n        /* \"#utility.yul\":19471:19472   */\n      dup3\n        /* \"#utility.yul\":19462:19469   */\n      dup3\n        /* \"#utility.yul\":19458:19473   */\n      div\n        /* \"#utility.yul\":19455:19456   */\n      dup5\n        /* \"#utility.yul\":19452:19474   */\n      eq\n        /* \"#utility.yul\":19432:19433   */\n      dup4\n        /* \"#utility.yul\":19425:19434   */\n      iszero\n        /* \"#utility.yul\":19405:19488   */\n      or\n        /* \"#utility.yul\":19382:19521   */\n      tag_472\n      jumpi\n        /* \"#utility.yul\":19501:19519   */\n      tag_473\n      tag_243\n      jump\t// in\n    tag_473:\n        /* \"#utility.yul\":19382:19521   */\n    tag_472:\n        /* \"#utility.yul\":19166:19528   */\n      pop\n        /* \"#utility.yul\":19118:19528   */\n      swap3\n      swap2\n      pop\n      pop\n      jump\t// out\n\n    auxdata: 0xa26469706673582212209d1da1c9d39e6e0a64ae3338876d0f4e077134a469c5b1fc8b96b4643361047d64736f6c634300081a0033\n}\n",
				"bytecode": {
					"linkReferences": {},
					"object": "6080604052348015600e575f80fd5b50335f806101000a81548173ffffffffffffffffffffffffffffffffffffffff021916908373ffffffffffffffffffffffffffffffffffffffff1602179055506121578061005b5f395ff3fe608060405260043610610085575f3560e01c806390664d6a1161005857806390664d6a146101335780639589d4641461015b578063dd23400b14610177578063e51dfd90146101b3578063eb38b7b3146101db57610085565b806314d3c7a5146100895780635279371e146100b95780638c748334146100e15780638da5cb5b14610109575b5f80fd5b6100a3600480360381019061009e91906117f3565b610217565b6040516100b09190611882565b60405180910390f35b3480156100c4575f80fd5b506100df60048036038101906100da919061189b565b610220565b005b3480156100ec575f80fd5b5061010760048036038101906101029190611907565b61036b565b005b348015610114575f80fd5b5061011d6104d6565b60405161012a9190611984565b60405180910390f35b34801561013e575f80fd5b5061015960048036038101906101549190611907565b6104f9565b005b6101756004803603810190610170919061189b565b610609565b005b348015610182575f80fd5b5061019d60048036038101906101989190611907565b610766565b6040516101aa9190611882565b60405180910390f35b3480156101be575f80fd5b506101d960048036038101906101d49190611907565b610a5d565b005b3480156101e6575f80fd5b5061020160048036038101906101fc9190611907565b610b7b565b60405161020e9190611882565b60405180910390f35b5f949350505050565b60046040518060a0016040528060015f815461023b906119ca565b91905081905581526020013373ffffffffffffffffffffffffffffffffffffffff16815260200185815260200184815260200183815250908060018154018082558091505060019003905f5260205f2090600502015f909190919091505f820151815f01556020820151816001015f6101000a81548173ffffffffffffffffffffffffffffffffffffffff021916908373ffffffffffffffffffffffffffffffffffffffff1602179055506040820151816002015560608201518160030155608082015181600401908161030f9190611c15565b5050503373ffffffffffffffffffffffffffffffffffffffff167f80a49be05481ef1a555cd6ea5845b05ffa157f18a6e61d3030f9bc5d25f3294a600154858560405161035e93929190611ce4565b60405180910390a2505050565b5f600583815481106103805761037f611d19565b5b905f5260205f20906006020190503373ffffffffffffffffffffffffffffffffffffffff16816001015f9054906101000a900473ffffffffffffffffffffffffffffffffffffffff1673ffffffffffffffffffffffffffffffffffffffff161480156103ee575081815f0154145b61042d576040517f08c379a000000000000000000000000000000000000000000000000000000000815260040161042490611da0565b60405180910390fd5b5f8160040154905061043e84610df1565b3373ffffffffffffffffffffffffffffffffffffffff166108fc8290811502906040515f60405180830381858888f19350505050158015610481573d5f803e3d5ffd5b503373ffffffffffffffffffffffffffffffffffffffff167f5868c0b8c4243c19ec4ab86d6673f3116ac0320303644657c8ade45446f15753846040516104c89190611882565b60405180910390a250505050565b5f8054906101000a900473ffffffffffffffffffffffffffffffffffffffff1681565b5f6006838154811061050e5761050d611d19565b5b905f5260205f2090600b020190503373ffffffffffffffffffffffffffffffffffffffff16816001015f9054906101000a900473ffffffffffffffffffffffffffffffffffffffff1673ffffffffffffffffffffffffffffffffffffffff1614801561057c575081815f0154145b6105bb576040517f08c379a00000000000000000000000000000000000000000000000000000000081526004016105b290611e08565b60405180910390fd5b4381600601819055504381600a01819055507f13ba679b7b0edc3119e5b425d59f1c1644ecb5acb77321fb8b205a36525a47e7826040516105fc9190611882565b60405180910390a1505050565b60056040518060c0016040528060025f8154610624906119ca565b91905081905581526020013373ffffffffffffffffffffffffffffffffffffffff16815260200185815260200184815260200134815260200183815250908060018154018082558091505060019003905f5260205f2090600602015f909190919091505f820151815f01556020820151816001015f6101000a81548173ffffffffffffffffffffffffffffffffffffffff021916908373ffffffffffffffffffffffffffffffffffffffff16021790555060408201518160020155606082015181600301556080820151816004015560a08201518160050190816107089190611c15565b5050503373ffffffffffffffffffffffffffffffffffffffff167f1aa9fda519ac5fbe95b5ac154baa6985ef9883b6b9ed8e01e2f7f2618d816c986002548585346040516107599493929190611e26565b60405180910390a2505050565b5f806006848154811061077c5761077b611d19565b5b905f5260205f2090600b0201905082815f015414801561079f57505f8160070154145b6107de576040517f08c379a00000000000000000000000000000000000000000000000000000000081526004016107d590611ed9565b60405180910390fd5b3373ffffffffffffffffffffffffffffffffffffffff16816001015f9054906101000a900473ffffffffffffffffffffffffffffffffffffffff1673ffffffffffffffffffffffffffffffffffffffff16148061088957503373ffffffffffffffffffffffffffffffffffffffff16816002015f9054906101000a900473ffffffffffffffffffffffffffffffffffffffff1673ffffffffffffffffffffffffffffffffffffffff16145b6108c8576040517f08c379a00000000000000000000000000000000000000000000000000000000081526004016108bf90611e08565b60405180910390fd5b4381600701819055505f6108db85610f7a565b9050816001015f9054906101000a900473ffffffffffffffffffffffffffffffffffffffff1673ffffffffffffffffffffffffffffffffffffffff163373ffffffffffffffffffffffffffffffffffffffff1603610946578082600901546109439190611ef7565b90505b816002015f9054906101000a900473ffffffffffffffffffffffffffffffffffffffff1673ffffffffffffffffffffffffffffffffffffffff163373ffffffffffffffffffffffffffffffffffffffff16036109a6574382600a01819055505b80826009015f8282546109b99190611ef7565b925050819055503373ffffffffffffffffffffffffffffffffffffffff166108fc8290811502906040515f60405180830381858888f19350505050158015610a03573d5f803e3d5ffd5b507f7fb9819bdd579b165bf0a6dc06dac6bcac0ea6c60b3ea9c0492bddbfddbce0808482604051610a35929190611f2a565b60405180910390a15f826009015403610a5257610a5185611238565b5b809250505092915050565b5f60048381548110610a7257610a71611d19565b5b905f5260205f20906005020190503373ffffffffffffffffffffffffffffffffffffffff16816001015f9054906101000a900473ffffffffffffffffffffffffffffffffffffffff1673ffffffffffffffffffffffffffffffffffffffff16148015610ae0575081815f0154145b610b1f576040517f08c379a0000000000000000000000000000000000000000000000000000000008152600401610b1690611da0565b60405180910390fd5b610b28836114a3565b3373ffffffffffffffffffffffffffffffffffffffff167f9a1ba8eee2fe18baf2771a39db4eeb3901c2f7e41a35f785fd86c37cf7fd531883604051610b6e9190611882565b60405180910390a2505050565b5f8060068481548110610b9157610b90611d19565b5b905f5260205f2090600b020190503373ffffffffffffffffffffffffffffffffffffffff16816002015f9054906101000a900473ffffffffffffffffffffffffffffffffffffffff1673ffffffffffffffffffffffffffffffffffffffff161480610c4a57503373ffffffffffffffffffffffffffffffffffffffff16816001015f9054906101000a900473ffffffffffffffffffffffffffffffffffffffff1673ffffffffffffffffffffffffffffffffffffffff16145b8015610c58575082815f0154145b610c97576040517f08c379a0000000000000000000000000000000000000000000000000000000008152600401610c8e90611e08565b60405180910390fd5b5f610ca185610f7a565b9050816002015f9054906101000a900473ffffffffffffffffffffffffffffffffffffffff1673ffffffffffffffffffffffffffffffffffffffff163373ffffffffffffffffffffffffffffffffffffffff16148015610d0157505f8114155b15610db05780826009015f828254610d199190611ef7565b925050819055504282600a01819055503373ffffffffffffffffffffffffffffffffffffffff166108fc8290811502906040515f60405180830381858888f19350505050158015610d6c573d5f803e3d5ffd5b507fe7e8d250336013da155145966290a330229da53af1b843e81ad9bd8c2a5314098482604051610d9e929190611f2a565b60405180910390a18092505050610deb565b6040517f08c379a0000000000000000000000000000000000000000000000000000000008152600401610de290611f9b565b60405180910390fd5b92915050565b6001600580549050610e039190611ef7565b8114610efe5760056001600580549050610e1d9190611ef7565b81548110610e2e57610e2d611d19565b5b905f5260205f20906006020160058281548110610e4e57610e4d611d19565b5b905f5260205f2090600602015f820154815f0155600182015f9054906101000a900473ffffffffffffffffffffffffffffffffffffffff16816001015f6101000a81548173ffffffffffffffffffffffffffffffffffffffff021916908373ffffffffffffffffffffffffffffffffffffffff16021790555060028201548160020155600382015481600301556004820154816004015560058201816005019081610ef99190611fce565b509050505b6005805480610f1057610f0f6120b3565b5b600190038181905f5260205f2090600602015f8082015f9055600182015f6101000a81549073ffffffffffffffffffffffffffffffffffffffff0219169055600282015f9055600382015f9055600482015f9055600582015f610f73919061161b565b5050905550565b5f8060068381548110610f9057610f8f611d19565b5b905f5260205f2090600b0201604051806101600160405290815f8201548152602001600182015f9054906101000a900473ffffffffffffffffffffffffffffffffffffffff1673ffffffffffffffffffffffffffffffffffffffff1673ffffffffffffffffffffffffffffffffffffffff168152602001600282015f9054906101000a900473ffffffffffffffffffffffffffffffffffffffff1673ffffffffffffffffffffffffffffffffffffffff1673ffffffffffffffffffffffffffffffffffffffff16815260200160038201805461106b90611a48565b80601f016020809104026020016040519081016040528092919081815260200182805461109790611a48565b80156110e25780601f106110b9576101008083540402835291602001916110e2565b820191905f5260205f20905b8154815290600101906020018083116110c557829003601f168201915b505050505081526020016004820180546110fb90611a48565b80601f016020809104026020016040519081016040528092919081815260200182805461112790611a48565b80156111725780601f1061114957610100808354040283529160200191611172565b820191905f5260205f20905b81548152906001019060200180831161115557829003601f168201915b505050505081526020016005820154815260200160068201548152602001600782015481526020016008820154815260200160098201548152602001600a8201548152505090505f8160c00151036111cd575f915050611233565b5f4290505f8260e00151146111e4578160e0015190505b5f8260a00151836101000151846101400151846112019190611ef7565b61120b91906120e0565b61121591906120e0565b9050826101200151811061122c5782610120015190505b8093505050505b919050565b600160068054905061124a9190611ef7565b81146113dd57600660016006805490506112649190611ef7565b8154811061127557611274611d19565b5b905f5260205f2090600b02016006828154811061129557611294611d19565b5b905f5260205f2090600b02015f820154815f0155600182015f9054906101000a900473ffffffffffffffffffffffffffffffffffffffff16816001015f6101000a81548173ffffffffffffffffffffffffffffffffffffffff021916908373ffffffffffffffffffffffffffffffffffffffff160217905550600282015f9054906101000a900473ffffffffffffffffffffffffffffffffffffffff16816002015f6101000a81548173ffffffffffffffffffffffffffffffffffffffff021916908373ffffffffffffffffffffffffffffffffffffffff160217905550600382018160030190816113879190611fce565b506004820181600401908161139c9190611fce565b506005820154816005015560068201548160060155600782015481600701556008820154816008015560098201548160090155600a82015481600a01559050505b60068054806113ef576113ee6120b3565b5b600190038181905f5260205f2090600b02015f8082015f9055600182015f6101000a81549073ffffffffffffffffffffffffffffffffffffffff0219169055600282015f6101000a81549073ffffffffffffffffffffffffffffffffffffffff0219169055600382015f611463919061161b565b600482015f611472919061161b565b600582015f9055600682015f9055600782015f9055600882015f9055600982015f9055600a82015f90555050905550565b60016004805490506114b59190611ef7565b81146115a657600460016004805490506114cf9190611ef7565b815481106114e0576114df611d19565b5b905f5260205f20906005020160048281548110611500576114ff611d19565b5b905f5260205f2090600502015f820154815f0155600182015f9054906101000a900473ffffffffffffffffffffffffffffffffffffffff16816001015f6101000a81548173ffffffffffffffffffffffffffffffffffffffff021916908373ffffffffffffffffffffffffffffffffffffffff1602179055506002820154816002015560038201548160030155600482018160040190816115a19190611fce565b509050505b60048054806115b8576115b76120b3565b5b600190038181905f5260205f2090600502015f8082015f9055600182015f6101000a81549073ffffffffffffffffffffffffffffffffffffffff0219169055600282015f9055600382015f9055600482015f611614919061161b565b5050905550565b50805461162790611a48565b5f825580601f106116385750611655565b601f0160209004905f5260205f20908101906116549190611658565b5b50565b5b8082111561166f575f815f905550600101611659565b5090565b5f604051905090565b5f80fd5b5f80fd5b5f819050919050565b61169681611684565b81146116a0575f80fd5b50565b5f813590506116b18161168d565b92915050565b5f80fd5b5f80fd5b5f601f19601f8301169050919050565b7f4e487b71000000000000000000000000000000000000000000000000000000005f52604160045260245ffd5b611705826116bf565b810181811067ffffffffffffffff82111715611724576117236116cf565b5b80604052505050565b5f611736611673565b905061174282826116fc565b919050565b5f67ffffffffffffffff821115611761576117606116cf565b5b61176a826116bf565b9050602081019050919050565b828183375f83830152505050565b5f61179761179284611747565b61172d565b9050828152602081018484840111156117b3576117b26116bb565b5b6117be848285611777565b509392505050565b5f82601f8301126117da576117d96116b7565b5b81356117ea848260208601611785565b91505092915050565b5f805f806080858703121561180b5761180a61167c565b5b5f611818878288016116a3565b9450506020611829878288016116a3565b935050604061183a878288016116a3565b925050606085013567ffffffffffffffff81111561185b5761185a611680565b5b611867878288016117c6565b91505092959194509250565b61187c81611684565b82525050565b5f6020820190506118955f830184611873565b92915050565b5f805f606084860312156118b2576118b161167c565b5b5f6118bf868287016116a3565b93505060206118d0868287016116a3565b925050604084013567ffffffffffffffff8111156118f1576118f0611680565b5b6118fd868287016117c6565b9150509250925092565b5f806040838503121561191d5761191c61167c565b5b5f61192a858286016116a3565b925050602061193b858286016116a3565b9150509250929050565b5f73ffffffffffffffffffffffffffffffffffffffff82169050919050565b5f61196e82611945565b9050919050565b61197e81611964565b82525050565b5f6020820190506119975f830184611975565b92915050565b7f4e487b71000000000000000000000000000000000000000000000000000000005f52601160045260245ffd5b5f6119d482611684565b91507fffffffffffffffffffffffffffffffffffffffffffffffffffffffffffffffff8203611a0657611a0561199d565b5b600182019050919050565b5f81519050919050565b7f4e487b71000000000000000000000000000000000000000000000000000000005f52602260045260245ffd5b5f6002820490506001821680611a5f57607f821691505b602082108103611a7257611a71611a1b565b5b50919050565b5f819050815f5260205f209050919050565b5f6020601f8301049050919050565b5f82821b905092915050565b5f60088302611ad47fffffffffffffffffffffffffffffffffffffffffffffffffffffffffffffffff82611a99565b611ade8683611a99565b95508019841693508086168417925050509392505050565b5f819050919050565b5f611b19611b14611b0f84611684565b611af6565b611684565b9050919050565b5f819050919050565b611b3283611aff565b611b46611b3e82611b20565b848454611aa5565b825550505050565b5f90565b611b5a611b4e565b611b65818484611b29565b505050565b5b81811015611b8857611b7d5f82611b52565b600181019050611b6b565b5050565b601f821115611bcd57611b9e81611a78565b611ba784611a8a565b81016020851015611bb6578190505b611bca611bc285611a8a565b830182611b6a565b50505b505050565b5f82821c905092915050565b5f611bed5f1984600802611bd2565b1980831691505092915050565b5f611c058383611bde565b9150826002028217905092915050565b611c1e82611a11565b67ffffffffffffffff811115611c3757611c366116cf565b5b611c418254611a48565b611c4c828285611b8c565b5f60209050601f831160018114611c7d575f8415611c6b578287015190505b611c758582611bfa565b865550611cdc565b601f198416611c8b86611a78565b5f5b82811015611cb257848901518255600182019150602085019450602081019050611c8d565b86831015611ccf5784890151611ccb601f891682611bde565b8355505b6001600288020188555050505b505050505050565b5f606082019050611cf75f830186611873565b611d046020830185611873565b611d116040830184611873565b949350505050565b7f4e487b71000000000000000000000000000000000000000000000000000000005f52603260045260245ffd5b5f82825260208201905092915050565b7f4e6f7420617574686f72697a656420746f2063616e63656c00000000000000005f82015250565b5f611d8a601883611d46565b9150611d9582611d56565b602082019050919050565b5f6020820190508181035f830152611db781611d7e565b9050919050565b7f556e617574686f72697a656400000000000000000000000000000000000000005f82015250565b5f611df2600c83611d46565b9150611dfd82611dbe565b602082019050919050565b5f6020820190508181035f830152611e1f81611de6565b9050919050565b5f608082019050611e395f830187611873565b611e466020830186611873565b611e536040830185611873565b611e606060830184611873565b95945050505050565b7f436f6e747261637420616c72656164792073746f70706564206f7220696e76615f8201527f6c69640000000000000000000000000000000000000000000000000000000000602082015250565b5f611ec3602383611d46565b9150611ece82611e69565b604082019050919050565b5f6020820190508181035f830152611ef081611eb7565b9050919050565b5f611f0182611684565b9150611f0c83611684565b9250828203905081811115611f2457611f2361199d565b5b92915050565b5f604082019050611f3d5f830185611873565b611f4a6020830184611873565b9392505050565b7f496e76616c6964207769746864726177616c20617474656d70740000000000005f82015250565b5f611f85601a83611d46565b9150611f9082611f51565b602082019050919050565b5f6020820190508181035f830152611fb281611f79565b9050919050565b5f81549050611fc781611a48565b9050919050565b818103611fdc5750506120b1565b611fe582611fb9565b67ffffffffffffffff811115611ffe57611ffd6116cf565b5b6120088254611a48565b612013828285611b8c565b5f601f831160018114612040575f841561202e578287015490505b6120388582611bfa565b8655506120aa565b601f19841661204e87611a78565b965061205986611a78565b5f5b828110156120805784890154825560018201915060018501945060208101905061205b565b8683101561209d5784890154612099601f891682611bde565b8355505b6001600288020188555050505b5050505050505b565b7f4e487b71000000000000000000000000000000000000000000000000000000005f52603160045260245ffd5b5f6120ea82611684565b91506120f583611684565b925082820261210381611684565b9150828204841483151761211a5761211961199d565b5b509291505056fea26469706673582212209d1da1c9d39e6e0a64ae3338876d0f4e077134a469c5b1fc8b96b4643361047d64736f6c634300081a0033",
					"opcodes": "PUSH1 0x80 PUSH1 0x40 MSTORE CALLVALUE DUP1 ISZERO PUSH1 0xE JUMPI PUSH0 DUP1 REVERT JUMPDEST POP CALLER PUSH0 DUP1 PUSH2 0x100 EXP DUP2 SLOAD DUP2 PUSH20 0xFFFFFFFFFFFFFFFFFFFFFFFFFFFFFFFFFFFFFFFF MUL NOT AND SWAP1 DUP4 PUSH20 0xFFFFFFFFFFFFFFFFFFFFFFFFFFFFFFFFFFFFFFFF AND MUL OR SWAP1 SSTORE POP PUSH2 0x2157 DUP1 PUSH2 0x5B PUSH0 CODECOPY PUSH0 RETURN INVALID PUSH1 0x80 PUSH1 0x40 MSTORE PUSH1 0x4 CALLDATASIZE LT PUSH2 0x85 JUMPI PUSH0 CALLDATALOAD PUSH1 0xE0 SHR DUP1 PUSH4 0x90664D6A GT PUSH2 0x58 JUMPI DUP1 PUSH4 0x90664D6A EQ PUSH2 0x133 JUMPI DUP1 PUSH4 0x9589D464 EQ PUSH2 0x15B JUMPI DUP1 PUSH4 0xDD23400B EQ PUSH2 0x177 JUMPI DUP1 PUSH4 0xE51DFD90 EQ PUSH2 0x1B3 JUMPI DUP1 PUSH4 0xEB38B7B3 EQ PUSH2 0x1DB JUMPI PUSH2 0x85 JUMP JUMPDEST DUP1 PUSH4 0x14D3C7A5 EQ PUSH2 0x89 JUMPI DUP1 PUSH4 0x5279371E EQ PUSH2 0xB9 JUMPI DUP1 PUSH4 0x8C748334 EQ PUSH2 0xE1 JUMPI DUP1 PUSH4 0x8DA5CB5B EQ PUSH2 0x109 JUMPI JUMPDEST PUSH0 DUP1 REVERT JUMPDEST PUSH2 0xA3 PUSH1 0x4 DUP1 CALLDATASIZE SUB DUP2 ADD SWAP1 PUSH2 0x9E SWAP2 SWAP1 PUSH2 0x17F3 JUMP JUMPDEST PUSH2 0x217 JUMP JUMPDEST PUSH1 0x40 MLOAD PUSH2 0xB0 SWAP2 SWAP1 PUSH2 0x1882 JUMP JUMPDEST PUSH1 0x40 MLOAD DUP1 SWAP2 SUB SWAP1 RETURN JUMPDEST CALLVALUE DUP1 ISZERO PUSH2 0xC4 JUMPI PUSH0 DUP1 REVERT JUMPDEST POP PUSH2 0xDF PUSH1 0x4 DUP1 CALLDATASIZE SUB DUP2 ADD SWAP1 PUSH2 0xDA SWAP2 SWAP1 PUSH2 0x189B JUMP JUMPDEST PUSH2 0x220 JUMP JUMPDEST STOP JUMPDEST CALLVALUE DUP1 ISZERO PUSH2 0xEC JUMPI PUSH0 DUP1 REVERT JUMPDEST POP PUSH2 0x107 PUSH1 0x4 DUP1 CALLDATASIZE SUB DUP2 ADD SWAP1 PUSH2 0x102 SWAP2 SWAP1 PUSH2 0x1907 JUMP JUMPDEST PUSH2 0x36B JUMP JUMPDEST STOP JUMPDEST CALLVALUE DUP1 ISZERO PUSH2 0x114 JUMPI PUSH0 DUP1 REVERT JUMPDEST POP PUSH2 0x11D PUSH2 0x4D6 JUMP JUMPDEST PUSH1 0x40 MLOAD PUSH2 0x12A SWAP2 SWAP1 PUSH2 0x1984 JUMP JUMPDEST PUSH1 0x40 MLOAD DUP1 SWAP2 SUB SWAP1 RETURN JUMPDEST CALLVALUE DUP1 ISZERO PUSH2 0x13E JUMPI PUSH0 DUP1 REVERT JUMPDEST POP PUSH2 0x159 PUSH1 0x4 DUP1 CALLDATASIZE SUB DUP2 ADD SWAP1 PUSH2 0x154 SWAP2 SWAP1 PUSH2 0x1907 JUMP JUMPDEST PUSH2 0x4F9 JUMP JUMPDEST STOP JUMPDEST PUSH2 0x175 PUSH1 0x4 DUP1 CALLDATASIZE SUB DUP2 ADD SWAP1 PUSH2 0x170 SWAP2 SWAP1 PUSH2 0x189B JUMP JUMPDEST PUSH2 0x609 JUMP JUMPDEST STOP JUMPDEST CALLVALUE DUP1 ISZERO PUSH2 0x182 JUMPI PUSH0 DUP1 REVERT JUMPDEST POP PUSH2 0x19D PUSH1 0x4 DUP1 CALLDATASIZE SUB DUP2 ADD SWAP1 PUSH2 0x198 SWAP2 SWAP1 PUSH2 0x1907 JUMP JUMPDEST PUSH2 0x766 JUMP JUMPDEST PUSH1 0x40 MLOAD PUSH2 0x1AA SWAP2 SWAP1 PUSH2 0x1882 JUMP JUMPDEST PUSH1 0x40 MLOAD DUP1 SWAP2 SUB SWAP1 RETURN JUMPDEST CALLVALUE DUP1 ISZERO PUSH2 0x1BE JUMPI PUSH0 DUP1 REVERT JUMPDEST POP PUSH2 0x1D9 PUSH1 0x4 DUP1 CALLDATASIZE SUB DUP2 ADD SWAP1 PUSH2 0x1D4 SWAP2 SWAP1 PUSH2 0x1907 JUMP JUMPDEST PUSH2 0xA5D JUMP JUMPDEST STOP JUMPDEST CALLVALUE DUP1 ISZERO PUSH2 0x1E6 JUMPI PUSH0 DUP1 REVERT JUMPDEST POP PUSH2 0x201 PUSH1 0x4 DUP1 CALLDATASIZE SUB DUP2 ADD SWAP1 PUSH2 0x1FC SWAP2 SWAP1 PUSH2 0x1907 JUMP JUMPDEST PUSH2 0xB7B JUMP JUMPDEST PUSH1 0x40 MLOAD PUSH2 0x20E SWAP2 SWAP1 PUSH2 0x1882 JUMP JUMPDEST PUSH1 0x40 MLOAD DUP1 SWAP2 SUB SWAP1 RETURN JUMPDEST PUSH0 SWAP5 SWAP4 POP POP POP POP JUMP JUMPDEST PUSH1 0x4 PUSH1 0x40 MLOAD DUP1 PUSH1 0xA0 ADD PUSH1 0x40 MSTORE DUP1 PUSH1 0x1 PUSH0 DUP2 SLOAD PUSH2 0x23B SWAP1 PUSH2 0x19CA JUMP JUMPDEST SWAP2 SWAP1 POP DUP2 SWAP1 SSTORE DUP2 MSTORE PUSH1 0x20 ADD CALLER PUSH20 0xFFFFFFFFFFFFFFFFFFFFFFFFFFFFFFFFFFFFFFFF AND DUP2 MSTORE PUSH1 0x20 ADD DUP6 DUP2 MSTORE PUSH1 0x20 ADD DUP5 DUP2 MSTORE PUSH1 0x20 ADD DUP4 DUP2 MSTORE POP SWAP1 DUP1 PUSH1 0x1 DUP2 SLOAD ADD DUP1 DUP3 SSTORE DUP1 SWAP2 POP POP PUSH1 0x1 SWAP1 SUB SWAP1 PUSH0 MSTORE PUSH1 0x20 PUSH0 KECCAK256 SWAP1 PUSH1 0x5 MUL ADD PUSH0 SWAP1 SWAP2 SWAP1 SWAP2 SWAP1 SWAP2 POP PUSH0 DUP3 ADD MLOAD DUP2 PUSH0 ADD SSTORE PUSH1 0x20 DUP3 ADD MLOAD DUP2 PUSH1 0x1 ADD PUSH0 PUSH2 0x100 EXP DUP2 SLOAD DUP2 PUSH20 0xFFFFFFFFFFFFFFFFFFFFFFFFFFFFFFFFFFFFFFFF MUL NOT AND SWAP1 DUP4 PUSH20 0xFFFFFFFFFFFFFFFFFFFFFFFFFFFFFFFFFFFFFFFF AND MUL OR SWAP1 SSTORE POP PUSH1 0x40 DUP3 ADD MLOAD DUP2 PUSH1 0x2 ADD SSTORE PUSH1 0x60 DUP3 ADD MLOAD DUP2 PUSH1 0x3 ADD SSTORE PUSH1 0x80 DUP3 ADD MLOAD DUP2 PUSH1 0x4 ADD SWAP1 DUP2 PUSH2 0x30F SWAP2 SWAP1 PUSH2 0x1C15 JUMP JUMPDEST POP POP POP CALLER PUSH20 0xFFFFFFFFFFFFFFFFFFFFFFFFFFFFFFFFFFFFFFFF AND PUSH32 0x80A49BE05481EF1A555CD6EA5845B05FFA157F18A6E61D3030F9BC5D25F3294A PUSH1 0x1 SLOAD DUP6 DUP6 PUSH1 0x40 MLOAD PUSH2 0x35E SWAP4 SWAP3 SWAP2 SWAP1 PUSH2 0x1CE4 JUMP JUMPDEST PUSH1 0x40 MLOAD DUP1 SWAP2 SUB SWAP1 LOG2 POP POP POP JUMP JUMPDEST PUSH0 PUSH1 0x5 DUP4 DUP2 SLOAD DUP2 LT PUSH2 0x380 JUMPI PUSH2 0x37F PUSH2 0x1D19 JUMP JUMPDEST JUMPDEST SWAP1 PUSH0 MSTORE PUSH1 0x20 PUSH0 KECCAK256 SWAP1 PUSH1 0x6 MUL ADD SWAP1 POP CALLER PUSH20 0xFFFFFFFFFFFFFFFFFFFFFFFFFFFFFFFFFFFFFFFF AND DUP2 PUSH1 0x1 ADD PUSH0 SWAP1 SLOAD SWAP1 PUSH2 0x100 EXP SWAP1 DIV PUSH20 0xFFFFFFFFFFFFFFFFFFFFFFFFFFFFFFFFFFFFFFFF AND PUSH20 0xFFFFFFFFFFFFFFFFFFFFFFFFFFFFFFFFFFFFFFFF AND EQ DUP1 ISZERO PUSH2 0x3EE JUMPI POP DUP2 DUP2 PUSH0 ADD SLOAD EQ JUMPDEST PUSH2 0x42D JUMPI PUSH1 0x40 MLOAD PUSH32 0x8C379A000000000000000000000000000000000000000000000000000000000 DUP2 MSTORE PUSH1 0x4 ADD PUSH2 0x424 SWAP1 PUSH2 0x1DA0 JUMP JUMPDEST PUSH1 0x40 MLOAD DUP1 SWAP2 SUB SWAP1 REVERT JUMPDEST PUSH0 DUP2 PUSH1 0x4 ADD SLOAD SWAP1 POP PUSH2 0x43E DUP5 PUSH2 0xDF1 JUMP JUMPDEST CALLER PUSH20 0xFFFFFFFFFFFFFFFFFFFFFFFFFFFFFFFFFFFFFFFF AND PUSH2 0x8FC DUP3 SWAP1 DUP2 ISZERO MUL SWAP1 PUSH1 0x40 MLOAD PUSH0 PUSH1 0x40 MLOAD DUP1 DUP4 SUB DUP2 DUP6 DUP9 DUP9 CALL SWAP4 POP POP POP POP ISZERO DUP1 ISZERO PUSH2 0x481 JUMPI RETURNDATASIZE PUSH0 DUP1 RETURNDATACOPY RETURNDATASIZE PUSH0 REVERT JUMPDEST POP CALLER PUSH20 0xFFFFFFFFFFFFFFFFFFFFFFFFFFFFFFFFFFFFFFFF AND PUSH32 0x5868C0B8C4243C19EC4AB86D6673F3116AC0320303644657C8ADE45446F15753 DUP5 PUSH1 0x40 MLOAD PUSH2 0x4C8 SWAP2 SWAP1 PUSH2 0x1882 JUMP JUMPDEST PUSH1 0x40 MLOAD DUP1 SWAP2 SUB SWAP1 LOG2 POP POP POP POP JUMP JUMPDEST PUSH0 DUP1 SLOAD SWAP1 PUSH2 0x100 EXP SWAP1 DIV PUSH20 0xFFFFFFFFFFFFFFFFFFFFFFFFFFFFFFFFFFFFFFFF AND DUP2 JUMP JUMPDEST PUSH0 PUSH1 0x6 DUP4 DUP2 SLOAD DUP2 LT PUSH2 0x50E JUMPI PUSH2 0x50D PUSH2 0x1D19 JUMP JUMPDEST JUMPDEST SWAP1 PUSH0 MSTORE PUSH1 0x20 PUSH0 KECCAK256 SWAP1 PUSH1 0xB MUL ADD SWAP1 POP CALLER PUSH20 0xFFFFFFFFFFFFFFFFFFFFFFFFFFFFFFFFFFFFFFFF AND DUP2 PUSH1 0x1 ADD PUSH0 SWAP1 SLOAD SWAP1 PUSH2 0x100 EXP SWAP1 DIV PUSH20 0xFFFFFFFFFFFFFFFFFFFFFFFFFFFFFFFFFFFFFFFF AND PUSH20 0xFFFFFFFFFFFFFFFFFFFFFFFFFFFFFFFFFFFFFFFF AND EQ DUP1 ISZERO PUSH2 0x57C JUMPI POP DUP2 DUP2 PUSH0 ADD SLOAD EQ JUMPDEST PUSH2 0x5BB JUMPI PUSH1 0x40 MLOAD PUSH32 0x8C379A000000000000000000000000000000000000000000000000000000000 DUP2 MSTORE PUSH1 0x4 ADD PUSH2 0x5B2 SWAP1 PUSH2 0x1E08 JUMP JUMPDEST PUSH1 0x40 MLOAD DUP1 SWAP2 SUB SWAP1 REVERT JUMPDEST NUMBER DUP2 PUSH1 0x6 ADD DUP2 SWAP1 SSTORE POP NUMBER DUP2 PUSH1 0xA ADD DUP2 SWAP1 SSTORE POP PUSH32 0x13BA679B7B0EDC3119E5B425D59F1C1644ECB5ACB77321FB8B205A36525A47E7 DUP3 PUSH1 0x40 MLOAD PUSH2 0x5FC SWAP2 SWAP1 PUSH2 0x1882 JUMP JUMPDEST PUSH1 0x40 MLOAD DUP1 SWAP2 SUB SWAP1 LOG1 POP POP POP JUMP JUMPDEST PUSH1 0x5 PUSH1 0x40 MLOAD DUP1 PUSH1 0xC0 ADD PUSH1 0x40 MSTORE DUP1 PUSH1 0x2 PUSH0 DUP2 SLOAD PUSH2 0x624 SWAP1 PUSH2 0x19CA JUMP JUMPDEST SWAP2 SWAP1 POP DUP2 SWAP1 SSTORE DUP2 MSTORE PUSH1 0x20 ADD CALLER PUSH20 0xFFFFFFFFFFFFFFFFFFFFFFFFFFFFFFFFFFFFFFFF AND DUP2 MSTORE PUSH1 0x20 ADD DUP6 DUP2 MSTORE PUSH1 0x20 ADD DUP5 DUP2 MSTORE PUSH1 0x20 ADD CALLVALUE DUP2 MSTORE PUSH1 0x20 ADD DUP4 DUP2 MSTORE POP SWAP1 DUP1 PUSH1 0x1 DUP2 SLOAD ADD DUP1 DUP3 SSTORE DUP1 SWAP2 POP POP PUSH1 0x1 SWAP1 SUB SWAP1 PUSH0 MSTORE PUSH1 0x20 PUSH0 KECCAK256 SWAP1 PUSH1 0x6 MUL ADD PUSH0 SWAP1 SWAP2 SWAP1 SWAP2 SWAP1 SWAP2 POP PUSH0 DUP3 ADD MLOAD DUP2 PUSH0 ADD SSTORE PUSH1 0x20 DUP3 ADD MLOAD DUP2 PUSH1 0x1 ADD PUSH0 PUSH2 0x100 EXP DUP2 SLOAD DUP2 PUSH20 0xFFFFFFFFFFFFFFFFFFFFFFFFFFFFFFFFFFFFFFFF MUL NOT AND SWAP1 DUP4 PUSH20 0xFFFFFFFFFFFFFFFFFFFFFFFFFFFFFFFFFFFFFFFF AND MUL OR SWAP1 SSTORE POP PUSH1 0x40 DUP3 ADD MLOAD DUP2 PUSH1 0x2 ADD SSTORE PUSH1 0x60 DUP3 ADD MLOAD DUP2 PUSH1 0x3 ADD SSTORE PUSH1 0x80 DUP3 ADD MLOAD DUP2 PUSH1 0x4 ADD SSTORE PUSH1 0xA0 DUP3 ADD MLOAD DUP2 PUSH1 0x5 ADD SWAP1 DUP2 PUSH2 0x708 SWAP2 SWAP1 PUSH2 0x1C15 JUMP JUMPDEST POP POP POP CALLER PUSH20 0xFFFFFFFFFFFFFFFFFFFFFFFFFFFFFFFFFFFFFFFF AND PUSH32 0x1AA9FDA519AC5FBE95B5AC154BAA6985EF9883B6B9ED8E01E2F7F2618D816C98 PUSH1 0x2 SLOAD DUP6 DUP6 CALLVALUE PUSH1 0x40 MLOAD PUSH2 0x759 SWAP5 SWAP4 SWAP3 SWAP2 SWAP1 PUSH2 0x1E26 JUMP JUMPDEST PUSH1 0x40 MLOAD DUP1 SWAP2 SUB SWAP1 LOG2 POP POP POP JUMP JUMPDEST PUSH0 DUP1 PUSH1 0x6 DUP5 DUP2 SLOAD DUP2 LT PUSH2 0x77C JUMPI PUSH2 0x77B PUSH2 0x1D19 JUMP JUMPDEST JUMPDEST SWAP1 PUSH0 MSTORE PUSH1 0x20 PUSH0 KECCAK256 SWAP1 PUSH1 0xB MUL ADD SWAP1 POP DUP3 DUP2 PUSH0 ADD SLOAD EQ DUP1 ISZERO PUSH2 0x79F JUMPI POP PUSH0 DUP2 PUSH1 0x7 ADD SLOAD EQ JUMPDEST PUSH2 0x7DE JUMPI PUSH1 0x40 MLOAD PUSH32 0x8C379A000000000000000000000000000000000000000000000000000000000 DUP2 MSTORE PUSH1 0x4 ADD PUSH2 0x7D5 SWAP1 PUSH2 0x1ED9 JUMP JUMPDEST PUSH1 0x40 MLOAD DUP1 SWAP2 SUB SWAP1 REVERT JUMPDEST CALLER PUSH20 0xFFFFFFFFFFFFFFFFFFFFFFFFFFFFFFFFFFFFFFFF AND DUP2 PUSH1 0x1 ADD PUSH0 SWAP1 SLOAD SWAP1 PUSH2 0x100 EXP SWAP1 DIV PUSH20 0xFFFFFFFFFFFFFFFFFFFFFFFFFFFFFFFFFFFFFFFF AND PUSH20 0xFFFFFFFFFFFFFFFFFFFFFFFFFFFFFFFFFFFFFFFF AND EQ DUP1 PUSH2 0x889 JUMPI POP CALLER PUSH20 0xFFFFFFFFFFFFFFFFFFFFFFFFFFFFFFFFFFFFFFFF AND DUP2 PUSH1 0x2 ADD PUSH0 SWAP1 SLOAD SWAP1 PUSH2 0x100 EXP SWAP1 DIV PUSH20 0xFFFFFFFFFFFFFFFFFFFFFFFFFFFFFFFFFFFFFFFF AND PUSH20 0xFFFFFFFFFFFFFFFFFFFFFFFFFFFFFFFFFFFFFFFF AND EQ JUMPDEST PUSH2 0x8C8 JUMPI PUSH1 0x40 MLOAD PUSH32 0x8C379A000000000000000000000000000000000000000000000000000000000 DUP2 MSTORE PUSH1 0x4 ADD PUSH2 0x8BF SWAP1 PUSH2 0x1E08 JUMP JUMPDEST PUSH1 0x40 MLOAD DUP1 SWAP2 SUB SWAP1 REVERT JUMPDEST NUMBER DUP2 PUSH1 0x7 ADD DUP2 SWAP1 SSTORE POP PUSH0 PUSH2 0x8DB DUP6 PUSH2 0xF7A JUMP JUMPDEST SWAP1 POP DUP2 PUSH1 0x1 ADD PUSH0 SWAP1 SLOAD SWAP1 PUSH2 0x100 EXP SWAP1 DIV PUSH20 0xFFFFFFFFFFFFFFFFFFFFFFFFFFFFFFFFFFFFFFFF AND PUSH20 0xFFFFFFFFFFFFFFFFFFFFFFFFFFFFFFFFFFFFFFFF AND CALLER PUSH20 0xFFFFFFFFFFFFFFFFFFFFFFFFFFFFFFFFFFFFFFFF AND SUB PUSH2 0x946 JUMPI DUP1 DUP3 PUSH1 0x9 ADD SLOAD PUSH2 0x943 SWAP2 SWAP1 PUSH2 0x1EF7 JUMP JUMPDEST SWAP1 POP JUMPDEST DUP2 PUSH1 0x2 ADD PUSH0 SWAP1 SLOAD SWAP1 PUSH2 0x100 EXP SWAP1 DIV PUSH20 0xFFFFFFFFFFFFFFFFFFFFFFFFFFFFFFFFFFFFFFFF AND PUSH20 0xFFFFFFFFFFFFFFFFFFFFFFFFFFFFFFFFFFFFFFFF AND CALLER PUSH20 0xFFFFFFFFFFFFFFFFFFFFFFFFFFFFFFFFFFFFFFFF AND SUB PUSH2 0x9A6 JUMPI NUMBER DUP3 PUSH1 0xA ADD DUP2 SWAP1 SSTORE POP JUMPDEST DUP1 DUP3 PUSH1 0x9 ADD PUSH0 DUP3 DUP3 SLOAD PUSH2 0x9B9 SWAP2 SWAP1 PUSH2 0x1EF7 JUMP JUMPDEST SWAP3 POP POP DUP2 SWAP1 SSTORE POP CALLER PUSH20 0xFFFFFFFFFFFFFFFFFFFFFFFFFFFFFFFFFFFFFFFF AND PUSH2 0x8FC DUP3 SWAP1 DUP2 ISZERO MUL SWAP1 PUSH1 0x40 MLOAD PUSH0 PUSH1 0x40 MLOAD DUP1 DUP4 SUB DUP2 DUP6 DUP9 DUP9 CALL SWAP4 POP POP POP POP ISZERO DUP1 ISZERO PUSH2 0xA03 JUMPI RETURNDATASIZE PUSH0 DUP1 RETURNDATACOPY RETURNDATASIZE PUSH0 REVERT JUMPDEST POP PUSH32 0x7FB9819BDD579B165BF0A6DC06DAC6BCAC0EA6C60B3EA9C0492BDDBFDDBCE080 DUP5 DUP3 PUSH1 0x40 MLOAD PUSH2 0xA35 SWAP3 SWAP2 SWAP1 PUSH2 0x1F2A JUMP JUMPDEST PUSH1 0x40 MLOAD DUP1 SWAP2 SUB SWAP1 LOG1 PUSH0 DUP3 PUSH1 0x9 ADD SLOAD SUB PUSH2 0xA52 JUMPI PUSH2 0xA51 DUP6 PUSH2 0x1238 JUMP JUMPDEST JUMPDEST DUP1 SWAP3 POP POP POP SWAP3 SWAP2 POP POP JUMP JUMPDEST PUSH0 PUSH1 0x4 DUP4 DUP2 SLOAD DUP2 LT PUSH2 0xA72 JUMPI PUSH2 0xA71 PUSH2 0x1D19 JUMP JUMPDEST JUMPDEST SWAP1 PUSH0 MSTORE PUSH1 0x20 PUSH0 KECCAK256 SWAP1 PUSH1 0x5 MUL ADD SWAP1 POP CALLER PUSH20 0xFFFFFFFFFFFFFFFFFFFFFFFFFFFFFFFFFFFFFFFF AND DUP2 PUSH1 0x1 ADD PUSH0 SWAP1 SLOAD SWAP1 PUSH2 0x100 EXP SWAP1 DIV PUSH20 0xFFFFFFFFFFFFFFFFFFFFFFFFFFFFFFFFFFFFFFFF AND PUSH20 0xFFFFFFFFFFFFFFFFFFFFFFFFFFFFFFFFFFFFFFFF AND EQ DUP1 ISZERO PUSH2 0xAE0 JUMPI POP DUP2 DUP2 PUSH0 ADD SLOAD EQ JUMPDEST PUSH2 0xB1F JUMPI PUSH1 0x40 MLOAD PUSH32 0x8C379A000000000000000000000000000000000000000000000000000000000 DUP2 MSTORE PUSH1 0x4 ADD PUSH2 0xB16 SWAP1 PUSH2 0x1DA0 JUMP JUMPDEST PUSH1 0x40 MLOAD DUP1 SWAP2 SUB SWAP1 REVERT JUMPDEST PUSH2 0xB28 DUP4 PUSH2 0x14A3 JUMP JUMPDEST CALLER PUSH20 0xFFFFFFFFFFFFFFFFFFFFFFFFFFFFFFFFFFFFFFFF AND PUSH32 0x9A1BA8EEE2FE18BAF2771A39DB4EEB3901C2F7E41A35F785FD86C37CF7FD5318 DUP4 PUSH1 0x40 MLOAD PUSH2 0xB6E SWAP2 SWAP1 PUSH2 0x1882 JUMP JUMPDEST PUSH1 0x40 MLOAD DUP1 SWAP2 SUB SWAP1 LOG2 POP POP POP JUMP JUMPDEST PUSH0 DUP1 PUSH1 0x6 DUP5 DUP2 SLOAD DUP2 LT PUSH2 0xB91 JUMPI PUSH2 0xB90 PUSH2 0x1D19 JUMP JUMPDEST JUMPDEST SWAP1 PUSH0 MSTORE PUSH1 0x20 PUSH0 KECCAK256 SWAP1 PUSH1 0xB MUL ADD SWAP1 POP CALLER PUSH20 0xFFFFFFFFFFFFFFFFFFFFFFFFFFFFFFFFFFFFFFFF AND DUP2 PUSH1 0x2 ADD PUSH0 SWAP1 SLOAD SWAP1 PUSH2 0x100 EXP SWAP1 DIV PUSH20 0xFFFFFFFFFFFFFFFFFFFFFFFFFFFFFFFFFFFFFFFF AND PUSH20 0xFFFFFFFFFFFFFFFFFFFFFFFFFFFFFFFFFFFFFFFF AND EQ DUP1 PUSH2 0xC4A JUMPI POP CALLER PUSH20 0xFFFFFFFFFFFFFFFFFFFFFFFFFFFFFFFFFFFFFFFF AND DUP2 PUSH1 0x1 ADD PUSH0 SWAP1 SLOAD SWAP1 PUSH2 0x100 EXP SWAP1 DIV PUSH20 0xFFFFFFFFFFFFFFFFFFFFFFFFFFFFFFFFFFFFFFFF AND PUSH20 0xFFFFFFFFFFFFFFFFFFFFFFFFFFFFFFFFFFFFFFFF AND EQ JUMPDEST DUP1 ISZERO PUSH2 0xC58 JUMPI POP DUP3 DUP2 PUSH0 ADD SLOAD EQ JUMPDEST PUSH2 0xC97 JUMPI PUSH1 0x40 MLOAD PUSH32 0x8C379A000000000000000000000000000000000000000000000000000000000 DUP2 MSTORE PUSH1 0x4 ADD PUSH2 0xC8E SWAP1 PUSH2 0x1E08 JUMP JUMPDEST PUSH1 0x40 MLOAD DUP1 SWAP2 SUB SWAP1 REVERT JUMPDEST PUSH0 PUSH2 0xCA1 DUP6 PUSH2 0xF7A JUMP JUMPDEST SWAP1 POP DUP2 PUSH1 0x2 ADD PUSH0 SWAP1 SLOAD SWAP1 PUSH2 0x100 EXP SWAP1 DIV PUSH20 0xFFFFFFFFFFFFFFFFFFFFFFFFFFFFFFFFFFFFFFFF AND PUSH20 0xFFFFFFFFFFFFFFFFFFFFFFFFFFFFFFFFFFFFFFFF AND CALLER PUSH20 0xFFFFFFFFFFFFFFFFFFFFFFFFFFFFFFFFFFFFFFFF AND EQ DUP1 ISZERO PUSH2 0xD01 JUMPI POP PUSH0 DUP2 EQ ISZERO JUMPDEST ISZERO PUSH2 0xDB0 JUMPI DUP1 DUP3 PUSH1 0x9 ADD PUSH0 DUP3 DUP3 SLOAD PUSH2 0xD19 SWAP2 SWAP1 PUSH2 0x1EF7 JUMP JUMPDEST SWAP3 POP POP DUP2 SWAP1 SSTORE POP TIMESTAMP DUP3 PUSH1 0xA ADD DUP2 SWAP1 SSTORE POP CALLER PUSH20 0xFFFFFFFFFFFFFFFFFFFFFFFFFFFFFFFFFFFFFFFF AND PUSH2 0x8FC DUP3 SWAP1 DUP2 ISZERO MUL SWAP1 PUSH1 0x40 MLOAD PUSH0 PUSH1 0x40 MLOAD DUP1 DUP4 SUB DUP2 DUP6 DUP9 DUP9 CALL SWAP4 POP POP POP POP ISZERO DUP1 ISZERO PUSH2 0xD6C JUMPI RETURNDATASIZE PUSH0 DUP1 RETURNDATACOPY RETURNDATASIZE PUSH0 REVERT JUMPDEST POP PUSH32 0xE7E8D250336013DA155145966290A330229DA53AF1B843E81AD9BD8C2A531409 DUP5 DUP3 PUSH1 0x40 MLOAD PUSH2 0xD9E SWAP3 SWAP2 SWAP1 PUSH2 0x1F2A JUMP JUMPDEST PUSH1 0x40 MLOAD DUP1 SWAP2 SUB SWAP1 LOG1 DUP1 SWAP3 POP POP POP PUSH2 0xDEB JUMP JUMPDEST PUSH1 0x40 MLOAD PUSH32 0x8C379A000000000000000000000000000000000000000000000000000000000 DUP2 MSTORE PUSH1 0x4 ADD PUSH2 0xDE2 SWAP1 PUSH2 0x1F9B JUMP JUMPDEST PUSH1 0x40 MLOAD DUP1 SWAP2 SUB SWAP1 REVERT JUMPDEST SWAP3 SWAP2 POP POP JUMP JUMPDEST PUSH1 0x1 PUSH1 0x5 DUP1 SLOAD SWAP1 POP PUSH2 0xE03 SWAP2 SWAP1 PUSH2 0x1EF7 JUMP JUMPDEST DUP2 EQ PUSH2 0xEFE JUMPI PUSH1 0x5 PUSH1 0x1 PUSH1 0x5 DUP1 SLOAD SWAP1 POP PUSH2 0xE1D SWAP2 SWAP1 PUSH2 0x1EF7 JUMP JUMPDEST DUP2 SLOAD DUP2 LT PUSH2 0xE2E JUMPI PUSH2 0xE2D PUSH2 0x1D19 JUMP JUMPDEST JUMPDEST SWAP1 PUSH0 MSTORE PUSH1 0x20 PUSH0 KECCAK256 SWAP1 PUSH1 0x6 MUL ADD PUSH1 0x5 DUP3 DUP2 SLOAD DUP2 LT PUSH2 0xE4E JUMPI PUSH2 0xE4D PUSH2 0x1D19 JUMP JUMPDEST JUMPDEST SWAP1 PUSH0 MSTORE PUSH1 0x20 PUSH0 KECCAK256 SWAP1 PUSH1 0x6 MUL ADD PUSH0 DUP3 ADD SLOAD DUP2 PUSH0 ADD SSTORE PUSH1 0x1 DUP3 ADD PUSH0 SWAP1 SLOAD SWAP1 PUSH2 0x100 EXP SWAP1 DIV PUSH20 0xFFFFFFFFFFFFFFFFFFFFFFFFFFFFFFFFFFFFFFFF AND DUP2 PUSH1 0x1 ADD PUSH0 PUSH2 0x100 EXP DUP2 SLOAD DUP2 PUSH20 0xFFFFFFFFFFFFFFFFFFFFFFFFFFFFFFFFFFFFFFFF MUL NOT AND SWAP1 DUP4 PUSH20 0xFFFFFFFFFFFFFFFFFFFFFFFFFFFFFFFFFFFFFFFF AND MUL OR SWAP1 SSTORE POP PUSH1 0x2 DUP3 ADD SLOAD DUP2 PUSH1 0x2 ADD SSTORE PUSH1 0x3 DUP3 ADD SLOAD DUP2 PUSH1 0x3 ADD SSTORE PUSH1 0x4 DUP3 ADD SLOAD DUP2 PUSH1 0x4 ADD SSTORE PUSH1 0x5 DUP3 ADD DUP2 PUSH1 0x5 ADD SWAP1 DUP2 PUSH2 0xEF9 SWAP2 SWAP1 PUSH2 0x1FCE JUMP JUMPDEST POP SWAP1 POP POP JUMPDEST PUSH1 0x5 DUP1 SLOAD DUP1 PUSH2 0xF10 JUMPI PUSH2 0xF0F PUSH2 0x20B3 JUMP JUMPDEST JUMPDEST PUSH1 0x1 SWAP1 SUB DUP2 DUP2 SWAP1 PUSH0 MSTORE PUSH1 0x20 PUSH0 KECCAK256 SWAP1 PUSH1 0x6 MUL ADD PUSH0 DUP1 DUP3 ADD PUSH0 SWAP1 SSTORE PUSH1 0x1 DUP3 ADD PUSH0 PUSH2 0x100 EXP DUP2 SLOAD SWAP1 PUSH20 0xFFFFFFFFFFFFFFFFFFFFFFFFFFFFFFFFFFFFFFFF MUL NOT AND SWAP1 SSTORE PUSH1 0x2 DUP3 ADD PUSH0 SWAP1 SSTORE PUSH1 0x3 DUP3 ADD PUSH0 SWAP1 SSTORE PUSH1 0x4 DUP3 ADD PUSH0 SWAP1 SSTORE PUSH1 0x5 DUP3 ADD PUSH0 PUSH2 0xF73 SWAP2 SWAP1 PUSH2 0x161B JUMP JUMPDEST POP POP SWAP1 SSTORE POP JUMP JUMPDEST PUSH0 DUP1 PUSH1 0x6 DUP4 DUP2 SLOAD DUP2 LT PUSH2 0xF90 JUMPI PUSH2 0xF8F PUSH2 0x1D19 JUMP JUMPDEST JUMPDEST SWAP1 PUSH0 MSTORE PUSH1 0x20 PUSH0 KECCAK256 SWAP1 PUSH1 0xB MUL ADD PUSH1 0x40 MLOAD DUP1 PUSH2 0x160 ADD PUSH1 0x40 MSTORE SWAP1 DUP2 PUSH0 DUP3 ADD SLOAD DUP2 MSTORE PUSH1 0x20 ADD PUSH1 0x1 DUP3 ADD PUSH0 SWAP1 SLOAD SWAP1 PUSH2 0x100 EXP SWAP1 DIV PUSH20 0xFFFFFFFFFFFFFFFFFFFFFFFFFFFFFFFFFFFFFFFF AND PUSH20 0xFFFFFFFFFFFFFFFFFFFFFFFFFFFFFFFFFFFFFFFF AND PUSH20 0xFFFFFFFFFFFFFFFFFFFFFFFFFFFFFFFFFFFFFFFF AND DUP2 MSTORE PUSH1 0x20 ADD PUSH1 0x2 DUP3 ADD PUSH0 SWAP1 SLOAD SWAP1 PUSH2 0x100 EXP SWAP1 DIV PUSH20 0xFFFFFFFFFFFFFFFFFFFFFFFFFFFFFFFFFFFFFFFF AND PUSH20 0xFFFFFFFFFFFFFFFFFFFFFFFFFFFFFFFFFFFFFFFF AND PUSH20 0xFFFFFFFFFFFFFFFFFFFFFFFFFFFFFFFFFFFFFFFF AND DUP2 MSTORE PUSH1 0x20 ADD PUSH1 0x3 DUP3 ADD DUP1 SLOAD PUSH2 0x106B SWAP1 PUSH2 0x1A48 JUMP JUMPDEST DUP1 PUSH1 0x1F ADD PUSH1 0x20 DUP1 SWAP2 DIV MUL PUSH1 0x20 ADD PUSH1 0x40 MLOAD SWAP1 DUP2 ADD PUSH1 0x40 MSTORE DUP1 SWAP3 SWAP2 SWAP1 DUP2 DUP2 MSTORE PUSH1 0x20 ADD DUP3 DUP1 SLOAD PUSH2 0x1097 SWAP1 PUSH2 0x1A48 JUMP JUMPDEST DUP1 ISZERO PUSH2 0x10E2 JUMPI DUP1 PUSH1 0x1F LT PUSH2 0x10B9 JUMPI PUSH2 0x100 DUP1 DUP4 SLOAD DIV MUL DUP4 MSTORE SWAP2 PUSH1 0x20 ADD SWAP2 PUSH2 0x10E2 JUMP JUMPDEST DUP3 ADD SWAP2 SWAP1 PUSH0 MSTORE PUSH1 0x20 PUSH0 KECCAK256 SWAP1 JUMPDEST DUP2 SLOAD DUP2 MSTORE SWAP1 PUSH1 0x1 ADD SWAP1 PUSH1 0x20 ADD DUP1 DUP4 GT PUSH2 0x10C5 JUMPI DUP3 SWAP1 SUB PUSH1 0x1F AND DUP3 ADD SWAP2 JUMPDEST POP POP POP POP POP DUP2 MSTORE PUSH1 0x20 ADD PUSH1 0x4 DUP3 ADD DUP1 SLOAD PUSH2 0x10FB SWAP1 PUSH2 0x1A48 JUMP JUMPDEST DUP1 PUSH1 0x1F ADD PUSH1 0x20 DUP1 SWAP2 DIV MUL PUSH1 0x20 ADD PUSH1 0x40 MLOAD SWAP1 DUP2 ADD PUSH1 0x40 MSTORE DUP1 SWAP3 SWAP2 SWAP1 DUP2 DUP2 MSTORE PUSH1 0x20 ADD DUP3 DUP1 SLOAD PUSH2 0x1127 SWAP1 PUSH2 0x1A48 JUMP JUMPDEST DUP1 ISZERO PUSH2 0x1172 JUMPI DUP1 PUSH1 0x1F LT PUSH2 0x1149 JUMPI PUSH2 0x100 DUP1 DUP4 SLOAD DIV MUL DUP4 MSTORE SWAP2 PUSH1 0x20 ADD SWAP2 PUSH2 0x1172 JUMP JUMPDEST DUP3 ADD SWAP2 SWAP1 PUSH0 MSTORE PUSH1 0x20 PUSH0 KECCAK256 SWAP1 JUMPDEST DUP2 SLOAD DUP2 MSTORE SWAP1 PUSH1 0x1 ADD SWAP1 PUSH1 0x20 ADD DUP1 DUP4 GT PUSH2 0x1155 JUMPI DUP3 SWAP1 SUB PUSH1 0x1F AND DUP3 ADD SWAP2 JUMPDEST POP POP POP POP POP DUP2 MSTORE PUSH1 0x20 ADD PUSH1 0x5 DUP3 ADD SLOAD DUP2 MSTORE PUSH1 0x20 ADD PUSH1 0x6 DUP3 ADD SLOAD DUP2 MSTORE PUSH1 0x20 ADD PUSH1 0x7 DUP3 ADD SLOAD DUP2 MSTORE PUSH1 0x20 ADD PUSH1 0x8 DUP3 ADD SLOAD DUP2 MSTORE PUSH1 0x20 ADD PUSH1 0x9 DUP3 ADD SLOAD DUP2 MSTORE PUSH1 0x20 ADD PUSH1 0xA DUP3 ADD SLOAD DUP2 MSTORE POP POP SWAP1 POP PUSH0 DUP2 PUSH1 0xC0 ADD MLOAD SUB PUSH2 0x11CD JUMPI PUSH0 SWAP2 POP POP PUSH2 0x1233 JUMP JUMPDEST PUSH0 TIMESTAMP SWAP1 POP PUSH0 DUP3 PUSH1 0xE0 ADD MLOAD EQ PUSH2 0x11E4 JUMPI DUP2 PUSH1 0xE0 ADD MLOAD SWAP1 POP JUMPDEST PUSH0 DUP3 PUSH1 0xA0 ADD MLOAD DUP4 PUSH2 0x100 ADD MLOAD DUP5 PUSH2 0x140 ADD MLOAD DUP5 PUSH2 0x1201 SWAP2 SWAP1 PUSH2 0x1EF7 JUMP JUMPDEST PUSH2 0x120B SWAP2 SWAP1 PUSH2 0x20E0 JUMP JUMPDEST PUSH2 0x1215 SWAP2 SWAP1 PUSH2 0x20E0 JUMP JUMPDEST SWAP1 POP DUP3 PUSH2 0x120 ADD MLOAD DUP2 LT PUSH2 0x122C JUMPI DUP3 PUSH2 0x120 ADD MLOAD SWAP1 POP JUMPDEST DUP1 SWAP4 POP POP POP POP JUMPDEST SWAP2 SWAP1 POP JUMP JUMPDEST PUSH1 0x1 PUSH1 0x6 DUP1 SLOAD SWAP1 POP PUSH2 0x124A SWAP2 SWAP1 PUSH2 0x1EF7 JUMP JUMPDEST DUP2 EQ PUSH2 0x13DD JUMPI PUSH1 0x6 PUSH1 0x1 PUSH1 0x6 DUP1 SLOAD SWAP1 POP PUSH2 0x1264 SWAP2 SWAP1 PUSH2 0x1EF7 JUMP JUMPDEST DUP2 SLOAD DUP2 LT PUSH2 0x1275 JUMPI PUSH2 0x1274 PUSH2 0x1D19 JUMP JUMPDEST JUMPDEST SWAP1 PUSH0 MSTORE PUSH1 0x20 PUSH0 KECCAK256 SWAP1 PUSH1 0xB MUL ADD PUSH1 0x6 DUP3 DUP2 SLOAD DUP2 LT PUSH2 0x1295 JUMPI PUSH2 0x1294 PUSH2 0x1D19 JUMP JUMPDEST JUMPDEST SWAP1 PUSH0 MSTORE PUSH1 0x20 PUSH0 KECCAK256 SWAP1 PUSH1 0xB MUL ADD PUSH0 DUP3 ADD SLOAD DUP2 PUSH0 ADD SSTORE PUSH1 0x1 DUP3 ADD PUSH0 SWAP1 SLOAD SWAP1 PUSH2 0x100 EXP SWAP1 DIV PUSH20 0xFFFFFFFFFFFFFFFFFFFFFFFFFFFFFFFFFFFFFFFF AND DUP2 PUSH1 0x1 ADD PUSH0 PUSH2 0x100 EXP DUP2 SLOAD DUP2 PUSH20 0xFFFFFFFFFFFFFFFFFFFFFFFFFFFFFFFFFFFFFFFF MUL NOT AND SWAP1 DUP4 PUSH20 0xFFFFFFFFFFFFFFFFFFFFFFFFFFFFFFFFFFFFFFFF AND MUL OR SWAP1 SSTORE POP PUSH1 0x2 DUP3 ADD PUSH0 SWAP1 SLOAD SWAP1 PUSH2 0x100 EXP SWAP1 DIV PUSH20 0xFFFFFFFFFFFFFFFFFFFFFFFFFFFFFFFFFFFFFFFF AND DUP2 PUSH1 0x2 ADD PUSH0 PUSH2 0x100 EXP DUP2 SLOAD DUP2 PUSH20 0xFFFFFFFFFFFFFFFFFFFFFFFFFFFFFFFFFFFFFFFF MUL NOT AND SWAP1 DUP4 PUSH20 0xFFFFFFFFFFFFFFFFFFFFFFFFFFFFFFFFFFFFFFFF AND MUL OR SWAP1 SSTORE POP PUSH1 0x3 DUP3 ADD DUP2 PUSH1 0x3 ADD SWAP1 DUP2 PUSH2 0x1387 SWAP2 SWAP1 PUSH2 0x1FCE JUMP JUMPDEST POP PUSH1 0x4 DUP3 ADD DUP2 PUSH1 0x4 ADD SWAP1 DUP2 PUSH2 0x139C SWAP2 SWAP1 PUSH2 0x1FCE JUMP JUMPDEST POP PUSH1 0x5 DUP3 ADD SLOAD DUP2 PUSH1 0x5 ADD SSTORE PUSH1 0x6 DUP3 ADD SLOAD DUP2 PUSH1 0x6 ADD SSTORE PUSH1 0x7 DUP3 ADD SLOAD DUP2 PUSH1 0x7 ADD SSTORE PUSH1 0x8 DUP3 ADD SLOAD DUP2 PUSH1 0x8 ADD SSTORE PUSH1 0x9 DUP3 ADD SLOAD DUP2 PUSH1 0x9 ADD SSTORE PUSH1 0xA DUP3 ADD SLOAD DUP2 PUSH1 0xA ADD SSTORE SWAP1 POP POP JUMPDEST PUSH1 0x6 DUP1 SLOAD DUP1 PUSH2 0x13EF JUMPI PUSH2 0x13EE PUSH2 0x20B3 JUMP JUMPDEST JUMPDEST PUSH1 0x1 SWAP1 SUB DUP2 DUP2 SWAP1 PUSH0 MSTORE PUSH1 0x20 PUSH0 KECCAK256 SWAP1 PUSH1 0xB MUL ADD PUSH0 DUP1 DUP3 ADD PUSH0 SWAP1 SSTORE PUSH1 0x1 DUP3 ADD PUSH0 PUSH2 0x100 EXP DUP2 SLOAD SWAP1 PUSH20 0xFFFFFFFFFFFFFFFFFFFFFFFFFFFFFFFFFFFFFFFF MUL NOT AND SWAP1 SSTORE PUSH1 0x2 DUP3 ADD PUSH0 PUSH2 0x100 EXP DUP2 SLOAD SWAP1 PUSH20 0xFFFFFFFFFFFFFFFFFFFFFFFFFFFFFFFFFFFFFFFF MUL NOT AND SWAP1 SSTORE PUSH1 0x3 DUP3 ADD PUSH0 PUSH2 0x1463 SWAP2 SWAP1 PUSH2 0x161B JUMP JUMPDEST PUSH1 0x4 DUP3 ADD PUSH0 PUSH2 0x1472 SWAP2 SWAP1 PUSH2 0x161B JUMP JUMPDEST PUSH1 0x5 DUP3 ADD PUSH0 SWAP1 SSTORE PUSH1 0x6 DUP3 ADD PUSH0 SWAP1 SSTORE PUSH1 0x7 DUP3 ADD PUSH0 SWAP1 SSTORE PUSH1 0x8 DUP3 ADD PUSH0 SWAP1 SSTORE PUSH1 0x9 DUP3 ADD PUSH0 SWAP1 SSTORE PUSH1 0xA DUP3 ADD PUSH0 SWAP1 SSTORE POP POP SWAP1 SSTORE POP JUMP JUMPDEST PUSH1 0x1 PUSH1 0x4 DUP1 SLOAD SWAP1 POP PUSH2 0x14B5 SWAP2 SWAP1 PUSH2 0x1EF7 JUMP JUMPDEST DUP2 EQ PUSH2 0x15A6 JUMPI PUSH1 0x4 PUSH1 0x1 PUSH1 0x4 DUP1 SLOAD SWAP1 POP PUSH2 0x14CF SWAP2 SWAP1 PUSH2 0x1EF7 JUMP JUMPDEST DUP2 SLOAD DUP2 LT PUSH2 0x14E0 JUMPI PUSH2 0x14DF PUSH2 0x1D19 JUMP JUMPDEST JUMPDEST SWAP1 PUSH0 MSTORE PUSH1 0x20 PUSH0 KECCAK256 SWAP1 PUSH1 0x5 MUL ADD PUSH1 0x4 DUP3 DUP2 SLOAD DUP2 LT PUSH2 0x1500 JUMPI PUSH2 0x14FF PUSH2 0x1D19 JUMP JUMPDEST JUMPDEST SWAP1 PUSH0 MSTORE PUSH1 0x20 PUSH0 KECCAK256 SWAP1 PUSH1 0x5 MUL ADD PUSH0 DUP3 ADD SLOAD DUP2 PUSH0 ADD SSTORE PUSH1 0x1 DUP3 ADD PUSH0 SWAP1 SLOAD SWAP1 PUSH2 0x100 EXP SWAP1 DIV PUSH20 0xFFFFFFFFFFFFFFFFFFFFFFFFFFFFFFFFFFFFFFFF AND DUP2 PUSH1 0x1 ADD PUSH0 PUSH2 0x100 EXP DUP2 SLOAD DUP2 PUSH20 0xFFFFFFFFFFFFFFFFFFFFFFFFFFFFFFFFFFFFFFFF MUL NOT AND SWAP1 DUP4 PUSH20 0xFFFFFFFFFFFFFFFFFFFFFFFFFFFFFFFFFFFFFFFF AND MUL OR SWAP1 SSTORE POP PUSH1 0x2 DUP3 ADD SLOAD DUP2 PUSH1 0x2 ADD SSTORE PUSH1 0x3 DUP3 ADD SLOAD DUP2 PUSH1 0x3 ADD SSTORE PUSH1 0x4 DUP3 ADD DUP2 PUSH1 0x4 ADD SWAP1 DUP2 PUSH2 0x15A1 SWAP2 SWAP1 PUSH2 0x1FCE JUMP JUMPDEST POP SWAP1 POP POP JUMPDEST PUSH1 0x4 DUP1 SLOAD DUP1 PUSH2 0x15B8 JUMPI PUSH2 0x15B7 PUSH2 0x20B3 JUMP JUMPDEST JUMPDEST PUSH1 0x1 SWAP1 SUB DUP2 DUP2 SWAP1 PUSH0 MSTORE PUSH1 0x20 PUSH0 KECCAK256 SWAP1 PUSH1 0x5 MUL ADD PUSH0 DUP1 DUP3 ADD PUSH0 SWAP1 SSTORE PUSH1 0x1 DUP3 ADD PUSH0 PUSH2 0x100 EXP DUP2 SLOAD SWAP1 PUSH20 0xFFFFFFFFFFFFFFFFFFFFFFFFFFFFFFFFFFFFFFFF MUL NOT AND SWAP1 SSTORE PUSH1 0x2 DUP3 ADD PUSH0 SWAP1 SSTORE PUSH1 0x3 DUP3 ADD PUSH0 SWAP1 SSTORE PUSH1 0x4 DUP3 ADD PUSH0 PUSH2 0x1614 SWAP2 SWAP1 PUSH2 0x161B JUMP JUMPDEST POP POP SWAP1 SSTORE POP JUMP JUMPDEST POP DUP1 SLOAD PUSH2 0x1627 SWAP1 PUSH2 0x1A48 JUMP JUMPDEST PUSH0 DUP3 SSTORE DUP1 PUSH1 0x1F LT PUSH2 0x1638 JUMPI POP PUSH2 0x1655 JUMP JUMPDEST PUSH1 0x1F ADD PUSH1 0x20 SWAP1 DIV SWAP1 PUSH0 MSTORE PUSH1 0x20 PUSH0 KECCAK256 SWAP1 DUP2 ADD SWAP1 PUSH2 0x1654 SWAP2 SWAP1 PUSH2 0x1658 JUMP JUMPDEST JUMPDEST POP JUMP JUMPDEST JUMPDEST DUP1 DUP3 GT ISZERO PUSH2 0x166F JUMPI PUSH0 DUP2 PUSH0 SWAP1 SSTORE POP PUSH1 0x1 ADD PUSH2 0x1659 JUMP JUMPDEST POP SWAP1 JUMP JUMPDEST PUSH0 PUSH1 0x40 MLOAD SWAP1 POP SWAP1 JUMP JUMPDEST PUSH0 DUP1 REVERT JUMPDEST PUSH0 DUP1 REVERT JUMPDEST PUSH0 DUP2 SWAP1 POP SWAP2 SWAP1 POP JUMP JUMPDEST PUSH2 0x1696 DUP2 PUSH2 0x1684 JUMP JUMPDEST DUP2 EQ PUSH2 0x16A0 JUMPI PUSH0 DUP1 REVERT JUMPDEST POP JUMP JUMPDEST PUSH0 DUP2 CALLDATALOAD SWAP1 POP PUSH2 0x16B1 DUP2 PUSH2 0x168D JUMP JUMPDEST SWAP3 SWAP2 POP POP JUMP JUMPDEST PUSH0 DUP1 REVERT JUMPDEST PUSH0 DUP1 REVERT JUMPDEST PUSH0 PUSH1 0x1F NOT PUSH1 0x1F DUP4 ADD AND SWAP1 POP SWAP2 SWAP1 POP JUMP JUMPDEST PUSH32 0x4E487B7100000000000000000000000000000000000000000000000000000000 PUSH0 MSTORE PUSH1 0x41 PUSH1 0x4 MSTORE PUSH1 0x24 PUSH0 REVERT JUMPDEST PUSH2 0x1705 DUP3 PUSH2 0x16BF JUMP JUMPDEST DUP2 ADD DUP2 DUP2 LT PUSH8 0xFFFFFFFFFFFFFFFF DUP3 GT OR ISZERO PUSH2 0x1724 JUMPI PUSH2 0x1723 PUSH2 0x16CF JUMP JUMPDEST JUMPDEST DUP1 PUSH1 0x40 MSTORE POP POP POP JUMP JUMPDEST PUSH0 PUSH2 0x1736 PUSH2 0x1673 JUMP JUMPDEST SWAP1 POP PUSH2 0x1742 DUP3 DUP3 PUSH2 0x16FC JUMP JUMPDEST SWAP2 SWAP1 POP JUMP JUMPDEST PUSH0 PUSH8 0xFFFFFFFFFFFFFFFF DUP3 GT ISZERO PUSH2 0x1761 JUMPI PUSH2 0x1760 PUSH2 0x16CF JUMP JUMPDEST JUMPDEST PUSH2 0x176A DUP3 PUSH2 0x16BF JUMP JUMPDEST SWAP1 POP PUSH1 0x20 DUP2 ADD SWAP1 POP SWAP2 SWAP1 POP JUMP JUMPDEST DUP3 DUP2 DUP4 CALLDATACOPY PUSH0 DUP4 DUP4 ADD MSTORE POP POP POP JUMP JUMPDEST PUSH0 PUSH2 0x1797 PUSH2 0x1792 DUP5 PUSH2 0x1747 JUMP JUMPDEST PUSH2 0x172D JUMP JUMPDEST SWAP1 POP DUP3 DUP2 MSTORE PUSH1 0x20 DUP2 ADD DUP5 DUP5 DUP5 ADD GT ISZERO PUSH2 0x17B3 JUMPI PUSH2 0x17B2 PUSH2 0x16BB JUMP JUMPDEST JUMPDEST PUSH2 0x17BE DUP5 DUP3 DUP6 PUSH2 0x1777 JUMP JUMPDEST POP SWAP4 SWAP3 POP POP POP JUMP JUMPDEST PUSH0 DUP3 PUSH1 0x1F DUP4 ADD SLT PUSH2 0x17DA JUMPI PUSH2 0x17D9 PUSH2 0x16B7 JUMP JUMPDEST JUMPDEST DUP2 CALLDATALOAD PUSH2 0x17EA DUP5 DUP3 PUSH1 0x20 DUP7 ADD PUSH2 0x1785 JUMP JUMPDEST SWAP2 POP POP SWAP3 SWAP2 POP POP JUMP JUMPDEST PUSH0 DUP1 PUSH0 DUP1 PUSH1 0x80 DUP6 DUP8 SUB SLT ISZERO PUSH2 0x180B JUMPI PUSH2 0x180A PUSH2 0x167C JUMP JUMPDEST JUMPDEST PUSH0 PUSH2 0x1818 DUP8 DUP3 DUP9 ADD PUSH2 0x16A3 JUMP JUMPDEST SWAP5 POP POP PUSH1 0x20 PUSH2 0x1829 DUP8 DUP3 DUP9 ADD PUSH2 0x16A3 JUMP JUMPDEST SWAP4 POP POP PUSH1 0x40 PUSH2 0x183A DUP8 DUP3 DUP9 ADD PUSH2 0x16A3 JUMP JUMPDEST SWAP3 POP POP PUSH1 0x60 DUP6 ADD CALLDATALOAD PUSH8 0xFFFFFFFFFFFFFFFF DUP2 GT ISZERO PUSH2 0x185B JUMPI PUSH2 0x185A PUSH2 0x1680 JUMP JUMPDEST JUMPDEST PUSH2 0x1867 DUP8 DUP3 DUP9 ADD PUSH2 0x17C6 JUMP JUMPDEST SWAP2 POP POP SWAP3 SWAP6 SWAP2 SWAP5 POP SWAP3 POP JUMP JUMPDEST PUSH2 0x187C DUP2 PUSH2 0x1684 JUMP JUMPDEST DUP3 MSTORE POP POP JUMP JUMPDEST PUSH0 PUSH1 0x20 DUP3 ADD SWAP1 POP PUSH2 0x1895 PUSH0 DUP4 ADD DUP5 PUSH2 0x1873 JUMP JUMPDEST SWAP3 SWAP2 POP POP JUMP JUMPDEST PUSH0 DUP1 PUSH0 PUSH1 0x60 DUP5 DUP7 SUB SLT ISZERO PUSH2 0x18B2 JUMPI PUSH2 0x18B1 PUSH2 0x167C JUMP JUMPDEST JUMPDEST PUSH0 PUSH2 0x18BF DUP7 DUP3 DUP8 ADD PUSH2 0x16A3 JUMP JUMPDEST SWAP4 POP POP PUSH1 0x20 PUSH2 0x18D0 DUP7 DUP3 DUP8 ADD PUSH2 0x16A3 JUMP JUMPDEST SWAP3 POP POP PUSH1 0x40 DUP5 ADD CALLDATALOAD PUSH8 0xFFFFFFFFFFFFFFFF DUP2 GT ISZERO PUSH2 0x18F1 JUMPI PUSH2 0x18F0 PUSH2 0x1680 JUMP JUMPDEST JUMPDEST PUSH2 0x18FD DUP7 DUP3 DUP8 ADD PUSH2 0x17C6 JUMP JUMPDEST SWAP2 POP POP SWAP3 POP SWAP3 POP SWAP3 JUMP JUMPDEST PUSH0 DUP1 PUSH1 0x40 DUP4 DUP6 SUB SLT ISZERO PUSH2 0x191D JUMPI PUSH2 0x191C PUSH2 0x167C JUMP JUMPDEST JUMPDEST PUSH0 PUSH2 0x192A DUP6 DUP3 DUP7 ADD PUSH2 0x16A3 JUMP JUMPDEST SWAP3 POP POP PUSH1 0x20 PUSH2 0x193B DUP6 DUP3 DUP7 ADD PUSH2 0x16A3 JUMP JUMPDEST SWAP2 POP POP SWAP3 POP SWAP3 SWAP1 POP JUMP JUMPDEST PUSH0 PUSH20 0xFFFFFFFFFFFFFFFFFFFFFFFFFFFFFFFFFFFFFFFF DUP3 AND SWAP1 POP SWAP2 SWAP1 POP JUMP JUMPDEST PUSH0 PUSH2 0x196E DUP3 PUSH2 0x1945 JUMP JUMPDEST SWAP1 POP SWAP2 SWAP1 POP JUMP JUMPDEST PUSH2 0x197E DUP2 PUSH2 0x1964 JUMP JUMPDEST DUP3 MSTORE POP POP JUMP JUMPDEST PUSH0 PUSH1 0x20 DUP3 ADD SWAP1 POP PUSH2 0x1997 PUSH0 DUP4 ADD DUP5 PUSH2 0x1975 JUMP JUMPDEST SWAP3 SWAP2 POP POP JUMP JUMPDEST PUSH32 0x4E487B7100000000000000000000000000000000000000000000000000000000 PUSH0 MSTORE PUSH1 0x11 PUSH1 0x4 MSTORE PUSH1 0x24 PUSH0 REVERT JUMPDEST PUSH0 PUSH2 0x19D4 DUP3 PUSH2 0x1684 JUMP JUMPDEST SWAP2 POP PUSH32 0xFFFFFFFFFFFFFFFFFFFFFFFFFFFFFFFFFFFFFFFFFFFFFFFFFFFFFFFFFFFFFFFF DUP3 SUB PUSH2 0x1A06 JUMPI PUSH2 0x1A05 PUSH2 0x199D JUMP JUMPDEST JUMPDEST PUSH1 0x1 DUP3 ADD SWAP1 POP SWAP2 SWAP1 POP JUMP JUMPDEST PUSH0 DUP2 MLOAD SWAP1 POP SWAP2 SWAP1 POP JUMP JUMPDEST PUSH32 0x4E487B7100000000000000000000000000000000000000000000000000000000 PUSH0 MSTORE PUSH1 0x22 PUSH1 0x4 MSTORE PUSH1 0x24 PUSH0 REVERT JUMPDEST PUSH0 PUSH1 0x2 DUP3 DIV SWAP1 POP PUSH1 0x1 DUP3 AND DUP1 PUSH2 0x1A5F JUMPI PUSH1 0x7F DUP3 AND SWAP2 POP JUMPDEST PUSH1 0x20 DUP3 LT DUP2 SUB PUSH2 0x1A72 JUMPI PUSH2 0x1A71 PUSH2 0x1A1B JUMP JUMPDEST JUMPDEST POP SWAP2 SWAP1 POP JUMP JUMPDEST PUSH0 DUP2 SWAP1 POP DUP2 PUSH0 MSTORE PUSH1 0x20 PUSH0 KECCAK256 SWAP1 POP SWAP2 SWAP1 POP JUMP JUMPDEST PUSH0 PUSH1 0x20 PUSH1 0x1F DUP4 ADD DIV SWAP1 POP SWAP2 SWAP1 POP JUMP JUMPDEST PUSH0 DUP3 DUP3 SHL SWAP1 POP SWAP3 SWAP2 POP POP JUMP JUMPDEST PUSH0 PUSH1 0x8 DUP4 MUL PUSH2 0x1AD4 PUSH32 0xFFFFFFFFFFFFFFFFFFFFFFFFFFFFFFFFFFFFFFFFFFFFFFFFFFFFFFFFFFFFFFFF DUP3 PUSH2 0x1A99 JUMP JUMPDEST PUSH2 0x1ADE DUP7 DUP4 PUSH2 0x1A99 JUMP JUMPDEST SWAP6 POP DUP1 NOT DUP5 AND SWAP4 POP DUP1 DUP7 AND DUP5 OR SWAP3 POP POP POP SWAP4 SWAP3 POP POP POP JUMP JUMPDEST PUSH0 DUP2 SWAP1 POP SWAP2 SWAP1 POP JUMP JUMPDEST PUSH0 PUSH2 0x1B19 PUSH2 0x1B14 PUSH2 0x1B0F DUP5 PUSH2 0x1684 JUMP JUMPDEST PUSH2 0x1AF6 JUMP JUMPDEST PUSH2 0x1684 JUMP JUMPDEST SWAP1 POP SWAP2 SWAP1 POP JUMP JUMPDEST PUSH0 DUP2 SWAP1 POP SWAP2 SWAP1 POP JUMP JUMPDEST PUSH2 0x1B32 DUP4 PUSH2 0x1AFF JUMP JUMPDEST PUSH2 0x1B46 PUSH2 0x1B3E DUP3 PUSH2 0x1B20 JUMP JUMPDEST DUP5 DUP5 SLOAD PUSH2 0x1AA5 JUMP JUMPDEST DUP3 SSTORE POP POP POP POP JUMP JUMPDEST PUSH0 SWAP1 JUMP JUMPDEST PUSH2 0x1B5A PUSH2 0x1B4E JUMP JUMPDEST PUSH2 0x1B65 DUP2 DUP5 DUP5 PUSH2 0x1B29 JUMP JUMPDEST POP POP POP JUMP JUMPDEST JUMPDEST DUP2 DUP2 LT ISZERO PUSH2 0x1B88 JUMPI PUSH2 0x1B7D PUSH0 DUP3 PUSH2 0x1B52 JUMP JUMPDEST PUSH1 0x1 DUP2 ADD SWAP1 POP PUSH2 0x1B6B JUMP JUMPDEST POP POP JUMP JUMPDEST PUSH1 0x1F DUP3 GT ISZERO PUSH2 0x1BCD JUMPI PUSH2 0x1B9E DUP2 PUSH2 0x1A78 JUMP JUMPDEST PUSH2 0x1BA7 DUP5 PUSH2 0x1A8A JUMP JUMPDEST DUP2 ADD PUSH1 0x20 DUP6 LT ISZERO PUSH2 0x1BB6 JUMPI DUP2 SWAP1 POP JUMPDEST PUSH2 0x1BCA PUSH2 0x1BC2 DUP6 PUSH2 0x1A8A JUMP JUMPDEST DUP4 ADD DUP3 PUSH2 0x1B6A JUMP JUMPDEST POP POP JUMPDEST POP POP POP JUMP JUMPDEST PUSH0 DUP3 DUP3 SHR SWAP1 POP SWAP3 SWAP2 POP POP JUMP JUMPDEST PUSH0 PUSH2 0x1BED PUSH0 NOT DUP5 PUSH1 0x8 MUL PUSH2 0x1BD2 JUMP JUMPDEST NOT DUP1 DUP4 AND SWAP2 POP POP SWAP3 SWAP2 POP POP JUMP JUMPDEST PUSH0 PUSH2 0x1C05 DUP4 DUP4 PUSH2 0x1BDE JUMP JUMPDEST SWAP2 POP DUP3 PUSH1 0x2 MUL DUP3 OR SWAP1 POP SWAP3 SWAP2 POP POP JUMP JUMPDEST PUSH2 0x1C1E DUP3 PUSH2 0x1A11 JUMP JUMPDEST PUSH8 0xFFFFFFFFFFFFFFFF DUP2 GT ISZERO PUSH2 0x1C37 JUMPI PUSH2 0x1C36 PUSH2 0x16CF JUMP JUMPDEST JUMPDEST PUSH2 0x1C41 DUP3 SLOAD PUSH2 0x1A48 JUMP JUMPDEST PUSH2 0x1C4C DUP3 DUP3 DUP6 PUSH2 0x1B8C JUMP JUMPDEST PUSH0 PUSH1 0x20 SWAP1 POP PUSH1 0x1F DUP4 GT PUSH1 0x1 DUP2 EQ PUSH2 0x1C7D JUMPI PUSH0 DUP5 ISZERO PUSH2 0x1C6B JUMPI DUP3 DUP8 ADD MLOAD SWAP1 POP JUMPDEST PUSH2 0x1C75 DUP6 DUP3 PUSH2 0x1BFA JUMP JUMPDEST DUP7 SSTORE POP PUSH2 0x1CDC JUMP JUMPDEST PUSH1 0x1F NOT DUP5 AND PUSH2 0x1C8B DUP7 PUSH2 0x1A78 JUMP JUMPDEST PUSH0 JUMPDEST DUP3 DUP2 LT ISZERO PUSH2 0x1CB2 JUMPI DUP5 DUP10 ADD MLOAD DUP3 SSTORE PUSH1 0x1 DUP3 ADD SWAP2 POP PUSH1 0x20 DUP6 ADD SWAP5 POP PUSH1 0x20 DUP2 ADD SWAP1 POP PUSH2 0x1C8D JUMP JUMPDEST DUP7 DUP4 LT ISZERO PUSH2 0x1CCF JUMPI DUP5 DUP10 ADD MLOAD PUSH2 0x1CCB PUSH1 0x1F DUP10 AND DUP3 PUSH2 0x1BDE JUMP JUMPDEST DUP4 SSTORE POP JUMPDEST PUSH1 0x1 PUSH1 0x2 DUP9 MUL ADD DUP9 SSTORE POP POP POP JUMPDEST POP POP POP POP POP POP JUMP JUMPDEST PUSH0 PUSH1 0x60 DUP3 ADD SWAP1 POP PUSH2 0x1CF7 PUSH0 DUP4 ADD DUP7 PUSH2 0x1873 JUMP JUMPDEST PUSH2 0x1D04 PUSH1 0x20 DUP4 ADD DUP6 PUSH2 0x1873 JUMP JUMPDEST PUSH2 0x1D11 PUSH1 0x40 DUP4 ADD DUP5 PUSH2 0x1873 JUMP JUMPDEST SWAP5 SWAP4 POP POP POP POP JUMP JUMPDEST PUSH32 0x4E487B7100000000000000000000000000000000000000000000000000000000 PUSH0 MSTORE PUSH1 0x32 PUSH1 0x4 MSTORE PUSH1 0x24 PUSH0 REVERT JUMPDEST PUSH0 DUP3 DUP3 MSTORE PUSH1 0x20 DUP3 ADD SWAP1 POP SWAP3 SWAP2 POP POP JUMP JUMPDEST PUSH32 0x4E6F7420617574686F72697A656420746F2063616E63656C0000000000000000 PUSH0 DUP3 ADD MSTORE POP JUMP JUMPDEST PUSH0 PUSH2 0x1D8A PUSH1 0x18 DUP4 PUSH2 0x1D46 JUMP JUMPDEST SWAP2 POP PUSH2 0x1D95 DUP3 PUSH2 0x1D56 JUMP JUMPDEST PUSH1 0x20 DUP3 ADD SWAP1 POP SWAP2 SWAP1 POP JUMP JUMPDEST PUSH0 PUSH1 0x20 DUP3 ADD SWAP1 POP DUP2 DUP2 SUB PUSH0 DUP4 ADD MSTORE PUSH2 0x1DB7 DUP2 PUSH2 0x1D7E JUMP JUMPDEST SWAP1 POP SWAP2 SWAP1 POP JUMP JUMPDEST PUSH32 0x556E617574686F72697A65640000000000000000000000000000000000000000 PUSH0 DUP3 ADD MSTORE POP JUMP JUMPDEST PUSH0 PUSH2 0x1DF2 PUSH1 0xC DUP4 PUSH2 0x1D46 JUMP JUMPDEST SWAP2 POP PUSH2 0x1DFD DUP3 PUSH2 0x1DBE JUMP JUMPDEST PUSH1 0x20 DUP3 ADD SWAP1 POP SWAP2 SWAP1 POP JUMP JUMPDEST PUSH0 PUSH1 0x20 DUP3 ADD SWAP1 POP DUP2 DUP2 SUB PUSH0 DUP4 ADD MSTORE PUSH2 0x1E1F DUP2 PUSH2 0x1DE6 JUMP JUMPDEST SWAP1 POP SWAP2 SWAP1 POP JUMP JUMPDEST PUSH0 PUSH1 0x80 DUP3 ADD SWAP1 POP PUSH2 0x1E39 PUSH0 DUP4 ADD DUP8 PUSH2 0x1873 JUMP JUMPDEST PUSH2 0x1E46 PUSH1 0x20 DUP4 ADD DUP7 PUSH2 0x1873 JUMP JUMPDEST PUSH2 0x1E53 PUSH1 0x40 DUP4 ADD DUP6 PUSH2 0x1873 JUMP JUMPDEST PUSH2 0x1E60 PUSH1 0x60 DUP4 ADD DUP5 PUSH2 0x1873 JUMP JUMPDEST SWAP6 SWAP5 POP POP POP POP POP JUMP JUMPDEST PUSH32 0x436F6E747261637420616C72656164792073746F70706564206F7220696E7661 PUSH0 DUP3 ADD MSTORE PUSH32 0x6C69640000000000000000000000000000000000000000000000000000000000 PUSH1 0x20 DUP3 ADD MSTORE POP JUMP JUMPDEST PUSH0 PUSH2 0x1EC3 PUSH1 0x23 DUP4 PUSH2 0x1D46 JUMP JUMPDEST SWAP2 POP PUSH2 0x1ECE DUP3 PUSH2 0x1E69 JUMP JUMPDEST PUSH1 0x40 DUP3 ADD SWAP1 POP SWAP2 SWAP1 POP JUMP JUMPDEST PUSH0 PUSH1 0x20 DUP3 ADD SWAP1 POP DUP2 DUP2 SUB PUSH0 DUP4 ADD MSTORE PUSH2 0x1EF0 DUP2 PUSH2 0x1EB7 JUMP JUMPDEST SWAP1 POP SWAP2 SWAP1 POP JUMP JUMPDEST PUSH0 PUSH2 0x1F01 DUP3 PUSH2 0x1684 JUMP JUMPDEST SWAP2 POP PUSH2 0x1F0C DUP4 PUSH2 0x1684 JUMP JUMPDEST SWAP3 POP DUP3 DUP3 SUB SWAP1 POP DUP2 DUP2 GT ISZERO PUSH2 0x1F24 JUMPI PUSH2 0x1F23 PUSH2 0x199D JUMP JUMPDEST JUMPDEST SWAP3 SWAP2 POP POP JUMP JUMPDEST PUSH0 PUSH1 0x40 DUP3 ADD SWAP1 POP PUSH2 0x1F3D PUSH0 DUP4 ADD DUP6 PUSH2 0x1873 JUMP JUMPDEST PUSH2 0x1F4A PUSH1 0x20 DUP4 ADD DUP5 PUSH2 0x1873 JUMP JUMPDEST SWAP4 SWAP3 POP POP POP JUMP JUMPDEST PUSH32 0x496E76616C6964207769746864726177616C20617474656D7074000000000000 PUSH0 DUP3 ADD MSTORE POP JUMP JUMPDEST PUSH0 PUSH2 0x1F85 PUSH1 0x1A DUP4 PUSH2 0x1D46 JUMP JUMPDEST SWAP2 POP PUSH2 0x1F90 DUP3 PUSH2 0x1F51 JUMP JUMPDEST PUSH1 0x20 DUP3 ADD SWAP1 POP SWAP2 SWAP1 POP JUMP JUMPDEST PUSH0 PUSH1 0x20 DUP3 ADD SWAP1 POP DUP2 DUP2 SUB PUSH0 DUP4 ADD MSTORE PUSH2 0x1FB2 DUP2 PUSH2 0x1F79 JUMP JUMPDEST SWAP1 POP SWAP2 SWAP1 POP JUMP JUMPDEST PUSH0 DUP2 SLOAD SWAP1 POP PUSH2 0x1FC7 DUP2 PUSH2 0x1A48 JUMP JUMPDEST SWAP1 POP SWAP2 SWAP1 POP JUMP JUMPDEST DUP2 DUP2 SUB PUSH2 0x1FDC JUMPI POP POP PUSH2 0x20B1 JUMP JUMPDEST PUSH2 0x1FE5 DUP3 PUSH2 0x1FB9 JUMP JUMPDEST PUSH8 0xFFFFFFFFFFFFFFFF DUP2 GT ISZERO PUSH2 0x1FFE JUMPI PUSH2 0x1FFD PUSH2 0x16CF JUMP JUMPDEST JUMPDEST PUSH2 0x2008 DUP3 SLOAD PUSH2 0x1A48 JUMP JUMPDEST PUSH2 0x2013 DUP3 DUP3 DUP6 PUSH2 0x1B8C JUMP JUMPDEST PUSH0 PUSH1 0x1F DUP4 GT PUSH1 0x1 DUP2 EQ PUSH2 0x2040 JUMPI PUSH0 DUP5 ISZERO PUSH2 0x202E JUMPI DUP3 DUP8 ADD SLOAD SWAP1 POP JUMPDEST PUSH2 0x2038 DUP6 DUP3 PUSH2 0x1BFA JUMP JUMPDEST DUP7 SSTORE POP PUSH2 0x20AA JUMP JUMPDEST PUSH1 0x1F NOT DUP5 AND PUSH2 0x204E DUP8 PUSH2 0x1A78 JUMP JUMPDEST SWAP7 POP PUSH2 0x2059 DUP7 PUSH2 0x1A78 JUMP JUMPDEST PUSH0 JUMPDEST DUP3 DUP2 LT ISZERO PUSH2 0x2080 JUMPI DUP5 DUP10 ADD SLOAD DUP3 SSTORE PUSH1 0x1 DUP3 ADD SWAP2 POP PUSH1 0x1 DUP6 ADD SWAP5 POP PUSH1 0x20 DUP2 ADD SWAP1 POP PUSH2 0x205B JUMP JUMPDEST DUP7 DUP4 LT ISZERO PUSH2 0x209D JUMPI DUP5 DUP10 ADD SLOAD PUSH2 0x2099 PUSH1 0x1F DUP10 AND DUP3 PUSH2 0x1BDE JUMP JUMPDEST DUP4 SSTORE POP JUMPDEST PUSH1 0x1 PUSH1 0x2 DUP9 MUL ADD DUP9 SSTORE POP POP POP JUMPDEST POP POP POP POP POP POP JUMPDEST JUMP JUMPDEST PUSH32 0x4E487B7100000000000000000000000000000000000000000000000000000000 PUSH0 MSTORE PUSH1 0x31 PUSH1 0x4 MSTORE PUSH1 0x24 PUSH0 REVERT JUMPDEST PUSH0 PUSH2 0x20EA DUP3 PUSH2 0x1684 JUMP JUMPDEST SWAP2 POP PUSH2 0x20F5 DUP4 PUSH2 0x1684 JUMP JUMPDEST SWAP3 POP DUP3 DUP3 MUL PUSH2 0x2103 DUP2 PUSH2 0x1684 JUMP JUMPDEST SWAP2 POP DUP3 DUP3 DIV DUP5 EQ DUP4 ISZERO OR PUSH2 0x211A JUMPI PUSH2 0x2119 PUSH2 0x199D JUMP JUMPDEST JUMPDEST POP SWAP3 SWAP2 POP POP JUMP INVALID LOG2 PUSH5 0x6970667358 0x22 SLT KECCAK256 SWAP14 SAR LOG1 0xC9 0xD3 SWAP15 PUSH15 0xA64AE3338876D0F4E077134A469C5 0xB1 0xFC DUP12 SWAP7 0xB4 PUSH5 0x3361047D64 PUSH20 0x6F6C634300081A00330000000000000000000000 "
				},
				"gasEstimates": {
					"creation": {
						"codeDepositCost": "1707000",
						"executionCost": "26055",
						"totalCost": "1733055"
					},
					"external": {
						"cancelBuyOrder(uint256,uint256)": "infinite",
						"cancelSellOrder(uint256,uint256)": "infinite",
						"createBuyOrder(uint256,uint256,string)": "infinite",
						"createSellOrder(uint256,uint256,string)": "infinite",
						"createStorageContract(uint256,uint256,uint256,string)": "infinite",
						"owner()": "2572",
						"startStorageContract(uint256,uint256)": "infinite",
						"stopStorageContract(uint256,uint256)": "infinite",
						"withdrawFromStorageContract(uint256,uint256)": "infinite"
					},
					"internal": {
						"deleteBuyOrderFromArray(uint256)": "infinite",
						"deleteSellOrderFromArray(uint256)": "infinite",
						"deleteStorageContractFromArray(uint256)": "infinite",
						"weiAllowedToWithdraw(uint256)": "infinite"
					}
				},
				"methodIdentifiers": {
					"cancelBuyOrder(uint256,uint256)": "8c748334",
					"cancelSellOrder(uint256,uint256)": "e51dfd90",
					"createBuyOrder(uint256,uint256,string)": "9589d464",
					"createSellOrder(uint256,uint256,string)": "5279371e",
					"createStorageContract(uint256,uint256,uint256,string)": "14d3c7a5",
					"owner()": "8da5cb5b",
					"startStorageContract(uint256,uint256)": "90664d6a",
					"stopStorageContract(uint256,uint256)": "dd23400b",
					"withdrawFromStorageContract(uint256,uint256)": "eb38b7b3"
				}
			},
			"storageLayout": {
				"storage": [
					{
						"astId": 3,
						"contract": "Storage.sol:Storage",
						"label": "owner",
						"offset": 0,
						"slot": "0",
						"type": "t_address"
					},
					{
						"astId": 52,
						"contract": "Storage.sol:Storage",
						"label": "sellOrderId",
						"offset": 0,
						"slot": "1",
						"type": "t_uint256"
					},
					{
						"astId": 54,
						"contract": "Storage.sol:Storage",
						"label": "buyOrderId",
						"offset": 0,
						"slot": "2",
						"type": "t_uint256"
					},
					{
						"astId": 56,
						"contract": "Storage.sol:Storage",
						"label": "storageContractId",
						"offset": 0,
						"slot": "3",
						"type": "t_uint256"
					},
					{
						"astId": 60,
						"contract": "Storage.sol:Storage",
						"label": "sellOrderArr",
						"offset": 0,
						"slot": "4",
						"type": "t_array(t_struct(SellOrder)14_storage)dyn_storage"
					},
					{
						"astId": 64,
						"contract": "Storage.sol:Storage",
						"label": "buyOrderArr",
						"offset": 0,
						"slot": "5",
						"type": "t_array(t_struct(BuyOrder)27_storage)dyn_storage"
					},
					{
						"astId": 68,
						"contract": "Storage.sol:Storage",
						"label": "storageContractArr",
						"offset": 0,
						"slot": "6",
						"type": "t_array(t_struct(StorageContract)50_storage)dyn_storage"
					}
				],
				"types": {
					"t_address": {
						"encoding": "inplace",
						"label": "address",
						"numberOfBytes": "20"
					},
					"t_array(t_struct(BuyOrder)27_storage)dyn_storage": {
						"base": "t_struct(BuyOrder)27_storage",
						"encoding": "dynamic_array",
						"label": "struct Storage.BuyOrder[]",
						"numberOfBytes": "32"
					},
					"t_array(t_struct(SellOrder)14_storage)dyn_storage": {
						"base": "t_struct(SellOrder)14_storage",
						"encoding": "dynamic_array",
						"label": "struct Storage.SellOrder[]",
						"numberOfBytes": "32"
					},
					"t_array(t_struct(StorageContract)50_storage)dyn_storage": {
						"base": "t_struct(StorageContract)50_storage",
						"encoding": "dynamic_array",
						"label": "struct Storage.StorageContract[]",
						"numberOfBytes": "32"
					},
					"t_string_storage": {
						"encoding": "bytes",
						"label": "string",
						"numberOfBytes": "32"
					},
					"t_struct(BuyOrder)27_storage": {
						"encoding": "inplace",
						"label": "struct Storage.BuyOrder",
						"members": [
							{
								"astId": 16,
								"contract": "Storage.sol:Storage",
								"label": "id",
								"offset": 0,
								"slot": "0",
								"type": "t_uint256"
							},
							{
								"astId": 18,
								"contract": "Storage.sol:Storage",
								"label": "DO",
								"offset": 0,
								"slot": "1",
								"type": "t_address"
							},
							{
								"astId": 20,
								"contract": "Storage.sol:Storage",
								"label": "volumeGB",
								"offset": 0,
								"slot": "2",
								"type": "t_uint256"
							},
							{
								"astId": 22,
								"contract": "Storage.sol:Storage",
								"label": "pricePerGB",
								"offset": 0,
								"slot": "3",
								"type": "t_uint256"
							},
							{
								"astId": 24,
								"contract": "Storage.sol:Storage",
								"label": "weiInitialAmount",
								"offset": 0,
								"slot": "4",
								"type": "t_uint256"
							},
							{
								"astId": 26,
								"contract": "Storage.sol:Storage",
								"label": "DOConnectionInfo",
								"offset": 0,
								"slot": "5",
								"type": "t_string_storage"
							}
						],
						"numberOfBytes": "192"
					},
					"t_struct(SellOrder)14_storage": {
						"encoding": "inplace",
						"label": "struct Storage.SellOrder",
						"members": [
							{
								"astId": 5,
								"contract": "Storage.sol:Storage",
								"label": "id",
								"offset": 0,
								"slot": "0",
								"type": "t_uint256"
							},
							{
								"astId": 7,
								"contract": "Storage.sol:Storage",
								"label": "DSO",
								"offset": 0,
								"slot": "1",
								"type": "t_address"
							},
							{
								"astId": 9,
								"contract": "Storage.sol:Storage",
								"label": "volumeGB",
								"offset": 0,
								"slot": "2",
								"type": "t_uint256"
							},
							{
								"astId": 11,
								"contract": "Storage.sol:Storage",
								"label": "pricePerGB",
								"offset": 0,
								"slot": "3",
								"type": "t_uint256"
							},
							{
								"astId": 13,
								"contract": "Storage.sol:Storage",
								"label": "DSOConnectionInfo",
								"offset": 0,
								"slot": "4",
								"type": "t_string_storage"
							}
						],
						"numberOfBytes": "160"
					},
					"t_struct(StorageContract)50_storage": {
						"encoding": "inplace",
						"label": "struct Storage.StorageContract",
						"members": [
							{
								"astId": 29,
								"contract": "Storage.sol:Storage",
								"label": "id",
								"offset": 0,
								"slot": "0",
								"type": "t_uint256"
							},
							{
								"astId": 31,
								"contract": "Storage.sol:Storage",
								"label": "DO",
								"offset": 0,
								"slot": "1",
								"type": "t_address"
							},
							{
								"astId": 33,
								"contract": "Storage.sol:Storage",
								"label": "DSO",
								"offset": 0,
								"slot": "2",
								"type": "t_address"
							},
							{
								"astId": 35,
								"contract": "Storage.sol:Storage",
								"label": "DOConnectionInfo",
								"offset": 0,
								"slot": "3",
								"type": "t_string_storage"
							},
							{
								"astId": 37,
								"contract": "Storage.sol:Storage",
								"label": "DSOConnectionInfo",
								"offset": 0,
								"slot": "4",
								"type": "t_string_storage"
							},
							{
								"astId": 39,
								"contract": "Storage.sol:Storage",
								"label": "volumeGB",
								"offset": 0,
								"slot": "5",
								"type": "t_uint256"
							},
							{
								"astId": 41,
								"contract": "Storage.sol:Storage",
								"label": "startDate",
								"offset": 0,
								"slot": "6",
								"type": "t_uint256"
							},
							{
								"astId": 43,
								"contract": "Storage.sol:Storage",
								"label": "stopDate",
								"offset": 0,
								"slot": "7",
								"type": "t_uint256"
							},
							{
								"astId": 45,
								"contract": "Storage.sol:Storage",
								"label": "pricePerGB",
								"offset": 0,
								"slot": "8",
								"type": "t_uint256"
							},
							{
								"astId": 47,
								"contract": "Storage.sol:Storage",
								"label": "weiLeftToWithdraw",
								"offset": 0,
								"slot": "9",
								"type": "t_uint256"
							},
							{
								"astId": 49,
								"contract": "Storage.sol:Storage",
								"label": "withdrawedAtDate",
								"offset": 0,
								"slot": "10",
								"type": "t_uint256"
							}
						],
						"numberOfBytes": "352"
					},
					"t_uint256": {
						"encoding": "inplace",
						"label": "uint256",
						"numberOfBytes": "32"
					}
				}
			},
			"userdoc": {
				"kind": "user",
				"methods": {},
				"version": 1
			}
		}
	}
}